{
  "contracts/eventFactory.sol": {
    "eventFactory": {
      "abi": [
        {
          "inputs": [
            {
              "internalType": "address",
              "name": "_logAddress",
              "type": "address"
            }
          ],
          "stateMutability": "nonpayable",
          "type": "constructor"
        },
        {
          "inputs": [
            {
              "internalType": "string",
              "name": "_eventName",
              "type": "string"
            },
            {
              "internalType": "uint32",
              "name": "_numberOfTickets",
              "type": "uint32"
            },
            {
              "internalType": "uint32",
              "name": "_ticketPrice",
              "type": "uint32"
            }
          ],
          "name": "createEventGame",
          "outputs": [],
          "stateMutability": "nonpayable",
          "type": "function"
        }
      ],
      "evm": {
        "bytecode": {
          "linkReferences": {},
          "object": "60a060405234801561001057600080fd5b50604051610e25380380610e2583398101604081905261002f91610044565b60601b6001600160601b031916608052610072565b600060208284031215610055578081fd5b81516001600160a01b038116811461006b578182fd5b9392505050565b60805160601c610d906100956000396000818160490152606e0152610d906000f3fe608060405234801561001057600080fd5b506004361061002b5760003560e01c806372391bed14610030575b600080fd5b61004361003e366004610174565b610045565b005b60007f0000000000000000000000000000000000000000000000000000000000000000905060007f0000000000000000000000000000000000000000000000000000000000000000843360405161009b9061014e565b6001600160a01b03938416815263ffffffff9092166020830152919091166040820152606001604051809103906000f0801580156100dd573d6000803e3d6000fd5b50604051632cd9e38960e01b81529091506001600160a01b03831690632cd9e38990610115908890859033908a908a90600401610241565b600060405180830381600087803b15801561012f57600080fd5b505af1158015610143573d6000803e3d6000fd5b505050505050505050565b610a75806102e683390190565b803563ffffffff8116811461016f57600080fd5b919050565b600080600060608486031215610188578283fd5b833567ffffffffffffffff8082111561019f578485fd5b818601915086601f8301126101b2578485fd5b8135818111156101c4576101c46102cf565b604051601f8201601f19908116603f011681019083821181831017156101ec576101ec6102cf565b81604052828152896020848701011115610204578788fd5b826020860160208301378760208483010152809750505050505061022a6020850161015b565b91506102386040850161015b565b90509250925092565b60a08152600086518060a0840152815b8181101561026e576020818a0181015160c0868401015201610251565b8181111561027f578260c083860101525b50601f01601f1916820160c00190506102a360208301876001600160a01b03169052565b6001600160a01b0394909416604082015263ffffffff9283166060820152911660809091015292915050565b634e487b7160e01b600052604160045260246000fdfe60c06040526002805460ff1916600117905534801561001d57600080fd5b50604051610a75380380610a7583398101604081905261003c916100d6565b6100453361006a565b6001600160601b0319606093841b811660805260019290925590911b1660a052610111565b600080546001600160a01b038381166001600160a01b0319831681178455604051919092169283917f8be0079c531659141344cd1fd0a4f28419497f9722a3daafe3b4186f6b6457e09190a35050565b80516001600160a01b03811681146100d157600080fd5b919050565b6000806000606084860312156100ea578283fd5b6100f3846100ba565b925060208401519150610108604085016100ba565b90509250925092565b60805160601c60a05160601c610932610143600039600061020201526000818161019d015261038a01526109326000f3fe608060405234801561001057600080fd5b50600436106100ea5760003560e01c80638da5cb5b1161008c578063bc3c09c411610066578063bc3c09c4146101d2578063d65ab5f2146101f5578063e3978240146101fd578063f2fde38b1461022457600080fd5b80638da5cb5b1461018757806398cc424a146101985780639d5b24c0146101bf57600080fd5b8063715018a6116100c8578063715018a614610128578063756cd579146101305780637f19ce7d1461015b5780638c20a3651461017857600080fd5b80631aa3a008146100ef57806335317ad4146100f95780633b024e7514610115575b600080fd5b6100f7610237565b005b61010260015481565b6040519081526020015b60405180910390f35b6100f76101233660046106dd565b610351565b6100f7610413565b61014361013e3660046107aa565b610449565b6040516001600160a01b03909116815260200161010c565b6002546101689060ff1681565b604051901515815260200161010c565b6040516000815260200161010c565b6000546001600160a01b0316610143565b6101437f000000000000000000000000000000000000000000000000000000000000000081565b6101436101cd3660046107aa565b610473565b6101686101e03660046106af565b60046020526000908152604090205460ff1681565b6100f7610483565b6101437f000000000000000000000000000000000000000000000000000000000000000081565b6100f76102323660046106af565b6104db565b60025460ff1615156001146102935760405162461bcd60e51b815260206004820152601a60248201527f526567697374726174696f6e206e6f74206f70656e207965742100000000000060448201526064015b60405180910390fd5b3360009081526004602052604090205460ff16156102f35760405162461bcd60e51b815260206004820152601c60248201527f596f75206861766520616c726561647920726567697374657265642100000000604482015260640161028a565b336000818152600460205260408120805460ff191660019081179091556003805491820181559091527fc2575a0e9e593c00f959f8c92f12db2869c3395a3b0502d05e2516446f71f85b0180546001600160a01b0319169091179055565b6000546001600160a01b0316331461037b5760405162461bcd60e51b815260040161028a90610850565b604051632cd9e38960e01b81527f0000000000000000000000000000000000000000000000000000000000000000906001600160a01b03821690632cd9e389906103d190879030903390899089906004016107c2565b600060405180830381600087803b1580156103eb57600080fd5b505af11580156103ff573d6000803e3d6000fd5b50505063ffffffff90931660015550505050565b6000546001600160a01b0316331461043d5760405162461bcd60e51b815260040161028a90610850565b610447600061056f565b565b6005818154811061045957600080fd5b6000918252602090912001546001600160a01b0316905081565b6003818154811061045957600080fd5b6000546001600160a01b031633146104ad5760405162461bcd60e51b815260040161028a90610850565b6104b56105bf565b600154600354116104d357600380546104d091600591610631565b50565b6104476105db565b6000546001600160a01b031633146105055760405162461bcd60e51b815260040161028a90610850565b6001600160a01b03811661056a5760405162461bcd60e51b815260206004820152602660248201527f4f776e61626c653a206e6577206f776e657220697320746865207a65726f206160448201526564647265737360d01b606482015260840161028a565b6104d0815b600080546001600160a01b038381166001600160a01b0319831681178455604051919092169283917f8be0079c531659141344cd1fd0a4f28419497f9722a3daafe3b4186f6b6457e09190a35050565b60025460ff16151560011415610447576002805460ff19169055565b6001546003546000916105ed916108bc565b600154600354919250600091610604908490610899565b61060e9190610885565b90506106198161061d565b5050565b60008061062b600184610899565b50505050565b8280548282559060005260206000209081019282156106715760005260206000209182015b82811115610671578254825591600101919060010190610656565b5061067d929150610681565b5090565b5b8082111561067d5760008155600101610682565b803563ffffffff811681146106aa57600080fd5b919050565b6000602082840312156106c0578081fd5b81356001600160a01b03811681146106d6578182fd5b9392505050565b6000806000606084860312156106f1578182fd5b833567ffffffffffffffff80821115610708578384fd5b818601915086601f83011261071b578384fd5b81358181111561072d5761072d6108e6565b604051601f8201601f19908116603f01168101908382118183101715610755576107556108e6565b8160405282815289602084870101111561076d578687fd5b826020860160208301378660208483010152809750505050505061079360208501610696565b91506107a160408501610696565b90509250925092565b6000602082840312156107bb578081fd5b5035919050565b60a08152600086518060a0840152815b818110156107ef576020818a0181015160c08684010152016107d2565b81811115610800578260c083860101525b50601f01601f1916820160c001905061082460208301876001600160a01b03169052565b6001600160a01b0394909416604082015263ffffffff9283166060820152911660809091015292915050565b6020808252818101527f4f776e61626c653a2063616c6c6572206973206e6f7420746865206f776e6572604082015260600190565b600082610894576108946108d0565b500490565b6000828210156108b757634e487b7160e01b81526011600452602481fd5b500390565b6000826108cb576108cb6108d0565b500690565b634e487b7160e01b600052601260045260246000fd5b634e487b7160e01b600052604160045260246000fdfea2646970667358221220c71db02403b4cfa8978b24971907323010ca89874fd6cbdf5707732f9254f67064736f6c63430008040033a2646970667358221220647b80c350f69e76e7caeb048064e4efc336fd69e53e8b13018bb4d6a4b373f164736f6c63430008040033",
          "opcodes": "PUSH1 0xA0 PUSH1 0x40 MSTORE CALLVALUE DUP1 ISZERO PUSH2 0x10 JUMPI PUSH1 0x0 DUP1 REVERT JUMPDEST POP PUSH1 0x40 MLOAD PUSH2 0xE25 CODESIZE SUB DUP1 PUSH2 0xE25 DUP4 CODECOPY DUP2 ADD PUSH1 0x40 DUP2 SWAP1 MSTORE PUSH2 0x2F SWAP2 PUSH2 0x44 JUMP JUMPDEST PUSH1 0x60 SHL PUSH1 0x1 PUSH1 0x1 PUSH1 0x60 SHL SUB NOT AND PUSH1 0x80 MSTORE PUSH2 0x72 JUMP JUMPDEST PUSH1 0x0 PUSH1 0x20 DUP3 DUP5 SUB SLT ISZERO PUSH2 0x55 JUMPI DUP1 DUP2 REVERT JUMPDEST DUP2 MLOAD PUSH1 0x1 PUSH1 0x1 PUSH1 0xA0 SHL SUB DUP2 AND DUP2 EQ PUSH2 0x6B JUMPI DUP2 DUP3 REVERT JUMPDEST SWAP4 SWAP3 POP POP POP JUMP JUMPDEST PUSH1 0x80 MLOAD PUSH1 0x60 SHR PUSH2 0xD90 PUSH2 0x95 PUSH1 0x0 CODECOPY PUSH1 0x0 DUP2 DUP2 PUSH1 0x49 ADD MSTORE PUSH1 0x6E ADD MSTORE PUSH2 0xD90 PUSH1 0x0 RETURN INVALID PUSH1 0x80 PUSH1 0x40 MSTORE CALLVALUE DUP1 ISZERO PUSH2 0x10 JUMPI PUSH1 0x0 DUP1 REVERT JUMPDEST POP PUSH1 0x4 CALLDATASIZE LT PUSH2 0x2B JUMPI PUSH1 0x0 CALLDATALOAD PUSH1 0xE0 SHR DUP1 PUSH4 0x72391BED EQ PUSH2 0x30 JUMPI JUMPDEST PUSH1 0x0 DUP1 REVERT JUMPDEST PUSH2 0x43 PUSH2 0x3E CALLDATASIZE PUSH1 0x4 PUSH2 0x174 JUMP JUMPDEST PUSH2 0x45 JUMP JUMPDEST STOP JUMPDEST PUSH1 0x0 PUSH32 0x0 SWAP1 POP PUSH1 0x0 PUSH32 0x0 DUP5 CALLER PUSH1 0x40 MLOAD PUSH2 0x9B SWAP1 PUSH2 0x14E JUMP JUMPDEST PUSH1 0x1 PUSH1 0x1 PUSH1 0xA0 SHL SUB SWAP4 DUP5 AND DUP2 MSTORE PUSH4 0xFFFFFFFF SWAP1 SWAP3 AND PUSH1 0x20 DUP4 ADD MSTORE SWAP2 SWAP1 SWAP2 AND PUSH1 0x40 DUP3 ADD MSTORE PUSH1 0x60 ADD PUSH1 0x40 MLOAD DUP1 SWAP2 SUB SWAP1 PUSH1 0x0 CREATE DUP1 ISZERO DUP1 ISZERO PUSH2 0xDD JUMPI RETURNDATASIZE PUSH1 0x0 DUP1 RETURNDATACOPY RETURNDATASIZE PUSH1 0x0 REVERT JUMPDEST POP PUSH1 0x40 MLOAD PUSH4 0x2CD9E389 PUSH1 0xE0 SHL DUP2 MSTORE SWAP1 SWAP2 POP PUSH1 0x1 PUSH1 0x1 PUSH1 0xA0 SHL SUB DUP4 AND SWAP1 PUSH4 0x2CD9E389 SWAP1 PUSH2 0x115 SWAP1 DUP9 SWAP1 DUP6 SWAP1 CALLER SWAP1 DUP11 SWAP1 DUP11 SWAP1 PUSH1 0x4 ADD PUSH2 0x241 JUMP JUMPDEST PUSH1 0x0 PUSH1 0x40 MLOAD DUP1 DUP4 SUB DUP2 PUSH1 0x0 DUP8 DUP1 EXTCODESIZE ISZERO DUP1 ISZERO PUSH2 0x12F JUMPI PUSH1 0x0 DUP1 REVERT JUMPDEST POP GAS CALL ISZERO DUP1 ISZERO PUSH2 0x143 JUMPI RETURNDATASIZE PUSH1 0x0 DUP1 RETURNDATACOPY RETURNDATASIZE PUSH1 0x0 REVERT JUMPDEST POP POP POP POP POP POP POP POP POP JUMP JUMPDEST PUSH2 0xA75 DUP1 PUSH2 0x2E6 DUP4 CODECOPY ADD SWAP1 JUMP JUMPDEST DUP1 CALLDATALOAD PUSH4 0xFFFFFFFF DUP2 AND DUP2 EQ PUSH2 0x16F JUMPI PUSH1 0x0 DUP1 REVERT JUMPDEST SWAP2 SWAP1 POP JUMP JUMPDEST PUSH1 0x0 DUP1 PUSH1 0x0 PUSH1 0x60 DUP5 DUP7 SUB SLT ISZERO PUSH2 0x188 JUMPI DUP3 DUP4 REVERT JUMPDEST DUP4 CALLDATALOAD PUSH8 0xFFFFFFFFFFFFFFFF DUP1 DUP3 GT ISZERO PUSH2 0x19F JUMPI DUP5 DUP6 REVERT JUMPDEST DUP2 DUP7 ADD SWAP2 POP DUP7 PUSH1 0x1F DUP4 ADD SLT PUSH2 0x1B2 JUMPI DUP5 DUP6 REVERT JUMPDEST DUP2 CALLDATALOAD DUP2 DUP2 GT ISZERO PUSH2 0x1C4 JUMPI PUSH2 0x1C4 PUSH2 0x2CF JUMP JUMPDEST PUSH1 0x40 MLOAD PUSH1 0x1F DUP3 ADD PUSH1 0x1F NOT SWAP1 DUP2 AND PUSH1 0x3F ADD AND DUP2 ADD SWAP1 DUP4 DUP3 GT DUP2 DUP4 LT OR ISZERO PUSH2 0x1EC JUMPI PUSH2 0x1EC PUSH2 0x2CF JUMP JUMPDEST DUP2 PUSH1 0x40 MSTORE DUP3 DUP2 MSTORE DUP10 PUSH1 0x20 DUP5 DUP8 ADD ADD GT ISZERO PUSH2 0x204 JUMPI DUP8 DUP9 REVERT JUMPDEST DUP3 PUSH1 0x20 DUP7 ADD PUSH1 0x20 DUP4 ADD CALLDATACOPY DUP8 PUSH1 0x20 DUP5 DUP4 ADD ADD MSTORE DUP1 SWAP8 POP POP POP POP POP POP PUSH2 0x22A PUSH1 0x20 DUP6 ADD PUSH2 0x15B JUMP JUMPDEST SWAP2 POP PUSH2 0x238 PUSH1 0x40 DUP6 ADD PUSH2 0x15B JUMP JUMPDEST SWAP1 POP SWAP3 POP SWAP3 POP SWAP3 JUMP JUMPDEST PUSH1 0xA0 DUP2 MSTORE PUSH1 0x0 DUP7 MLOAD DUP1 PUSH1 0xA0 DUP5 ADD MSTORE DUP2 JUMPDEST DUP2 DUP2 LT ISZERO PUSH2 0x26E JUMPI PUSH1 0x20 DUP2 DUP11 ADD DUP2 ADD MLOAD PUSH1 0xC0 DUP7 DUP5 ADD ADD MSTORE ADD PUSH2 0x251 JUMP JUMPDEST DUP2 DUP2 GT ISZERO PUSH2 0x27F JUMPI DUP3 PUSH1 0xC0 DUP4 DUP7 ADD ADD MSTORE JUMPDEST POP PUSH1 0x1F ADD PUSH1 0x1F NOT AND DUP3 ADD PUSH1 0xC0 ADD SWAP1 POP PUSH2 0x2A3 PUSH1 0x20 DUP4 ADD DUP8 PUSH1 0x1 PUSH1 0x1 PUSH1 0xA0 SHL SUB AND SWAP1 MSTORE JUMP JUMPDEST PUSH1 0x1 PUSH1 0x1 PUSH1 0xA0 SHL SUB SWAP5 SWAP1 SWAP5 AND PUSH1 0x40 DUP3 ADD MSTORE PUSH4 0xFFFFFFFF SWAP3 DUP4 AND PUSH1 0x60 DUP3 ADD MSTORE SWAP2 AND PUSH1 0x80 SWAP1 SWAP2 ADD MSTORE SWAP3 SWAP2 POP POP JUMP JUMPDEST PUSH4 0x4E487B71 PUSH1 0xE0 SHL PUSH1 0x0 MSTORE PUSH1 0x41 PUSH1 0x4 MSTORE PUSH1 0x24 PUSH1 0x0 REVERT INVALID PUSH1 0xC0 PUSH1 0x40 MSTORE PUSH1 0x2 DUP1 SLOAD PUSH1 0xFF NOT AND PUSH1 0x1 OR SWAP1 SSTORE CALLVALUE DUP1 ISZERO PUSH2 0x1D JUMPI PUSH1 0x0 DUP1 REVERT JUMPDEST POP PUSH1 0x40 MLOAD PUSH2 0xA75 CODESIZE SUB DUP1 PUSH2 0xA75 DUP4 CODECOPY DUP2 ADD PUSH1 0x40 DUP2 SWAP1 MSTORE PUSH2 0x3C SWAP2 PUSH2 0xD6 JUMP JUMPDEST PUSH2 0x45 CALLER PUSH2 0x6A JUMP JUMPDEST PUSH1 0x1 PUSH1 0x1 PUSH1 0x60 SHL SUB NOT PUSH1 0x60 SWAP4 DUP5 SHL DUP2 AND PUSH1 0x80 MSTORE PUSH1 0x1 SWAP3 SWAP1 SWAP3 SSTORE SWAP1 SWAP2 SHL AND PUSH1 0xA0 MSTORE PUSH2 0x111 JUMP JUMPDEST PUSH1 0x0 DUP1 SLOAD PUSH1 0x1 PUSH1 0x1 PUSH1 0xA0 SHL SUB DUP4 DUP2 AND PUSH1 0x1 PUSH1 0x1 PUSH1 0xA0 SHL SUB NOT DUP4 AND DUP2 OR DUP5 SSTORE PUSH1 0x40 MLOAD SWAP2 SWAP1 SWAP3 AND SWAP3 DUP4 SWAP2 PUSH32 0x8BE0079C531659141344CD1FD0A4F28419497F9722A3DAAFE3B4186F6B6457E0 SWAP2 SWAP1 LOG3 POP POP JUMP JUMPDEST DUP1 MLOAD PUSH1 0x1 PUSH1 0x1 PUSH1 0xA0 SHL SUB DUP2 AND DUP2 EQ PUSH2 0xD1 JUMPI PUSH1 0x0 DUP1 REVERT JUMPDEST SWAP2 SWAP1 POP JUMP JUMPDEST PUSH1 0x0 DUP1 PUSH1 0x0 PUSH1 0x60 DUP5 DUP7 SUB SLT ISZERO PUSH2 0xEA JUMPI DUP3 DUP4 REVERT JUMPDEST PUSH2 0xF3 DUP5 PUSH2 0xBA JUMP JUMPDEST SWAP3 POP PUSH1 0x20 DUP5 ADD MLOAD SWAP2 POP PUSH2 0x108 PUSH1 0x40 DUP6 ADD PUSH2 0xBA JUMP JUMPDEST SWAP1 POP SWAP3 POP SWAP3 POP SWAP3 JUMP JUMPDEST PUSH1 0x80 MLOAD PUSH1 0x60 SHR PUSH1 0xA0 MLOAD PUSH1 0x60 SHR PUSH2 0x932 PUSH2 0x143 PUSH1 0x0 CODECOPY PUSH1 0x0 PUSH2 0x202 ADD MSTORE PUSH1 0x0 DUP2 DUP2 PUSH2 0x19D ADD MSTORE PUSH2 0x38A ADD MSTORE PUSH2 0x932 PUSH1 0x0 RETURN INVALID PUSH1 0x80 PUSH1 0x40 MSTORE CALLVALUE DUP1 ISZERO PUSH2 0x10 JUMPI PUSH1 0x0 DUP1 REVERT JUMPDEST POP PUSH1 0x4 CALLDATASIZE LT PUSH2 0xEA JUMPI PUSH1 0x0 CALLDATALOAD PUSH1 0xE0 SHR DUP1 PUSH4 0x8DA5CB5B GT PUSH2 0x8C JUMPI DUP1 PUSH4 0xBC3C09C4 GT PUSH2 0x66 JUMPI DUP1 PUSH4 0xBC3C09C4 EQ PUSH2 0x1D2 JUMPI DUP1 PUSH4 0xD65AB5F2 EQ PUSH2 0x1F5 JUMPI DUP1 PUSH4 0xE3978240 EQ PUSH2 0x1FD JUMPI DUP1 PUSH4 0xF2FDE38B EQ PUSH2 0x224 JUMPI PUSH1 0x0 DUP1 REVERT JUMPDEST DUP1 PUSH4 0x8DA5CB5B EQ PUSH2 0x187 JUMPI DUP1 PUSH4 0x98CC424A EQ PUSH2 0x198 JUMPI DUP1 PUSH4 0x9D5B24C0 EQ PUSH2 0x1BF JUMPI PUSH1 0x0 DUP1 REVERT JUMPDEST DUP1 PUSH4 0x715018A6 GT PUSH2 0xC8 JUMPI DUP1 PUSH4 0x715018A6 EQ PUSH2 0x128 JUMPI DUP1 PUSH4 0x756CD579 EQ PUSH2 0x130 JUMPI DUP1 PUSH4 0x7F19CE7D EQ PUSH2 0x15B JUMPI DUP1 PUSH4 0x8C20A365 EQ PUSH2 0x178 JUMPI PUSH1 0x0 DUP1 REVERT JUMPDEST DUP1 PUSH4 0x1AA3A008 EQ PUSH2 0xEF JUMPI DUP1 PUSH4 0x35317AD4 EQ PUSH2 0xF9 JUMPI DUP1 PUSH4 0x3B024E75 EQ PUSH2 0x115 JUMPI JUMPDEST PUSH1 0x0 DUP1 REVERT JUMPDEST PUSH2 0xF7 PUSH2 0x237 JUMP JUMPDEST STOP JUMPDEST PUSH2 0x102 PUSH1 0x1 SLOAD DUP2 JUMP JUMPDEST PUSH1 0x40 MLOAD SWAP1 DUP2 MSTORE PUSH1 0x20 ADD JUMPDEST PUSH1 0x40 MLOAD DUP1 SWAP2 SUB SWAP1 RETURN JUMPDEST PUSH2 0xF7 PUSH2 0x123 CALLDATASIZE PUSH1 0x4 PUSH2 0x6DD JUMP JUMPDEST PUSH2 0x351 JUMP JUMPDEST PUSH2 0xF7 PUSH2 0x413 JUMP JUMPDEST PUSH2 0x143 PUSH2 0x13E CALLDATASIZE PUSH1 0x4 PUSH2 0x7AA JUMP JUMPDEST PUSH2 0x449 JUMP JUMPDEST PUSH1 0x40 MLOAD PUSH1 0x1 PUSH1 0x1 PUSH1 0xA0 SHL SUB SWAP1 SWAP2 AND DUP2 MSTORE PUSH1 0x20 ADD PUSH2 0x10C JUMP JUMPDEST PUSH1 0x2 SLOAD PUSH2 0x168 SWAP1 PUSH1 0xFF AND DUP2 JUMP JUMPDEST PUSH1 0x40 MLOAD SWAP1 ISZERO ISZERO DUP2 MSTORE PUSH1 0x20 ADD PUSH2 0x10C JUMP JUMPDEST PUSH1 0x40 MLOAD PUSH1 0x0 DUP2 MSTORE PUSH1 0x20 ADD PUSH2 0x10C JUMP JUMPDEST PUSH1 0x0 SLOAD PUSH1 0x1 PUSH1 0x1 PUSH1 0xA0 SHL SUB AND PUSH2 0x143 JUMP JUMPDEST PUSH2 0x143 PUSH32 0x0 DUP2 JUMP JUMPDEST PUSH2 0x143 PUSH2 0x1CD CALLDATASIZE PUSH1 0x4 PUSH2 0x7AA JUMP JUMPDEST PUSH2 0x473 JUMP JUMPDEST PUSH2 0x168 PUSH2 0x1E0 CALLDATASIZE PUSH1 0x4 PUSH2 0x6AF JUMP JUMPDEST PUSH1 0x4 PUSH1 0x20 MSTORE PUSH1 0x0 SWAP1 DUP2 MSTORE PUSH1 0x40 SWAP1 KECCAK256 SLOAD PUSH1 0xFF AND DUP2 JUMP JUMPDEST PUSH2 0xF7 PUSH2 0x483 JUMP JUMPDEST PUSH2 0x143 PUSH32 0x0 DUP2 JUMP JUMPDEST PUSH2 0xF7 PUSH2 0x232 CALLDATASIZE PUSH1 0x4 PUSH2 0x6AF JUMP JUMPDEST PUSH2 0x4DB JUMP JUMPDEST PUSH1 0x2 SLOAD PUSH1 0xFF AND ISZERO ISZERO PUSH1 0x1 EQ PUSH2 0x293 JUMPI PUSH1 0x40 MLOAD PUSH3 0x461BCD PUSH1 0xE5 SHL DUP2 MSTORE PUSH1 0x20 PUSH1 0x4 DUP3 ADD MSTORE PUSH1 0x1A PUSH1 0x24 DUP3 ADD MSTORE PUSH32 0x526567697374726174696F6E206E6F74206F70656E2079657421000000000000 PUSH1 0x44 DUP3 ADD MSTORE PUSH1 0x64 ADD JUMPDEST PUSH1 0x40 MLOAD DUP1 SWAP2 SUB SWAP1 REVERT JUMPDEST CALLER PUSH1 0x0 SWAP1 DUP2 MSTORE PUSH1 0x4 PUSH1 0x20 MSTORE PUSH1 0x40 SWAP1 KECCAK256 SLOAD PUSH1 0xFF AND ISZERO PUSH2 0x2F3 JUMPI PUSH1 0x40 MLOAD PUSH3 0x461BCD PUSH1 0xE5 SHL DUP2 MSTORE PUSH1 0x20 PUSH1 0x4 DUP3 ADD MSTORE PUSH1 0x1C PUSH1 0x24 DUP3 ADD MSTORE PUSH32 0x596F75206861766520616C726561647920726567697374657265642100000000 PUSH1 0x44 DUP3 ADD MSTORE PUSH1 0x64 ADD PUSH2 0x28A JUMP JUMPDEST CALLER PUSH1 0x0 DUP2 DUP2 MSTORE PUSH1 0x4 PUSH1 0x20 MSTORE PUSH1 0x40 DUP2 KECCAK256 DUP1 SLOAD PUSH1 0xFF NOT AND PUSH1 0x1 SWAP1 DUP2 OR SWAP1 SWAP2 SSTORE PUSH1 0x3 DUP1 SLOAD SWAP2 DUP3 ADD DUP2 SSTORE SWAP1 SWAP2 MSTORE PUSH32 0xC2575A0E9E593C00F959F8C92F12DB2869C3395A3B0502D05E2516446F71F85B ADD DUP1 SLOAD PUSH1 0x1 PUSH1 0x1 PUSH1 0xA0 SHL SUB NOT AND SWAP1 SWAP2 OR SWAP1 SSTORE JUMP JUMPDEST PUSH1 0x0 SLOAD PUSH1 0x1 PUSH1 0x1 PUSH1 0xA0 SHL SUB AND CALLER EQ PUSH2 0x37B JUMPI PUSH1 0x40 MLOAD PUSH3 0x461BCD PUSH1 0xE5 SHL DUP2 MSTORE PUSH1 0x4 ADD PUSH2 0x28A SWAP1 PUSH2 0x850 JUMP JUMPDEST PUSH1 0x40 MLOAD PUSH4 0x2CD9E389 PUSH1 0xE0 SHL DUP2 MSTORE PUSH32 0x0 SWAP1 PUSH1 0x1 PUSH1 0x1 PUSH1 0xA0 SHL SUB DUP3 AND SWAP1 PUSH4 0x2CD9E389 SWAP1 PUSH2 0x3D1 SWAP1 DUP8 SWAP1 ADDRESS SWAP1 CALLER SWAP1 DUP10 SWAP1 DUP10 SWAP1 PUSH1 0x4 ADD PUSH2 0x7C2 JUMP JUMPDEST PUSH1 0x0 PUSH1 0x40 MLOAD DUP1 DUP4 SUB DUP2 PUSH1 0x0 DUP8 DUP1 EXTCODESIZE ISZERO DUP1 ISZERO PUSH2 0x3EB JUMPI PUSH1 0x0 DUP1 REVERT JUMPDEST POP GAS CALL ISZERO DUP1 ISZERO PUSH2 0x3FF JUMPI RETURNDATASIZE PUSH1 0x0 DUP1 RETURNDATACOPY RETURNDATASIZE PUSH1 0x0 REVERT JUMPDEST POP POP POP PUSH4 0xFFFFFFFF SWAP1 SWAP4 AND PUSH1 0x1 SSTORE POP POP POP POP JUMP JUMPDEST PUSH1 0x0 SLOAD PUSH1 0x1 PUSH1 0x1 PUSH1 0xA0 SHL SUB AND CALLER EQ PUSH2 0x43D JUMPI PUSH1 0x40 MLOAD PUSH3 0x461BCD PUSH1 0xE5 SHL DUP2 MSTORE PUSH1 0x4 ADD PUSH2 0x28A SWAP1 PUSH2 0x850 JUMP JUMPDEST PUSH2 0x447 PUSH1 0x0 PUSH2 0x56F JUMP JUMPDEST JUMP JUMPDEST PUSH1 0x5 DUP2 DUP2 SLOAD DUP2 LT PUSH2 0x459 JUMPI PUSH1 0x0 DUP1 REVERT JUMPDEST PUSH1 0x0 SWAP2 DUP3 MSTORE PUSH1 0x20 SWAP1 SWAP2 KECCAK256 ADD SLOAD PUSH1 0x1 PUSH1 0x1 PUSH1 0xA0 SHL SUB AND SWAP1 POP DUP2 JUMP JUMPDEST PUSH1 0x3 DUP2 DUP2 SLOAD DUP2 LT PUSH2 0x459 JUMPI PUSH1 0x0 DUP1 REVERT JUMPDEST PUSH1 0x0 SLOAD PUSH1 0x1 PUSH1 0x1 PUSH1 0xA0 SHL SUB AND CALLER EQ PUSH2 0x4AD JUMPI PUSH1 0x40 MLOAD PUSH3 0x461BCD PUSH1 0xE5 SHL DUP2 MSTORE PUSH1 0x4 ADD PUSH2 0x28A SWAP1 PUSH2 0x850 JUMP JUMPDEST PUSH2 0x4B5 PUSH2 0x5BF JUMP JUMPDEST PUSH1 0x1 SLOAD PUSH1 0x3 SLOAD GT PUSH2 0x4D3 JUMPI PUSH1 0x3 DUP1 SLOAD PUSH2 0x4D0 SWAP2 PUSH1 0x5 SWAP2 PUSH2 0x631 JUMP JUMPDEST POP JUMP JUMPDEST PUSH2 0x447 PUSH2 0x5DB JUMP JUMPDEST PUSH1 0x0 SLOAD PUSH1 0x1 PUSH1 0x1 PUSH1 0xA0 SHL SUB AND CALLER EQ PUSH2 0x505 JUMPI PUSH1 0x40 MLOAD PUSH3 0x461BCD PUSH1 0xE5 SHL DUP2 MSTORE PUSH1 0x4 ADD PUSH2 0x28A SWAP1 PUSH2 0x850 JUMP JUMPDEST PUSH1 0x1 PUSH1 0x1 PUSH1 0xA0 SHL SUB DUP2 AND PUSH2 0x56A JUMPI PUSH1 0x40 MLOAD PUSH3 0x461BCD PUSH1 0xE5 SHL DUP2 MSTORE PUSH1 0x20 PUSH1 0x4 DUP3 ADD MSTORE PUSH1 0x26 PUSH1 0x24 DUP3 ADD MSTORE PUSH32 0x4F776E61626C653A206E6577206F776E657220697320746865207A65726F2061 PUSH1 0x44 DUP3 ADD MSTORE PUSH6 0x646472657373 PUSH1 0xD0 SHL PUSH1 0x64 DUP3 ADD MSTORE PUSH1 0x84 ADD PUSH2 0x28A JUMP JUMPDEST PUSH2 0x4D0 DUP2 JUMPDEST PUSH1 0x0 DUP1 SLOAD PUSH1 0x1 PUSH1 0x1 PUSH1 0xA0 SHL SUB DUP4 DUP2 AND PUSH1 0x1 PUSH1 0x1 PUSH1 0xA0 SHL SUB NOT DUP4 AND DUP2 OR DUP5 SSTORE PUSH1 0x40 MLOAD SWAP2 SWAP1 SWAP3 AND SWAP3 DUP4 SWAP2 PUSH32 0x8BE0079C531659141344CD1FD0A4F28419497F9722A3DAAFE3B4186F6B6457E0 SWAP2 SWAP1 LOG3 POP POP JUMP JUMPDEST PUSH1 0x2 SLOAD PUSH1 0xFF AND ISZERO ISZERO PUSH1 0x1 EQ ISZERO PUSH2 0x447 JUMPI PUSH1 0x2 DUP1 SLOAD PUSH1 0xFF NOT AND SWAP1 SSTORE JUMP JUMPDEST PUSH1 0x1 SLOAD PUSH1 0x3 SLOAD PUSH1 0x0 SWAP2 PUSH2 0x5ED SWAP2 PUSH2 0x8BC JUMP JUMPDEST PUSH1 0x1 SLOAD PUSH1 0x3 SLOAD SWAP2 SWAP3 POP PUSH1 0x0 SWAP2 PUSH2 0x604 SWAP1 DUP5 SWAP1 PUSH2 0x899 JUMP JUMPDEST PUSH2 0x60E SWAP2 SWAP1 PUSH2 0x885 JUMP JUMPDEST SWAP1 POP PUSH2 0x619 DUP2 PUSH2 0x61D JUMP JUMPDEST POP POP JUMP JUMPDEST PUSH1 0x0 DUP1 PUSH2 0x62B PUSH1 0x1 DUP5 PUSH2 0x899 JUMP JUMPDEST POP POP POP POP JUMP JUMPDEST DUP3 DUP1 SLOAD DUP3 DUP3 SSTORE SWAP1 PUSH1 0x0 MSTORE PUSH1 0x20 PUSH1 0x0 KECCAK256 SWAP1 DUP2 ADD SWAP3 DUP3 ISZERO PUSH2 0x671 JUMPI PUSH1 0x0 MSTORE PUSH1 0x20 PUSH1 0x0 KECCAK256 SWAP2 DUP3 ADD JUMPDEST DUP3 DUP2 GT ISZERO PUSH2 0x671 JUMPI DUP3 SLOAD DUP3 SSTORE SWAP2 PUSH1 0x1 ADD SWAP2 SWAP1 PUSH1 0x1 ADD SWAP1 PUSH2 0x656 JUMP JUMPDEST POP PUSH2 0x67D SWAP3 SWAP2 POP PUSH2 0x681 JUMP JUMPDEST POP SWAP1 JUMP JUMPDEST JUMPDEST DUP1 DUP3 GT ISZERO PUSH2 0x67D JUMPI PUSH1 0x0 DUP2 SSTORE PUSH1 0x1 ADD PUSH2 0x682 JUMP JUMPDEST DUP1 CALLDATALOAD PUSH4 0xFFFFFFFF DUP2 AND DUP2 EQ PUSH2 0x6AA JUMPI PUSH1 0x0 DUP1 REVERT JUMPDEST SWAP2 SWAP1 POP JUMP JUMPDEST PUSH1 0x0 PUSH1 0x20 DUP3 DUP5 SUB SLT ISZERO PUSH2 0x6C0 JUMPI DUP1 DUP2 REVERT JUMPDEST DUP2 CALLDATALOAD PUSH1 0x1 PUSH1 0x1 PUSH1 0xA0 SHL SUB DUP2 AND DUP2 EQ PUSH2 0x6D6 JUMPI DUP2 DUP3 REVERT JUMPDEST SWAP4 SWAP3 POP POP POP JUMP JUMPDEST PUSH1 0x0 DUP1 PUSH1 0x0 PUSH1 0x60 DUP5 DUP7 SUB SLT ISZERO PUSH2 0x6F1 JUMPI DUP2 DUP3 REVERT JUMPDEST DUP4 CALLDATALOAD PUSH8 0xFFFFFFFFFFFFFFFF DUP1 DUP3 GT ISZERO PUSH2 0x708 JUMPI DUP4 DUP5 REVERT JUMPDEST DUP2 DUP7 ADD SWAP2 POP DUP7 PUSH1 0x1F DUP4 ADD SLT PUSH2 0x71B JUMPI DUP4 DUP5 REVERT JUMPDEST DUP2 CALLDATALOAD DUP2 DUP2 GT ISZERO PUSH2 0x72D JUMPI PUSH2 0x72D PUSH2 0x8E6 JUMP JUMPDEST PUSH1 0x40 MLOAD PUSH1 0x1F DUP3 ADD PUSH1 0x1F NOT SWAP1 DUP2 AND PUSH1 0x3F ADD AND DUP2 ADD SWAP1 DUP4 DUP3 GT DUP2 DUP4 LT OR ISZERO PUSH2 0x755 JUMPI PUSH2 0x755 PUSH2 0x8E6 JUMP JUMPDEST DUP2 PUSH1 0x40 MSTORE DUP3 DUP2 MSTORE DUP10 PUSH1 0x20 DUP5 DUP8 ADD ADD GT ISZERO PUSH2 0x76D JUMPI DUP7 DUP8 REVERT JUMPDEST DUP3 PUSH1 0x20 DUP7 ADD PUSH1 0x20 DUP4 ADD CALLDATACOPY DUP7 PUSH1 0x20 DUP5 DUP4 ADD ADD MSTORE DUP1 SWAP8 POP POP POP POP POP POP PUSH2 0x793 PUSH1 0x20 DUP6 ADD PUSH2 0x696 JUMP JUMPDEST SWAP2 POP PUSH2 0x7A1 PUSH1 0x40 DUP6 ADD PUSH2 0x696 JUMP JUMPDEST SWAP1 POP SWAP3 POP SWAP3 POP SWAP3 JUMP JUMPDEST PUSH1 0x0 PUSH1 0x20 DUP3 DUP5 SUB SLT ISZERO PUSH2 0x7BB JUMPI DUP1 DUP2 REVERT JUMPDEST POP CALLDATALOAD SWAP2 SWAP1 POP JUMP JUMPDEST PUSH1 0xA0 DUP2 MSTORE PUSH1 0x0 DUP7 MLOAD DUP1 PUSH1 0xA0 DUP5 ADD MSTORE DUP2 JUMPDEST DUP2 DUP2 LT ISZERO PUSH2 0x7EF JUMPI PUSH1 0x20 DUP2 DUP11 ADD DUP2 ADD MLOAD PUSH1 0xC0 DUP7 DUP5 ADD ADD MSTORE ADD PUSH2 0x7D2 JUMP JUMPDEST DUP2 DUP2 GT ISZERO PUSH2 0x800 JUMPI DUP3 PUSH1 0xC0 DUP4 DUP7 ADD ADD MSTORE JUMPDEST POP PUSH1 0x1F ADD PUSH1 0x1F NOT AND DUP3 ADD PUSH1 0xC0 ADD SWAP1 POP PUSH2 0x824 PUSH1 0x20 DUP4 ADD DUP8 PUSH1 0x1 PUSH1 0x1 PUSH1 0xA0 SHL SUB AND SWAP1 MSTORE JUMP JUMPDEST PUSH1 0x1 PUSH1 0x1 PUSH1 0xA0 SHL SUB SWAP5 SWAP1 SWAP5 AND PUSH1 0x40 DUP3 ADD MSTORE PUSH4 0xFFFFFFFF SWAP3 DUP4 AND PUSH1 0x60 DUP3 ADD MSTORE SWAP2 AND PUSH1 0x80 SWAP1 SWAP2 ADD MSTORE SWAP3 SWAP2 POP POP JUMP JUMPDEST PUSH1 0x20 DUP1 DUP3 MSTORE DUP2 DUP2 ADD MSTORE PUSH32 0x4F776E61626C653A2063616C6C6572206973206E6F7420746865206F776E6572 PUSH1 0x40 DUP3 ADD MSTORE PUSH1 0x60 ADD SWAP1 JUMP JUMPDEST PUSH1 0x0 DUP3 PUSH2 0x894 JUMPI PUSH2 0x894 PUSH2 0x8D0 JUMP JUMPDEST POP DIV SWAP1 JUMP JUMPDEST PUSH1 0x0 DUP3 DUP3 LT ISZERO PUSH2 0x8B7 JUMPI PUSH4 0x4E487B71 PUSH1 0xE0 SHL DUP2 MSTORE PUSH1 0x11 PUSH1 0x4 MSTORE PUSH1 0x24 DUP2 REVERT JUMPDEST POP SUB SWAP1 JUMP JUMPDEST PUSH1 0x0 DUP3 PUSH2 0x8CB JUMPI PUSH2 0x8CB PUSH2 0x8D0 JUMP JUMPDEST POP MOD SWAP1 JUMP JUMPDEST PUSH4 0x4E487B71 PUSH1 0xE0 SHL PUSH1 0x0 MSTORE PUSH1 0x12 PUSH1 0x4 MSTORE PUSH1 0x24 PUSH1 0x0 REVERT JUMPDEST PUSH4 0x4E487B71 PUSH1 0xE0 SHL PUSH1 0x0 MSTORE PUSH1 0x41 PUSH1 0x4 MSTORE PUSH1 0x24 PUSH1 0x0 REVERT INVALID LOG2 PUSH5 0x6970667358 0x22 SLT KECCAK256 0xC7 SAR 0xB0 0x24 SUB 0xB4 0xCF 0xA8 SWAP8 DUP12 0x24 SWAP8 NOT SMOD ORIGIN ADDRESS LT 0xCA DUP10 DUP8 0x4F 0xD6 0xCB 0xDF JUMPI SMOD PUSH20 0x2F9254F67064736F6C63430008040033A2646970 PUSH7 0x7358221220647B DUP1 0xC3 POP 0xF6 SWAP15 PUSH23 0xE7CAEB048064E4EFC336FD69E53E8B13018BB4D6A4B373 CALL PUSH5 0x736F6C6343 STOP ADDMOD DIV STOP CALLER "
        },
        "methodIdentifiers": {
          "createEventGame(string,uint32,uint32)": "72391bed"
        }
      }
    }
  }
}