{
  "contracts/eventLog.sol": {
    "eventLog": {
      "abi": [
        {
          "inputs": [
            {
              "internalType": "string",
              "name": "_eventName",
              "type": "string"
            }
          ],
          "name": "_getEvent",
          "outputs": [
            {
              "components": [
                {
                  "internalType": "address",
                  "name": "eventGameAddress",
                  "type": "address"
                },
                {
                  "internalType": "address",
                  "name": "eventOwner",
                  "type": "address"
                },
                {
                  "internalType": "uint32",
                  "name": "numberOfTickets",
                  "type": "uint32"
                },
                {
                  "internalType": "uint32",
                  "name": "ticketPrice",
                  "type": "uint32"
                }
              ],
              "internalType": "struct eventLog.Event",
              "name": "",
              "type": "tuple"
            }
          ],
          "stateMutability": "view",
          "type": "function"
        },
        {
          "inputs": [
            {
              "internalType": "string",
              "name": "_eventName",
              "type": "string"
            },
            {
              "internalType": "address",
              "name": "_eventGameAddress",
              "type": "address"
            },
            {
              "internalType": "address",
              "name": "_eventOwner",
              "type": "address"
            },
            {
              "internalType": "uint32",
              "name": "_numberOfTickets",
              "type": "uint32"
            },
            {
              "internalType": "uint32",
              "name": "_ticketPrice",
              "type": "uint32"
            }
          ],
          "name": "_logEvent",
          "outputs": [],
          "stateMutability": "nonpayable",
          "type": "function"
        }
      ],
      "evm": {
        "bytecode": {
          "linkReferences": {},
          "object": "608060405234801561001057600080fd5b50610401806100206000396000f3fe608060405234801561001057600080fd5b50600436106100365760003560e01c80632cd9e3891461003b57806397dee4c214610050575b600080fd5b61004e6100493660046102fe565b6100ac565b005b61006361005e3660046102c3565b610179565b6040805182516001600160a01b039081168252602080850151909116908201528282015163ffffffff908116828401526060938401511692810192909252519081900360800190f35b604080516080810182526001600160a01b0380871682528516602082015263ffffffff8085168284015283166060820152905181906000906100ef90899061037c565b9081526040805160209281900383019020835181546001600160a01b0319166001600160a01b03918216178255928401516001909101805492850151606090950151919093166001600160c01b031990921691909117600160a01b63ffffffff948516021763ffffffff60c01b1916600160c01b9390911692909202919091179055505050505050565b6040805160808101825260008082526020820181905291810182905260608101919091526000826040516101ad919061037c565b90815260408051918290036020908101832060808401835280546001600160a01b0390811685526001909101549081169184019190915263ffffffff600160a01b8204811692840192909252600160c01b900416606082015292915050565b80356001600160a01b038116811461022357600080fd5b919050565b600082601f830112610238578081fd5b813567ffffffffffffffff80821115610253576102536103b5565b604051601f8301601f19908116603f0116810190828211818310171561027b5761027b6103b5565b81604052838152866020858801011115610293578485fd5b8360208701602083013792830160200193909352509392505050565b803563ffffffff8116811461022357600080fd5b6000602082840312156102d4578081fd5b813567ffffffffffffffff8111156102ea578182fd5b6102f684828501610228565b949350505050565b600080600080600060a08688031215610315578081fd5b853567ffffffffffffffff81111561032b578182fd5b61033788828901610228565b9550506103466020870161020c565b93506103546040870161020c565b9250610362606087016102af565b9150610370608087016102af565b90509295509295909350565b60008251815b8181101561039c5760208186018101518583015201610382565b818111156103aa5782828501525b509190910192915050565b634e487b7160e01b600052604160045260246000fdfea26469706673582212207b25d3ab5fb507fd8962dc82d64ae6e7bca3acc35c9b6fbd6a90ba1cee53f78564736f6c63430008040033",
          "opcodes": "PUSH1 0x80 PUSH1 0x40 MSTORE CALLVALUE DUP1 ISZERO PUSH2 0x10 JUMPI PUSH1 0x0 DUP1 REVERT JUMPDEST POP PUSH2 0x401 DUP1 PUSH2 0x20 PUSH1 0x0 CODECOPY PUSH1 0x0 RETURN INVALID PUSH1 0x80 PUSH1 0x40 MSTORE CALLVALUE DUP1 ISZERO PUSH2 0x10 JUMPI PUSH1 0x0 DUP1 REVERT JUMPDEST POP PUSH1 0x4 CALLDATASIZE LT PUSH2 0x36 JUMPI PUSH1 0x0 CALLDATALOAD PUSH1 0xE0 SHR DUP1 PUSH4 0x2CD9E389 EQ PUSH2 0x3B JUMPI DUP1 PUSH4 0x97DEE4C2 EQ PUSH2 0x50 JUMPI JUMPDEST PUSH1 0x0 DUP1 REVERT JUMPDEST PUSH2 0x4E PUSH2 0x49 CALLDATASIZE PUSH1 0x4 PUSH2 0x2FE JUMP JUMPDEST PUSH2 0xAC JUMP JUMPDEST STOP JUMPDEST PUSH2 0x63 PUSH2 0x5E CALLDATASIZE PUSH1 0x4 PUSH2 0x2C3 JUMP JUMPDEST PUSH2 0x179 JUMP JUMPDEST PUSH1 0x40 DUP1 MLOAD DUP3 MLOAD PUSH1 0x1 PUSH1 0x1 PUSH1 0xA0 SHL SUB SWAP1 DUP2 AND DUP3 MSTORE PUSH1 0x20 DUP1 DUP6 ADD MLOAD SWAP1 SWAP2 AND SWAP1 DUP3 ADD MSTORE DUP3 DUP3 ADD MLOAD PUSH4 0xFFFFFFFF SWAP1 DUP2 AND DUP3 DUP5 ADD MSTORE PUSH1 0x60 SWAP4 DUP5 ADD MLOAD AND SWAP3 DUP2 ADD SWAP3 SWAP1 SWAP3 MSTORE MLOAD SWAP1 DUP2 SWAP1 SUB PUSH1 0x80 ADD SWAP1 RETURN JUMPDEST PUSH1 0x40 DUP1 MLOAD PUSH1 0x80 DUP2 ADD DUP3 MSTORE PUSH1 0x1 PUSH1 0x1 PUSH1 0xA0 SHL SUB DUP1 DUP8 AND DUP3 MSTORE DUP6 AND PUSH1 0x20 DUP3 ADD MSTORE PUSH4 0xFFFFFFFF DUP1 DUP6 AND DUP3 DUP5 ADD MSTORE DUP4 AND PUSH1 0x60 DUP3 ADD MSTORE SWAP1 MLOAD DUP2 SWAP1 PUSH1 0x0 SWAP1 PUSH2 0xEF SWAP1 DUP10 SWAP1 PUSH2 0x37C JUMP JUMPDEST SWAP1 DUP2 MSTORE PUSH1 0x40 DUP1 MLOAD PUSH1 0x20 SWAP3 DUP2 SWAP1 SUB DUP4 ADD SWAP1 KECCAK256 DUP4 MLOAD DUP2 SLOAD PUSH1 0x1 PUSH1 0x1 PUSH1 0xA0 SHL SUB NOT AND PUSH1 0x1 PUSH1 0x1 PUSH1 0xA0 SHL SUB SWAP2 DUP3 AND OR DUP3 SSTORE SWAP3 DUP5 ADD MLOAD PUSH1 0x1 SWAP1 SWAP2 ADD DUP1 SLOAD SWAP3 DUP6 ADD MLOAD PUSH1 0x60 SWAP1 SWAP6 ADD MLOAD SWAP2 SWAP1 SWAP4 AND PUSH1 0x1 PUSH1 0x1 PUSH1 0xC0 SHL SUB NOT SWAP1 SWAP3 AND SWAP2 SWAP1 SWAP2 OR PUSH1 0x1 PUSH1 0xA0 SHL PUSH4 0xFFFFFFFF SWAP5 DUP6 AND MUL OR PUSH4 0xFFFFFFFF PUSH1 0xC0 SHL NOT AND PUSH1 0x1 PUSH1 0xC0 SHL SWAP4 SWAP1 SWAP2 AND SWAP3 SWAP1 SWAP3 MUL SWAP2 SWAP1 SWAP2 OR SWAP1 SSTORE POP POP POP POP POP POP JUMP JUMPDEST PUSH1 0x40 DUP1 MLOAD PUSH1 0x80 DUP2 ADD DUP3 MSTORE PUSH1 0x0 DUP1 DUP3 MSTORE PUSH1 0x20 DUP3 ADD DUP2 SWAP1 MSTORE SWAP2 DUP2 ADD DUP3 SWAP1 MSTORE PUSH1 0x60 DUP2 ADD SWAP2 SWAP1 SWAP2 MSTORE PUSH1 0x0 DUP3 PUSH1 0x40 MLOAD PUSH2 0x1AD SWAP2 SWAP1 PUSH2 0x37C JUMP JUMPDEST SWAP1 DUP2 MSTORE PUSH1 0x40 DUP1 MLOAD SWAP2 DUP3 SWAP1 SUB PUSH1 0x20 SWAP1 DUP2 ADD DUP4 KECCAK256 PUSH1 0x80 DUP5 ADD DUP4 MSTORE DUP1 SLOAD PUSH1 0x1 PUSH1 0x1 PUSH1 0xA0 SHL SUB SWAP1 DUP2 AND DUP6 MSTORE PUSH1 0x1 SWAP1 SWAP2 ADD SLOAD SWAP1 DUP2 AND SWAP2 DUP5 ADD SWAP2 SWAP1 SWAP2 MSTORE PUSH4 0xFFFFFFFF PUSH1 0x1 PUSH1 0xA0 SHL DUP3 DIV DUP2 AND SWAP3 DUP5 ADD SWAP3 SWAP1 SWAP3 MSTORE PUSH1 0x1 PUSH1 0xC0 SHL SWAP1 DIV AND PUSH1 0x60 DUP3 ADD MSTORE SWAP3 SWAP2 POP POP JUMP JUMPDEST DUP1 CALLDATALOAD PUSH1 0x1 PUSH1 0x1 PUSH1 0xA0 SHL SUB DUP2 AND DUP2 EQ PUSH2 0x223 JUMPI PUSH1 0x0 DUP1 REVERT JUMPDEST SWAP2 SWAP1 POP JUMP JUMPDEST PUSH1 0x0 DUP3 PUSH1 0x1F DUP4 ADD SLT PUSH2 0x238 JUMPI DUP1 DUP2 REVERT JUMPDEST DUP2 CALLDATALOAD PUSH8 0xFFFFFFFFFFFFFFFF DUP1 DUP3 GT ISZERO PUSH2 0x253 JUMPI PUSH2 0x253 PUSH2 0x3B5 JUMP JUMPDEST PUSH1 0x40 MLOAD PUSH1 0x1F DUP4 ADD PUSH1 0x1F NOT SWAP1 DUP2 AND PUSH1 0x3F ADD AND DUP2 ADD SWAP1 DUP3 DUP3 GT DUP2 DUP4 LT OR ISZERO PUSH2 0x27B JUMPI PUSH2 0x27B PUSH2 0x3B5 JUMP JUMPDEST DUP2 PUSH1 0x40 MSTORE DUP4 DUP2 MSTORE DUP7 PUSH1 0x20 DUP6 DUP9 ADD ADD GT ISZERO PUSH2 0x293 JUMPI DUP5 DUP6 REVERT JUMPDEST DUP4 PUSH1 0x20 DUP8 ADD PUSH1 0x20 DUP4 ADD CALLDATACOPY SWAP3 DUP4 ADD PUSH1 0x20 ADD SWAP4 SWAP1 SWAP4 MSTORE POP SWAP4 SWAP3 POP POP POP JUMP JUMPDEST DUP1 CALLDATALOAD PUSH4 0xFFFFFFFF DUP2 AND DUP2 EQ PUSH2 0x223 JUMPI PUSH1 0x0 DUP1 REVERT JUMPDEST PUSH1 0x0 PUSH1 0x20 DUP3 DUP5 SUB SLT ISZERO PUSH2 0x2D4 JUMPI DUP1 DUP2 REVERT JUMPDEST DUP2 CALLDATALOAD PUSH8 0xFFFFFFFFFFFFFFFF DUP2 GT ISZERO PUSH2 0x2EA JUMPI DUP2 DUP3 REVERT JUMPDEST PUSH2 0x2F6 DUP5 DUP3 DUP6 ADD PUSH2 0x228 JUMP JUMPDEST SWAP5 SWAP4 POP POP POP POP JUMP JUMPDEST PUSH1 0x0 DUP1 PUSH1 0x0 DUP1 PUSH1 0x0 PUSH1 0xA0 DUP7 DUP9 SUB SLT ISZERO PUSH2 0x315 JUMPI DUP1 DUP2 REVERT JUMPDEST DUP6 CALLDATALOAD PUSH8 0xFFFFFFFFFFFFFFFF DUP2 GT ISZERO PUSH2 0x32B JUMPI DUP2 DUP3 REVERT JUMPDEST PUSH2 0x337 DUP9 DUP3 DUP10 ADD PUSH2 0x228 JUMP JUMPDEST SWAP6 POP POP PUSH2 0x346 PUSH1 0x20 DUP8 ADD PUSH2 0x20C JUMP JUMPDEST SWAP4 POP PUSH2 0x354 PUSH1 0x40 DUP8 ADD PUSH2 0x20C JUMP JUMPDEST SWAP3 POP PUSH2 0x362 PUSH1 0x60 DUP8 ADD PUSH2 0x2AF JUMP JUMPDEST SWAP2 POP PUSH2 0x370 PUSH1 0x80 DUP8 ADD PUSH2 0x2AF JUMP JUMPDEST SWAP1 POP SWAP3 SWAP6 POP SWAP3 SWAP6 SWAP1 SWAP4 POP JUMP JUMPDEST PUSH1 0x0 DUP3 MLOAD DUP2 JUMPDEST DUP2 DUP2 LT ISZERO PUSH2 0x39C JUMPI PUSH1 0x20 DUP2 DUP7 ADD DUP2 ADD MLOAD DUP6 DUP4 ADD MSTORE ADD PUSH2 0x382 JUMP JUMPDEST DUP2 DUP2 GT ISZERO PUSH2 0x3AA JUMPI DUP3 DUP3 DUP6 ADD MSTORE JUMPDEST POP SWAP2 SWAP1 SWAP2 ADD SWAP3 SWAP2 POP POP JUMP JUMPDEST PUSH4 0x4E487B71 PUSH1 0xE0 SHL PUSH1 0x0 MSTORE PUSH1 0x41 PUSH1 0x4 MSTORE PUSH1 0x24 PUSH1 0x0 REVERT INVALID LOG2 PUSH5 0x6970667358 0x22 SLT KECCAK256 PUSH28 0x25D3AB5FB507FD8962DC82D64AE6E7BCA3ACC35C9B6FBD6A90BA1CEE MSTORE8 0xF7 DUP6 PUSH5 0x736F6C6343 STOP ADDMOD DIV STOP CALLER "
        },
        "methodIdentifiers": {
          "_getEvent(string)": "97dee4c2",
          "_logEvent(string,address,address,uint32,uint32)": "2cd9e389"
        }
      }
    }
  }
}