{
  "contracts/eventGame.sol": {
    "eventGame": {
      "abi": [
        {
          "inputs": [
            {
              "internalType": "string",
              "name": "_eventName",
              "type": "string"
            },
            {
              "internalType": "address",
              "name": "_logAddress",
              "type": "address"
            },
            {
              "internalType": "uint256",
              "name": "_numberOfTickets",
              "type": "uint256"
            },
            {
              "internalType": "address",
              "name": "_owner",
              "type": "address"
            }
          ],
          "stateMutability": "nonpayable",
          "type": "constructor"
        },
        {
          "anonymous": false,
          "inputs": [
            {
              "indexed": true,
              "internalType": "address",
              "name": "previousOwner",
              "type": "address"
            },
            {
              "indexed": true,
              "internalType": "address",
              "name": "newOwner",
              "type": "address"
            }
          ],
          "name": "OwnershipTransferred",
          "type": "event"
        },
        {
          "anonymous": false,
          "inputs": [
            {
              "indexed": false,
              "internalType": "address",
              "name": "player",
              "type": "address"
            },
            {
              "indexed": false,
              "internalType": "string",
              "name": "result",
              "type": "string"
            },
            {
              "indexed": false,
              "internalType": "uint256",
              "name": "points",
              "type": "uint256"
            }
          ],
          "name": "result",
          "type": "event"
        },
        {
          "inputs": [],
          "name": "owner",
          "outputs": [
            {
              "internalType": "address",
              "name": "",
              "type": "address"
            }
          ],
          "stateMutability": "view",
          "type": "function"
        },
        {
          "inputs": [],
          "name": "register",
          "outputs": [],
          "stateMutability": "nonpayable",
          "type": "function"
        },
        {
          "inputs": [],
          "name": "renounceOwnership",
          "outputs": [],
          "stateMutability": "nonpayable",
          "type": "function"
        },
        {
          "inputs": [
            {
              "internalType": "address",
              "name": "",
              "type": "address"
            }
          ],
          "name": "s_isRegistered",
          "outputs": [
            {
              "internalType": "bool",
              "name": "",
              "type": "bool"
            }
          ],
          "stateMutability": "view",
          "type": "function"
        },
        {
          "inputs": [
            {
              "internalType": "uint256",
              "name": "",
              "type": "uint256"
            }
          ],
          "name": "s_registeredAddresses",
          "outputs": [
            {
              "internalType": "address",
              "name": "",
              "type": "address"
            }
          ],
          "stateMutability": "view",
          "type": "function"
        },
        {
          "inputs": [
            {
              "internalType": "address",
              "name": "newOwner",
              "type": "address"
            }
          ],
          "name": "transferOwnership",
          "outputs": [],
          "stateMutability": "nonpayable",
          "type": "function"
        },
        {
          "inputs": [
            {
              "internalType": "string",
              "name": "_newName",
              "type": "string"
            },
            {
              "internalType": "uint256",
              "name": "_newTickets",
              "type": "uint256"
            },
            {
              "internalType": "uint256",
              "name": "_newPrice",
              "type": "uint256"
            }
          ],
          "name": "updateEvent",
          "outputs": [],
          "stateMutability": "nonpayable",
          "type": "function"
        },
        {
          "inputs": [
            {
              "internalType": "uint256",
              "name": "_play",
              "type": "uint256"
            }
          ],
          "name": "userPlay",
          "outputs": [],
          "stateMutability": "nonpayable",
          "type": "function"
        }
      ],
      "evm": {
        "bytecode": {
          "linkReferences": {},
          "object": "60c06040526002805460ff191660011790553480156200001e57600080fd5b5060405162000f4c38038062000f4c83398101604081905262000041916200019c565b6200004c3362000089565b835162000061906003906020870190620000d9565b506001600160601b0319606093841b811660805260019290925590911b1660a05250620002f6565b600080546001600160a01b038381166001600160a01b0319831681178455604051919092169283917f8be0079c531659141344cd1fd0a4f28419497f9722a3daafe3b4186f6b6457e09190a35050565b828054620000e790620002a3565b90600052602060002090601f0160209004810192826200010b576000855562000156565b82601f106200012657805160ff191683800117855562000156565b8280016001018555821562000156579182015b828111156200015657825182559160200191906001019062000139565b506200016492915062000168565b5090565b5b8082111562000164576000815560010162000169565b80516001600160a01b03811681146200019757600080fd5b919050565b60008060008060808587031215620001b2578384fd5b84516001600160401b0380821115620001c9578586fd5b818701915087601f830112620001dd578586fd5b815181811115620001f257620001f2620002e0565b604051601f8201601f19908116603f011681019083821181831017156200021d576200021d620002e0565b81604052828152602093508a8484870101111562000239578889fd5b8891505b828210156200025c57848201840151818301850152908301906200023d565b828211156200026d57888484830101525b97506200027f9150508782016200017f565b945050506040850151915062000298606086016200017f565b905092959194509250565b600181811c90821680620002b857607f821691505b60208210811415620002da57634e487b7160e01b600052602260045260246000fd5b50919050565b634e487b7160e01b600052604160045260246000fd5b60805160601c60a05160601c610c2d6200031f6000396000505060006108040152610c2d6000f3fe608060405234801561001057600080fd5b50600436106100885760003560e01c8063a3195c471161005b578063a3195c47146100dc578063a6fa9a0a146100ef578063bc3c09c414610102578063f2fde38b1461013557600080fd5b80631aa3a0081461008d578063715018a6146100975780638da5cb5b1461009f5780639d5b24c0146100c9575b600080fd5b610095610148565b005b610095610299565b6000546001600160a01b03165b6040516001600160a01b0390911681526020015b60405180910390f35b6100ac6100d7366004610a63565b6102cf565b6100956100ea366004610a63565b6102f9565b6100956100fd3660046109a7565b6107cb565b610125610110366004610980565b60056020526000908152604090205460ff1681565b60405190151581526020016100c0565b610095610143366004610980565b610888565b60025460ff1615156001146101a45760405162461bcd60e51b815260206004820152601a60248201527f526567697374726174696f6e206e6f74206f70656e207965742100000000000060448201526064015b60405180910390fd5b3360009081526005602052604090205460ff16156102045760405162461bcd60e51b815260206004820152601c60248201527f596f75206861766520616c726561647920726567697374657265642100000000604482015260640161019b565b60408051606081018252600080825260208083018281524284860190815233808552600684528685209551865591516001808701919091559051600290950194909455600480548086019091557f8a35acfbc15ff81a39ae7d344fd709f28e8600b4aa8c65c6b64bfe7fe36bd19b0180546001600160a01b03191690911790556005905291909120805460ff19169091179055565b6000546001600160a01b031633146102c35760405162461bcd60e51b815260040161019b90610b68565b6102cd6000610923565b565b600481815481106102df57600080fd5b6000918252602090912001546001600160a01b0316905081565b3360009081526005602052604090205460ff16151560011461031a57600080fd5b336000908152600660205260409020600101546005101561033a57600080fd5b6000610344610973565b905080600281111561036657634e487b7160e01b600052602160045260246000fd5b82600281111561038657634e487b7160e01b600052602160045260246000fd5b60028111156103a557634e487b7160e01b600052602160045260246000fd5b14156104195760408051338152606060208201819052600490820152636472617760e01b60808201526001818301529051600080516020610bd88339815191529181900360a00190a133600090815260066020526040812080546001929061040e908490610b9d565b909155506107769050565b600082600281111561043b57634e487b7160e01b600052602160045260246000fd5b600281111561045a57634e487b7160e01b600052602160045260246000fd5b1480156104865750600181600281111561048457634e487b7160e01b600052602160045260246000fd5b145b156104b857600080516020610bd88339815191523360006040516104ab929190610aaf565b60405180910390a1610776565b60008260028111156104da57634e487b7160e01b600052602160045260246000fd5b60028111156104f957634e487b7160e01b600052602160045260246000fd5b1480156105255750600281600281111561052357634e487b7160e01b600052602160045260246000fd5b145b1561057257600080516020610bd883398151915233600360405161054a929190610a7b565b60405180910390a133600090815260066020526040812080546003929061040e908490610b9d565b600182600281111561059457634e487b7160e01b600052602160045260246000fd5b60028111156105b357634e487b7160e01b600052602160045260246000fd5b1480156105df575060008160028111156105dd57634e487b7160e01b600052602160045260246000fd5b145b1561060457600080516020610bd883398151915233600360405161054a929190610a7b565b600182600281111561062657634e487b7160e01b600052602160045260246000fd5b600281111561064557634e487b7160e01b600052602160045260246000fd5b1480156106715750600281600281111561066f57634e487b7160e01b600052602160045260246000fd5b145b1561069657600080516020610bd88339815191523360006040516104ab929190610aaf565b60028260028111156106b857634e487b7160e01b600052602160045260246000fd5b60028111156106d757634e487b7160e01b600052602160045260246000fd5b1480156107035750600081600281111561070157634e487b7160e01b600052602160045260246000fd5b145b1561072857600080516020610bd88339815191523360006040516104ab929190610aaf565b600080516020610bd8833981519152336003604051610748929190610a7b565b60405180910390a1336000908152600660205260408120805460039290610770908490610b9d565b90915550505b336000908152600660205260408120600190810180549192909161079b908490610b9d565b909155505033600090815260066020526040812060020180544292906107c2908490610b9d565b90915550505050565b6000546001600160a01b031633146107f55760405162461bcd60e51b815260040161019b90610b68565b60405163fad8fe0d60e01b81527f0000000000000000000000000000000000000000000000000000000000000000906001600160a01b0382169063fad8fe0d9061084b9087903090339089908990600401610ae4565b600060405180830381600087803b15801561086557600080fd5b505af1158015610879573d6000803e3d6000fd5b50505060019390935550505050565b6000546001600160a01b031633146108b25760405162461bcd60e51b815260040161019b90610b68565b6001600160a01b0381166109175760405162461bcd60e51b815260206004820152602660248201527f4f776e61626c653a206e6577206f776e657220697320746865207a65726f206160448201526564647265737360d01b606482015260840161019b565b61092081610923565b50565b600080546001600160a01b038381166001600160a01b0319831681178455604051919092169283917f8be0079c531659141344cd1fd0a4f28419497f9722a3daafe3b4186f6b6457e09190a35050565b60008080805b9392505050565b600060208284031215610991578081fd5b81356001600160a01b0381168114610979578182fd5b6000806000606084860312156109bb578182fd5b833567ffffffffffffffff808211156109d2578384fd5b818601915086601f8301126109e5578384fd5b8135818111156109f7576109f7610bc1565b604051601f8201601f19908116603f01168101908382118183101715610a1f57610a1f610bc1565b81604052828152896020848701011115610a37578687fd5b826020860160208301379182016020908101969096525097938601359650505060409093013592509050565b600060208284031215610a74578081fd5b5035919050565b6001600160a01b03929092168252606060208301819052600390830152623bb4b760e91b6080830152604082015260a00190565b6001600160a01b03929092168252606060208301819052600490830152636c6f737360e01b6080830152604082015260a00190565b60a08152600086518060a0840152815b81811015610b11576020818a0181015160c0868401015201610af4565b81811115610b22578260c083860101525b50601f01601f1916820160c0019050610b4660208301876001600160a01b03169052565b6001600160a01b03851660408301526060820193909352608001529392505050565b6020808252818101527f4f776e61626c653a2063616c6c6572206973206e6f7420746865206f776e6572604082015260600190565b60008219821115610bbc57634e487b7160e01b81526011600452602481fd5b500190565b634e487b7160e01b600052604160045260246000fdfe85fc1bbb39de8edc11717b838a522d914a97c6952cb06de101d20931f336f187a2646970667358221220d014251f042eda0474e9dae837662040bc35c4625e8341001885cbaebe32058264736f6c63430008040033",
          "opcodes": "PUSH1 0xC0 PUSH1 0x40 MSTORE PUSH1 0x2 DUP1 SLOAD PUSH1 0xFF NOT AND PUSH1 0x1 OR SWAP1 SSTORE CALLVALUE DUP1 ISZERO PUSH3 0x1E JUMPI PUSH1 0x0 DUP1 REVERT JUMPDEST POP PUSH1 0x40 MLOAD PUSH3 0xF4C CODESIZE SUB DUP1 PUSH3 0xF4C DUP4 CODECOPY DUP2 ADD PUSH1 0x40 DUP2 SWAP1 MSTORE PUSH3 0x41 SWAP2 PUSH3 0x19C JUMP JUMPDEST PUSH3 0x4C CALLER PUSH3 0x89 JUMP JUMPDEST DUP4 MLOAD PUSH3 0x61 SWAP1 PUSH1 0x3 SWAP1 PUSH1 0x20 DUP8 ADD SWAP1 PUSH3 0xD9 JUMP JUMPDEST POP PUSH1 0x1 PUSH1 0x1 PUSH1 0x60 SHL SUB NOT PUSH1 0x60 SWAP4 DUP5 SHL DUP2 AND PUSH1 0x80 MSTORE PUSH1 0x1 SWAP3 SWAP1 SWAP3 SSTORE SWAP1 SWAP2 SHL AND PUSH1 0xA0 MSTORE POP PUSH3 0x2F6 JUMP JUMPDEST PUSH1 0x0 DUP1 SLOAD PUSH1 0x1 PUSH1 0x1 PUSH1 0xA0 SHL SUB DUP4 DUP2 AND PUSH1 0x1 PUSH1 0x1 PUSH1 0xA0 SHL SUB NOT DUP4 AND DUP2 OR DUP5 SSTORE PUSH1 0x40 MLOAD SWAP2 SWAP1 SWAP3 AND SWAP3 DUP4 SWAP2 PUSH32 0x8BE0079C531659141344CD1FD0A4F28419497F9722A3DAAFE3B4186F6B6457E0 SWAP2 SWAP1 LOG3 POP POP JUMP JUMPDEST DUP3 DUP1 SLOAD PUSH3 0xE7 SWAP1 PUSH3 0x2A3 JUMP JUMPDEST SWAP1 PUSH1 0x0 MSTORE PUSH1 0x20 PUSH1 0x0 KECCAK256 SWAP1 PUSH1 0x1F ADD PUSH1 0x20 SWAP1 DIV DUP2 ADD SWAP3 DUP3 PUSH3 0x10B JUMPI PUSH1 0x0 DUP6 SSTORE PUSH3 0x156 JUMP JUMPDEST DUP3 PUSH1 0x1F LT PUSH3 0x126 JUMPI DUP1 MLOAD PUSH1 0xFF NOT AND DUP4 DUP1 ADD OR DUP6 SSTORE PUSH3 0x156 JUMP JUMPDEST DUP3 DUP1 ADD PUSH1 0x1 ADD DUP6 SSTORE DUP3 ISZERO PUSH3 0x156 JUMPI SWAP2 DUP3 ADD JUMPDEST DUP3 DUP2 GT ISZERO PUSH3 0x156 JUMPI DUP3 MLOAD DUP3 SSTORE SWAP2 PUSH1 0x20 ADD SWAP2 SWAP1 PUSH1 0x1 ADD SWAP1 PUSH3 0x139 JUMP JUMPDEST POP PUSH3 0x164 SWAP3 SWAP2 POP PUSH3 0x168 JUMP JUMPDEST POP SWAP1 JUMP JUMPDEST JUMPDEST DUP1 DUP3 GT ISZERO PUSH3 0x164 JUMPI PUSH1 0x0 DUP2 SSTORE PUSH1 0x1 ADD PUSH3 0x169 JUMP JUMPDEST DUP1 MLOAD PUSH1 0x1 PUSH1 0x1 PUSH1 0xA0 SHL SUB DUP2 AND DUP2 EQ PUSH3 0x197 JUMPI PUSH1 0x0 DUP1 REVERT JUMPDEST SWAP2 SWAP1 POP JUMP JUMPDEST PUSH1 0x0 DUP1 PUSH1 0x0 DUP1 PUSH1 0x80 DUP6 DUP8 SUB SLT ISZERO PUSH3 0x1B2 JUMPI DUP4 DUP5 REVERT JUMPDEST DUP5 MLOAD PUSH1 0x1 PUSH1 0x1 PUSH1 0x40 SHL SUB DUP1 DUP3 GT ISZERO PUSH3 0x1C9 JUMPI DUP6 DUP7 REVERT JUMPDEST DUP2 DUP8 ADD SWAP2 POP DUP8 PUSH1 0x1F DUP4 ADD SLT PUSH3 0x1DD JUMPI DUP6 DUP7 REVERT JUMPDEST DUP2 MLOAD DUP2 DUP2 GT ISZERO PUSH3 0x1F2 JUMPI PUSH3 0x1F2 PUSH3 0x2E0 JUMP JUMPDEST PUSH1 0x40 MLOAD PUSH1 0x1F DUP3 ADD PUSH1 0x1F NOT SWAP1 DUP2 AND PUSH1 0x3F ADD AND DUP2 ADD SWAP1 DUP4 DUP3 GT DUP2 DUP4 LT OR ISZERO PUSH3 0x21D JUMPI PUSH3 0x21D PUSH3 0x2E0 JUMP JUMPDEST DUP2 PUSH1 0x40 MSTORE DUP3 DUP2 MSTORE PUSH1 0x20 SWAP4 POP DUP11 DUP5 DUP5 DUP8 ADD ADD GT ISZERO PUSH3 0x239 JUMPI DUP9 DUP10 REVERT JUMPDEST DUP9 SWAP2 POP JUMPDEST DUP3 DUP3 LT ISZERO PUSH3 0x25C JUMPI DUP5 DUP3 ADD DUP5 ADD MLOAD DUP2 DUP4 ADD DUP6 ADD MSTORE SWAP1 DUP4 ADD SWAP1 PUSH3 0x23D JUMP JUMPDEST DUP3 DUP3 GT ISZERO PUSH3 0x26D JUMPI DUP9 DUP5 DUP5 DUP4 ADD ADD MSTORE JUMPDEST SWAP8 POP PUSH3 0x27F SWAP2 POP POP DUP8 DUP3 ADD PUSH3 0x17F JUMP JUMPDEST SWAP5 POP POP POP PUSH1 0x40 DUP6 ADD MLOAD SWAP2 POP PUSH3 0x298 PUSH1 0x60 DUP7 ADD PUSH3 0x17F JUMP JUMPDEST SWAP1 POP SWAP3 SWAP6 SWAP2 SWAP5 POP SWAP3 POP JUMP JUMPDEST PUSH1 0x1 DUP2 DUP2 SHR SWAP1 DUP3 AND DUP1 PUSH3 0x2B8 JUMPI PUSH1 0x7F DUP3 AND SWAP2 POP JUMPDEST PUSH1 0x20 DUP3 LT DUP2 EQ ISZERO PUSH3 0x2DA JUMPI PUSH4 0x4E487B71 PUSH1 0xE0 SHL PUSH1 0x0 MSTORE PUSH1 0x22 PUSH1 0x4 MSTORE PUSH1 0x24 PUSH1 0x0 REVERT JUMPDEST POP SWAP2 SWAP1 POP JUMP JUMPDEST PUSH4 0x4E487B71 PUSH1 0xE0 SHL PUSH1 0x0 MSTORE PUSH1 0x41 PUSH1 0x4 MSTORE PUSH1 0x24 PUSH1 0x0 REVERT JUMPDEST PUSH1 0x80 MLOAD PUSH1 0x60 SHR PUSH1 0xA0 MLOAD PUSH1 0x60 SHR PUSH2 0xC2D PUSH3 0x31F PUSH1 0x0 CODECOPY PUSH1 0x0 POP POP PUSH1 0x0 PUSH2 0x804 ADD MSTORE PUSH2 0xC2D PUSH1 0x0 RETURN INVALID PUSH1 0x80 PUSH1 0x40 MSTORE CALLVALUE DUP1 ISZERO PUSH2 0x10 JUMPI PUSH1 0x0 DUP1 REVERT JUMPDEST POP PUSH1 0x4 CALLDATASIZE LT PUSH2 0x88 JUMPI PUSH1 0x0 CALLDATALOAD PUSH1 0xE0 SHR DUP1 PUSH4 0xA3195C47 GT PUSH2 0x5B JUMPI DUP1 PUSH4 0xA3195C47 EQ PUSH2 0xDC JUMPI DUP1 PUSH4 0xA6FA9A0A EQ PUSH2 0xEF JUMPI DUP1 PUSH4 0xBC3C09C4 EQ PUSH2 0x102 JUMPI DUP1 PUSH4 0xF2FDE38B EQ PUSH2 0x135 JUMPI PUSH1 0x0 DUP1 REVERT JUMPDEST DUP1 PUSH4 0x1AA3A008 EQ PUSH2 0x8D JUMPI DUP1 PUSH4 0x715018A6 EQ PUSH2 0x97 JUMPI DUP1 PUSH4 0x8DA5CB5B EQ PUSH2 0x9F JUMPI DUP1 PUSH4 0x9D5B24C0 EQ PUSH2 0xC9 JUMPI JUMPDEST PUSH1 0x0 DUP1 REVERT JUMPDEST PUSH2 0x95 PUSH2 0x148 JUMP JUMPDEST STOP JUMPDEST PUSH2 0x95 PUSH2 0x299 JUMP JUMPDEST PUSH1 0x0 SLOAD PUSH1 0x1 PUSH1 0x1 PUSH1 0xA0 SHL SUB AND JUMPDEST PUSH1 0x40 MLOAD PUSH1 0x1 PUSH1 0x1 PUSH1 0xA0 SHL SUB SWAP1 SWAP2 AND DUP2 MSTORE PUSH1 0x20 ADD JUMPDEST PUSH1 0x40 MLOAD DUP1 SWAP2 SUB SWAP1 RETURN JUMPDEST PUSH2 0xAC PUSH2 0xD7 CALLDATASIZE PUSH1 0x4 PUSH2 0xA63 JUMP JUMPDEST PUSH2 0x2CF JUMP JUMPDEST PUSH2 0x95 PUSH2 0xEA CALLDATASIZE PUSH1 0x4 PUSH2 0xA63 JUMP JUMPDEST PUSH2 0x2F9 JUMP JUMPDEST PUSH2 0x95 PUSH2 0xFD CALLDATASIZE PUSH1 0x4 PUSH2 0x9A7 JUMP JUMPDEST PUSH2 0x7CB JUMP JUMPDEST PUSH2 0x125 PUSH2 0x110 CALLDATASIZE PUSH1 0x4 PUSH2 0x980 JUMP JUMPDEST PUSH1 0x5 PUSH1 0x20 MSTORE PUSH1 0x0 SWAP1 DUP2 MSTORE PUSH1 0x40 SWAP1 KECCAK256 SLOAD PUSH1 0xFF AND DUP2 JUMP JUMPDEST PUSH1 0x40 MLOAD SWAP1 ISZERO ISZERO DUP2 MSTORE PUSH1 0x20 ADD PUSH2 0xC0 JUMP JUMPDEST PUSH2 0x95 PUSH2 0x143 CALLDATASIZE PUSH1 0x4 PUSH2 0x980 JUMP JUMPDEST PUSH2 0x888 JUMP JUMPDEST PUSH1 0x2 SLOAD PUSH1 0xFF AND ISZERO ISZERO PUSH1 0x1 EQ PUSH2 0x1A4 JUMPI PUSH1 0x40 MLOAD PUSH3 0x461BCD PUSH1 0xE5 SHL DUP2 MSTORE PUSH1 0x20 PUSH1 0x4 DUP3 ADD MSTORE PUSH1 0x1A PUSH1 0x24 DUP3 ADD MSTORE PUSH32 0x526567697374726174696F6E206E6F74206F70656E2079657421000000000000 PUSH1 0x44 DUP3 ADD MSTORE PUSH1 0x64 ADD JUMPDEST PUSH1 0x40 MLOAD DUP1 SWAP2 SUB SWAP1 REVERT JUMPDEST CALLER PUSH1 0x0 SWAP1 DUP2 MSTORE PUSH1 0x5 PUSH1 0x20 MSTORE PUSH1 0x40 SWAP1 KECCAK256 SLOAD PUSH1 0xFF AND ISZERO PUSH2 0x204 JUMPI PUSH1 0x40 MLOAD PUSH3 0x461BCD PUSH1 0xE5 SHL DUP2 MSTORE PUSH1 0x20 PUSH1 0x4 DUP3 ADD MSTORE PUSH1 0x1C PUSH1 0x24 DUP3 ADD MSTORE PUSH32 0x596F75206861766520616C726561647920726567697374657265642100000000 PUSH1 0x44 DUP3 ADD MSTORE PUSH1 0x64 ADD PUSH2 0x19B JUMP JUMPDEST PUSH1 0x40 DUP1 MLOAD PUSH1 0x60 DUP2 ADD DUP3 MSTORE PUSH1 0x0 DUP1 DUP3 MSTORE PUSH1 0x20 DUP1 DUP4 ADD DUP3 DUP2 MSTORE TIMESTAMP DUP5 DUP7 ADD SWAP1 DUP2 MSTORE CALLER DUP1 DUP6 MSTORE PUSH1 0x6 DUP5 MSTORE DUP7 DUP6 KECCAK256 SWAP6 MLOAD DUP7 SSTORE SWAP2 MLOAD PUSH1 0x1 DUP1 DUP8 ADD SWAP2 SWAP1 SWAP2 SSTORE SWAP1 MLOAD PUSH1 0x2 SWAP1 SWAP6 ADD SWAP5 SWAP1 SWAP5 SSTORE PUSH1 0x4 DUP1 SLOAD DUP1 DUP7 ADD SWAP1 SWAP2 SSTORE PUSH32 0x8A35ACFBC15FF81A39AE7D344FD709F28E8600B4AA8C65C6B64BFE7FE36BD19B ADD DUP1 SLOAD PUSH1 0x1 PUSH1 0x1 PUSH1 0xA0 SHL SUB NOT AND SWAP1 SWAP2 OR SWAP1 SSTORE PUSH1 0x5 SWAP1 MSTORE SWAP2 SWAP1 SWAP2 KECCAK256 DUP1 SLOAD PUSH1 0xFF NOT AND SWAP1 SWAP2 OR SWAP1 SSTORE JUMP JUMPDEST PUSH1 0x0 SLOAD PUSH1 0x1 PUSH1 0x1 PUSH1 0xA0 SHL SUB AND CALLER EQ PUSH2 0x2C3 JUMPI PUSH1 0x40 MLOAD PUSH3 0x461BCD PUSH1 0xE5 SHL DUP2 MSTORE PUSH1 0x4 ADD PUSH2 0x19B SWAP1 PUSH2 0xB68 JUMP JUMPDEST PUSH2 0x2CD PUSH1 0x0 PUSH2 0x923 JUMP JUMPDEST JUMP JUMPDEST PUSH1 0x4 DUP2 DUP2 SLOAD DUP2 LT PUSH2 0x2DF JUMPI PUSH1 0x0 DUP1 REVERT JUMPDEST PUSH1 0x0 SWAP2 DUP3 MSTORE PUSH1 0x20 SWAP1 SWAP2 KECCAK256 ADD SLOAD PUSH1 0x1 PUSH1 0x1 PUSH1 0xA0 SHL SUB AND SWAP1 POP DUP2 JUMP JUMPDEST CALLER PUSH1 0x0 SWAP1 DUP2 MSTORE PUSH1 0x5 PUSH1 0x20 MSTORE PUSH1 0x40 SWAP1 KECCAK256 SLOAD PUSH1 0xFF AND ISZERO ISZERO PUSH1 0x1 EQ PUSH2 0x31A JUMPI PUSH1 0x0 DUP1 REVERT JUMPDEST CALLER PUSH1 0x0 SWAP1 DUP2 MSTORE PUSH1 0x6 PUSH1 0x20 MSTORE PUSH1 0x40 SWAP1 KECCAK256 PUSH1 0x1 ADD SLOAD PUSH1 0x5 LT ISZERO PUSH2 0x33A JUMPI PUSH1 0x0 DUP1 REVERT JUMPDEST PUSH1 0x0 PUSH2 0x344 PUSH2 0x973 JUMP JUMPDEST SWAP1 POP DUP1 PUSH1 0x2 DUP2 GT ISZERO PUSH2 0x366 JUMPI PUSH4 0x4E487B71 PUSH1 0xE0 SHL PUSH1 0x0 MSTORE PUSH1 0x21 PUSH1 0x4 MSTORE PUSH1 0x24 PUSH1 0x0 REVERT JUMPDEST DUP3 PUSH1 0x2 DUP2 GT ISZERO PUSH2 0x386 JUMPI PUSH4 0x4E487B71 PUSH1 0xE0 SHL PUSH1 0x0 MSTORE PUSH1 0x21 PUSH1 0x4 MSTORE PUSH1 0x24 PUSH1 0x0 REVERT JUMPDEST PUSH1 0x2 DUP2 GT ISZERO PUSH2 0x3A5 JUMPI PUSH4 0x4E487B71 PUSH1 0xE0 SHL PUSH1 0x0 MSTORE PUSH1 0x21 PUSH1 0x4 MSTORE PUSH1 0x24 PUSH1 0x0 REVERT JUMPDEST EQ ISZERO PUSH2 0x419 JUMPI PUSH1 0x40 DUP1 MLOAD CALLER DUP2 MSTORE PUSH1 0x60 PUSH1 0x20 DUP3 ADD DUP2 SWAP1 MSTORE PUSH1 0x4 SWAP1 DUP3 ADD MSTORE PUSH4 0x64726177 PUSH1 0xE0 SHL PUSH1 0x80 DUP3 ADD MSTORE PUSH1 0x1 DUP2 DUP4 ADD MSTORE SWAP1 MLOAD PUSH1 0x0 DUP1 MLOAD PUSH1 0x20 PUSH2 0xBD8 DUP4 CODECOPY DUP2 MLOAD SWAP2 MSTORE SWAP2 DUP2 SWAP1 SUB PUSH1 0xA0 ADD SWAP1 LOG1 CALLER PUSH1 0x0 SWAP1 DUP2 MSTORE PUSH1 0x6 PUSH1 0x20 MSTORE PUSH1 0x40 DUP2 KECCAK256 DUP1 SLOAD PUSH1 0x1 SWAP3 SWAP1 PUSH2 0x40E SWAP1 DUP5 SWAP1 PUSH2 0xB9D JUMP JUMPDEST SWAP1 SWAP2 SSTORE POP PUSH2 0x776 SWAP1 POP JUMP JUMPDEST PUSH1 0x0 DUP3 PUSH1 0x2 DUP2 GT ISZERO PUSH2 0x43B JUMPI PUSH4 0x4E487B71 PUSH1 0xE0 SHL PUSH1 0x0 MSTORE PUSH1 0x21 PUSH1 0x4 MSTORE PUSH1 0x24 PUSH1 0x0 REVERT JUMPDEST PUSH1 0x2 DUP2 GT ISZERO PUSH2 0x45A JUMPI PUSH4 0x4E487B71 PUSH1 0xE0 SHL PUSH1 0x0 MSTORE PUSH1 0x21 PUSH1 0x4 MSTORE PUSH1 0x24 PUSH1 0x0 REVERT JUMPDEST EQ DUP1 ISZERO PUSH2 0x486 JUMPI POP PUSH1 0x1 DUP2 PUSH1 0x2 DUP2 GT ISZERO PUSH2 0x484 JUMPI PUSH4 0x4E487B71 PUSH1 0xE0 SHL PUSH1 0x0 MSTORE PUSH1 0x21 PUSH1 0x4 MSTORE PUSH1 0x24 PUSH1 0x0 REVERT JUMPDEST EQ JUMPDEST ISZERO PUSH2 0x4B8 JUMPI PUSH1 0x0 DUP1 MLOAD PUSH1 0x20 PUSH2 0xBD8 DUP4 CODECOPY DUP2 MLOAD SWAP2 MSTORE CALLER PUSH1 0x0 PUSH1 0x40 MLOAD PUSH2 0x4AB SWAP3 SWAP2 SWAP1 PUSH2 0xAAF JUMP JUMPDEST PUSH1 0x40 MLOAD DUP1 SWAP2 SUB SWAP1 LOG1 PUSH2 0x776 JUMP JUMPDEST PUSH1 0x0 DUP3 PUSH1 0x2 DUP2 GT ISZERO PUSH2 0x4DA JUMPI PUSH4 0x4E487B71 PUSH1 0xE0 SHL PUSH1 0x0 MSTORE PUSH1 0x21 PUSH1 0x4 MSTORE PUSH1 0x24 PUSH1 0x0 REVERT JUMPDEST PUSH1 0x2 DUP2 GT ISZERO PUSH2 0x4F9 JUMPI PUSH4 0x4E487B71 PUSH1 0xE0 SHL PUSH1 0x0 MSTORE PUSH1 0x21 PUSH1 0x4 MSTORE PUSH1 0x24 PUSH1 0x0 REVERT JUMPDEST EQ DUP1 ISZERO PUSH2 0x525 JUMPI POP PUSH1 0x2 DUP2 PUSH1 0x2 DUP2 GT ISZERO PUSH2 0x523 JUMPI PUSH4 0x4E487B71 PUSH1 0xE0 SHL PUSH1 0x0 MSTORE PUSH1 0x21 PUSH1 0x4 MSTORE PUSH1 0x24 PUSH1 0x0 REVERT JUMPDEST EQ JUMPDEST ISZERO PUSH2 0x572 JUMPI PUSH1 0x0 DUP1 MLOAD PUSH1 0x20 PUSH2 0xBD8 DUP4 CODECOPY DUP2 MLOAD SWAP2 MSTORE CALLER PUSH1 0x3 PUSH1 0x40 MLOAD PUSH2 0x54A SWAP3 SWAP2 SWAP1 PUSH2 0xA7B JUMP JUMPDEST PUSH1 0x40 MLOAD DUP1 SWAP2 SUB SWAP1 LOG1 CALLER PUSH1 0x0 SWAP1 DUP2 MSTORE PUSH1 0x6 PUSH1 0x20 MSTORE PUSH1 0x40 DUP2 KECCAK256 DUP1 SLOAD PUSH1 0x3 SWAP3 SWAP1 PUSH2 0x40E SWAP1 DUP5 SWAP1 PUSH2 0xB9D JUMP JUMPDEST PUSH1 0x1 DUP3 PUSH1 0x2 DUP2 GT ISZERO PUSH2 0x594 JUMPI PUSH4 0x4E487B71 PUSH1 0xE0 SHL PUSH1 0x0 MSTORE PUSH1 0x21 PUSH1 0x4 MSTORE PUSH1 0x24 PUSH1 0x0 REVERT JUMPDEST PUSH1 0x2 DUP2 GT ISZERO PUSH2 0x5B3 JUMPI PUSH4 0x4E487B71 PUSH1 0xE0 SHL PUSH1 0x0 MSTORE PUSH1 0x21 PUSH1 0x4 MSTORE PUSH1 0x24 PUSH1 0x0 REVERT JUMPDEST EQ DUP1 ISZERO PUSH2 0x5DF JUMPI POP PUSH1 0x0 DUP2 PUSH1 0x2 DUP2 GT ISZERO PUSH2 0x5DD JUMPI PUSH4 0x4E487B71 PUSH1 0xE0 SHL PUSH1 0x0 MSTORE PUSH1 0x21 PUSH1 0x4 MSTORE PUSH1 0x24 PUSH1 0x0 REVERT JUMPDEST EQ JUMPDEST ISZERO PUSH2 0x604 JUMPI PUSH1 0x0 DUP1 MLOAD PUSH1 0x20 PUSH2 0xBD8 DUP4 CODECOPY DUP2 MLOAD SWAP2 MSTORE CALLER PUSH1 0x3 PUSH1 0x40 MLOAD PUSH2 0x54A SWAP3 SWAP2 SWAP1 PUSH2 0xA7B JUMP JUMPDEST PUSH1 0x1 DUP3 PUSH1 0x2 DUP2 GT ISZERO PUSH2 0x626 JUMPI PUSH4 0x4E487B71 PUSH1 0xE0 SHL PUSH1 0x0 MSTORE PUSH1 0x21 PUSH1 0x4 MSTORE PUSH1 0x24 PUSH1 0x0 REVERT JUMPDEST PUSH1 0x2 DUP2 GT ISZERO PUSH2 0x645 JUMPI PUSH4 0x4E487B71 PUSH1 0xE0 SHL PUSH1 0x0 MSTORE PUSH1 0x21 PUSH1 0x4 MSTORE PUSH1 0x24 PUSH1 0x0 REVERT JUMPDEST EQ DUP1 ISZERO PUSH2 0x671 JUMPI POP PUSH1 0x2 DUP2 PUSH1 0x2 DUP2 GT ISZERO PUSH2 0x66F JUMPI PUSH4 0x4E487B71 PUSH1 0xE0 SHL PUSH1 0x0 MSTORE PUSH1 0x21 PUSH1 0x4 MSTORE PUSH1 0x24 PUSH1 0x0 REVERT JUMPDEST EQ JUMPDEST ISZERO PUSH2 0x696 JUMPI PUSH1 0x0 DUP1 MLOAD PUSH1 0x20 PUSH2 0xBD8 DUP4 CODECOPY DUP2 MLOAD SWAP2 MSTORE CALLER PUSH1 0x0 PUSH1 0x40 MLOAD PUSH2 0x4AB SWAP3 SWAP2 SWAP1 PUSH2 0xAAF JUMP JUMPDEST PUSH1 0x2 DUP3 PUSH1 0x2 DUP2 GT ISZERO PUSH2 0x6B8 JUMPI PUSH4 0x4E487B71 PUSH1 0xE0 SHL PUSH1 0x0 MSTORE PUSH1 0x21 PUSH1 0x4 MSTORE PUSH1 0x24 PUSH1 0x0 REVERT JUMPDEST PUSH1 0x2 DUP2 GT ISZERO PUSH2 0x6D7 JUMPI PUSH4 0x4E487B71 PUSH1 0xE0 SHL PUSH1 0x0 MSTORE PUSH1 0x21 PUSH1 0x4 MSTORE PUSH1 0x24 PUSH1 0x0 REVERT JUMPDEST EQ DUP1 ISZERO PUSH2 0x703 JUMPI POP PUSH1 0x0 DUP2 PUSH1 0x2 DUP2 GT ISZERO PUSH2 0x701 JUMPI PUSH4 0x4E487B71 PUSH1 0xE0 SHL PUSH1 0x0 MSTORE PUSH1 0x21 PUSH1 0x4 MSTORE PUSH1 0x24 PUSH1 0x0 REVERT JUMPDEST EQ JUMPDEST ISZERO PUSH2 0x728 JUMPI PUSH1 0x0 DUP1 MLOAD PUSH1 0x20 PUSH2 0xBD8 DUP4 CODECOPY DUP2 MLOAD SWAP2 MSTORE CALLER PUSH1 0x0 PUSH1 0x40 MLOAD PUSH2 0x4AB SWAP3 SWAP2 SWAP1 PUSH2 0xAAF JUMP JUMPDEST PUSH1 0x0 DUP1 MLOAD PUSH1 0x20 PUSH2 0xBD8 DUP4 CODECOPY DUP2 MLOAD SWAP2 MSTORE CALLER PUSH1 0x3 PUSH1 0x40 MLOAD PUSH2 0x748 SWAP3 SWAP2 SWAP1 PUSH2 0xA7B JUMP JUMPDEST PUSH1 0x40 MLOAD DUP1 SWAP2 SUB SWAP1 LOG1 CALLER PUSH1 0x0 SWAP1 DUP2 MSTORE PUSH1 0x6 PUSH1 0x20 MSTORE PUSH1 0x40 DUP2 KECCAK256 DUP1 SLOAD PUSH1 0x3 SWAP3 SWAP1 PUSH2 0x770 SWAP1 DUP5 SWAP1 PUSH2 0xB9D JUMP JUMPDEST SWAP1 SWAP2 SSTORE POP POP JUMPDEST CALLER PUSH1 0x0 SWAP1 DUP2 MSTORE PUSH1 0x6 PUSH1 0x20 MSTORE PUSH1 0x40 DUP2 KECCAK256 PUSH1 0x1 SWAP1 DUP2 ADD DUP1 SLOAD SWAP2 SWAP3 SWAP1 SWAP2 PUSH2 0x79B SWAP1 DUP5 SWAP1 PUSH2 0xB9D JUMP JUMPDEST SWAP1 SWAP2 SSTORE POP POP CALLER PUSH1 0x0 SWAP1 DUP2 MSTORE PUSH1 0x6 PUSH1 0x20 MSTORE PUSH1 0x40 DUP2 KECCAK256 PUSH1 0x2 ADD DUP1 SLOAD TIMESTAMP SWAP3 SWAP1 PUSH2 0x7C2 SWAP1 DUP5 SWAP1 PUSH2 0xB9D JUMP JUMPDEST SWAP1 SWAP2 SSTORE POP POP POP POP JUMP JUMPDEST PUSH1 0x0 SLOAD PUSH1 0x1 PUSH1 0x1 PUSH1 0xA0 SHL SUB AND CALLER EQ PUSH2 0x7F5 JUMPI PUSH1 0x40 MLOAD PUSH3 0x461BCD PUSH1 0xE5 SHL DUP2 MSTORE PUSH1 0x4 ADD PUSH2 0x19B SWAP1 PUSH2 0xB68 JUMP JUMPDEST PUSH1 0x40 MLOAD PUSH4 0xFAD8FE0D PUSH1 0xE0 SHL DUP2 MSTORE PUSH32 0x0 SWAP1 PUSH1 0x1 PUSH1 0x1 PUSH1 0xA0 SHL SUB DUP3 AND SWAP1 PUSH4 0xFAD8FE0D SWAP1 PUSH2 0x84B SWAP1 DUP8 SWAP1 ADDRESS SWAP1 CALLER SWAP1 DUP10 SWAP1 DUP10 SWAP1 PUSH1 0x4 ADD PUSH2 0xAE4 JUMP JUMPDEST PUSH1 0x0 PUSH1 0x40 MLOAD DUP1 DUP4 SUB DUP2 PUSH1 0x0 DUP8 DUP1 EXTCODESIZE ISZERO DUP1 ISZERO PUSH2 0x865 JUMPI PUSH1 0x0 DUP1 REVERT JUMPDEST POP GAS CALL ISZERO DUP1 ISZERO PUSH2 0x879 JUMPI RETURNDATASIZE PUSH1 0x0 DUP1 RETURNDATACOPY RETURNDATASIZE PUSH1 0x0 REVERT JUMPDEST POP POP POP PUSH1 0x1 SWAP4 SWAP1 SWAP4 SSTORE POP POP POP POP JUMP JUMPDEST PUSH1 0x0 SLOAD PUSH1 0x1 PUSH1 0x1 PUSH1 0xA0 SHL SUB AND CALLER EQ PUSH2 0x8B2 JUMPI PUSH1 0x40 MLOAD PUSH3 0x461BCD PUSH1 0xE5 SHL DUP2 MSTORE PUSH1 0x4 ADD PUSH2 0x19B SWAP1 PUSH2 0xB68 JUMP JUMPDEST PUSH1 0x1 PUSH1 0x1 PUSH1 0xA0 SHL SUB DUP2 AND PUSH2 0x917 JUMPI PUSH1 0x40 MLOAD PUSH3 0x461BCD PUSH1 0xE5 SHL DUP2 MSTORE PUSH1 0x20 PUSH1 0x4 DUP3 ADD MSTORE PUSH1 0x26 PUSH1 0x24 DUP3 ADD MSTORE PUSH32 0x4F776E61626C653A206E6577206F776E657220697320746865207A65726F2061 PUSH1 0x44 DUP3 ADD MSTORE PUSH6 0x646472657373 PUSH1 0xD0 SHL PUSH1 0x64 DUP3 ADD MSTORE PUSH1 0x84 ADD PUSH2 0x19B JUMP JUMPDEST PUSH2 0x920 DUP2 PUSH2 0x923 JUMP JUMPDEST POP JUMP JUMPDEST PUSH1 0x0 DUP1 SLOAD PUSH1 0x1 PUSH1 0x1 PUSH1 0xA0 SHL SUB DUP4 DUP2 AND PUSH1 0x1 PUSH1 0x1 PUSH1 0xA0 SHL SUB NOT DUP4 AND DUP2 OR DUP5 SSTORE PUSH1 0x40 MLOAD SWAP2 SWAP1 SWAP3 AND SWAP3 DUP4 SWAP2 PUSH32 0x8BE0079C531659141344CD1FD0A4F28419497F9722A3DAAFE3B4186F6B6457E0 SWAP2 SWAP1 LOG3 POP POP JUMP JUMPDEST PUSH1 0x0 DUP1 DUP1 DUP1 JUMPDEST SWAP4 SWAP3 POP POP POP JUMP JUMPDEST PUSH1 0x0 PUSH1 0x20 DUP3 DUP5 SUB SLT ISZERO PUSH2 0x991 JUMPI DUP1 DUP2 REVERT JUMPDEST DUP2 CALLDATALOAD PUSH1 0x1 PUSH1 0x1 PUSH1 0xA0 SHL SUB DUP2 AND DUP2 EQ PUSH2 0x979 JUMPI DUP2 DUP3 REVERT JUMPDEST PUSH1 0x0 DUP1 PUSH1 0x0 PUSH1 0x60 DUP5 DUP7 SUB SLT ISZERO PUSH2 0x9BB JUMPI DUP2 DUP3 REVERT JUMPDEST DUP4 CALLDATALOAD PUSH8 0xFFFFFFFFFFFFFFFF DUP1 DUP3 GT ISZERO PUSH2 0x9D2 JUMPI DUP4 DUP5 REVERT JUMPDEST DUP2 DUP7 ADD SWAP2 POP DUP7 PUSH1 0x1F DUP4 ADD SLT PUSH2 0x9E5 JUMPI DUP4 DUP5 REVERT JUMPDEST DUP2 CALLDATALOAD DUP2 DUP2 GT ISZERO PUSH2 0x9F7 JUMPI PUSH2 0x9F7 PUSH2 0xBC1 JUMP JUMPDEST PUSH1 0x40 MLOAD PUSH1 0x1F DUP3 ADD PUSH1 0x1F NOT SWAP1 DUP2 AND PUSH1 0x3F ADD AND DUP2 ADD SWAP1 DUP4 DUP3 GT DUP2 DUP4 LT OR ISZERO PUSH2 0xA1F JUMPI PUSH2 0xA1F PUSH2 0xBC1 JUMP JUMPDEST DUP2 PUSH1 0x40 MSTORE DUP3 DUP2 MSTORE DUP10 PUSH1 0x20 DUP5 DUP8 ADD ADD GT ISZERO PUSH2 0xA37 JUMPI DUP7 DUP8 REVERT JUMPDEST DUP3 PUSH1 0x20 DUP7 ADD PUSH1 0x20 DUP4 ADD CALLDATACOPY SWAP2 DUP3 ADD PUSH1 0x20 SWAP1 DUP2 ADD SWAP7 SWAP1 SWAP7 MSTORE POP SWAP8 SWAP4 DUP7 ADD CALLDATALOAD SWAP7 POP POP POP PUSH1 0x40 SWAP1 SWAP4 ADD CALLDATALOAD SWAP3 POP SWAP1 POP JUMP JUMPDEST PUSH1 0x0 PUSH1 0x20 DUP3 DUP5 SUB SLT ISZERO PUSH2 0xA74 JUMPI DUP1 DUP2 REVERT JUMPDEST POP CALLDATALOAD SWAP2 SWAP1 POP JUMP JUMPDEST PUSH1 0x1 PUSH1 0x1 PUSH1 0xA0 SHL SUB SWAP3 SWAP1 SWAP3 AND DUP3 MSTORE PUSH1 0x60 PUSH1 0x20 DUP4 ADD DUP2 SWAP1 MSTORE PUSH1 0x3 SWAP1 DUP4 ADD MSTORE PUSH3 0x3BB4B7 PUSH1 0xE9 SHL PUSH1 0x80 DUP4 ADD MSTORE PUSH1 0x40 DUP3 ADD MSTORE PUSH1 0xA0 ADD SWAP1 JUMP JUMPDEST PUSH1 0x1 PUSH1 0x1 PUSH1 0xA0 SHL SUB SWAP3 SWAP1 SWAP3 AND DUP3 MSTORE PUSH1 0x60 PUSH1 0x20 DUP4 ADD DUP2 SWAP1 MSTORE PUSH1 0x4 SWAP1 DUP4 ADD MSTORE PUSH4 0x6C6F7373 PUSH1 0xE0 SHL PUSH1 0x80 DUP4 ADD MSTORE PUSH1 0x40 DUP3 ADD MSTORE PUSH1 0xA0 ADD SWAP1 JUMP JUMPDEST PUSH1 0xA0 DUP2 MSTORE PUSH1 0x0 DUP7 MLOAD DUP1 PUSH1 0xA0 DUP5 ADD MSTORE DUP2 JUMPDEST DUP2 DUP2 LT ISZERO PUSH2 0xB11 JUMPI PUSH1 0x20 DUP2 DUP11 ADD DUP2 ADD MLOAD PUSH1 0xC0 DUP7 DUP5 ADD ADD MSTORE ADD PUSH2 0xAF4 JUMP JUMPDEST DUP2 DUP2 GT ISZERO PUSH2 0xB22 JUMPI DUP3 PUSH1 0xC0 DUP4 DUP7 ADD ADD MSTORE JUMPDEST POP PUSH1 0x1F ADD PUSH1 0x1F NOT AND DUP3 ADD PUSH1 0xC0 ADD SWAP1 POP PUSH2 0xB46 PUSH1 0x20 DUP4 ADD DUP8 PUSH1 0x1 PUSH1 0x1 PUSH1 0xA0 SHL SUB AND SWAP1 MSTORE JUMP JUMPDEST PUSH1 0x1 PUSH1 0x1 PUSH1 0xA0 SHL SUB DUP6 AND PUSH1 0x40 DUP4 ADD MSTORE PUSH1 0x60 DUP3 ADD SWAP4 SWAP1 SWAP4 MSTORE PUSH1 0x80 ADD MSTORE SWAP4 SWAP3 POP POP POP JUMP JUMPDEST PUSH1 0x20 DUP1 DUP3 MSTORE DUP2 DUP2 ADD MSTORE PUSH32 0x4F776E61626C653A2063616C6C6572206973206E6F7420746865206F776E6572 PUSH1 0x40 DUP3 ADD MSTORE PUSH1 0x60 ADD SWAP1 JUMP JUMPDEST PUSH1 0x0 DUP3 NOT DUP3 GT ISZERO PUSH2 0xBBC JUMPI PUSH4 0x4E487B71 PUSH1 0xE0 SHL DUP2 MSTORE PUSH1 0x11 PUSH1 0x4 MSTORE PUSH1 0x24 DUP2 REVERT JUMPDEST POP ADD SWAP1 JUMP JUMPDEST PUSH4 0x4E487B71 PUSH1 0xE0 SHL PUSH1 0x0 MSTORE PUSH1 0x41 PUSH1 0x4 MSTORE PUSH1 0x24 PUSH1 0x0 REVERT INVALID DUP6 0xFC SHL 0xBB CODECOPY 0xDE DUP15 0xDC GT PUSH18 0x7B838A522D914A97C6952CB06DE101D20931 RETURN CALLDATASIZE CALL DUP8 LOG2 PUSH5 0x6970667358 0x22 SLT KECCAK256 0xD0 EQ 0x25 0x1F DIV 0x2E 0xDA DIV PUSH21 0xE9DAE837662040BC35C4625E8341001885CBAEBE32 SDIV DUP3 PUSH5 0x736F6C6343 STOP ADDMOD DIV STOP CALLER "
        },
        "methodIdentifiers": {
          "owner()": "8da5cb5b",
          "register()": "1aa3a008",
          "renounceOwnership()": "715018a6",
          "s_isRegistered(address)": "bc3c09c4",
          "s_registeredAddresses(uint256)": "9d5b24c0",
          "transferOwnership(address)": "f2fde38b",
          "updateEvent(string,uint256,uint256)": "a6fa9a0a",
          "userPlay(uint256)": "a3195c47"
        }
      }
    }
  }
}