{
  "contracts/eventGame.sol": {
    "EventGame": {
      "abi": [
        {
          "inputs": [
            {
              "internalType": "address",
              "name": "_logAddress",
              "type": "address"
            },
            {
              "internalType": "address",
              "name": "_owner",
              "type": "address"
            },
            {
              "internalType": "uint256",
              "name": "_eventId",
              "type": "uint256"
            }
          ],
          "stateMutability": "nonpayable",
          "type": "constructor"
        },
        {
          "anonymous": false,
          "inputs": [
            {
              "indexed": false,
              "internalType": "address",
              "name": "player",
              "type": "address"
            },
            {
              "indexed": false,
              "internalType": "string",
              "name": "result",
              "type": "string"
            },
            {
              "indexed": false,
              "internalType": "uint256",
              "name": "points",
              "type": "uint256"
            }
          ],
          "name": "result",
          "type": "event"
        },
        {
          "inputs": [],
          "name": "register",
          "outputs": [],
          "stateMutability": "nonpayable",
          "type": "function"
        },
        {
          "inputs": [
            {
              "internalType": "address",
              "name": "",
              "type": "address"
            }
          ],
          "name": "s_isRegistered",
          "outputs": [
            {
              "internalType": "bool",
              "name": "",
              "type": "bool"
            }
          ],
          "stateMutability": "view",
          "type": "function"
        },
        {
          "inputs": [
            {
              "internalType": "uint256",
              "name": "",
              "type": "uint256"
            }
          ],
          "name": "s_registeredAddresses",
          "outputs": [
            {
              "internalType": "address",
              "name": "",
              "type": "address"
            }
          ],
          "stateMutability": "view",
          "type": "function"
        },
        {
          "inputs": [],
          "name": "startGame",
          "outputs": [],
          "stateMutability": "nonpayable",
          "type": "function"
        },
        {
          "inputs": [],
          "name": "test",
          "outputs": [
            {
              "internalType": "string",
              "name": "",
              "type": "string"
            }
          ],
          "stateMutability": "view",
          "type": "function"
        },
        {
          "inputs": [
            {
              "internalType": "string",
              "name": "_newName",
              "type": "string"
            }
          ],
          "name": "updateName",
          "outputs": [],
          "stateMutability": "nonpayable",
          "type": "function"
        },
        {
          "inputs": [
            {
              "internalType": "uint256",
              "name": "_newPrice",
              "type": "uint256"
            }
          ],
          "name": "updatePrice",
          "outputs": [],
          "stateMutability": "nonpayable",
          "type": "function"
        },
        {
          "inputs": [
            {
              "internalType": "uint256",
              "name": "_newTickets",
              "type": "uint256"
            }
          ],
          "name": "updateTickets",
          "outputs": [],
          "stateMutability": "nonpayable",
          "type": "function"
        },
        {
          "inputs": [
            {
              "internalType": "uint256",
              "name": "_play",
              "type": "uint256"
            }
          ],
          "name": "userPlay",
          "outputs": [],
          "stateMutability": "nonpayable",
          "type": "function"
        }
      ],
      "evm": {
        "bytecode": {
          "linkReferences": {},
          "object": "60e06040526000805460ff1916600117905534801561001d57600080fd5b50604051610e3e380380610e3e83398101604081905261003c9161007b565b6001600160601b0319606093841b81166080529190921b1660a05260c0526100b6565b80516001600160a01b038116811461007657600080fd5b919050565b60008060006060848603121561008f578283fd5b6100988461005f565b92506100a66020850161005f565b9150604084015190509250925092565b60805160601c60a05160601c60c051610d1461012a600039600081816102c40152818161039a0152818161047b01526104e90152600081816103610152818161040b015281816104b00152610a5c0152600081816102eb015281816103c70152818161044401526105160152610d146000f3fe608060405234801561001057600080fd5b50600436106100935760003560e01c80639d5b24c0116100665780639d5b24c0146100db578063a3195c471461010b578063bc3c09c41461011e578063d65ab5f2146100a0578063f8a8fd6d1461015157600080fd5b80631aa3a0081461009857806377897d21146100a257806384da92a7146100b55780638d6cc56d146100c8575b600080fd5b6100a0610166565b005b6100a06100b0366004610b84565b610356565b6100a06100c3366004610ada565b610400565b6100a06100d6366004610b84565b6104a5565b6100ee6100e9366004610b84565b61054f565b6040516001600160a01b0390911681526020015b60405180910390f35b6100a0610119366004610b84565b610579565b61014161012c366004610ab3565b60026020526000908152604090205460ff1681565b6040519015158152602001610102565b610159610a4f565b6040516101029190610c50565b60005460ff1615156001146101c25760405162461bcd60e51b815260206004820152601a60248201527f526567697374726174696f6e206e6f74206f70656e207965742100000000000060448201526064015b60405180910390fd5b3360009081526002602052604090205460ff16156102225760405162461bcd60e51b815260206004820152601c60248201527f596f75206861766520616c72656164792072656769737465726564210000000060448201526064016101b9565b60408051606081018252600080825260208083018281524284860190815233808552600384528685208651815592516001808501919091559151600293840155815480830183557fb10e2d527612073b26eecdfd717e6a320cf44b4afac2b0732d9fcbe2b7fa0cf60180546001600160a01b031916821790559190925291849020805460ff19169091179055915163034f17d960e11b815260048101929092527f00000000000000000000000000000000000000000000000000000000000000006024830152907f0000000000000000000000000000000000000000000000000000000000000000906001600160a01b0382169063069e2fb2906044015b600060405180830381600087803b15801561033a57600080fd5b505af115801561034e573d6000803e3d6000fd5b505050505050565b336001600160a01b037f0000000000000000000000000000000000000000000000000000000000000000161461038b57600080fd5b604051639abea6c160e01b81527f00000000000000000000000000000000000000000000000000000000000000006004820152602481018290527f0000000000000000000000000000000000000000000000000000000000000000906001600160a01b03821690639abea6c190604401610320565b336001600160a01b037f0000000000000000000000000000000000000000000000000000000000000000161461043557600080fd5b60405163064ab2b160e41b81527f0000000000000000000000000000000000000000000000000000000000000000906001600160a01b038216906364ab2b1090610320907f0000000000000000000000000000000000000000000000000000000000000000908690600401610c63565b336001600160a01b037f000000000000000000000000000000000000000000000000000000000000000016146104da57600080fd5b60405163090859eb60e11b81527f00000000000000000000000000000000000000000000000000000000000000006004820152602481018290527f0000000000000000000000000000000000000000000000000000000000000000906001600160a01b03821690631210b3d690604401610320565b6001818154811061055f57600080fd5b6000918252602090912001546001600160a01b0316905081565b3360009081526002602052604090205460ff16151560011461059a57600080fd5b33600090815260036020526040902060010154600510156105ba57600080fd5b60006105c4610aa6565b90508060028111156105e657634e487b7160e01b600052602160045260246000fd5b82600281111561060657634e487b7160e01b600052602160045260246000fd5b600281111561062557634e487b7160e01b600052602160045260246000fd5b14156106995760408051338152606060208201819052600490820152636472617760e01b60808201526001818301529051600080516020610cbf8339815191529181900360a00190a133600090815260036020526040812080546001929061068e908490610c84565b909155506109fa9050565b60008260028111156106bb57634e487b7160e01b600052602160045260246000fd5b60028111156106da57634e487b7160e01b600052602160045260246000fd5b1480156107065750600181600281111561070457634e487b7160e01b600052602160045260246000fd5b145b1561073857600080516020610cbf83398151915233600060405161072b929190610c1b565b60405180910390a16109fa565b600082600281111561075a57634e487b7160e01b600052602160045260246000fd5b600281111561077957634e487b7160e01b600052602160045260246000fd5b1480156107a5575060028160028111156107a357634e487b7160e01b600052602160045260246000fd5b145b156107f457600080516020610cbf8339815191523360036040516107ca929190610be7565b60405180910390a1336000908152600360208190526040822080549192909161068e908490610c84565b600182600281111561081657634e487b7160e01b600052602160045260246000fd5b600281111561083557634e487b7160e01b600052602160045260246000fd5b1480156108615750600081600281111561085f57634e487b7160e01b600052602160045260246000fd5b145b1561088657600080516020610cbf8339815191523360036040516107ca929190610be7565b60018260028111156108a857634e487b7160e01b600052602160045260246000fd5b60028111156108c757634e487b7160e01b600052602160045260246000fd5b1480156108f3575060028160028111156108f157634e487b7160e01b600052602160045260246000fd5b145b1561091857600080516020610cbf83398151915233600060405161072b929190610c1b565b600282600281111561093a57634e487b7160e01b600052602160045260246000fd5b600281111561095957634e487b7160e01b600052602160045260246000fd5b1480156109855750600081600281111561098357634e487b7160e01b600052602160045260246000fd5b145b156109aa57600080516020610cbf83398151915233600060405161072b929190610c1b565b600080516020610cbf8339815191523360036040516109ca929190610be7565b60405180910390a133600090815260036020819052604082208054919290916109f4908490610c84565b90915550505b3360009081526003602052604081206001908101805491929091610a1f908490610c84565b90915550503360009081526003602052604081206002018054429290610a46908490610c84565b90915550505050565b6060336001600160a01b037f00000000000000000000000000000000000000000000000000000000000000001614610a8657600080fd5b5060408051808201909152600581526468656c6c6f60d81b602082015290565b60008080805b9392505050565b600060208284031215610ac4578081fd5b81356001600160a01b0381168114610aac578182fd5b600060208284031215610aeb578081fd5b813567ffffffffffffffff80821115610b02578283fd5b818401915084601f830112610b15578283fd5b813581811115610b2757610b27610ca8565b604051601f8201601f19908116603f01168101908382118183101715610b4f57610b4f610ca8565b81604052828152876020848701011115610b67578586fd5b826020860160208301379182016020019490945295945050505050565b600060208284031215610b95578081fd5b5035919050565b60008151808452815b81811015610bc157602081850181015186830182015201610ba5565b81811115610bd25782602083870101525b50601f01601f19169290920160200192915050565b6001600160a01b03929092168252606060208301819052600390830152623bb4b760e91b6080830152604082015260a00190565b6001600160a01b03929092168252606060208301819052600490830152636c6f737360e01b6080830152604082015260a00190565b602081526000610aac6020830184610b9c565b828152604060208201526000610c7c6040830184610b9c565b949350505050565b60008219821115610ca357634e487b7160e01b81526011600452602481fd5b500190565b634e487b7160e01b600052604160045260246000fdfe85fc1bbb39de8edc11717b838a522d914a97c6952cb06de101d20931f336f187a26469706673582212205b698aa02319102829f68a454e887867590b85ceecee916da3baa05e0456af5564736f6c63430008040033",
          "opcodes": "PUSH1 0xE0 PUSH1 0x40 MSTORE PUSH1 0x0 DUP1 SLOAD PUSH1 0xFF NOT AND PUSH1 0x1 OR SWAP1 SSTORE CALLVALUE DUP1 ISZERO PUSH2 0x1D JUMPI PUSH1 0x0 DUP1 REVERT JUMPDEST POP PUSH1 0x40 MLOAD PUSH2 0xE3E CODESIZE SUB DUP1 PUSH2 0xE3E DUP4 CODECOPY DUP2 ADD PUSH1 0x40 DUP2 SWAP1 MSTORE PUSH2 0x3C SWAP2 PUSH2 0x7B JUMP JUMPDEST PUSH1 0x1 PUSH1 0x1 PUSH1 0x60 SHL SUB NOT PUSH1 0x60 SWAP4 DUP5 SHL DUP2 AND PUSH1 0x80 MSTORE SWAP2 SWAP1 SWAP3 SHL AND PUSH1 0xA0 MSTORE PUSH1 0xC0 MSTORE PUSH2 0xB6 JUMP JUMPDEST DUP1 MLOAD PUSH1 0x1 PUSH1 0x1 PUSH1 0xA0 SHL SUB DUP2 AND DUP2 EQ PUSH2 0x76 JUMPI PUSH1 0x0 DUP1 REVERT JUMPDEST SWAP2 SWAP1 POP JUMP JUMPDEST PUSH1 0x0 DUP1 PUSH1 0x0 PUSH1 0x60 DUP5 DUP7 SUB SLT ISZERO PUSH2 0x8F JUMPI DUP3 DUP4 REVERT JUMPDEST PUSH2 0x98 DUP5 PUSH2 0x5F JUMP JUMPDEST SWAP3 POP PUSH2 0xA6 PUSH1 0x20 DUP6 ADD PUSH2 0x5F JUMP JUMPDEST SWAP2 POP PUSH1 0x40 DUP5 ADD MLOAD SWAP1 POP SWAP3 POP SWAP3 POP SWAP3 JUMP JUMPDEST PUSH1 0x80 MLOAD PUSH1 0x60 SHR PUSH1 0xA0 MLOAD PUSH1 0x60 SHR PUSH1 0xC0 MLOAD PUSH2 0xD14 PUSH2 0x12A PUSH1 0x0 CODECOPY PUSH1 0x0 DUP2 DUP2 PUSH2 0x2C4 ADD MSTORE DUP2 DUP2 PUSH2 0x39A ADD MSTORE DUP2 DUP2 PUSH2 0x47B ADD MSTORE PUSH2 0x4E9 ADD MSTORE PUSH1 0x0 DUP2 DUP2 PUSH2 0x361 ADD MSTORE DUP2 DUP2 PUSH2 0x40B ADD MSTORE DUP2 DUP2 PUSH2 0x4B0 ADD MSTORE PUSH2 0xA5C ADD MSTORE PUSH1 0x0 DUP2 DUP2 PUSH2 0x2EB ADD MSTORE DUP2 DUP2 PUSH2 0x3C7 ADD MSTORE DUP2 DUP2 PUSH2 0x444 ADD MSTORE PUSH2 0x516 ADD MSTORE PUSH2 0xD14 PUSH1 0x0 RETURN INVALID PUSH1 0x80 PUSH1 0x40 MSTORE CALLVALUE DUP1 ISZERO PUSH2 0x10 JUMPI PUSH1 0x0 DUP1 REVERT JUMPDEST POP PUSH1 0x4 CALLDATASIZE LT PUSH2 0x93 JUMPI PUSH1 0x0 CALLDATALOAD PUSH1 0xE0 SHR DUP1 PUSH4 0x9D5B24C0 GT PUSH2 0x66 JUMPI DUP1 PUSH4 0x9D5B24C0 EQ PUSH2 0xDB JUMPI DUP1 PUSH4 0xA3195C47 EQ PUSH2 0x10B JUMPI DUP1 PUSH4 0xBC3C09C4 EQ PUSH2 0x11E JUMPI DUP1 PUSH4 0xD65AB5F2 EQ PUSH2 0xA0 JUMPI DUP1 PUSH4 0xF8A8FD6D EQ PUSH2 0x151 JUMPI PUSH1 0x0 DUP1 REVERT JUMPDEST DUP1 PUSH4 0x1AA3A008 EQ PUSH2 0x98 JUMPI DUP1 PUSH4 0x77897D21 EQ PUSH2 0xA2 JUMPI DUP1 PUSH4 0x84DA92A7 EQ PUSH2 0xB5 JUMPI DUP1 PUSH4 0x8D6CC56D EQ PUSH2 0xC8 JUMPI JUMPDEST PUSH1 0x0 DUP1 REVERT JUMPDEST PUSH2 0xA0 PUSH2 0x166 JUMP JUMPDEST STOP JUMPDEST PUSH2 0xA0 PUSH2 0xB0 CALLDATASIZE PUSH1 0x4 PUSH2 0xB84 JUMP JUMPDEST PUSH2 0x356 JUMP JUMPDEST PUSH2 0xA0 PUSH2 0xC3 CALLDATASIZE PUSH1 0x4 PUSH2 0xADA JUMP JUMPDEST PUSH2 0x400 JUMP JUMPDEST PUSH2 0xA0 PUSH2 0xD6 CALLDATASIZE PUSH1 0x4 PUSH2 0xB84 JUMP JUMPDEST PUSH2 0x4A5 JUMP JUMPDEST PUSH2 0xEE PUSH2 0xE9 CALLDATASIZE PUSH1 0x4 PUSH2 0xB84 JUMP JUMPDEST PUSH2 0x54F JUMP JUMPDEST PUSH1 0x40 MLOAD PUSH1 0x1 PUSH1 0x1 PUSH1 0xA0 SHL SUB SWAP1 SWAP2 AND DUP2 MSTORE PUSH1 0x20 ADD JUMPDEST PUSH1 0x40 MLOAD DUP1 SWAP2 SUB SWAP1 RETURN JUMPDEST PUSH2 0xA0 PUSH2 0x119 CALLDATASIZE PUSH1 0x4 PUSH2 0xB84 JUMP JUMPDEST PUSH2 0x579 JUMP JUMPDEST PUSH2 0x141 PUSH2 0x12C CALLDATASIZE PUSH1 0x4 PUSH2 0xAB3 JUMP JUMPDEST PUSH1 0x2 PUSH1 0x20 MSTORE PUSH1 0x0 SWAP1 DUP2 MSTORE PUSH1 0x40 SWAP1 KECCAK256 SLOAD PUSH1 0xFF AND DUP2 JUMP JUMPDEST PUSH1 0x40 MLOAD SWAP1 ISZERO ISZERO DUP2 MSTORE PUSH1 0x20 ADD PUSH2 0x102 JUMP JUMPDEST PUSH2 0x159 PUSH2 0xA4F JUMP JUMPDEST PUSH1 0x40 MLOAD PUSH2 0x102 SWAP2 SWAP1 PUSH2 0xC50 JUMP JUMPDEST PUSH1 0x0 SLOAD PUSH1 0xFF AND ISZERO ISZERO PUSH1 0x1 EQ PUSH2 0x1C2 JUMPI PUSH1 0x40 MLOAD PUSH3 0x461BCD PUSH1 0xE5 SHL DUP2 MSTORE PUSH1 0x20 PUSH1 0x4 DUP3 ADD MSTORE PUSH1 0x1A PUSH1 0x24 DUP3 ADD MSTORE PUSH32 0x526567697374726174696F6E206E6F74206F70656E2079657421000000000000 PUSH1 0x44 DUP3 ADD MSTORE PUSH1 0x64 ADD JUMPDEST PUSH1 0x40 MLOAD DUP1 SWAP2 SUB SWAP1 REVERT JUMPDEST CALLER PUSH1 0x0 SWAP1 DUP2 MSTORE PUSH1 0x2 PUSH1 0x20 MSTORE PUSH1 0x40 SWAP1 KECCAK256 SLOAD PUSH1 0xFF AND ISZERO PUSH2 0x222 JUMPI PUSH1 0x40 MLOAD PUSH3 0x461BCD PUSH1 0xE5 SHL DUP2 MSTORE PUSH1 0x20 PUSH1 0x4 DUP3 ADD MSTORE PUSH1 0x1C PUSH1 0x24 DUP3 ADD MSTORE PUSH32 0x596F75206861766520616C726561647920726567697374657265642100000000 PUSH1 0x44 DUP3 ADD MSTORE PUSH1 0x64 ADD PUSH2 0x1B9 JUMP JUMPDEST PUSH1 0x40 DUP1 MLOAD PUSH1 0x60 DUP2 ADD DUP3 MSTORE PUSH1 0x0 DUP1 DUP3 MSTORE PUSH1 0x20 DUP1 DUP4 ADD DUP3 DUP2 MSTORE TIMESTAMP DUP5 DUP7 ADD SWAP1 DUP2 MSTORE CALLER DUP1 DUP6 MSTORE PUSH1 0x3 DUP5 MSTORE DUP7 DUP6 KECCAK256 DUP7 MLOAD DUP2 SSTORE SWAP3 MLOAD PUSH1 0x1 DUP1 DUP6 ADD SWAP2 SWAP1 SWAP2 SSTORE SWAP2 MLOAD PUSH1 0x2 SWAP4 DUP5 ADD SSTORE DUP2 SLOAD DUP1 DUP4 ADD DUP4 SSTORE PUSH32 0xB10E2D527612073B26EECDFD717E6A320CF44B4AFAC2B0732D9FCBE2B7FA0CF6 ADD DUP1 SLOAD PUSH1 0x1 PUSH1 0x1 PUSH1 0xA0 SHL SUB NOT AND DUP3 OR SWAP1 SSTORE SWAP2 SWAP1 SWAP3 MSTORE SWAP2 DUP5 SWAP1 KECCAK256 DUP1 SLOAD PUSH1 0xFF NOT AND SWAP1 SWAP2 OR SWAP1 SSTORE SWAP2 MLOAD PUSH4 0x34F17D9 PUSH1 0xE1 SHL DUP2 MSTORE PUSH1 0x4 DUP2 ADD SWAP3 SWAP1 SWAP3 MSTORE PUSH32 0x0 PUSH1 0x24 DUP4 ADD MSTORE SWAP1 PUSH32 0x0 SWAP1 PUSH1 0x1 PUSH1 0x1 PUSH1 0xA0 SHL SUB DUP3 AND SWAP1 PUSH4 0x69E2FB2 SWAP1 PUSH1 0x44 ADD JUMPDEST PUSH1 0x0 PUSH1 0x40 MLOAD DUP1 DUP4 SUB DUP2 PUSH1 0x0 DUP8 DUP1 EXTCODESIZE ISZERO DUP1 ISZERO PUSH2 0x33A JUMPI PUSH1 0x0 DUP1 REVERT JUMPDEST POP GAS CALL ISZERO DUP1 ISZERO PUSH2 0x34E JUMPI RETURNDATASIZE PUSH1 0x0 DUP1 RETURNDATACOPY RETURNDATASIZE PUSH1 0x0 REVERT JUMPDEST POP POP POP POP POP POP JUMP JUMPDEST CALLER PUSH1 0x1 PUSH1 0x1 PUSH1 0xA0 SHL SUB PUSH32 0x0 AND EQ PUSH2 0x38B JUMPI PUSH1 0x0 DUP1 REVERT JUMPDEST PUSH1 0x40 MLOAD PUSH4 0x9ABEA6C1 PUSH1 0xE0 SHL DUP2 MSTORE PUSH32 0x0 PUSH1 0x4 DUP3 ADD MSTORE PUSH1 0x24 DUP2 ADD DUP3 SWAP1 MSTORE PUSH32 0x0 SWAP1 PUSH1 0x1 PUSH1 0x1 PUSH1 0xA0 SHL SUB DUP3 AND SWAP1 PUSH4 0x9ABEA6C1 SWAP1 PUSH1 0x44 ADD PUSH2 0x320 JUMP JUMPDEST CALLER PUSH1 0x1 PUSH1 0x1 PUSH1 0xA0 SHL SUB PUSH32 0x0 AND EQ PUSH2 0x435 JUMPI PUSH1 0x0 DUP1 REVERT JUMPDEST PUSH1 0x40 MLOAD PUSH4 0x64AB2B1 PUSH1 0xE4 SHL DUP2 MSTORE PUSH32 0x0 SWAP1 PUSH1 0x1 PUSH1 0x1 PUSH1 0xA0 SHL SUB DUP3 AND SWAP1 PUSH4 0x64AB2B10 SWAP1 PUSH2 0x320 SWAP1 PUSH32 0x0 SWAP1 DUP7 SWAP1 PUSH1 0x4 ADD PUSH2 0xC63 JUMP JUMPDEST CALLER PUSH1 0x1 PUSH1 0x1 PUSH1 0xA0 SHL SUB PUSH32 0x0 AND EQ PUSH2 0x4DA JUMPI PUSH1 0x0 DUP1 REVERT JUMPDEST PUSH1 0x40 MLOAD PUSH4 0x90859EB PUSH1 0xE1 SHL DUP2 MSTORE PUSH32 0x0 PUSH1 0x4 DUP3 ADD MSTORE PUSH1 0x24 DUP2 ADD DUP3 SWAP1 MSTORE PUSH32 0x0 SWAP1 PUSH1 0x1 PUSH1 0x1 PUSH1 0xA0 SHL SUB DUP3 AND SWAP1 PUSH4 0x1210B3D6 SWAP1 PUSH1 0x44 ADD PUSH2 0x320 JUMP JUMPDEST PUSH1 0x1 DUP2 DUP2 SLOAD DUP2 LT PUSH2 0x55F JUMPI PUSH1 0x0 DUP1 REVERT JUMPDEST PUSH1 0x0 SWAP2 DUP3 MSTORE PUSH1 0x20 SWAP1 SWAP2 KECCAK256 ADD SLOAD PUSH1 0x1 PUSH1 0x1 PUSH1 0xA0 SHL SUB AND SWAP1 POP DUP2 JUMP JUMPDEST CALLER PUSH1 0x0 SWAP1 DUP2 MSTORE PUSH1 0x2 PUSH1 0x20 MSTORE PUSH1 0x40 SWAP1 KECCAK256 SLOAD PUSH1 0xFF AND ISZERO ISZERO PUSH1 0x1 EQ PUSH2 0x59A JUMPI PUSH1 0x0 DUP1 REVERT JUMPDEST CALLER PUSH1 0x0 SWAP1 DUP2 MSTORE PUSH1 0x3 PUSH1 0x20 MSTORE PUSH1 0x40 SWAP1 KECCAK256 PUSH1 0x1 ADD SLOAD PUSH1 0x5 LT ISZERO PUSH2 0x5BA JUMPI PUSH1 0x0 DUP1 REVERT JUMPDEST PUSH1 0x0 PUSH2 0x5C4 PUSH2 0xAA6 JUMP JUMPDEST SWAP1 POP DUP1 PUSH1 0x2 DUP2 GT ISZERO PUSH2 0x5E6 JUMPI PUSH4 0x4E487B71 PUSH1 0xE0 SHL PUSH1 0x0 MSTORE PUSH1 0x21 PUSH1 0x4 MSTORE PUSH1 0x24 PUSH1 0x0 REVERT JUMPDEST DUP3 PUSH1 0x2 DUP2 GT ISZERO PUSH2 0x606 JUMPI PUSH4 0x4E487B71 PUSH1 0xE0 SHL PUSH1 0x0 MSTORE PUSH1 0x21 PUSH1 0x4 MSTORE PUSH1 0x24 PUSH1 0x0 REVERT JUMPDEST PUSH1 0x2 DUP2 GT ISZERO PUSH2 0x625 JUMPI PUSH4 0x4E487B71 PUSH1 0xE0 SHL PUSH1 0x0 MSTORE PUSH1 0x21 PUSH1 0x4 MSTORE PUSH1 0x24 PUSH1 0x0 REVERT JUMPDEST EQ ISZERO PUSH2 0x699 JUMPI PUSH1 0x40 DUP1 MLOAD CALLER DUP2 MSTORE PUSH1 0x60 PUSH1 0x20 DUP3 ADD DUP2 SWAP1 MSTORE PUSH1 0x4 SWAP1 DUP3 ADD MSTORE PUSH4 0x64726177 PUSH1 0xE0 SHL PUSH1 0x80 DUP3 ADD MSTORE PUSH1 0x1 DUP2 DUP4 ADD MSTORE SWAP1 MLOAD PUSH1 0x0 DUP1 MLOAD PUSH1 0x20 PUSH2 0xCBF DUP4 CODECOPY DUP2 MLOAD SWAP2 MSTORE SWAP2 DUP2 SWAP1 SUB PUSH1 0xA0 ADD SWAP1 LOG1 CALLER PUSH1 0x0 SWAP1 DUP2 MSTORE PUSH1 0x3 PUSH1 0x20 MSTORE PUSH1 0x40 DUP2 KECCAK256 DUP1 SLOAD PUSH1 0x1 SWAP3 SWAP1 PUSH2 0x68E SWAP1 DUP5 SWAP1 PUSH2 0xC84 JUMP JUMPDEST SWAP1 SWAP2 SSTORE POP PUSH2 0x9FA SWAP1 POP JUMP JUMPDEST PUSH1 0x0 DUP3 PUSH1 0x2 DUP2 GT ISZERO PUSH2 0x6BB JUMPI PUSH4 0x4E487B71 PUSH1 0xE0 SHL PUSH1 0x0 MSTORE PUSH1 0x21 PUSH1 0x4 MSTORE PUSH1 0x24 PUSH1 0x0 REVERT JUMPDEST PUSH1 0x2 DUP2 GT ISZERO PUSH2 0x6DA JUMPI PUSH4 0x4E487B71 PUSH1 0xE0 SHL PUSH1 0x0 MSTORE PUSH1 0x21 PUSH1 0x4 MSTORE PUSH1 0x24 PUSH1 0x0 REVERT JUMPDEST EQ DUP1 ISZERO PUSH2 0x706 JUMPI POP PUSH1 0x1 DUP2 PUSH1 0x2 DUP2 GT ISZERO PUSH2 0x704 JUMPI PUSH4 0x4E487B71 PUSH1 0xE0 SHL PUSH1 0x0 MSTORE PUSH1 0x21 PUSH1 0x4 MSTORE PUSH1 0x24 PUSH1 0x0 REVERT JUMPDEST EQ JUMPDEST ISZERO PUSH2 0x738 JUMPI PUSH1 0x0 DUP1 MLOAD PUSH1 0x20 PUSH2 0xCBF DUP4 CODECOPY DUP2 MLOAD SWAP2 MSTORE CALLER PUSH1 0x0 PUSH1 0x40 MLOAD PUSH2 0x72B SWAP3 SWAP2 SWAP1 PUSH2 0xC1B JUMP JUMPDEST PUSH1 0x40 MLOAD DUP1 SWAP2 SUB SWAP1 LOG1 PUSH2 0x9FA JUMP JUMPDEST PUSH1 0x0 DUP3 PUSH1 0x2 DUP2 GT ISZERO PUSH2 0x75A JUMPI PUSH4 0x4E487B71 PUSH1 0xE0 SHL PUSH1 0x0 MSTORE PUSH1 0x21 PUSH1 0x4 MSTORE PUSH1 0x24 PUSH1 0x0 REVERT JUMPDEST PUSH1 0x2 DUP2 GT ISZERO PUSH2 0x779 JUMPI PUSH4 0x4E487B71 PUSH1 0xE0 SHL PUSH1 0x0 MSTORE PUSH1 0x21 PUSH1 0x4 MSTORE PUSH1 0x24 PUSH1 0x0 REVERT JUMPDEST EQ DUP1 ISZERO PUSH2 0x7A5 JUMPI POP PUSH1 0x2 DUP2 PUSH1 0x2 DUP2 GT ISZERO PUSH2 0x7A3 JUMPI PUSH4 0x4E487B71 PUSH1 0xE0 SHL PUSH1 0x0 MSTORE PUSH1 0x21 PUSH1 0x4 MSTORE PUSH1 0x24 PUSH1 0x0 REVERT JUMPDEST EQ JUMPDEST ISZERO PUSH2 0x7F4 JUMPI PUSH1 0x0 DUP1 MLOAD PUSH1 0x20 PUSH2 0xCBF DUP4 CODECOPY DUP2 MLOAD SWAP2 MSTORE CALLER PUSH1 0x3 PUSH1 0x40 MLOAD PUSH2 0x7CA SWAP3 SWAP2 SWAP1 PUSH2 0xBE7 JUMP JUMPDEST PUSH1 0x40 MLOAD DUP1 SWAP2 SUB SWAP1 LOG1 CALLER PUSH1 0x0 SWAP1 DUP2 MSTORE PUSH1 0x3 PUSH1 0x20 DUP2 SWAP1 MSTORE PUSH1 0x40 DUP3 KECCAK256 DUP1 SLOAD SWAP2 SWAP3 SWAP1 SWAP2 PUSH2 0x68E SWAP1 DUP5 SWAP1 PUSH2 0xC84 JUMP JUMPDEST PUSH1 0x1 DUP3 PUSH1 0x2 DUP2 GT ISZERO PUSH2 0x816 JUMPI PUSH4 0x4E487B71 PUSH1 0xE0 SHL PUSH1 0x0 MSTORE PUSH1 0x21 PUSH1 0x4 MSTORE PUSH1 0x24 PUSH1 0x0 REVERT JUMPDEST PUSH1 0x2 DUP2 GT ISZERO PUSH2 0x835 JUMPI PUSH4 0x4E487B71 PUSH1 0xE0 SHL PUSH1 0x0 MSTORE PUSH1 0x21 PUSH1 0x4 MSTORE PUSH1 0x24 PUSH1 0x0 REVERT JUMPDEST EQ DUP1 ISZERO PUSH2 0x861 JUMPI POP PUSH1 0x0 DUP2 PUSH1 0x2 DUP2 GT ISZERO PUSH2 0x85F JUMPI PUSH4 0x4E487B71 PUSH1 0xE0 SHL PUSH1 0x0 MSTORE PUSH1 0x21 PUSH1 0x4 MSTORE PUSH1 0x24 PUSH1 0x0 REVERT JUMPDEST EQ JUMPDEST ISZERO PUSH2 0x886 JUMPI PUSH1 0x0 DUP1 MLOAD PUSH1 0x20 PUSH2 0xCBF DUP4 CODECOPY DUP2 MLOAD SWAP2 MSTORE CALLER PUSH1 0x3 PUSH1 0x40 MLOAD PUSH2 0x7CA SWAP3 SWAP2 SWAP1 PUSH2 0xBE7 JUMP JUMPDEST PUSH1 0x1 DUP3 PUSH1 0x2 DUP2 GT ISZERO PUSH2 0x8A8 JUMPI PUSH4 0x4E487B71 PUSH1 0xE0 SHL PUSH1 0x0 MSTORE PUSH1 0x21 PUSH1 0x4 MSTORE PUSH1 0x24 PUSH1 0x0 REVERT JUMPDEST PUSH1 0x2 DUP2 GT ISZERO PUSH2 0x8C7 JUMPI PUSH4 0x4E487B71 PUSH1 0xE0 SHL PUSH1 0x0 MSTORE PUSH1 0x21 PUSH1 0x4 MSTORE PUSH1 0x24 PUSH1 0x0 REVERT JUMPDEST EQ DUP1 ISZERO PUSH2 0x8F3 JUMPI POP PUSH1 0x2 DUP2 PUSH1 0x2 DUP2 GT ISZERO PUSH2 0x8F1 JUMPI PUSH4 0x4E487B71 PUSH1 0xE0 SHL PUSH1 0x0 MSTORE PUSH1 0x21 PUSH1 0x4 MSTORE PUSH1 0x24 PUSH1 0x0 REVERT JUMPDEST EQ JUMPDEST ISZERO PUSH2 0x918 JUMPI PUSH1 0x0 DUP1 MLOAD PUSH1 0x20 PUSH2 0xCBF DUP4 CODECOPY DUP2 MLOAD SWAP2 MSTORE CALLER PUSH1 0x0 PUSH1 0x40 MLOAD PUSH2 0x72B SWAP3 SWAP2 SWAP1 PUSH2 0xC1B JUMP JUMPDEST PUSH1 0x2 DUP3 PUSH1 0x2 DUP2 GT ISZERO PUSH2 0x93A JUMPI PUSH4 0x4E487B71 PUSH1 0xE0 SHL PUSH1 0x0 MSTORE PUSH1 0x21 PUSH1 0x4 MSTORE PUSH1 0x24 PUSH1 0x0 REVERT JUMPDEST PUSH1 0x2 DUP2 GT ISZERO PUSH2 0x959 JUMPI PUSH4 0x4E487B71 PUSH1 0xE0 SHL PUSH1 0x0 MSTORE PUSH1 0x21 PUSH1 0x4 MSTORE PUSH1 0x24 PUSH1 0x0 REVERT JUMPDEST EQ DUP1 ISZERO PUSH2 0x985 JUMPI POP PUSH1 0x0 DUP2 PUSH1 0x2 DUP2 GT ISZERO PUSH2 0x983 JUMPI PUSH4 0x4E487B71 PUSH1 0xE0 SHL PUSH1 0x0 MSTORE PUSH1 0x21 PUSH1 0x4 MSTORE PUSH1 0x24 PUSH1 0x0 REVERT JUMPDEST EQ JUMPDEST ISZERO PUSH2 0x9AA JUMPI PUSH1 0x0 DUP1 MLOAD PUSH1 0x20 PUSH2 0xCBF DUP4 CODECOPY DUP2 MLOAD SWAP2 MSTORE CALLER PUSH1 0x0 PUSH1 0x40 MLOAD PUSH2 0x72B SWAP3 SWAP2 SWAP1 PUSH2 0xC1B JUMP JUMPDEST PUSH1 0x0 DUP1 MLOAD PUSH1 0x20 PUSH2 0xCBF DUP4 CODECOPY DUP2 MLOAD SWAP2 MSTORE CALLER PUSH1 0x3 PUSH1 0x40 MLOAD PUSH2 0x9CA SWAP3 SWAP2 SWAP1 PUSH2 0xBE7 JUMP JUMPDEST PUSH1 0x40 MLOAD DUP1 SWAP2 SUB SWAP1 LOG1 CALLER PUSH1 0x0 SWAP1 DUP2 MSTORE PUSH1 0x3 PUSH1 0x20 DUP2 SWAP1 MSTORE PUSH1 0x40 DUP3 KECCAK256 DUP1 SLOAD SWAP2 SWAP3 SWAP1 SWAP2 PUSH2 0x9F4 SWAP1 DUP5 SWAP1 PUSH2 0xC84 JUMP JUMPDEST SWAP1 SWAP2 SSTORE POP POP JUMPDEST CALLER PUSH1 0x0 SWAP1 DUP2 MSTORE PUSH1 0x3 PUSH1 0x20 MSTORE PUSH1 0x40 DUP2 KECCAK256 PUSH1 0x1 SWAP1 DUP2 ADD DUP1 SLOAD SWAP2 SWAP3 SWAP1 SWAP2 PUSH2 0xA1F SWAP1 DUP5 SWAP1 PUSH2 0xC84 JUMP JUMPDEST SWAP1 SWAP2 SSTORE POP POP CALLER PUSH1 0x0 SWAP1 DUP2 MSTORE PUSH1 0x3 PUSH1 0x20 MSTORE PUSH1 0x40 DUP2 KECCAK256 PUSH1 0x2 ADD DUP1 SLOAD TIMESTAMP SWAP3 SWAP1 PUSH2 0xA46 SWAP1 DUP5 SWAP1 PUSH2 0xC84 JUMP JUMPDEST SWAP1 SWAP2 SSTORE POP POP POP POP JUMP JUMPDEST PUSH1 0x60 CALLER PUSH1 0x1 PUSH1 0x1 PUSH1 0xA0 SHL SUB PUSH32 0x0 AND EQ PUSH2 0xA86 JUMPI PUSH1 0x0 DUP1 REVERT JUMPDEST POP PUSH1 0x40 DUP1 MLOAD DUP1 DUP3 ADD SWAP1 SWAP2 MSTORE PUSH1 0x5 DUP2 MSTORE PUSH5 0x68656C6C6F PUSH1 0xD8 SHL PUSH1 0x20 DUP3 ADD MSTORE SWAP1 JUMP JUMPDEST PUSH1 0x0 DUP1 DUP1 DUP1 JUMPDEST SWAP4 SWAP3 POP POP POP JUMP JUMPDEST PUSH1 0x0 PUSH1 0x20 DUP3 DUP5 SUB SLT ISZERO PUSH2 0xAC4 JUMPI DUP1 DUP2 REVERT JUMPDEST DUP2 CALLDATALOAD PUSH1 0x1 PUSH1 0x1 PUSH1 0xA0 SHL SUB DUP2 AND DUP2 EQ PUSH2 0xAAC JUMPI DUP2 DUP3 REVERT JUMPDEST PUSH1 0x0 PUSH1 0x20 DUP3 DUP5 SUB SLT ISZERO PUSH2 0xAEB JUMPI DUP1 DUP2 REVERT JUMPDEST DUP2 CALLDATALOAD PUSH8 0xFFFFFFFFFFFFFFFF DUP1 DUP3 GT ISZERO PUSH2 0xB02 JUMPI DUP3 DUP4 REVERT JUMPDEST DUP2 DUP5 ADD SWAP2 POP DUP5 PUSH1 0x1F DUP4 ADD SLT PUSH2 0xB15 JUMPI DUP3 DUP4 REVERT JUMPDEST DUP2 CALLDATALOAD DUP2 DUP2 GT ISZERO PUSH2 0xB27 JUMPI PUSH2 0xB27 PUSH2 0xCA8 JUMP JUMPDEST PUSH1 0x40 MLOAD PUSH1 0x1F DUP3 ADD PUSH1 0x1F NOT SWAP1 DUP2 AND PUSH1 0x3F ADD AND DUP2 ADD SWAP1 DUP4 DUP3 GT DUP2 DUP4 LT OR ISZERO PUSH2 0xB4F JUMPI PUSH2 0xB4F PUSH2 0xCA8 JUMP JUMPDEST DUP2 PUSH1 0x40 MSTORE DUP3 DUP2 MSTORE DUP8 PUSH1 0x20 DUP5 DUP8 ADD ADD GT ISZERO PUSH2 0xB67 JUMPI DUP6 DUP7 REVERT JUMPDEST DUP3 PUSH1 0x20 DUP7 ADD PUSH1 0x20 DUP4 ADD CALLDATACOPY SWAP2 DUP3 ADD PUSH1 0x20 ADD SWAP5 SWAP1 SWAP5 MSTORE SWAP6 SWAP5 POP POP POP POP POP JUMP JUMPDEST PUSH1 0x0 PUSH1 0x20 DUP3 DUP5 SUB SLT ISZERO PUSH2 0xB95 JUMPI DUP1 DUP2 REVERT JUMPDEST POP CALLDATALOAD SWAP2 SWAP1 POP JUMP JUMPDEST PUSH1 0x0 DUP2 MLOAD DUP1 DUP5 MSTORE DUP2 JUMPDEST DUP2 DUP2 LT ISZERO PUSH2 0xBC1 JUMPI PUSH1 0x20 DUP2 DUP6 ADD DUP2 ADD MLOAD DUP7 DUP4 ADD DUP3 ADD MSTORE ADD PUSH2 0xBA5 JUMP JUMPDEST DUP2 DUP2 GT ISZERO PUSH2 0xBD2 JUMPI DUP3 PUSH1 0x20 DUP4 DUP8 ADD ADD MSTORE JUMPDEST POP PUSH1 0x1F ADD PUSH1 0x1F NOT AND SWAP3 SWAP1 SWAP3 ADD PUSH1 0x20 ADD SWAP3 SWAP2 POP POP JUMP JUMPDEST PUSH1 0x1 PUSH1 0x1 PUSH1 0xA0 SHL SUB SWAP3 SWAP1 SWAP3 AND DUP3 MSTORE PUSH1 0x60 PUSH1 0x20 DUP4 ADD DUP2 SWAP1 MSTORE PUSH1 0x3 SWAP1 DUP4 ADD MSTORE PUSH3 0x3BB4B7 PUSH1 0xE9 SHL PUSH1 0x80 DUP4 ADD MSTORE PUSH1 0x40 DUP3 ADD MSTORE PUSH1 0xA0 ADD SWAP1 JUMP JUMPDEST PUSH1 0x1 PUSH1 0x1 PUSH1 0xA0 SHL SUB SWAP3 SWAP1 SWAP3 AND DUP3 MSTORE PUSH1 0x60 PUSH1 0x20 DUP4 ADD DUP2 SWAP1 MSTORE PUSH1 0x4 SWAP1 DUP4 ADD MSTORE PUSH4 0x6C6F7373 PUSH1 0xE0 SHL PUSH1 0x80 DUP4 ADD MSTORE PUSH1 0x40 DUP3 ADD MSTORE PUSH1 0xA0 ADD SWAP1 JUMP JUMPDEST PUSH1 0x20 DUP2 MSTORE PUSH1 0x0 PUSH2 0xAAC PUSH1 0x20 DUP4 ADD DUP5 PUSH2 0xB9C JUMP JUMPDEST DUP3 DUP2 MSTORE PUSH1 0x40 PUSH1 0x20 DUP3 ADD MSTORE PUSH1 0x0 PUSH2 0xC7C PUSH1 0x40 DUP4 ADD DUP5 PUSH2 0xB9C JUMP JUMPDEST SWAP5 SWAP4 POP POP POP POP JUMP JUMPDEST PUSH1 0x0 DUP3 NOT DUP3 GT ISZERO PUSH2 0xCA3 JUMPI PUSH4 0x4E487B71 PUSH1 0xE0 SHL DUP2 MSTORE PUSH1 0x11 PUSH1 0x4 MSTORE PUSH1 0x24 DUP2 REVERT JUMPDEST POP ADD SWAP1 JUMP JUMPDEST PUSH4 0x4E487B71 PUSH1 0xE0 SHL PUSH1 0x0 MSTORE PUSH1 0x41 PUSH1 0x4 MSTORE PUSH1 0x24 PUSH1 0x0 REVERT INVALID DUP6 0xFC SHL 0xBB CODECOPY 0xDE DUP15 0xDC GT PUSH18 0x7B838A522D914A97C6952CB06DE101D20931 RETURN CALLDATASIZE CALL DUP8 LOG2 PUSH5 0x6970667358 0x22 SLT KECCAK256 JUMPDEST PUSH10 0x8AA02319102829F68A45 0x4E DUP9 PUSH25 0x67590B85CEECEE916DA3BAA05E0456AF5564736F6C63430008 DIV STOP CALLER "
        },
        "methodIdentifiers": {
          "register()": "1aa3a008",
          "s_isRegistered(address)": "bc3c09c4",
          "s_registeredAddresses(uint256)": "9d5b24c0",
          "startGame()": "d65ab5f2",
          "test()": "f8a8fd6d",
          "updateName(string)": "84da92a7",
          "updatePrice(uint256)": "8d6cc56d",
          "updateTickets(uint256)": "77897d21",
          "userPlay(uint256)": "a3195c47"
        }
      }
    }
  }
}