{
  "contracts/eventLog.sol": {
    "eventLog": {
      "abi": [
        {
          "inputs": [
            {
              "internalType": "string",
              "name": "_eventName",
              "type": "string"
            },
            {
              "internalType": "address",
              "name": "_winner",
              "type": "address"
            }
          ],
          "name": "_addWinner",
          "outputs": [],
          "stateMutability": "nonpayable",
          "type": "function"
        },
        {
          "inputs": [
            {
              "internalType": "string",
              "name": "_eventName",
              "type": "string"
            },
            {
              "internalType": "address",
              "name": "_eventGameAddress",
              "type": "address"
            },
            {
              "internalType": "address",
              "name": "_eventOwner",
              "type": "address"
            },
            {
              "internalType": "uint32",
              "name": "_numberOfTickets",
              "type": "uint32"
            },
            {
              "internalType": "uint32",
              "name": "_ticketPrice",
              "type": "uint32"
            }
          ],
          "name": "_logEvent",
          "outputs": [],
          "stateMutability": "nonpayable",
          "type": "function"
        },
        {
          "inputs": [
            {
              "internalType": "string",
              "name": "_eventName",
              "type": "string"
            }
          ],
          "name": "getEvent",
          "outputs": [
            {
              "components": [
                {
                  "internalType": "address",
                  "name": "eventGameAddress",
                  "type": "address"
                },
                {
                  "internalType": "address",
                  "name": "eventOwner",
                  "type": "address"
                },
                {
                  "internalType": "uint32",
                  "name": "numberOfTickets",
                  "type": "uint32"
                },
                {
                  "internalType": "uint32",
                  "name": "ticketPrice",
                  "type": "uint32"
                }
              ],
              "internalType": "struct eventLog.Event",
              "name": "",
              "type": "tuple"
            }
          ],
          "stateMutability": "view",
          "type": "function"
        }
      ],
      "evm": {
        "bytecode": {
          "linkReferences": {},
          "object": "608060405234801561001057600080fd5b5061050a806100206000396000f3fe608060405234801561001057600080fd5b50600436106100415760003560e01c80632cd9e389146100465780639f3feb4d1461005b578063e19020631461006e575b600080fd5b610059610054366004610386565b6100ca565b005b610059610069366004610334565b610197565b61008161007c3660046102f4565b6101e6565b6040805182516001600160a01b039081168252602080850151909116908201528282015163ffffffff908116828401526060938401511692810192909252519081900360800190f35b604080516080810182526001600160a01b0380871682528516602082015263ffffffff80851682840152831660608201529051819060009061010d908990610485565b9081526040805160209281900383019020835181546001600160a01b0319166001600160a01b03918216178255928401516001909101805492850151606090950151919093166001600160c01b031990921691909117600160a01b63ffffffff948516021763ffffffff60c01b1916600160c01b9390911692909202919091179055505050505050565b60018084846040516101aa929190610475565b90815260408051602092819003830190206001600160a01b0394909416600090815293909152909120805460ff19169115159190911790555050565b6040805160808101825260008082526020820181905291810182905260608101919091526000838360405161021c929190610475565b90815260408051918290036020908101832060808401835280546001600160a01b0390811685526001909101549081169184019190915263ffffffff600160a01b8204811692840192909252600160c01b9004166060820152905092915050565b80356001600160a01b038116811461029457600080fd5b919050565b60008083601f8401126102aa578081fd5b50813567ffffffffffffffff8111156102c1578182fd5b6020830191508360208285010111156102d957600080fd5b9250929050565b803563ffffffff8116811461029457600080fd5b60008060208385031215610306578182fd5b823567ffffffffffffffff81111561031c578283fd5b61032885828601610299565b90969095509350505050565b600080600060408486031215610348578081fd5b833567ffffffffffffffff81111561035e578182fd5b61036a86828701610299565b909450925061037d90506020850161027d565b90509250925092565b600080600080600060a0868803121561039d578081fd5b853567ffffffffffffffff808211156103b4578283fd5b818801915088601f8301126103c7578283fd5b8135818111156103d9576103d96104be565b604051601f8201601f19908116603f01168101908382118183101715610401576104016104be565b816040528281528b6020848701011115610419578586fd5b826020860160208301378560208483010152809950505050505061043f6020870161027d565b935061044d6040870161027d565b925061045b606087016102e0565b9150610469608087016102e0565b90509295509295909350565b8183823760009101908152919050565b60008251815b818110156104a5576020818601810151858301520161048b565b818111156104b35782828501525b509190910192915050565b634e487b7160e01b600052604160045260246000fdfea264697066735822122040525d8674175a9bcf9d812beaa7fbf25b7bf4d6db6e6660e9af2fa088cb203564736f6c63430008040033",
          "opcodes": "PUSH1 0x80 PUSH1 0x40 MSTORE CALLVALUE DUP1 ISZERO PUSH2 0x10 JUMPI PUSH1 0x0 DUP1 REVERT JUMPDEST POP PUSH2 0x50A DUP1 PUSH2 0x20 PUSH1 0x0 CODECOPY PUSH1 0x0 RETURN INVALID PUSH1 0x80 PUSH1 0x40 MSTORE CALLVALUE DUP1 ISZERO PUSH2 0x10 JUMPI PUSH1 0x0 DUP1 REVERT JUMPDEST POP PUSH1 0x4 CALLDATASIZE LT PUSH2 0x41 JUMPI PUSH1 0x0 CALLDATALOAD PUSH1 0xE0 SHR DUP1 PUSH4 0x2CD9E389 EQ PUSH2 0x46 JUMPI DUP1 PUSH4 0x9F3FEB4D EQ PUSH2 0x5B JUMPI DUP1 PUSH4 0xE1902063 EQ PUSH2 0x6E JUMPI JUMPDEST PUSH1 0x0 DUP1 REVERT JUMPDEST PUSH2 0x59 PUSH2 0x54 CALLDATASIZE PUSH1 0x4 PUSH2 0x386 JUMP JUMPDEST PUSH2 0xCA JUMP JUMPDEST STOP JUMPDEST PUSH2 0x59 PUSH2 0x69 CALLDATASIZE PUSH1 0x4 PUSH2 0x334 JUMP JUMPDEST PUSH2 0x197 JUMP JUMPDEST PUSH2 0x81 PUSH2 0x7C CALLDATASIZE PUSH1 0x4 PUSH2 0x2F4 JUMP JUMPDEST PUSH2 0x1E6 JUMP JUMPDEST PUSH1 0x40 DUP1 MLOAD DUP3 MLOAD PUSH1 0x1 PUSH1 0x1 PUSH1 0xA0 SHL SUB SWAP1 DUP2 AND DUP3 MSTORE PUSH1 0x20 DUP1 DUP6 ADD MLOAD SWAP1 SWAP2 AND SWAP1 DUP3 ADD MSTORE DUP3 DUP3 ADD MLOAD PUSH4 0xFFFFFFFF SWAP1 DUP2 AND DUP3 DUP5 ADD MSTORE PUSH1 0x60 SWAP4 DUP5 ADD MLOAD AND SWAP3 DUP2 ADD SWAP3 SWAP1 SWAP3 MSTORE MLOAD SWAP1 DUP2 SWAP1 SUB PUSH1 0x80 ADD SWAP1 RETURN JUMPDEST PUSH1 0x40 DUP1 MLOAD PUSH1 0x80 DUP2 ADD DUP3 MSTORE PUSH1 0x1 PUSH1 0x1 PUSH1 0xA0 SHL SUB DUP1 DUP8 AND DUP3 MSTORE DUP6 AND PUSH1 0x20 DUP3 ADD MSTORE PUSH4 0xFFFFFFFF DUP1 DUP6 AND DUP3 DUP5 ADD MSTORE DUP4 AND PUSH1 0x60 DUP3 ADD MSTORE SWAP1 MLOAD DUP2 SWAP1 PUSH1 0x0 SWAP1 PUSH2 0x10D SWAP1 DUP10 SWAP1 PUSH2 0x485 JUMP JUMPDEST SWAP1 DUP2 MSTORE PUSH1 0x40 DUP1 MLOAD PUSH1 0x20 SWAP3 DUP2 SWAP1 SUB DUP4 ADD SWAP1 KECCAK256 DUP4 MLOAD DUP2 SLOAD PUSH1 0x1 PUSH1 0x1 PUSH1 0xA0 SHL SUB NOT AND PUSH1 0x1 PUSH1 0x1 PUSH1 0xA0 SHL SUB SWAP2 DUP3 AND OR DUP3 SSTORE SWAP3 DUP5 ADD MLOAD PUSH1 0x1 SWAP1 SWAP2 ADD DUP1 SLOAD SWAP3 DUP6 ADD MLOAD PUSH1 0x60 SWAP1 SWAP6 ADD MLOAD SWAP2 SWAP1 SWAP4 AND PUSH1 0x1 PUSH1 0x1 PUSH1 0xC0 SHL SUB NOT SWAP1 SWAP3 AND SWAP2 SWAP1 SWAP2 OR PUSH1 0x1 PUSH1 0xA0 SHL PUSH4 0xFFFFFFFF SWAP5 DUP6 AND MUL OR PUSH4 0xFFFFFFFF PUSH1 0xC0 SHL NOT AND PUSH1 0x1 PUSH1 0xC0 SHL SWAP4 SWAP1 SWAP2 AND SWAP3 SWAP1 SWAP3 MUL SWAP2 SWAP1 SWAP2 OR SWAP1 SSTORE POP POP POP POP POP POP JUMP JUMPDEST PUSH1 0x1 DUP1 DUP5 DUP5 PUSH1 0x40 MLOAD PUSH2 0x1AA SWAP3 SWAP2 SWAP1 PUSH2 0x475 JUMP JUMPDEST SWAP1 DUP2 MSTORE PUSH1 0x40 DUP1 MLOAD PUSH1 0x20 SWAP3 DUP2 SWAP1 SUB DUP4 ADD SWAP1 KECCAK256 PUSH1 0x1 PUSH1 0x1 PUSH1 0xA0 SHL SUB SWAP5 SWAP1 SWAP5 AND PUSH1 0x0 SWAP1 DUP2 MSTORE SWAP4 SWAP1 SWAP2 MSTORE SWAP1 SWAP2 KECCAK256 DUP1 SLOAD PUSH1 0xFF NOT AND SWAP2 ISZERO ISZERO SWAP2 SWAP1 SWAP2 OR SWAP1 SSTORE POP POP JUMP JUMPDEST PUSH1 0x40 DUP1 MLOAD PUSH1 0x80 DUP2 ADD DUP3 MSTORE PUSH1 0x0 DUP1 DUP3 MSTORE PUSH1 0x20 DUP3 ADD DUP2 SWAP1 MSTORE SWAP2 DUP2 ADD DUP3 SWAP1 MSTORE PUSH1 0x60 DUP2 ADD SWAP2 SWAP1 SWAP2 MSTORE PUSH1 0x0 DUP4 DUP4 PUSH1 0x40 MLOAD PUSH2 0x21C SWAP3 SWAP2 SWAP1 PUSH2 0x475 JUMP JUMPDEST SWAP1 DUP2 MSTORE PUSH1 0x40 DUP1 MLOAD SWAP2 DUP3 SWAP1 SUB PUSH1 0x20 SWAP1 DUP2 ADD DUP4 KECCAK256 PUSH1 0x80 DUP5 ADD DUP4 MSTORE DUP1 SLOAD PUSH1 0x1 PUSH1 0x1 PUSH1 0xA0 SHL SUB SWAP1 DUP2 AND DUP6 MSTORE PUSH1 0x1 SWAP1 SWAP2 ADD SLOAD SWAP1 DUP2 AND SWAP2 DUP5 ADD SWAP2 SWAP1 SWAP2 MSTORE PUSH4 0xFFFFFFFF PUSH1 0x1 PUSH1 0xA0 SHL DUP3 DIV DUP2 AND SWAP3 DUP5 ADD SWAP3 SWAP1 SWAP3 MSTORE PUSH1 0x1 PUSH1 0xC0 SHL SWAP1 DIV AND PUSH1 0x60 DUP3 ADD MSTORE SWAP1 POP SWAP3 SWAP2 POP POP JUMP JUMPDEST DUP1 CALLDATALOAD PUSH1 0x1 PUSH1 0x1 PUSH1 0xA0 SHL SUB DUP2 AND DUP2 EQ PUSH2 0x294 JUMPI PUSH1 0x0 DUP1 REVERT JUMPDEST SWAP2 SWAP1 POP JUMP JUMPDEST PUSH1 0x0 DUP1 DUP4 PUSH1 0x1F DUP5 ADD SLT PUSH2 0x2AA JUMPI DUP1 DUP2 REVERT JUMPDEST POP DUP2 CALLDATALOAD PUSH8 0xFFFFFFFFFFFFFFFF DUP2 GT ISZERO PUSH2 0x2C1 JUMPI DUP2 DUP3 REVERT JUMPDEST PUSH1 0x20 DUP4 ADD SWAP2 POP DUP4 PUSH1 0x20 DUP3 DUP6 ADD ADD GT ISZERO PUSH2 0x2D9 JUMPI PUSH1 0x0 DUP1 REVERT JUMPDEST SWAP3 POP SWAP3 SWAP1 POP JUMP JUMPDEST DUP1 CALLDATALOAD PUSH4 0xFFFFFFFF DUP2 AND DUP2 EQ PUSH2 0x294 JUMPI PUSH1 0x0 DUP1 REVERT JUMPDEST PUSH1 0x0 DUP1 PUSH1 0x20 DUP4 DUP6 SUB SLT ISZERO PUSH2 0x306 JUMPI DUP2 DUP3 REVERT JUMPDEST DUP3 CALLDATALOAD PUSH8 0xFFFFFFFFFFFFFFFF DUP2 GT ISZERO PUSH2 0x31C JUMPI DUP3 DUP4 REVERT JUMPDEST PUSH2 0x328 DUP6 DUP3 DUP7 ADD PUSH2 0x299 JUMP JUMPDEST SWAP1 SWAP7 SWAP1 SWAP6 POP SWAP4 POP POP POP POP JUMP JUMPDEST PUSH1 0x0 DUP1 PUSH1 0x0 PUSH1 0x40 DUP5 DUP7 SUB SLT ISZERO PUSH2 0x348 JUMPI DUP1 DUP2 REVERT JUMPDEST DUP4 CALLDATALOAD PUSH8 0xFFFFFFFFFFFFFFFF DUP2 GT ISZERO PUSH2 0x35E JUMPI DUP2 DUP3 REVERT JUMPDEST PUSH2 0x36A DUP7 DUP3 DUP8 ADD PUSH2 0x299 JUMP JUMPDEST SWAP1 SWAP5 POP SWAP3 POP PUSH2 0x37D SWAP1 POP PUSH1 0x20 DUP6 ADD PUSH2 0x27D JUMP JUMPDEST SWAP1 POP SWAP3 POP SWAP3 POP SWAP3 JUMP JUMPDEST PUSH1 0x0 DUP1 PUSH1 0x0 DUP1 PUSH1 0x0 PUSH1 0xA0 DUP7 DUP9 SUB SLT ISZERO PUSH2 0x39D JUMPI DUP1 DUP2 REVERT JUMPDEST DUP6 CALLDATALOAD PUSH8 0xFFFFFFFFFFFFFFFF DUP1 DUP3 GT ISZERO PUSH2 0x3B4 JUMPI DUP3 DUP4 REVERT JUMPDEST DUP2 DUP9 ADD SWAP2 POP DUP9 PUSH1 0x1F DUP4 ADD SLT PUSH2 0x3C7 JUMPI DUP3 DUP4 REVERT JUMPDEST DUP2 CALLDATALOAD DUP2 DUP2 GT ISZERO PUSH2 0x3D9 JUMPI PUSH2 0x3D9 PUSH2 0x4BE JUMP JUMPDEST PUSH1 0x40 MLOAD PUSH1 0x1F DUP3 ADD PUSH1 0x1F NOT SWAP1 DUP2 AND PUSH1 0x3F ADD AND DUP2 ADD SWAP1 DUP4 DUP3 GT DUP2 DUP4 LT OR ISZERO PUSH2 0x401 JUMPI PUSH2 0x401 PUSH2 0x4BE JUMP JUMPDEST DUP2 PUSH1 0x40 MSTORE DUP3 DUP2 MSTORE DUP12 PUSH1 0x20 DUP5 DUP8 ADD ADD GT ISZERO PUSH2 0x419 JUMPI DUP6 DUP7 REVERT JUMPDEST DUP3 PUSH1 0x20 DUP7 ADD PUSH1 0x20 DUP4 ADD CALLDATACOPY DUP6 PUSH1 0x20 DUP5 DUP4 ADD ADD MSTORE DUP1 SWAP10 POP POP POP POP POP POP PUSH2 0x43F PUSH1 0x20 DUP8 ADD PUSH2 0x27D JUMP JUMPDEST SWAP4 POP PUSH2 0x44D PUSH1 0x40 DUP8 ADD PUSH2 0x27D JUMP JUMPDEST SWAP3 POP PUSH2 0x45B PUSH1 0x60 DUP8 ADD PUSH2 0x2E0 JUMP JUMPDEST SWAP2 POP PUSH2 0x469 PUSH1 0x80 DUP8 ADD PUSH2 0x2E0 JUMP JUMPDEST SWAP1 POP SWAP3 SWAP6 POP SWAP3 SWAP6 SWAP1 SWAP4 POP JUMP JUMPDEST DUP2 DUP4 DUP3 CALLDATACOPY PUSH1 0x0 SWAP2 ADD SWAP1 DUP2 MSTORE SWAP2 SWAP1 POP JUMP JUMPDEST PUSH1 0x0 DUP3 MLOAD DUP2 JUMPDEST DUP2 DUP2 LT ISZERO PUSH2 0x4A5 JUMPI PUSH1 0x20 DUP2 DUP7 ADD DUP2 ADD MLOAD DUP6 DUP4 ADD MSTORE ADD PUSH2 0x48B JUMP JUMPDEST DUP2 DUP2 GT ISZERO PUSH2 0x4B3 JUMPI DUP3 DUP3 DUP6 ADD MSTORE JUMPDEST POP SWAP2 SWAP1 SWAP2 ADD SWAP3 SWAP2 POP POP JUMP JUMPDEST PUSH4 0x4E487B71 PUSH1 0xE0 SHL PUSH1 0x0 MSTORE PUSH1 0x41 PUSH1 0x4 MSTORE PUSH1 0x24 PUSH1 0x0 REVERT INVALID LOG2 PUSH5 0x6970667358 0x22 SLT KECCAK256 BLOCKHASH MSTORE 0x5D DUP7 PUSH21 0x175A9BCF9D812BEAA7FBF25B7BF4D6DB6E6660E9AF 0x2F LOG0 DUP9 0xCB KECCAK256 CALLDATALOAD PUSH5 0x736F6C6343 STOP ADDMOD DIV STOP CALLER "
        },
        "methodIdentifiers": {
          "_addWinner(string,address)": "9f3feb4d",
          "_logEvent(string,address,address,uint32,uint32)": "2cd9e389",
          "getEvent(string)": "e1902063"
        }
      }
    }
  }
}