{
  "contracts/eventGame.sol": {
    "eventGame": {
      "abi": [
        {
          "inputs": [
            {
              "internalType": "address",
              "name": "_logAddress",
              "type": "address"
            },
            {
              "internalType": "uint32",
              "name": "_numberOfTickets",
              "type": "uint32"
            },
            {
              "internalType": "address",
              "name": "_owner",
              "type": "address"
            }
          ],
          "stateMutability": "nonpayable",
          "type": "constructor"
        },
        {
          "anonymous": false,
          "inputs": [
            {
              "indexed": true,
              "internalType": "address",
              "name": "previousOwner",
              "type": "address"
            },
            {
              "indexed": true,
              "internalType": "address",
              "name": "newOwner",
              "type": "address"
            }
          ],
          "name": "OwnershipTransferred",
          "type": "event"
        },
        {
          "inputs": [],
          "name": "_getAlgoPlay",
          "outputs": [
            {
              "internalType": "uint32",
              "name": "",
              "type": "uint32"
            }
          ],
          "stateMutability": "nonpayable",
          "type": "function"
        },
        {
          "inputs": [],
          "name": "owner",
          "outputs": [
            {
              "internalType": "address",
              "name": "",
              "type": "address"
            }
          ],
          "stateMutability": "view",
          "type": "function"
        },
        {
          "inputs": [],
          "name": "register",
          "outputs": [],
          "stateMutability": "nonpayable",
          "type": "function"
        },
        {
          "inputs": [],
          "name": "renounceOwnership",
          "outputs": [],
          "stateMutability": "nonpayable",
          "type": "function"
        },
        {
          "inputs": [
            {
              "internalType": "address",
              "name": "",
              "type": "address"
            }
          ],
          "name": "s_isRegistered",
          "outputs": [
            {
              "internalType": "bool",
              "name": "",
              "type": "bool"
            }
          ],
          "stateMutability": "view",
          "type": "function"
        },
        {
          "inputs": [
            {
              "internalType": "uint256",
              "name": "",
              "type": "uint256"
            }
          ],
          "name": "s_registeredAddresses",
          "outputs": [
            {
              "internalType": "address",
              "name": "",
              "type": "address"
            }
          ],
          "stateMutability": "view",
          "type": "function"
        },
        {
          "inputs": [
            {
              "internalType": "uint256",
              "name": "",
              "type": "uint256"
            }
          ],
          "name": "s_winners",
          "outputs": [
            {
              "internalType": "address",
              "name": "",
              "type": "address"
            }
          ],
          "stateMutability": "view",
          "type": "function"
        },
        {
          "inputs": [],
          "name": "startGame",
          "outputs": [],
          "stateMutability": "nonpayable",
          "type": "function"
        },
        {
          "inputs": [
            {
              "internalType": "address",
              "name": "newOwner",
              "type": "address"
            }
          ],
          "name": "transferOwnership",
          "outputs": [],
          "stateMutability": "nonpayable",
          "type": "function"
        },
        {
          "inputs": [
            {
              "internalType": "string",
              "name": "_newName",
              "type": "string"
            },
            {
              "internalType": "uint32",
              "name": "_newTickets",
              "type": "uint32"
            },
            {
              "internalType": "uint32",
              "name": "_newPrice",
              "type": "uint32"
            }
          ],
          "name": "updateEvent",
          "outputs": [],
          "stateMutability": "nonpayable",
          "type": "function"
        }
      ],
      "evm": {
        "bytecode": {
          "linkReferences": {},
          "object": "60c06040526001600260006101000a81548160ff0219169083151502179055503480156200002c57600080fd5b5060405162001384380380620013848339818101604052810190620000529190620001f0565b6200007262000066620000f660201b60201c565b620000fe60201b60201c565b8273ffffffffffffffffffffffffffffffffffffffff1660808173ffffffffffffffffffffffffffffffffffffffff1660601b815250508163ffffffff166001819055508073ffffffffffffffffffffffffffffffffffffffff1660a08173ffffffffffffffffffffffffffffffffffffffff1660601b81525050505050620002be565b600033905090565b60008060009054906101000a900473ffffffffffffffffffffffffffffffffffffffff169050816000806101000a81548173ffffffffffffffffffffffffffffffffffffffff021916908373ffffffffffffffffffffffffffffffffffffffff1602179055508173ffffffffffffffffffffffffffffffffffffffff168173ffffffffffffffffffffffffffffffffffffffff167f8be0079c531659141344cd1fd0a4f28419497f9722a3daafe3b4186f6b6457e060405160405180910390a35050565b600081519050620001d3816200028a565b92915050565b600081519050620001ea81620002a4565b92915050565b6000806000606084860312156200020657600080fd5b60006200021686828701620001c2565b93505060206200022986828701620001d9565b92505060406200023c86828701620001c2565b9150509250925092565b600062000253826200025a565b9050919050565b600073ffffffffffffffffffffffffffffffffffffffff82169050919050565b600063ffffffff82169050919050565b620002958162000246565b8114620002a157600080fd5b50565b620002af816200027a565b8114620002bb57600080fd5b50565b60805160601c60a05160601c61109d620002e76000396000505060006103eb015261109d6000f3fe608060405234801561001057600080fd5b506004361061009e5760003560e01c80638da5cb5b116100665780638da5cb5b146101215780639d5b24c01461013f578063bc3c09c41461016f578063d65ab5f21461019f578063f2fde38b146101a95761009e565b80631aa3a008146100a35780633b024e75146100ad578063715018a6146100c9578063756cd579146100d35780638c20a36514610103575b600080fd5b6100ab6101c5565b005b6100c760048036038101906100c29190610a3a565b61036b565b005b6100d1610492565b005b6100ed60048036038101906100e89190610aa1565b61051a565b6040516100fa9190610bbc565b60405180910390f35b61010b610559565b6040516101189190610ccc565b60405180910390f35b610129610563565b6040516101369190610bbc565b60405180910390f35b61015960048036038101906101549190610aa1565b61058c565b6040516101669190610bbc565b60405180910390f35b61018960048036038101906101849190610a11565b6105cb565b6040516101969190610bd7565b60405180910390f35b6101a76105eb565b005b6101c360048036038101906101be9190610a11565b6106a0565b005b60011515600260009054906101000a900460ff1615151461021b576040517f08c379a000000000000000000000000000000000000000000000000000000000815260040161021290610c8c565b60405180910390fd5b60001515600460003373ffffffffffffffffffffffffffffffffffffffff1673ffffffffffffffffffffffffffffffffffffffff16815260200190815260200160002060009054906101000a900460ff161515146102ae576040517f08c379a00000000000000000000000000000000000000000000000000000000081526004016102a590610c4c565b60405180910390fd5b6001600460003373ffffffffffffffffffffffffffffffffffffffff1673ffffffffffffffffffffffffffffffffffffffff16815260200190815260200160002060006101000a81548160ff0219169083151502179055506003339080600181540180825580915050600190039060005260206000200160009091909190916101000a81548173ffffffffffffffffffffffffffffffffffffffff021916908373ffffffffffffffffffffffffffffffffffffffff160217905550565b610373610798565b73ffffffffffffffffffffffffffffffffffffffff16610391610563565b73ffffffffffffffffffffffffffffffffffffffff16146103e7576040517f08c379a00000000000000000000000000000000000000000000000000000000081526004016103de90610cac565b60405180910390fd5b60007f000000000000000000000000000000000000000000000000000000000000000090508073ffffffffffffffffffffffffffffffffffffffff16632cd9e38985303387876040518663ffffffff1660e01b815260040161044d959493929190610bf2565b600060405180830381600087803b15801561046757600080fd5b505af115801561047b573d6000803e3d6000fd5b505050508263ffffffff1660018190555050505050565b61049a610798565b73ffffffffffffffffffffffffffffffffffffffff166104b8610563565b73ffffffffffffffffffffffffffffffffffffffff161461050e576040517f08c379a000000000000000000000000000000000000000000000000000000000815260040161050590610cac565b60405180910390fd5b61051860006107a0565b565b6005818154811061052a57600080fd5b906000526020600020016000915054906101000a900473ffffffffffffffffffffffffffffffffffffffff1681565b6000808091505090565b60008060009054906101000a900473ffffffffffffffffffffffffffffffffffffffff16905090565b6003818154811061059c57600080fd5b906000526020600020016000915054906101000a900473ffffffffffffffffffffffffffffffffffffffff1681565b60046020528060005260406000206000915054906101000a900460ff1681565b6105f3610798565b73ffffffffffffffffffffffffffffffffffffffff16610611610563565b73ffffffffffffffffffffffffffffffffffffffff1614610667576040517f08c379a000000000000000000000000000000000000000000000000000000000815260040161065e90610cac565b60405180910390fd5b61066f610864565b60015460038054905011610695576003600590805461068f9291906108fb565b5061069e565b61069d61089e565b5b565b6106a8610798565b73ffffffffffffffffffffffffffffffffffffffff166106c6610563565b73ffffffffffffffffffffffffffffffffffffffff161461071c576040517f08c379a000000000000000000000000000000000000000000000000000000000815260040161071390610cac565b60405180910390fd5b600073ffffffffffffffffffffffffffffffffffffffff168173ffffffffffffffffffffffffffffffffffffffff16141561078c576040517f08c379a000000000000000000000000000000000000000000000000000000000815260040161078390610c6c565b60405180910390fd5b610795816107a0565b50565b600033905090565b60008060009054906101000a900473ffffffffffffffffffffffffffffffffffffffff169050816000806101000a81548173ffffffffffffffffffffffffffffffffffffffff021916908373ffffffffffffffffffffffffffffffffffffffff1602179055508173ffffffffffffffffffffffffffffffffffffffff168173ffffffffffffffffffffffffffffffffffffffff167f8be0079c531659141344cd1fd0a4f28419497f9722a3daafe3b4186f6b6457e060405160405180910390a35050565b60011515600260009054906101000a900460ff161515141561089c576000600260006101000a81548160ff0219169083151502179055505b565b60006001546003805490506108b39190610e89565b90506000600154826003805490506108cb9190610d8a565b6108d59190610d59565b90506108e0816108e4565b5050565b6000806001836108f49190610d8a565b9050505050565b82805482825590600052602060002090810192821561093c5760005260206000209182015b8281111561093b578254825591600101919060010190610920565b5b509050610949919061094d565b5090565b5b8082111561096657600081600090555060010161094e565b5090565b600061097d61097884610d0c565b610ce7565b90508281526020810184848401111561099557600080fd5b6109a0848285610e16565b509392505050565b6000813590506109b781611022565b92915050565b600082601f8301126109ce57600080fd5b81356109de84826020860161096a565b91505092915050565b6000813590506109f681611039565b92915050565b600081359050610a0b81611050565b92915050565b600060208284031215610a2357600080fd5b6000610a31848285016109a8565b91505092915050565b600080600060608486031215610a4f57600080fd5b600084013567ffffffffffffffff811115610a6957600080fd5b610a75868287016109bd565b9350506020610a86868287016109fc565b9250506040610a97868287016109fc565b9150509250925092565b600060208284031215610ab357600080fd5b6000610ac1848285016109e7565b91505092915050565b610ad381610dbe565b82525050565b610ae281610dd0565b82525050565b6000610af382610d3d565b610afd8185610d48565b9350610b0d818560208601610e25565b610b1681610f47565b840191505092915050565b6000610b2e601c83610d48565b9150610b3982610f58565b602082019050919050565b6000610b51602683610d48565b9150610b5c82610f81565b604082019050919050565b6000610b74601a83610d48565b9150610b7f82610fd0565b602082019050919050565b6000610b97602083610d48565b9150610ba282610ff9565b602082019050919050565b610bb681610e06565b82525050565b6000602082019050610bd16000830184610aca565b92915050565b6000602082019050610bec6000830184610ad9565b92915050565b600060a0820190508181036000830152610c0c8188610ae8565b9050610c1b6020830187610aca565b610c286040830186610aca565b610c356060830185610bad565b610c426080830184610bad565b9695505050505050565b60006020820190508181036000830152610c6581610b21565b9050919050565b60006020820190508181036000830152610c8581610b44565b9050919050565b60006020820190508181036000830152610ca581610b67565b9050919050565b60006020820190508181036000830152610cc581610b8a565b9050919050565b6000602082019050610ce16000830184610bad565b92915050565b6000610cf1610d02565b9050610cfd8282610e58565b919050565b6000604051905090565b600067ffffffffffffffff821115610d2757610d26610f18565b5b610d3082610f47565b9050602081019050919050565b600081519050919050565b600082825260208201905092915050565b6000610d6482610dfc565b9150610d6f83610dfc565b925082610d7f57610d7e610ee9565b5b828204905092915050565b6000610d9582610dfc565b9150610da083610dfc565b925082821015610db357610db2610eba565b5b828203905092915050565b6000610dc982610ddc565b9050919050565b60008115159050919050565b600073ffffffffffffffffffffffffffffffffffffffff82169050919050565b6000819050919050565b600063ffffffff82169050919050565b82818337600083830152505050565b60005b83811015610e43578082015181840152602081019050610e28565b83811115610e52576000848401525b50505050565b610e6182610f47565b810181811067ffffffffffffffff82111715610e8057610e7f610f18565b5b80604052505050565b6000610e9482610dfc565b9150610e9f83610dfc565b925082610eaf57610eae610ee9565b5b828206905092915050565b7f4e487b7100000000000000000000000000000000000000000000000000000000600052601160045260246000fd5b7f4e487b7100000000000000000000000000000000000000000000000000000000600052601260045260246000fd5b7f4e487b7100000000000000000000000000000000000000000000000000000000600052604160045260246000fd5b6000601f19601f8301169050919050565b7f596f75206861766520616c726561647920726567697374657265642100000000600082015250565b7f4f776e61626c653a206e6577206f776e657220697320746865207a65726f206160008201527f6464726573730000000000000000000000000000000000000000000000000000602082015250565b7f526567697374726174696f6e206e6f74206f70656e2079657421000000000000600082015250565b7f4f776e61626c653a2063616c6c6572206973206e6f7420746865206f776e6572600082015250565b61102b81610dbe565b811461103657600080fd5b50565b61104281610dfc565b811461104d57600080fd5b50565b61105981610e06565b811461106457600080fd5b5056fea2646970667358221220fbfb1b343afd003831c89a15319bcca3605bedb1ed5a671c11fb0ff763e82b1264736f6c63430008040033",
          "opcodes": "PUSH1 0xC0 PUSH1 0x40 MSTORE PUSH1 0x1 PUSH1 0x2 PUSH1 0x0 PUSH2 0x100 EXP DUP2 SLOAD DUP2 PUSH1 0xFF MUL NOT AND SWAP1 DUP4 ISZERO ISZERO MUL OR SWAP1 SSTORE POP CALLVALUE DUP1 ISZERO PUSH3 0x2C JUMPI PUSH1 0x0 DUP1 REVERT JUMPDEST POP PUSH1 0x40 MLOAD PUSH3 0x1384 CODESIZE SUB DUP1 PUSH3 0x1384 DUP4 CODECOPY DUP2 DUP2 ADD PUSH1 0x40 MSTORE DUP2 ADD SWAP1 PUSH3 0x52 SWAP2 SWAP1 PUSH3 0x1F0 JUMP JUMPDEST PUSH3 0x72 PUSH3 0x66 PUSH3 0xF6 PUSH1 0x20 SHL PUSH1 0x20 SHR JUMP JUMPDEST PUSH3 0xFE PUSH1 0x20 SHL PUSH1 0x20 SHR JUMP JUMPDEST DUP3 PUSH20 0xFFFFFFFFFFFFFFFFFFFFFFFFFFFFFFFFFFFFFFFF AND PUSH1 0x80 DUP2 PUSH20 0xFFFFFFFFFFFFFFFFFFFFFFFFFFFFFFFFFFFFFFFF AND PUSH1 0x60 SHL DUP2 MSTORE POP POP DUP2 PUSH4 0xFFFFFFFF AND PUSH1 0x1 DUP2 SWAP1 SSTORE POP DUP1 PUSH20 0xFFFFFFFFFFFFFFFFFFFFFFFFFFFFFFFFFFFFFFFF AND PUSH1 0xA0 DUP2 PUSH20 0xFFFFFFFFFFFFFFFFFFFFFFFFFFFFFFFFFFFFFFFF AND PUSH1 0x60 SHL DUP2 MSTORE POP POP POP POP POP PUSH3 0x2BE JUMP JUMPDEST PUSH1 0x0 CALLER SWAP1 POP SWAP1 JUMP JUMPDEST PUSH1 0x0 DUP1 PUSH1 0x0 SWAP1 SLOAD SWAP1 PUSH2 0x100 EXP SWAP1 DIV PUSH20 0xFFFFFFFFFFFFFFFFFFFFFFFFFFFFFFFFFFFFFFFF AND SWAP1 POP DUP2 PUSH1 0x0 DUP1 PUSH2 0x100 EXP DUP2 SLOAD DUP2 PUSH20 0xFFFFFFFFFFFFFFFFFFFFFFFFFFFFFFFFFFFFFFFF MUL NOT AND SWAP1 DUP4 PUSH20 0xFFFFFFFFFFFFFFFFFFFFFFFFFFFFFFFFFFFFFFFF AND MUL OR SWAP1 SSTORE POP DUP2 PUSH20 0xFFFFFFFFFFFFFFFFFFFFFFFFFFFFFFFFFFFFFFFF AND DUP2 PUSH20 0xFFFFFFFFFFFFFFFFFFFFFFFFFFFFFFFFFFFFFFFF AND PUSH32 0x8BE0079C531659141344CD1FD0A4F28419497F9722A3DAAFE3B4186F6B6457E0 PUSH1 0x40 MLOAD PUSH1 0x40 MLOAD DUP1 SWAP2 SUB SWAP1 LOG3 POP POP JUMP JUMPDEST PUSH1 0x0 DUP2 MLOAD SWAP1 POP PUSH3 0x1D3 DUP2 PUSH3 0x28A JUMP JUMPDEST SWAP3 SWAP2 POP POP JUMP JUMPDEST PUSH1 0x0 DUP2 MLOAD SWAP1 POP PUSH3 0x1EA DUP2 PUSH3 0x2A4 JUMP JUMPDEST SWAP3 SWAP2 POP POP JUMP JUMPDEST PUSH1 0x0 DUP1 PUSH1 0x0 PUSH1 0x60 DUP5 DUP7 SUB SLT ISZERO PUSH3 0x206 JUMPI PUSH1 0x0 DUP1 REVERT JUMPDEST PUSH1 0x0 PUSH3 0x216 DUP7 DUP3 DUP8 ADD PUSH3 0x1C2 JUMP JUMPDEST SWAP4 POP POP PUSH1 0x20 PUSH3 0x229 DUP7 DUP3 DUP8 ADD PUSH3 0x1D9 JUMP JUMPDEST SWAP3 POP POP PUSH1 0x40 PUSH3 0x23C DUP7 DUP3 DUP8 ADD PUSH3 0x1C2 JUMP JUMPDEST SWAP2 POP POP SWAP3 POP SWAP3 POP SWAP3 JUMP JUMPDEST PUSH1 0x0 PUSH3 0x253 DUP3 PUSH3 0x25A JUMP JUMPDEST SWAP1 POP SWAP2 SWAP1 POP JUMP JUMPDEST PUSH1 0x0 PUSH20 0xFFFFFFFFFFFFFFFFFFFFFFFFFFFFFFFFFFFFFFFF DUP3 AND SWAP1 POP SWAP2 SWAP1 POP JUMP JUMPDEST PUSH1 0x0 PUSH4 0xFFFFFFFF DUP3 AND SWAP1 POP SWAP2 SWAP1 POP JUMP JUMPDEST PUSH3 0x295 DUP2 PUSH3 0x246 JUMP JUMPDEST DUP2 EQ PUSH3 0x2A1 JUMPI PUSH1 0x0 DUP1 REVERT JUMPDEST POP JUMP JUMPDEST PUSH3 0x2AF DUP2 PUSH3 0x27A JUMP JUMPDEST DUP2 EQ PUSH3 0x2BB JUMPI PUSH1 0x0 DUP1 REVERT JUMPDEST POP JUMP JUMPDEST PUSH1 0x80 MLOAD PUSH1 0x60 SHR PUSH1 0xA0 MLOAD PUSH1 0x60 SHR PUSH2 0x109D PUSH3 0x2E7 PUSH1 0x0 CODECOPY PUSH1 0x0 POP POP PUSH1 0x0 PUSH2 0x3EB ADD MSTORE PUSH2 0x109D PUSH1 0x0 RETURN INVALID PUSH1 0x80 PUSH1 0x40 MSTORE CALLVALUE DUP1 ISZERO PUSH2 0x10 JUMPI PUSH1 0x0 DUP1 REVERT JUMPDEST POP PUSH1 0x4 CALLDATASIZE LT PUSH2 0x9E JUMPI PUSH1 0x0 CALLDATALOAD PUSH1 0xE0 SHR DUP1 PUSH4 0x8DA5CB5B GT PUSH2 0x66 JUMPI DUP1 PUSH4 0x8DA5CB5B EQ PUSH2 0x121 JUMPI DUP1 PUSH4 0x9D5B24C0 EQ PUSH2 0x13F JUMPI DUP1 PUSH4 0xBC3C09C4 EQ PUSH2 0x16F JUMPI DUP1 PUSH4 0xD65AB5F2 EQ PUSH2 0x19F JUMPI DUP1 PUSH4 0xF2FDE38B EQ PUSH2 0x1A9 JUMPI PUSH2 0x9E JUMP JUMPDEST DUP1 PUSH4 0x1AA3A008 EQ PUSH2 0xA3 JUMPI DUP1 PUSH4 0x3B024E75 EQ PUSH2 0xAD JUMPI DUP1 PUSH4 0x715018A6 EQ PUSH2 0xC9 JUMPI DUP1 PUSH4 0x756CD579 EQ PUSH2 0xD3 JUMPI DUP1 PUSH4 0x8C20A365 EQ PUSH2 0x103 JUMPI JUMPDEST PUSH1 0x0 DUP1 REVERT JUMPDEST PUSH2 0xAB PUSH2 0x1C5 JUMP JUMPDEST STOP JUMPDEST PUSH2 0xC7 PUSH1 0x4 DUP1 CALLDATASIZE SUB DUP2 ADD SWAP1 PUSH2 0xC2 SWAP2 SWAP1 PUSH2 0xA3A JUMP JUMPDEST PUSH2 0x36B JUMP JUMPDEST STOP JUMPDEST PUSH2 0xD1 PUSH2 0x492 JUMP JUMPDEST STOP JUMPDEST PUSH2 0xED PUSH1 0x4 DUP1 CALLDATASIZE SUB DUP2 ADD SWAP1 PUSH2 0xE8 SWAP2 SWAP1 PUSH2 0xAA1 JUMP JUMPDEST PUSH2 0x51A JUMP JUMPDEST PUSH1 0x40 MLOAD PUSH2 0xFA SWAP2 SWAP1 PUSH2 0xBBC JUMP JUMPDEST PUSH1 0x40 MLOAD DUP1 SWAP2 SUB SWAP1 RETURN JUMPDEST PUSH2 0x10B PUSH2 0x559 JUMP JUMPDEST PUSH1 0x40 MLOAD PUSH2 0x118 SWAP2 SWAP1 PUSH2 0xCCC JUMP JUMPDEST PUSH1 0x40 MLOAD DUP1 SWAP2 SUB SWAP1 RETURN JUMPDEST PUSH2 0x129 PUSH2 0x563 JUMP JUMPDEST PUSH1 0x40 MLOAD PUSH2 0x136 SWAP2 SWAP1 PUSH2 0xBBC JUMP JUMPDEST PUSH1 0x40 MLOAD DUP1 SWAP2 SUB SWAP1 RETURN JUMPDEST PUSH2 0x159 PUSH1 0x4 DUP1 CALLDATASIZE SUB DUP2 ADD SWAP1 PUSH2 0x154 SWAP2 SWAP1 PUSH2 0xAA1 JUMP JUMPDEST PUSH2 0x58C JUMP JUMPDEST PUSH1 0x40 MLOAD PUSH2 0x166 SWAP2 SWAP1 PUSH2 0xBBC JUMP JUMPDEST PUSH1 0x40 MLOAD DUP1 SWAP2 SUB SWAP1 RETURN JUMPDEST PUSH2 0x189 PUSH1 0x4 DUP1 CALLDATASIZE SUB DUP2 ADD SWAP1 PUSH2 0x184 SWAP2 SWAP1 PUSH2 0xA11 JUMP JUMPDEST PUSH2 0x5CB JUMP JUMPDEST PUSH1 0x40 MLOAD PUSH2 0x196 SWAP2 SWAP1 PUSH2 0xBD7 JUMP JUMPDEST PUSH1 0x40 MLOAD DUP1 SWAP2 SUB SWAP1 RETURN JUMPDEST PUSH2 0x1A7 PUSH2 0x5EB JUMP JUMPDEST STOP JUMPDEST PUSH2 0x1C3 PUSH1 0x4 DUP1 CALLDATASIZE SUB DUP2 ADD SWAP1 PUSH2 0x1BE SWAP2 SWAP1 PUSH2 0xA11 JUMP JUMPDEST PUSH2 0x6A0 JUMP JUMPDEST STOP JUMPDEST PUSH1 0x1 ISZERO ISZERO PUSH1 0x2 PUSH1 0x0 SWAP1 SLOAD SWAP1 PUSH2 0x100 EXP SWAP1 DIV PUSH1 0xFF AND ISZERO ISZERO EQ PUSH2 0x21B JUMPI PUSH1 0x40 MLOAD PUSH32 0x8C379A000000000000000000000000000000000000000000000000000000000 DUP2 MSTORE PUSH1 0x4 ADD PUSH2 0x212 SWAP1 PUSH2 0xC8C JUMP JUMPDEST PUSH1 0x40 MLOAD DUP1 SWAP2 SUB SWAP1 REVERT JUMPDEST PUSH1 0x0 ISZERO ISZERO PUSH1 0x4 PUSH1 0x0 CALLER PUSH20 0xFFFFFFFFFFFFFFFFFFFFFFFFFFFFFFFFFFFFFFFF AND PUSH20 0xFFFFFFFFFFFFFFFFFFFFFFFFFFFFFFFFFFFFFFFF AND DUP2 MSTORE PUSH1 0x20 ADD SWAP1 DUP2 MSTORE PUSH1 0x20 ADD PUSH1 0x0 KECCAK256 PUSH1 0x0 SWAP1 SLOAD SWAP1 PUSH2 0x100 EXP SWAP1 DIV PUSH1 0xFF AND ISZERO ISZERO EQ PUSH2 0x2AE JUMPI PUSH1 0x40 MLOAD PUSH32 0x8C379A000000000000000000000000000000000000000000000000000000000 DUP2 MSTORE PUSH1 0x4 ADD PUSH2 0x2A5 SWAP1 PUSH2 0xC4C JUMP JUMPDEST PUSH1 0x40 MLOAD DUP1 SWAP2 SUB SWAP1 REVERT JUMPDEST PUSH1 0x1 PUSH1 0x4 PUSH1 0x0 CALLER PUSH20 0xFFFFFFFFFFFFFFFFFFFFFFFFFFFFFFFFFFFFFFFF AND PUSH20 0xFFFFFFFFFFFFFFFFFFFFFFFFFFFFFFFFFFFFFFFF AND DUP2 MSTORE PUSH1 0x20 ADD SWAP1 DUP2 MSTORE PUSH1 0x20 ADD PUSH1 0x0 KECCAK256 PUSH1 0x0 PUSH2 0x100 EXP DUP2 SLOAD DUP2 PUSH1 0xFF MUL NOT AND SWAP1 DUP4 ISZERO ISZERO MUL OR SWAP1 SSTORE POP PUSH1 0x3 CALLER SWAP1 DUP1 PUSH1 0x1 DUP2 SLOAD ADD DUP1 DUP3 SSTORE DUP1 SWAP2 POP POP PUSH1 0x1 SWAP1 SUB SWAP1 PUSH1 0x0 MSTORE PUSH1 0x20 PUSH1 0x0 KECCAK256 ADD PUSH1 0x0 SWAP1 SWAP2 SWAP1 SWAP2 SWAP1 SWAP2 PUSH2 0x100 EXP DUP2 SLOAD DUP2 PUSH20 0xFFFFFFFFFFFFFFFFFFFFFFFFFFFFFFFFFFFFFFFF MUL NOT AND SWAP1 DUP4 PUSH20 0xFFFFFFFFFFFFFFFFFFFFFFFFFFFFFFFFFFFFFFFF AND MUL OR SWAP1 SSTORE POP JUMP JUMPDEST PUSH2 0x373 PUSH2 0x798 JUMP JUMPDEST PUSH20 0xFFFFFFFFFFFFFFFFFFFFFFFFFFFFFFFFFFFFFFFF AND PUSH2 0x391 PUSH2 0x563 JUMP JUMPDEST PUSH20 0xFFFFFFFFFFFFFFFFFFFFFFFFFFFFFFFFFFFFFFFF AND EQ PUSH2 0x3E7 JUMPI PUSH1 0x40 MLOAD PUSH32 0x8C379A000000000000000000000000000000000000000000000000000000000 DUP2 MSTORE PUSH1 0x4 ADD PUSH2 0x3DE SWAP1 PUSH2 0xCAC JUMP JUMPDEST PUSH1 0x40 MLOAD DUP1 SWAP2 SUB SWAP1 REVERT JUMPDEST PUSH1 0x0 PUSH32 0x0 SWAP1 POP DUP1 PUSH20 0xFFFFFFFFFFFFFFFFFFFFFFFFFFFFFFFFFFFFFFFF AND PUSH4 0x2CD9E389 DUP6 ADDRESS CALLER DUP8 DUP8 PUSH1 0x40 MLOAD DUP7 PUSH4 0xFFFFFFFF AND PUSH1 0xE0 SHL DUP2 MSTORE PUSH1 0x4 ADD PUSH2 0x44D SWAP6 SWAP5 SWAP4 SWAP3 SWAP2 SWAP1 PUSH2 0xBF2 JUMP JUMPDEST PUSH1 0x0 PUSH1 0x40 MLOAD DUP1 DUP4 SUB DUP2 PUSH1 0x0 DUP8 DUP1 EXTCODESIZE ISZERO DUP1 ISZERO PUSH2 0x467 JUMPI PUSH1 0x0 DUP1 REVERT JUMPDEST POP GAS CALL ISZERO DUP1 ISZERO PUSH2 0x47B JUMPI RETURNDATASIZE PUSH1 0x0 DUP1 RETURNDATACOPY RETURNDATASIZE PUSH1 0x0 REVERT JUMPDEST POP POP POP POP DUP3 PUSH4 0xFFFFFFFF AND PUSH1 0x1 DUP2 SWAP1 SSTORE POP POP POP POP POP JUMP JUMPDEST PUSH2 0x49A PUSH2 0x798 JUMP JUMPDEST PUSH20 0xFFFFFFFFFFFFFFFFFFFFFFFFFFFFFFFFFFFFFFFF AND PUSH2 0x4B8 PUSH2 0x563 JUMP JUMPDEST PUSH20 0xFFFFFFFFFFFFFFFFFFFFFFFFFFFFFFFFFFFFFFFF AND EQ PUSH2 0x50E JUMPI PUSH1 0x40 MLOAD PUSH32 0x8C379A000000000000000000000000000000000000000000000000000000000 DUP2 MSTORE PUSH1 0x4 ADD PUSH2 0x505 SWAP1 PUSH2 0xCAC JUMP JUMPDEST PUSH1 0x40 MLOAD DUP1 SWAP2 SUB SWAP1 REVERT JUMPDEST PUSH2 0x518 PUSH1 0x0 PUSH2 0x7A0 JUMP JUMPDEST JUMP JUMPDEST PUSH1 0x5 DUP2 DUP2 SLOAD DUP2 LT PUSH2 0x52A JUMPI PUSH1 0x0 DUP1 REVERT JUMPDEST SWAP1 PUSH1 0x0 MSTORE PUSH1 0x20 PUSH1 0x0 KECCAK256 ADD PUSH1 0x0 SWAP2 POP SLOAD SWAP1 PUSH2 0x100 EXP SWAP1 DIV PUSH20 0xFFFFFFFFFFFFFFFFFFFFFFFFFFFFFFFFFFFFFFFF AND DUP2 JUMP JUMPDEST PUSH1 0x0 DUP1 DUP1 SWAP2 POP POP SWAP1 JUMP JUMPDEST PUSH1 0x0 DUP1 PUSH1 0x0 SWAP1 SLOAD SWAP1 PUSH2 0x100 EXP SWAP1 DIV PUSH20 0xFFFFFFFFFFFFFFFFFFFFFFFFFFFFFFFFFFFFFFFF AND SWAP1 POP SWAP1 JUMP JUMPDEST PUSH1 0x3 DUP2 DUP2 SLOAD DUP2 LT PUSH2 0x59C JUMPI PUSH1 0x0 DUP1 REVERT JUMPDEST SWAP1 PUSH1 0x0 MSTORE PUSH1 0x20 PUSH1 0x0 KECCAK256 ADD PUSH1 0x0 SWAP2 POP SLOAD SWAP1 PUSH2 0x100 EXP SWAP1 DIV PUSH20 0xFFFFFFFFFFFFFFFFFFFFFFFFFFFFFFFFFFFFFFFF AND DUP2 JUMP JUMPDEST PUSH1 0x4 PUSH1 0x20 MSTORE DUP1 PUSH1 0x0 MSTORE PUSH1 0x40 PUSH1 0x0 KECCAK256 PUSH1 0x0 SWAP2 POP SLOAD SWAP1 PUSH2 0x100 EXP SWAP1 DIV PUSH1 0xFF AND DUP2 JUMP JUMPDEST PUSH2 0x5F3 PUSH2 0x798 JUMP JUMPDEST PUSH20 0xFFFFFFFFFFFFFFFFFFFFFFFFFFFFFFFFFFFFFFFF AND PUSH2 0x611 PUSH2 0x563 JUMP JUMPDEST PUSH20 0xFFFFFFFFFFFFFFFFFFFFFFFFFFFFFFFFFFFFFFFF AND EQ PUSH2 0x667 JUMPI PUSH1 0x40 MLOAD PUSH32 0x8C379A000000000000000000000000000000000000000000000000000000000 DUP2 MSTORE PUSH1 0x4 ADD PUSH2 0x65E SWAP1 PUSH2 0xCAC JUMP JUMPDEST PUSH1 0x40 MLOAD DUP1 SWAP2 SUB SWAP1 REVERT JUMPDEST PUSH2 0x66F PUSH2 0x864 JUMP JUMPDEST PUSH1 0x1 SLOAD PUSH1 0x3 DUP1 SLOAD SWAP1 POP GT PUSH2 0x695 JUMPI PUSH1 0x3 PUSH1 0x5 SWAP1 DUP1 SLOAD PUSH2 0x68F SWAP3 SWAP2 SWAP1 PUSH2 0x8FB JUMP JUMPDEST POP PUSH2 0x69E JUMP JUMPDEST PUSH2 0x69D PUSH2 0x89E JUMP JUMPDEST JUMPDEST JUMP JUMPDEST PUSH2 0x6A8 PUSH2 0x798 JUMP JUMPDEST PUSH20 0xFFFFFFFFFFFFFFFFFFFFFFFFFFFFFFFFFFFFFFFF AND PUSH2 0x6C6 PUSH2 0x563 JUMP JUMPDEST PUSH20 0xFFFFFFFFFFFFFFFFFFFFFFFFFFFFFFFFFFFFFFFF AND EQ PUSH2 0x71C JUMPI PUSH1 0x40 MLOAD PUSH32 0x8C379A000000000000000000000000000000000000000000000000000000000 DUP2 MSTORE PUSH1 0x4 ADD PUSH2 0x713 SWAP1 PUSH2 0xCAC JUMP JUMPDEST PUSH1 0x40 MLOAD DUP1 SWAP2 SUB SWAP1 REVERT JUMPDEST PUSH1 0x0 PUSH20 0xFFFFFFFFFFFFFFFFFFFFFFFFFFFFFFFFFFFFFFFF AND DUP2 PUSH20 0xFFFFFFFFFFFFFFFFFFFFFFFFFFFFFFFFFFFFFFFF AND EQ ISZERO PUSH2 0x78C JUMPI PUSH1 0x40 MLOAD PUSH32 0x8C379A000000000000000000000000000000000000000000000000000000000 DUP2 MSTORE PUSH1 0x4 ADD PUSH2 0x783 SWAP1 PUSH2 0xC6C JUMP JUMPDEST PUSH1 0x40 MLOAD DUP1 SWAP2 SUB SWAP1 REVERT JUMPDEST PUSH2 0x795 DUP2 PUSH2 0x7A0 JUMP JUMPDEST POP JUMP JUMPDEST PUSH1 0x0 CALLER SWAP1 POP SWAP1 JUMP JUMPDEST PUSH1 0x0 DUP1 PUSH1 0x0 SWAP1 SLOAD SWAP1 PUSH2 0x100 EXP SWAP1 DIV PUSH20 0xFFFFFFFFFFFFFFFFFFFFFFFFFFFFFFFFFFFFFFFF AND SWAP1 POP DUP2 PUSH1 0x0 DUP1 PUSH2 0x100 EXP DUP2 SLOAD DUP2 PUSH20 0xFFFFFFFFFFFFFFFFFFFFFFFFFFFFFFFFFFFFFFFF MUL NOT AND SWAP1 DUP4 PUSH20 0xFFFFFFFFFFFFFFFFFFFFFFFFFFFFFFFFFFFFFFFF AND MUL OR SWAP1 SSTORE POP DUP2 PUSH20 0xFFFFFFFFFFFFFFFFFFFFFFFFFFFFFFFFFFFFFFFF AND DUP2 PUSH20 0xFFFFFFFFFFFFFFFFFFFFFFFFFFFFFFFFFFFFFFFF AND PUSH32 0x8BE0079C531659141344CD1FD0A4F28419497F9722A3DAAFE3B4186F6B6457E0 PUSH1 0x40 MLOAD PUSH1 0x40 MLOAD DUP1 SWAP2 SUB SWAP1 LOG3 POP POP JUMP JUMPDEST PUSH1 0x1 ISZERO ISZERO PUSH1 0x2 PUSH1 0x0 SWAP1 SLOAD SWAP1 PUSH2 0x100 EXP SWAP1 DIV PUSH1 0xFF AND ISZERO ISZERO EQ ISZERO PUSH2 0x89C JUMPI PUSH1 0x0 PUSH1 0x2 PUSH1 0x0 PUSH2 0x100 EXP DUP2 SLOAD DUP2 PUSH1 0xFF MUL NOT AND SWAP1 DUP4 ISZERO ISZERO MUL OR SWAP1 SSTORE POP JUMPDEST JUMP JUMPDEST PUSH1 0x0 PUSH1 0x1 SLOAD PUSH1 0x3 DUP1 SLOAD SWAP1 POP PUSH2 0x8B3 SWAP2 SWAP1 PUSH2 0xE89 JUMP JUMPDEST SWAP1 POP PUSH1 0x0 PUSH1 0x1 SLOAD DUP3 PUSH1 0x3 DUP1 SLOAD SWAP1 POP PUSH2 0x8CB SWAP2 SWAP1 PUSH2 0xD8A JUMP JUMPDEST PUSH2 0x8D5 SWAP2 SWAP1 PUSH2 0xD59 JUMP JUMPDEST SWAP1 POP PUSH2 0x8E0 DUP2 PUSH2 0x8E4 JUMP JUMPDEST POP POP JUMP JUMPDEST PUSH1 0x0 DUP1 PUSH1 0x1 DUP4 PUSH2 0x8F4 SWAP2 SWAP1 PUSH2 0xD8A JUMP JUMPDEST SWAP1 POP POP POP POP JUMP JUMPDEST DUP3 DUP1 SLOAD DUP3 DUP3 SSTORE SWAP1 PUSH1 0x0 MSTORE PUSH1 0x20 PUSH1 0x0 KECCAK256 SWAP1 DUP2 ADD SWAP3 DUP3 ISZERO PUSH2 0x93C JUMPI PUSH1 0x0 MSTORE PUSH1 0x20 PUSH1 0x0 KECCAK256 SWAP2 DUP3 ADD JUMPDEST DUP3 DUP2 GT ISZERO PUSH2 0x93B JUMPI DUP3 SLOAD DUP3 SSTORE SWAP2 PUSH1 0x1 ADD SWAP2 SWAP1 PUSH1 0x1 ADD SWAP1 PUSH2 0x920 JUMP JUMPDEST JUMPDEST POP SWAP1 POP PUSH2 0x949 SWAP2 SWAP1 PUSH2 0x94D JUMP JUMPDEST POP SWAP1 JUMP JUMPDEST JUMPDEST DUP1 DUP3 GT ISZERO PUSH2 0x966 JUMPI PUSH1 0x0 DUP2 PUSH1 0x0 SWAP1 SSTORE POP PUSH1 0x1 ADD PUSH2 0x94E JUMP JUMPDEST POP SWAP1 JUMP JUMPDEST PUSH1 0x0 PUSH2 0x97D PUSH2 0x978 DUP5 PUSH2 0xD0C JUMP JUMPDEST PUSH2 0xCE7 JUMP JUMPDEST SWAP1 POP DUP3 DUP2 MSTORE PUSH1 0x20 DUP2 ADD DUP5 DUP5 DUP5 ADD GT ISZERO PUSH2 0x995 JUMPI PUSH1 0x0 DUP1 REVERT JUMPDEST PUSH2 0x9A0 DUP5 DUP3 DUP6 PUSH2 0xE16 JUMP JUMPDEST POP SWAP4 SWAP3 POP POP POP JUMP JUMPDEST PUSH1 0x0 DUP2 CALLDATALOAD SWAP1 POP PUSH2 0x9B7 DUP2 PUSH2 0x1022 JUMP JUMPDEST SWAP3 SWAP2 POP POP JUMP JUMPDEST PUSH1 0x0 DUP3 PUSH1 0x1F DUP4 ADD SLT PUSH2 0x9CE JUMPI PUSH1 0x0 DUP1 REVERT JUMPDEST DUP2 CALLDATALOAD PUSH2 0x9DE DUP5 DUP3 PUSH1 0x20 DUP7 ADD PUSH2 0x96A JUMP JUMPDEST SWAP2 POP POP SWAP3 SWAP2 POP POP JUMP JUMPDEST PUSH1 0x0 DUP2 CALLDATALOAD SWAP1 POP PUSH2 0x9F6 DUP2 PUSH2 0x1039 JUMP JUMPDEST SWAP3 SWAP2 POP POP JUMP JUMPDEST PUSH1 0x0 DUP2 CALLDATALOAD SWAP1 POP PUSH2 0xA0B DUP2 PUSH2 0x1050 JUMP JUMPDEST SWAP3 SWAP2 POP POP JUMP JUMPDEST PUSH1 0x0 PUSH1 0x20 DUP3 DUP5 SUB SLT ISZERO PUSH2 0xA23 JUMPI PUSH1 0x0 DUP1 REVERT JUMPDEST PUSH1 0x0 PUSH2 0xA31 DUP5 DUP3 DUP6 ADD PUSH2 0x9A8 JUMP JUMPDEST SWAP2 POP POP SWAP3 SWAP2 POP POP JUMP JUMPDEST PUSH1 0x0 DUP1 PUSH1 0x0 PUSH1 0x60 DUP5 DUP7 SUB SLT ISZERO PUSH2 0xA4F JUMPI PUSH1 0x0 DUP1 REVERT JUMPDEST PUSH1 0x0 DUP5 ADD CALLDATALOAD PUSH8 0xFFFFFFFFFFFFFFFF DUP2 GT ISZERO PUSH2 0xA69 JUMPI PUSH1 0x0 DUP1 REVERT JUMPDEST PUSH2 0xA75 DUP7 DUP3 DUP8 ADD PUSH2 0x9BD JUMP JUMPDEST SWAP4 POP POP PUSH1 0x20 PUSH2 0xA86 DUP7 DUP3 DUP8 ADD PUSH2 0x9FC JUMP JUMPDEST SWAP3 POP POP PUSH1 0x40 PUSH2 0xA97 DUP7 DUP3 DUP8 ADD PUSH2 0x9FC JUMP JUMPDEST SWAP2 POP POP SWAP3 POP SWAP3 POP SWAP3 JUMP JUMPDEST PUSH1 0x0 PUSH1 0x20 DUP3 DUP5 SUB SLT ISZERO PUSH2 0xAB3 JUMPI PUSH1 0x0 DUP1 REVERT JUMPDEST PUSH1 0x0 PUSH2 0xAC1 DUP5 DUP3 DUP6 ADD PUSH2 0x9E7 JUMP JUMPDEST SWAP2 POP POP SWAP3 SWAP2 POP POP JUMP JUMPDEST PUSH2 0xAD3 DUP2 PUSH2 0xDBE JUMP JUMPDEST DUP3 MSTORE POP POP JUMP JUMPDEST PUSH2 0xAE2 DUP2 PUSH2 0xDD0 JUMP JUMPDEST DUP3 MSTORE POP POP JUMP JUMPDEST PUSH1 0x0 PUSH2 0xAF3 DUP3 PUSH2 0xD3D JUMP JUMPDEST PUSH2 0xAFD DUP2 DUP6 PUSH2 0xD48 JUMP JUMPDEST SWAP4 POP PUSH2 0xB0D DUP2 DUP6 PUSH1 0x20 DUP7 ADD PUSH2 0xE25 JUMP JUMPDEST PUSH2 0xB16 DUP2 PUSH2 0xF47 JUMP JUMPDEST DUP5 ADD SWAP2 POP POP SWAP3 SWAP2 POP POP JUMP JUMPDEST PUSH1 0x0 PUSH2 0xB2E PUSH1 0x1C DUP4 PUSH2 0xD48 JUMP JUMPDEST SWAP2 POP PUSH2 0xB39 DUP3 PUSH2 0xF58 JUMP JUMPDEST PUSH1 0x20 DUP3 ADD SWAP1 POP SWAP2 SWAP1 POP JUMP JUMPDEST PUSH1 0x0 PUSH2 0xB51 PUSH1 0x26 DUP4 PUSH2 0xD48 JUMP JUMPDEST SWAP2 POP PUSH2 0xB5C DUP3 PUSH2 0xF81 JUMP JUMPDEST PUSH1 0x40 DUP3 ADD SWAP1 POP SWAP2 SWAP1 POP JUMP JUMPDEST PUSH1 0x0 PUSH2 0xB74 PUSH1 0x1A DUP4 PUSH2 0xD48 JUMP JUMPDEST SWAP2 POP PUSH2 0xB7F DUP3 PUSH2 0xFD0 JUMP JUMPDEST PUSH1 0x20 DUP3 ADD SWAP1 POP SWAP2 SWAP1 POP JUMP JUMPDEST PUSH1 0x0 PUSH2 0xB97 PUSH1 0x20 DUP4 PUSH2 0xD48 JUMP JUMPDEST SWAP2 POP PUSH2 0xBA2 DUP3 PUSH2 0xFF9 JUMP JUMPDEST PUSH1 0x20 DUP3 ADD SWAP1 POP SWAP2 SWAP1 POP JUMP JUMPDEST PUSH2 0xBB6 DUP2 PUSH2 0xE06 JUMP JUMPDEST DUP3 MSTORE POP POP JUMP JUMPDEST PUSH1 0x0 PUSH1 0x20 DUP3 ADD SWAP1 POP PUSH2 0xBD1 PUSH1 0x0 DUP4 ADD DUP5 PUSH2 0xACA JUMP JUMPDEST SWAP3 SWAP2 POP POP JUMP JUMPDEST PUSH1 0x0 PUSH1 0x20 DUP3 ADD SWAP1 POP PUSH2 0xBEC PUSH1 0x0 DUP4 ADD DUP5 PUSH2 0xAD9 JUMP JUMPDEST SWAP3 SWAP2 POP POP JUMP JUMPDEST PUSH1 0x0 PUSH1 0xA0 DUP3 ADD SWAP1 POP DUP2 DUP2 SUB PUSH1 0x0 DUP4 ADD MSTORE PUSH2 0xC0C DUP2 DUP9 PUSH2 0xAE8 JUMP JUMPDEST SWAP1 POP PUSH2 0xC1B PUSH1 0x20 DUP4 ADD DUP8 PUSH2 0xACA JUMP JUMPDEST PUSH2 0xC28 PUSH1 0x40 DUP4 ADD DUP7 PUSH2 0xACA JUMP JUMPDEST PUSH2 0xC35 PUSH1 0x60 DUP4 ADD DUP6 PUSH2 0xBAD JUMP JUMPDEST PUSH2 0xC42 PUSH1 0x80 DUP4 ADD DUP5 PUSH2 0xBAD JUMP JUMPDEST SWAP7 SWAP6 POP POP POP POP POP POP JUMP JUMPDEST PUSH1 0x0 PUSH1 0x20 DUP3 ADD SWAP1 POP DUP2 DUP2 SUB PUSH1 0x0 DUP4 ADD MSTORE PUSH2 0xC65 DUP2 PUSH2 0xB21 JUMP JUMPDEST SWAP1 POP SWAP2 SWAP1 POP JUMP JUMPDEST PUSH1 0x0 PUSH1 0x20 DUP3 ADD SWAP1 POP DUP2 DUP2 SUB PUSH1 0x0 DUP4 ADD MSTORE PUSH2 0xC85 DUP2 PUSH2 0xB44 JUMP JUMPDEST SWAP1 POP SWAP2 SWAP1 POP JUMP JUMPDEST PUSH1 0x0 PUSH1 0x20 DUP3 ADD SWAP1 POP DUP2 DUP2 SUB PUSH1 0x0 DUP4 ADD MSTORE PUSH2 0xCA5 DUP2 PUSH2 0xB67 JUMP JUMPDEST SWAP1 POP SWAP2 SWAP1 POP JUMP JUMPDEST PUSH1 0x0 PUSH1 0x20 DUP3 ADD SWAP1 POP DUP2 DUP2 SUB PUSH1 0x0 DUP4 ADD MSTORE PUSH2 0xCC5 DUP2 PUSH2 0xB8A JUMP JUMPDEST SWAP1 POP SWAP2 SWAP1 POP JUMP JUMPDEST PUSH1 0x0 PUSH1 0x20 DUP3 ADD SWAP1 POP PUSH2 0xCE1 PUSH1 0x0 DUP4 ADD DUP5 PUSH2 0xBAD JUMP JUMPDEST SWAP3 SWAP2 POP POP JUMP JUMPDEST PUSH1 0x0 PUSH2 0xCF1 PUSH2 0xD02 JUMP JUMPDEST SWAP1 POP PUSH2 0xCFD DUP3 DUP3 PUSH2 0xE58 JUMP JUMPDEST SWAP2 SWAP1 POP JUMP JUMPDEST PUSH1 0x0 PUSH1 0x40 MLOAD SWAP1 POP SWAP1 JUMP JUMPDEST PUSH1 0x0 PUSH8 0xFFFFFFFFFFFFFFFF DUP3 GT ISZERO PUSH2 0xD27 JUMPI PUSH2 0xD26 PUSH2 0xF18 JUMP JUMPDEST JUMPDEST PUSH2 0xD30 DUP3 PUSH2 0xF47 JUMP JUMPDEST SWAP1 POP PUSH1 0x20 DUP2 ADD SWAP1 POP SWAP2 SWAP1 POP JUMP JUMPDEST PUSH1 0x0 DUP2 MLOAD SWAP1 POP SWAP2 SWAP1 POP JUMP JUMPDEST PUSH1 0x0 DUP3 DUP3 MSTORE PUSH1 0x20 DUP3 ADD SWAP1 POP SWAP3 SWAP2 POP POP JUMP JUMPDEST PUSH1 0x0 PUSH2 0xD64 DUP3 PUSH2 0xDFC JUMP JUMPDEST SWAP2 POP PUSH2 0xD6F DUP4 PUSH2 0xDFC JUMP JUMPDEST SWAP3 POP DUP3 PUSH2 0xD7F JUMPI PUSH2 0xD7E PUSH2 0xEE9 JUMP JUMPDEST JUMPDEST DUP3 DUP3 DIV SWAP1 POP SWAP3 SWAP2 POP POP JUMP JUMPDEST PUSH1 0x0 PUSH2 0xD95 DUP3 PUSH2 0xDFC JUMP JUMPDEST SWAP2 POP PUSH2 0xDA0 DUP4 PUSH2 0xDFC JUMP JUMPDEST SWAP3 POP DUP3 DUP3 LT ISZERO PUSH2 0xDB3 JUMPI PUSH2 0xDB2 PUSH2 0xEBA JUMP JUMPDEST JUMPDEST DUP3 DUP3 SUB SWAP1 POP SWAP3 SWAP2 POP POP JUMP JUMPDEST PUSH1 0x0 PUSH2 0xDC9 DUP3 PUSH2 0xDDC JUMP JUMPDEST SWAP1 POP SWAP2 SWAP1 POP JUMP JUMPDEST PUSH1 0x0 DUP2 ISZERO ISZERO SWAP1 POP SWAP2 SWAP1 POP JUMP JUMPDEST PUSH1 0x0 PUSH20 0xFFFFFFFFFFFFFFFFFFFFFFFFFFFFFFFFFFFFFFFF DUP3 AND SWAP1 POP SWAP2 SWAP1 POP JUMP JUMPDEST PUSH1 0x0 DUP2 SWAP1 POP SWAP2 SWAP1 POP JUMP JUMPDEST PUSH1 0x0 PUSH4 0xFFFFFFFF DUP3 AND SWAP1 POP SWAP2 SWAP1 POP JUMP JUMPDEST DUP3 DUP2 DUP4 CALLDATACOPY PUSH1 0x0 DUP4 DUP4 ADD MSTORE POP POP POP JUMP JUMPDEST PUSH1 0x0 JUMPDEST DUP4 DUP2 LT ISZERO PUSH2 0xE43 JUMPI DUP1 DUP3 ADD MLOAD DUP2 DUP5 ADD MSTORE PUSH1 0x20 DUP2 ADD SWAP1 POP PUSH2 0xE28 JUMP JUMPDEST DUP4 DUP2 GT ISZERO PUSH2 0xE52 JUMPI PUSH1 0x0 DUP5 DUP5 ADD MSTORE JUMPDEST POP POP POP POP JUMP JUMPDEST PUSH2 0xE61 DUP3 PUSH2 0xF47 JUMP JUMPDEST DUP2 ADD DUP2 DUP2 LT PUSH8 0xFFFFFFFFFFFFFFFF DUP3 GT OR ISZERO PUSH2 0xE80 JUMPI PUSH2 0xE7F PUSH2 0xF18 JUMP JUMPDEST JUMPDEST DUP1 PUSH1 0x40 MSTORE POP POP POP JUMP JUMPDEST PUSH1 0x0 PUSH2 0xE94 DUP3 PUSH2 0xDFC JUMP JUMPDEST SWAP2 POP PUSH2 0xE9F DUP4 PUSH2 0xDFC JUMP JUMPDEST SWAP3 POP DUP3 PUSH2 0xEAF JUMPI PUSH2 0xEAE PUSH2 0xEE9 JUMP JUMPDEST JUMPDEST DUP3 DUP3 MOD SWAP1 POP SWAP3 SWAP2 POP POP JUMP JUMPDEST PUSH32 0x4E487B7100000000000000000000000000000000000000000000000000000000 PUSH1 0x0 MSTORE PUSH1 0x11 PUSH1 0x4 MSTORE PUSH1 0x24 PUSH1 0x0 REVERT JUMPDEST PUSH32 0x4E487B7100000000000000000000000000000000000000000000000000000000 PUSH1 0x0 MSTORE PUSH1 0x12 PUSH1 0x4 MSTORE PUSH1 0x24 PUSH1 0x0 REVERT JUMPDEST PUSH32 0x4E487B7100000000000000000000000000000000000000000000000000000000 PUSH1 0x0 MSTORE PUSH1 0x41 PUSH1 0x4 MSTORE PUSH1 0x24 PUSH1 0x0 REVERT JUMPDEST PUSH1 0x0 PUSH1 0x1F NOT PUSH1 0x1F DUP4 ADD AND SWAP1 POP SWAP2 SWAP1 POP JUMP JUMPDEST PUSH32 0x596F75206861766520616C726561647920726567697374657265642100000000 PUSH1 0x0 DUP3 ADD MSTORE POP JUMP JUMPDEST PUSH32 0x4F776E61626C653A206E6577206F776E657220697320746865207A65726F2061 PUSH1 0x0 DUP3 ADD MSTORE PUSH32 0x6464726573730000000000000000000000000000000000000000000000000000 PUSH1 0x20 DUP3 ADD MSTORE POP JUMP JUMPDEST PUSH32 0x526567697374726174696F6E206E6F74206F70656E2079657421000000000000 PUSH1 0x0 DUP3 ADD MSTORE POP JUMP JUMPDEST PUSH32 0x4F776E61626C653A2063616C6C6572206973206E6F7420746865206F776E6572 PUSH1 0x0 DUP3 ADD MSTORE POP JUMP JUMPDEST PUSH2 0x102B DUP2 PUSH2 0xDBE JUMP JUMPDEST DUP2 EQ PUSH2 0x1036 JUMPI PUSH1 0x0 DUP1 REVERT JUMPDEST POP JUMP JUMPDEST PUSH2 0x1042 DUP2 PUSH2 0xDFC JUMP JUMPDEST DUP2 EQ PUSH2 0x104D JUMPI PUSH1 0x0 DUP1 REVERT JUMPDEST POP JUMP JUMPDEST PUSH2 0x1059 DUP2 PUSH2 0xE06 JUMP JUMPDEST DUP2 EQ PUSH2 0x1064 JUMPI PUSH1 0x0 DUP1 REVERT JUMPDEST POP JUMP INVALID LOG2 PUSH5 0x6970667358 0x22 SLT KECCAK256 0xFB 0xFB SHL CALLVALUE GASPRICE REVERT STOP CODESIZE BALANCE 0xC8 SWAP11 ISZERO BALANCE SWAP12 0xCC LOG3 PUSH1 0x5B 0xED 0xB1 0xED GAS PUSH8 0x1C11FB0FF763E82B SLT PUSH5 0x736F6C6343 STOP ADDMOD DIV STOP CALLER "
        },
        "methodIdentifiers": {
          "_getAlgoPlay()": "8c20a365",
          "owner()": "8da5cb5b",
          "register()": "1aa3a008",
          "renounceOwnership()": "715018a6",
          "s_isRegistered(address)": "bc3c09c4",
          "s_registeredAddresses(uint256)": "9d5b24c0",
          "s_winners(uint256)": "756cd579",
          "startGame()": "d65ab5f2",
          "transferOwnership(address)": "f2fde38b",
          "updateEvent(string,uint32,uint32)": "3b024e75"
        }
      }
    }
  }
}