{
  "contracts/eventFactory.sol": {
    "eventFactory": {
      "abi": [
        {
          "inputs": [
            {
              "internalType": "address",
              "name": "_logAddress",
              "type": "address"
            }
          ],
          "stateMutability": "nonpayable",
          "type": "constructor"
        },
        {
          "inputs": [
            {
              "internalType": "string",
              "name": "_eventName",
              "type": "string"
            },
            {
              "internalType": "uint32",
              "name": "_numberOfTickets",
              "type": "uint32"
            },
            {
              "internalType": "uint32",
              "name": "_ticketPrice",
              "type": "uint32"
            }
          ],
          "name": "createEventGame",
          "outputs": [],
          "stateMutability": "nonpayable",
          "type": "function"
        }
      ],
      "evm": {
        "bytecode": {
          "linkReferences": {},
          "object": "60a060405234801561001057600080fd5b5060405161136338038061136383398101604081905261002f91610044565b60601b6001600160601b031916608052610072565b600060208284031215610055578081fd5b81516001600160a01b038116811461006b578182fd5b9392505050565b60805160601c6112ce6100956000396000818160490152606f01526112ce6000f3fe608060405234801561001057600080fd5b506004361061002b5760003560e01c806372391bed14610030575b600080fd5b61004361003e36600461015c565b610045565b005b60007f000000000000000000000000000000000000000000000000000000000000000090506000847f0000000000000000000000000000000000000000000000000000000000000000853360405161009c90610136565b6100a994939291906102bb565b604051809103906000f0801580156100c5573d6000803e3d6000fd5b5060405163fad8fe0d60e01b81529091506001600160a01b0383169063fad8fe0d906100fd908890859033908a908a90600401610274565b600060405180830381600087803b15801561011757600080fd5b505af115801561012b573d6000803e3d6000fd5b505050505050505050565b610f858061031483390190565b803563ffffffff8116811461015757600080fd5b919050565b600080600060608486031215610170578283fd5b833567ffffffffffffffff80821115610187578485fd5b818601915086601f83011261019a578485fd5b8135818111156101ac576101ac6102fd565b604051601f8201601f19908116603f011681019083821181831017156101d4576101d46102fd565b816040528281528960208487010111156101ec578788fd5b826020860160208301378760208483010152809750505050505061021260208501610143565b915061022060408501610143565b90509250925092565b60008151808452815b8181101561024e57602081850181015186830182015201610232565b8181111561025f5782602083870101525b50601f01601f19169290920160200192915050565b60a08152600061028760a0830188610229565b6001600160a01b03968716602084015294909516604082015263ffffffff9283166060820152911660809091015292915050565b6080815260006102ce6080830187610229565b6001600160a01b03958616602084015263ffffffff949094166040830152509216606090920191909152919050565b634e487b7160e01b600052604160045260246000fdfe60c06040526002805460ff191660011790553480156200001e57600080fd5b5060405162000f8538038062000f8583398101604081905262000041916200019c565b6200004c3362000089565b835162000061906003906020870190620000d9565b506001600160601b0319606093841b811660805260019290925590911b1660a05250620002f6565b600080546001600160a01b038381166001600160a01b0319831681178455604051919092169283917f8be0079c531659141344cd1fd0a4f28419497f9722a3daafe3b4186f6b6457e09190a35050565b828054620000e790620002a3565b90600052602060002090601f0160209004810192826200010b576000855562000156565b82601f106200012657805160ff191683800117855562000156565b8280016001018555821562000156579182015b828111156200015657825182559160200191906001019062000139565b506200016492915062000168565b5090565b5b8082111562000164576000815560010162000169565b80516001600160a01b03811681146200019757600080fd5b919050565b60008060008060808587031215620001b2578384fd5b84516001600160401b0380821115620001c9578586fd5b818701915087601f830112620001dd578586fd5b815181811115620001f257620001f2620002e0565b604051601f8201601f19908116603f011681019083821181831017156200021d576200021d620002e0565b81604052828152602093508a8484870101111562000239578889fd5b8891505b828210156200025c57848201840151818301850152908301906200023d565b828211156200026d57888484830101525b97506200027f9150508782016200017f565b945050506040850151915062000298606086016200017f565b905092959194509250565b600181811c90821680620002b857607f821691505b60208210811415620002da57634e487b7160e01b600052602260045260246000fd5b50919050565b634e487b7160e01b600052604160045260246000fd5b60805160601c60a05160601c610c666200031f6000396000505060006102d20152610c666000f3fe608060405234801561001057600080fd5b50600436106100885760003560e01c80639d5b24c01161005b5780639d5b24c0146100dc578063a3195c47146100ef578063bc3c09c414610102578063f2fde38b1461013557600080fd5b80631aa3a0081461008d5780633b024e7514610097578063715018a6146100aa5780638da5cb5b146100b2575b600080fd5b610095610148565b005b6100956100a53660046109c5565b610299565b61009561035b565b6000546001600160a01b03165b6040516001600160a01b0390911681526020015b60405180910390f35b6100bf6100ea366004610a92565b610391565b6100956100fd366004610a92565b6103bb565b61012561011036600461099e565b60056020526000908152604090205460ff1681565b60405190151581526020016100d3565b61009561014336600461099e565b61088d565b60025460ff1615156001146101a45760405162461bcd60e51b815260206004820152601a60248201527f526567697374726174696f6e206e6f74206f70656e207965742100000000000060448201526064015b60405180910390fd5b3360009081526005602052604090205460ff16156102045760405162461bcd60e51b815260206004820152601c60248201527f596f75206861766520616c726561647920726567697374657265642100000000604482015260640161019b565b60408051606081018252600080825260208083018281524284860190815233808552600684528685209551865591516001808701919091559051600290950194909455600480548086019091557f8a35acfbc15ff81a39ae7d344fd709f28e8600b4aa8c65c6b64bfe7fe36bd19b0180546001600160a01b03191690911790556005905291909120805460ff19169091179055565b6000546001600160a01b031633146102c35760405162461bcd60e51b815260040161019b90610ba1565b60405163fad8fe0d60e01b81527f0000000000000000000000000000000000000000000000000000000000000000906001600160a01b0382169063fad8fe0d906103199087903090339089908990600401610b13565b600060405180830381600087803b15801561033357600080fd5b505af1158015610347573d6000803e3d6000fd5b50505063ffffffff90931660015550505050565b6000546001600160a01b031633146103855760405162461bcd60e51b815260040161019b90610ba1565b61038f6000610928565b565b600481815481106103a157600080fd5b6000918252602090912001546001600160a01b0316905081565b3360009081526005602052604090205460ff1615156001146103dc57600080fd5b33600090815260066020526040902060010154600510156103fc57600080fd5b6000610406610978565b905080600281111561042857634e487b7160e01b600052602160045260246000fd5b82600281111561044857634e487b7160e01b600052602160045260246000fd5b600281111561046757634e487b7160e01b600052602160045260246000fd5b14156104db5760408051338152606060208201819052600490820152636472617760e01b60808201526001818301529051600080516020610c118339815191529181900360a00190a13360009081526006602052604081208054600192906104d0908490610bd6565b909155506108389050565b60008260028111156104fd57634e487b7160e01b600052602160045260246000fd5b600281111561051c57634e487b7160e01b600052602160045260246000fd5b1480156105485750600181600281111561054657634e487b7160e01b600052602160045260246000fd5b145b1561057a57600080516020610c1183398151915233600060405161056d929190610ade565b60405180910390a1610838565b600082600281111561059c57634e487b7160e01b600052602160045260246000fd5b60028111156105bb57634e487b7160e01b600052602160045260246000fd5b1480156105e7575060028160028111156105e557634e487b7160e01b600052602160045260246000fd5b145b1561063457600080516020610c1183398151915233600360405161060c929190610aaa565b60405180910390a13360009081526006602052604081208054600392906104d0908490610bd6565b600182600281111561065657634e487b7160e01b600052602160045260246000fd5b600281111561067557634e487b7160e01b600052602160045260246000fd5b1480156106a15750600081600281111561069f57634e487b7160e01b600052602160045260246000fd5b145b156106c657600080516020610c1183398151915233600360405161060c929190610aaa565b60018260028111156106e857634e487b7160e01b600052602160045260246000fd5b600281111561070757634e487b7160e01b600052602160045260246000fd5b1480156107335750600281600281111561073157634e487b7160e01b600052602160045260246000fd5b145b1561075857600080516020610c1183398151915233600060405161056d929190610ade565b600282600281111561077a57634e487b7160e01b600052602160045260246000fd5b600281111561079957634e487b7160e01b600052602160045260246000fd5b1480156107c5575060008160028111156107c357634e487b7160e01b600052602160045260246000fd5b145b156107ea57600080516020610c1183398151915233600060405161056d929190610ade565b600080516020610c1183398151915233600360405161080a929190610aaa565b60405180910390a1336000908152600660205260408120805460039290610832908490610bd6565b90915550505b336000908152600660205260408120600190810180549192909161085d908490610bd6565b90915550503360009081526006602052604081206002018054429290610884908490610bd6565b90915550505050565b6000546001600160a01b031633146108b75760405162461bcd60e51b815260040161019b90610ba1565b6001600160a01b03811661091c5760405162461bcd60e51b815260206004820152602660248201527f4f776e61626c653a206e6577206f776e657220697320746865207a65726f206160448201526564647265737360d01b606482015260840161019b565b61092581610928565b50565b600080546001600160a01b038381166001600160a01b0319831681178455604051919092169283917f8be0079c531659141344cd1fd0a4f28419497f9722a3daafe3b4186f6b6457e09190a35050565b60008080805b9392505050565b803563ffffffff8116811461099957600080fd5b919050565b6000602082840312156109af578081fd5b81356001600160a01b038116811461097e578182fd5b6000806000606084860312156109d9578182fd5b833567ffffffffffffffff808211156109f0578384fd5b818601915086601f830112610a03578384fd5b813581811115610a1557610a15610bfa565b604051601f8201601f19908116603f01168101908382118183101715610a3d57610a3d610bfa565b81604052828152896020848701011115610a55578687fd5b8260208601602083013786602084830101528097505050505050610a7b60208501610985565b9150610a8960408501610985565b90509250925092565b600060208284031215610aa3578081fd5b5035919050565b6001600160a01b03929092168252606060208301819052600390830152623bb4b760e91b6080830152604082015260a00190565b6001600160a01b03929092168252606060208301819052600490830152636c6f737360e01b6080830152604082015260a00190565b60a08152600086518060a0840152815b81811015610b40576020818a0181015160c0868401015201610b23565b81811115610b51578260c083860101525b50601f01601f1916820160c0019050610b7560208301876001600160a01b03169052565b6001600160a01b0394909416604082015263ffffffff9283166060820152911660809091015292915050565b6020808252818101527f4f776e61626c653a2063616c6c6572206973206e6f7420746865206f776e6572604082015260600190565b60008219821115610bf557634e487b7160e01b81526011600452602481fd5b500190565b634e487b7160e01b600052604160045260246000fdfe85fc1bbb39de8edc11717b838a522d914a97c6952cb06de101d20931f336f187a26469706673582212205b13361efd51a8a79cd31abb56dc3b61438e0d110022ee4bf721faaa2cecccc964736f6c63430008040033a264697066735822122085decb9aec24193ad903d330a16e701182a2551e3cbb0ebc2d1da01683487c9a64736f6c63430008040033",
          "opcodes": "PUSH1 0xA0 PUSH1 0x40 MSTORE CALLVALUE DUP1 ISZERO PUSH2 0x10 JUMPI PUSH1 0x0 DUP1 REVERT JUMPDEST POP PUSH1 0x40 MLOAD PUSH2 0x1363 CODESIZE SUB DUP1 PUSH2 0x1363 DUP4 CODECOPY DUP2 ADD PUSH1 0x40 DUP2 SWAP1 MSTORE PUSH2 0x2F SWAP2 PUSH2 0x44 JUMP JUMPDEST PUSH1 0x60 SHL PUSH1 0x1 PUSH1 0x1 PUSH1 0x60 SHL SUB NOT AND PUSH1 0x80 MSTORE PUSH2 0x72 JUMP JUMPDEST PUSH1 0x0 PUSH1 0x20 DUP3 DUP5 SUB SLT ISZERO PUSH2 0x55 JUMPI DUP1 DUP2 REVERT JUMPDEST DUP2 MLOAD PUSH1 0x1 PUSH1 0x1 PUSH1 0xA0 SHL SUB DUP2 AND DUP2 EQ PUSH2 0x6B JUMPI DUP2 DUP3 REVERT JUMPDEST SWAP4 SWAP3 POP POP POP JUMP JUMPDEST PUSH1 0x80 MLOAD PUSH1 0x60 SHR PUSH2 0x12CE PUSH2 0x95 PUSH1 0x0 CODECOPY PUSH1 0x0 DUP2 DUP2 PUSH1 0x49 ADD MSTORE PUSH1 0x6F ADD MSTORE PUSH2 0x12CE PUSH1 0x0 RETURN INVALID PUSH1 0x80 PUSH1 0x40 MSTORE CALLVALUE DUP1 ISZERO PUSH2 0x10 JUMPI PUSH1 0x0 DUP1 REVERT JUMPDEST POP PUSH1 0x4 CALLDATASIZE LT PUSH2 0x2B JUMPI PUSH1 0x0 CALLDATALOAD PUSH1 0xE0 SHR DUP1 PUSH4 0x72391BED EQ PUSH2 0x30 JUMPI JUMPDEST PUSH1 0x0 DUP1 REVERT JUMPDEST PUSH2 0x43 PUSH2 0x3E CALLDATASIZE PUSH1 0x4 PUSH2 0x15C JUMP JUMPDEST PUSH2 0x45 JUMP JUMPDEST STOP JUMPDEST PUSH1 0x0 PUSH32 0x0 SWAP1 POP PUSH1 0x0 DUP5 PUSH32 0x0 DUP6 CALLER PUSH1 0x40 MLOAD PUSH2 0x9C SWAP1 PUSH2 0x136 JUMP JUMPDEST PUSH2 0xA9 SWAP5 SWAP4 SWAP3 SWAP2 SWAP1 PUSH2 0x2BB JUMP JUMPDEST PUSH1 0x40 MLOAD DUP1 SWAP2 SUB SWAP1 PUSH1 0x0 CREATE DUP1 ISZERO DUP1 ISZERO PUSH2 0xC5 JUMPI RETURNDATASIZE PUSH1 0x0 DUP1 RETURNDATACOPY RETURNDATASIZE PUSH1 0x0 REVERT JUMPDEST POP PUSH1 0x40 MLOAD PUSH4 0xFAD8FE0D PUSH1 0xE0 SHL DUP2 MSTORE SWAP1 SWAP2 POP PUSH1 0x1 PUSH1 0x1 PUSH1 0xA0 SHL SUB DUP4 AND SWAP1 PUSH4 0xFAD8FE0D SWAP1 PUSH2 0xFD SWAP1 DUP9 SWAP1 DUP6 SWAP1 CALLER SWAP1 DUP11 SWAP1 DUP11 SWAP1 PUSH1 0x4 ADD PUSH2 0x274 JUMP JUMPDEST PUSH1 0x0 PUSH1 0x40 MLOAD DUP1 DUP4 SUB DUP2 PUSH1 0x0 DUP8 DUP1 EXTCODESIZE ISZERO DUP1 ISZERO PUSH2 0x117 JUMPI PUSH1 0x0 DUP1 REVERT JUMPDEST POP GAS CALL ISZERO DUP1 ISZERO PUSH2 0x12B JUMPI RETURNDATASIZE PUSH1 0x0 DUP1 RETURNDATACOPY RETURNDATASIZE PUSH1 0x0 REVERT JUMPDEST POP POP POP POP POP POP POP POP POP JUMP JUMPDEST PUSH2 0xF85 DUP1 PUSH2 0x314 DUP4 CODECOPY ADD SWAP1 JUMP JUMPDEST DUP1 CALLDATALOAD PUSH4 0xFFFFFFFF DUP2 AND DUP2 EQ PUSH2 0x157 JUMPI PUSH1 0x0 DUP1 REVERT JUMPDEST SWAP2 SWAP1 POP JUMP JUMPDEST PUSH1 0x0 DUP1 PUSH1 0x0 PUSH1 0x60 DUP5 DUP7 SUB SLT ISZERO PUSH2 0x170 JUMPI DUP3 DUP4 REVERT JUMPDEST DUP4 CALLDATALOAD PUSH8 0xFFFFFFFFFFFFFFFF DUP1 DUP3 GT ISZERO PUSH2 0x187 JUMPI DUP5 DUP6 REVERT JUMPDEST DUP2 DUP7 ADD SWAP2 POP DUP7 PUSH1 0x1F DUP4 ADD SLT PUSH2 0x19A JUMPI DUP5 DUP6 REVERT JUMPDEST DUP2 CALLDATALOAD DUP2 DUP2 GT ISZERO PUSH2 0x1AC JUMPI PUSH2 0x1AC PUSH2 0x2FD JUMP JUMPDEST PUSH1 0x40 MLOAD PUSH1 0x1F DUP3 ADD PUSH1 0x1F NOT SWAP1 DUP2 AND PUSH1 0x3F ADD AND DUP2 ADD SWAP1 DUP4 DUP3 GT DUP2 DUP4 LT OR ISZERO PUSH2 0x1D4 JUMPI PUSH2 0x1D4 PUSH2 0x2FD JUMP JUMPDEST DUP2 PUSH1 0x40 MSTORE DUP3 DUP2 MSTORE DUP10 PUSH1 0x20 DUP5 DUP8 ADD ADD GT ISZERO PUSH2 0x1EC JUMPI DUP8 DUP9 REVERT JUMPDEST DUP3 PUSH1 0x20 DUP7 ADD PUSH1 0x20 DUP4 ADD CALLDATACOPY DUP8 PUSH1 0x20 DUP5 DUP4 ADD ADD MSTORE DUP1 SWAP8 POP POP POP POP POP POP PUSH2 0x212 PUSH1 0x20 DUP6 ADD PUSH2 0x143 JUMP JUMPDEST SWAP2 POP PUSH2 0x220 PUSH1 0x40 DUP6 ADD PUSH2 0x143 JUMP JUMPDEST SWAP1 POP SWAP3 POP SWAP3 POP SWAP3 JUMP JUMPDEST PUSH1 0x0 DUP2 MLOAD DUP1 DUP5 MSTORE DUP2 JUMPDEST DUP2 DUP2 LT ISZERO PUSH2 0x24E JUMPI PUSH1 0x20 DUP2 DUP6 ADD DUP2 ADD MLOAD DUP7 DUP4 ADD DUP3 ADD MSTORE ADD PUSH2 0x232 JUMP JUMPDEST DUP2 DUP2 GT ISZERO PUSH2 0x25F JUMPI DUP3 PUSH1 0x20 DUP4 DUP8 ADD ADD MSTORE JUMPDEST POP PUSH1 0x1F ADD PUSH1 0x1F NOT AND SWAP3 SWAP1 SWAP3 ADD PUSH1 0x20 ADD SWAP3 SWAP2 POP POP JUMP JUMPDEST PUSH1 0xA0 DUP2 MSTORE PUSH1 0x0 PUSH2 0x287 PUSH1 0xA0 DUP4 ADD DUP9 PUSH2 0x229 JUMP JUMPDEST PUSH1 0x1 PUSH1 0x1 PUSH1 0xA0 SHL SUB SWAP7 DUP8 AND PUSH1 0x20 DUP5 ADD MSTORE SWAP5 SWAP1 SWAP6 AND PUSH1 0x40 DUP3 ADD MSTORE PUSH4 0xFFFFFFFF SWAP3 DUP4 AND PUSH1 0x60 DUP3 ADD MSTORE SWAP2 AND PUSH1 0x80 SWAP1 SWAP2 ADD MSTORE SWAP3 SWAP2 POP POP JUMP JUMPDEST PUSH1 0x80 DUP2 MSTORE PUSH1 0x0 PUSH2 0x2CE PUSH1 0x80 DUP4 ADD DUP8 PUSH2 0x229 JUMP JUMPDEST PUSH1 0x1 PUSH1 0x1 PUSH1 0xA0 SHL SUB SWAP6 DUP7 AND PUSH1 0x20 DUP5 ADD MSTORE PUSH4 0xFFFFFFFF SWAP5 SWAP1 SWAP5 AND PUSH1 0x40 DUP4 ADD MSTORE POP SWAP3 AND PUSH1 0x60 SWAP1 SWAP3 ADD SWAP2 SWAP1 SWAP2 MSTORE SWAP2 SWAP1 POP JUMP JUMPDEST PUSH4 0x4E487B71 PUSH1 0xE0 SHL PUSH1 0x0 MSTORE PUSH1 0x41 PUSH1 0x4 MSTORE PUSH1 0x24 PUSH1 0x0 REVERT INVALID PUSH1 0xC0 PUSH1 0x40 MSTORE PUSH1 0x2 DUP1 SLOAD PUSH1 0xFF NOT AND PUSH1 0x1 OR SWAP1 SSTORE CALLVALUE DUP1 ISZERO PUSH3 0x1E JUMPI PUSH1 0x0 DUP1 REVERT JUMPDEST POP PUSH1 0x40 MLOAD PUSH3 0xF85 CODESIZE SUB DUP1 PUSH3 0xF85 DUP4 CODECOPY DUP2 ADD PUSH1 0x40 DUP2 SWAP1 MSTORE PUSH3 0x41 SWAP2 PUSH3 0x19C JUMP JUMPDEST PUSH3 0x4C CALLER PUSH3 0x89 JUMP JUMPDEST DUP4 MLOAD PUSH3 0x61 SWAP1 PUSH1 0x3 SWAP1 PUSH1 0x20 DUP8 ADD SWAP1 PUSH3 0xD9 JUMP JUMPDEST POP PUSH1 0x1 PUSH1 0x1 PUSH1 0x60 SHL SUB NOT PUSH1 0x60 SWAP4 DUP5 SHL DUP2 AND PUSH1 0x80 MSTORE PUSH1 0x1 SWAP3 SWAP1 SWAP3 SSTORE SWAP1 SWAP2 SHL AND PUSH1 0xA0 MSTORE POP PUSH3 0x2F6 JUMP JUMPDEST PUSH1 0x0 DUP1 SLOAD PUSH1 0x1 PUSH1 0x1 PUSH1 0xA0 SHL SUB DUP4 DUP2 AND PUSH1 0x1 PUSH1 0x1 PUSH1 0xA0 SHL SUB NOT DUP4 AND DUP2 OR DUP5 SSTORE PUSH1 0x40 MLOAD SWAP2 SWAP1 SWAP3 AND SWAP3 DUP4 SWAP2 PUSH32 0x8BE0079C531659141344CD1FD0A4F28419497F9722A3DAAFE3B4186F6B6457E0 SWAP2 SWAP1 LOG3 POP POP JUMP JUMPDEST DUP3 DUP1 SLOAD PUSH3 0xE7 SWAP1 PUSH3 0x2A3 JUMP JUMPDEST SWAP1 PUSH1 0x0 MSTORE PUSH1 0x20 PUSH1 0x0 KECCAK256 SWAP1 PUSH1 0x1F ADD PUSH1 0x20 SWAP1 DIV DUP2 ADD SWAP3 DUP3 PUSH3 0x10B JUMPI PUSH1 0x0 DUP6 SSTORE PUSH3 0x156 JUMP JUMPDEST DUP3 PUSH1 0x1F LT PUSH3 0x126 JUMPI DUP1 MLOAD PUSH1 0xFF NOT AND DUP4 DUP1 ADD OR DUP6 SSTORE PUSH3 0x156 JUMP JUMPDEST DUP3 DUP1 ADD PUSH1 0x1 ADD DUP6 SSTORE DUP3 ISZERO PUSH3 0x156 JUMPI SWAP2 DUP3 ADD JUMPDEST DUP3 DUP2 GT ISZERO PUSH3 0x156 JUMPI DUP3 MLOAD DUP3 SSTORE SWAP2 PUSH1 0x20 ADD SWAP2 SWAP1 PUSH1 0x1 ADD SWAP1 PUSH3 0x139 JUMP JUMPDEST POP PUSH3 0x164 SWAP3 SWAP2 POP PUSH3 0x168 JUMP JUMPDEST POP SWAP1 JUMP JUMPDEST JUMPDEST DUP1 DUP3 GT ISZERO PUSH3 0x164 JUMPI PUSH1 0x0 DUP2 SSTORE PUSH1 0x1 ADD PUSH3 0x169 JUMP JUMPDEST DUP1 MLOAD PUSH1 0x1 PUSH1 0x1 PUSH1 0xA0 SHL SUB DUP2 AND DUP2 EQ PUSH3 0x197 JUMPI PUSH1 0x0 DUP1 REVERT JUMPDEST SWAP2 SWAP1 POP JUMP JUMPDEST PUSH1 0x0 DUP1 PUSH1 0x0 DUP1 PUSH1 0x80 DUP6 DUP8 SUB SLT ISZERO PUSH3 0x1B2 JUMPI DUP4 DUP5 REVERT JUMPDEST DUP5 MLOAD PUSH1 0x1 PUSH1 0x1 PUSH1 0x40 SHL SUB DUP1 DUP3 GT ISZERO PUSH3 0x1C9 JUMPI DUP6 DUP7 REVERT JUMPDEST DUP2 DUP8 ADD SWAP2 POP DUP8 PUSH1 0x1F DUP4 ADD SLT PUSH3 0x1DD JUMPI DUP6 DUP7 REVERT JUMPDEST DUP2 MLOAD DUP2 DUP2 GT ISZERO PUSH3 0x1F2 JUMPI PUSH3 0x1F2 PUSH3 0x2E0 JUMP JUMPDEST PUSH1 0x40 MLOAD PUSH1 0x1F DUP3 ADD PUSH1 0x1F NOT SWAP1 DUP2 AND PUSH1 0x3F ADD AND DUP2 ADD SWAP1 DUP4 DUP3 GT DUP2 DUP4 LT OR ISZERO PUSH3 0x21D JUMPI PUSH3 0x21D PUSH3 0x2E0 JUMP JUMPDEST DUP2 PUSH1 0x40 MSTORE DUP3 DUP2 MSTORE PUSH1 0x20 SWAP4 POP DUP11 DUP5 DUP5 DUP8 ADD ADD GT ISZERO PUSH3 0x239 JUMPI DUP9 DUP10 REVERT JUMPDEST DUP9 SWAP2 POP JUMPDEST DUP3 DUP3 LT ISZERO PUSH3 0x25C JUMPI DUP5 DUP3 ADD DUP5 ADD MLOAD DUP2 DUP4 ADD DUP6 ADD MSTORE SWAP1 DUP4 ADD SWAP1 PUSH3 0x23D JUMP JUMPDEST DUP3 DUP3 GT ISZERO PUSH3 0x26D JUMPI DUP9 DUP5 DUP5 DUP4 ADD ADD MSTORE JUMPDEST SWAP8 POP PUSH3 0x27F SWAP2 POP POP DUP8 DUP3 ADD PUSH3 0x17F JUMP JUMPDEST SWAP5 POP POP POP PUSH1 0x40 DUP6 ADD MLOAD SWAP2 POP PUSH3 0x298 PUSH1 0x60 DUP7 ADD PUSH3 0x17F JUMP JUMPDEST SWAP1 POP SWAP3 SWAP6 SWAP2 SWAP5 POP SWAP3 POP JUMP JUMPDEST PUSH1 0x1 DUP2 DUP2 SHR SWAP1 DUP3 AND DUP1 PUSH3 0x2B8 JUMPI PUSH1 0x7F DUP3 AND SWAP2 POP JUMPDEST PUSH1 0x20 DUP3 LT DUP2 EQ ISZERO PUSH3 0x2DA JUMPI PUSH4 0x4E487B71 PUSH1 0xE0 SHL PUSH1 0x0 MSTORE PUSH1 0x22 PUSH1 0x4 MSTORE PUSH1 0x24 PUSH1 0x0 REVERT JUMPDEST POP SWAP2 SWAP1 POP JUMP JUMPDEST PUSH4 0x4E487B71 PUSH1 0xE0 SHL PUSH1 0x0 MSTORE PUSH1 0x41 PUSH1 0x4 MSTORE PUSH1 0x24 PUSH1 0x0 REVERT JUMPDEST PUSH1 0x80 MLOAD PUSH1 0x60 SHR PUSH1 0xA0 MLOAD PUSH1 0x60 SHR PUSH2 0xC66 PUSH3 0x31F PUSH1 0x0 CODECOPY PUSH1 0x0 POP POP PUSH1 0x0 PUSH2 0x2D2 ADD MSTORE PUSH2 0xC66 PUSH1 0x0 RETURN INVALID PUSH1 0x80 PUSH1 0x40 MSTORE CALLVALUE DUP1 ISZERO PUSH2 0x10 JUMPI PUSH1 0x0 DUP1 REVERT JUMPDEST POP PUSH1 0x4 CALLDATASIZE LT PUSH2 0x88 JUMPI PUSH1 0x0 CALLDATALOAD PUSH1 0xE0 SHR DUP1 PUSH4 0x9D5B24C0 GT PUSH2 0x5B JUMPI DUP1 PUSH4 0x9D5B24C0 EQ PUSH2 0xDC JUMPI DUP1 PUSH4 0xA3195C47 EQ PUSH2 0xEF JUMPI DUP1 PUSH4 0xBC3C09C4 EQ PUSH2 0x102 JUMPI DUP1 PUSH4 0xF2FDE38B EQ PUSH2 0x135 JUMPI PUSH1 0x0 DUP1 REVERT JUMPDEST DUP1 PUSH4 0x1AA3A008 EQ PUSH2 0x8D JUMPI DUP1 PUSH4 0x3B024E75 EQ PUSH2 0x97 JUMPI DUP1 PUSH4 0x715018A6 EQ PUSH2 0xAA JUMPI DUP1 PUSH4 0x8DA5CB5B EQ PUSH2 0xB2 JUMPI JUMPDEST PUSH1 0x0 DUP1 REVERT JUMPDEST PUSH2 0x95 PUSH2 0x148 JUMP JUMPDEST STOP JUMPDEST PUSH2 0x95 PUSH2 0xA5 CALLDATASIZE PUSH1 0x4 PUSH2 0x9C5 JUMP JUMPDEST PUSH2 0x299 JUMP JUMPDEST PUSH2 0x95 PUSH2 0x35B JUMP JUMPDEST PUSH1 0x0 SLOAD PUSH1 0x1 PUSH1 0x1 PUSH1 0xA0 SHL SUB AND JUMPDEST PUSH1 0x40 MLOAD PUSH1 0x1 PUSH1 0x1 PUSH1 0xA0 SHL SUB SWAP1 SWAP2 AND DUP2 MSTORE PUSH1 0x20 ADD JUMPDEST PUSH1 0x40 MLOAD DUP1 SWAP2 SUB SWAP1 RETURN JUMPDEST PUSH2 0xBF PUSH2 0xEA CALLDATASIZE PUSH1 0x4 PUSH2 0xA92 JUMP JUMPDEST PUSH2 0x391 JUMP JUMPDEST PUSH2 0x95 PUSH2 0xFD CALLDATASIZE PUSH1 0x4 PUSH2 0xA92 JUMP JUMPDEST PUSH2 0x3BB JUMP JUMPDEST PUSH2 0x125 PUSH2 0x110 CALLDATASIZE PUSH1 0x4 PUSH2 0x99E JUMP JUMPDEST PUSH1 0x5 PUSH1 0x20 MSTORE PUSH1 0x0 SWAP1 DUP2 MSTORE PUSH1 0x40 SWAP1 KECCAK256 SLOAD PUSH1 0xFF AND DUP2 JUMP JUMPDEST PUSH1 0x40 MLOAD SWAP1 ISZERO ISZERO DUP2 MSTORE PUSH1 0x20 ADD PUSH2 0xD3 JUMP JUMPDEST PUSH2 0x95 PUSH2 0x143 CALLDATASIZE PUSH1 0x4 PUSH2 0x99E JUMP JUMPDEST PUSH2 0x88D JUMP JUMPDEST PUSH1 0x2 SLOAD PUSH1 0xFF AND ISZERO ISZERO PUSH1 0x1 EQ PUSH2 0x1A4 JUMPI PUSH1 0x40 MLOAD PUSH3 0x461BCD PUSH1 0xE5 SHL DUP2 MSTORE PUSH1 0x20 PUSH1 0x4 DUP3 ADD MSTORE PUSH1 0x1A PUSH1 0x24 DUP3 ADD MSTORE PUSH32 0x526567697374726174696F6E206E6F74206F70656E2079657421000000000000 PUSH1 0x44 DUP3 ADD MSTORE PUSH1 0x64 ADD JUMPDEST PUSH1 0x40 MLOAD DUP1 SWAP2 SUB SWAP1 REVERT JUMPDEST CALLER PUSH1 0x0 SWAP1 DUP2 MSTORE PUSH1 0x5 PUSH1 0x20 MSTORE PUSH1 0x40 SWAP1 KECCAK256 SLOAD PUSH1 0xFF AND ISZERO PUSH2 0x204 JUMPI PUSH1 0x40 MLOAD PUSH3 0x461BCD PUSH1 0xE5 SHL DUP2 MSTORE PUSH1 0x20 PUSH1 0x4 DUP3 ADD MSTORE PUSH1 0x1C PUSH1 0x24 DUP3 ADD MSTORE PUSH32 0x596F75206861766520616C726561647920726567697374657265642100000000 PUSH1 0x44 DUP3 ADD MSTORE PUSH1 0x64 ADD PUSH2 0x19B JUMP JUMPDEST PUSH1 0x40 DUP1 MLOAD PUSH1 0x60 DUP2 ADD DUP3 MSTORE PUSH1 0x0 DUP1 DUP3 MSTORE PUSH1 0x20 DUP1 DUP4 ADD DUP3 DUP2 MSTORE TIMESTAMP DUP5 DUP7 ADD SWAP1 DUP2 MSTORE CALLER DUP1 DUP6 MSTORE PUSH1 0x6 DUP5 MSTORE DUP7 DUP6 KECCAK256 SWAP6 MLOAD DUP7 SSTORE SWAP2 MLOAD PUSH1 0x1 DUP1 DUP8 ADD SWAP2 SWAP1 SWAP2 SSTORE SWAP1 MLOAD PUSH1 0x2 SWAP1 SWAP6 ADD SWAP5 SWAP1 SWAP5 SSTORE PUSH1 0x4 DUP1 SLOAD DUP1 DUP7 ADD SWAP1 SWAP2 SSTORE PUSH32 0x8A35ACFBC15FF81A39AE7D344FD709F28E8600B4AA8C65C6B64BFE7FE36BD19B ADD DUP1 SLOAD PUSH1 0x1 PUSH1 0x1 PUSH1 0xA0 SHL SUB NOT AND SWAP1 SWAP2 OR SWAP1 SSTORE PUSH1 0x5 SWAP1 MSTORE SWAP2 SWAP1 SWAP2 KECCAK256 DUP1 SLOAD PUSH1 0xFF NOT AND SWAP1 SWAP2 OR SWAP1 SSTORE JUMP JUMPDEST PUSH1 0x0 SLOAD PUSH1 0x1 PUSH1 0x1 PUSH1 0xA0 SHL SUB AND CALLER EQ PUSH2 0x2C3 JUMPI PUSH1 0x40 MLOAD PUSH3 0x461BCD PUSH1 0xE5 SHL DUP2 MSTORE PUSH1 0x4 ADD PUSH2 0x19B SWAP1 PUSH2 0xBA1 JUMP JUMPDEST PUSH1 0x40 MLOAD PUSH4 0xFAD8FE0D PUSH1 0xE0 SHL DUP2 MSTORE PUSH32 0x0 SWAP1 PUSH1 0x1 PUSH1 0x1 PUSH1 0xA0 SHL SUB DUP3 AND SWAP1 PUSH4 0xFAD8FE0D SWAP1 PUSH2 0x319 SWAP1 DUP8 SWAP1 ADDRESS SWAP1 CALLER SWAP1 DUP10 SWAP1 DUP10 SWAP1 PUSH1 0x4 ADD PUSH2 0xB13 JUMP JUMPDEST PUSH1 0x0 PUSH1 0x40 MLOAD DUP1 DUP4 SUB DUP2 PUSH1 0x0 DUP8 DUP1 EXTCODESIZE ISZERO DUP1 ISZERO PUSH2 0x333 JUMPI PUSH1 0x0 DUP1 REVERT JUMPDEST POP GAS CALL ISZERO DUP1 ISZERO PUSH2 0x347 JUMPI RETURNDATASIZE PUSH1 0x0 DUP1 RETURNDATACOPY RETURNDATASIZE PUSH1 0x0 REVERT JUMPDEST POP POP POP PUSH4 0xFFFFFFFF SWAP1 SWAP4 AND PUSH1 0x1 SSTORE POP POP POP POP JUMP JUMPDEST PUSH1 0x0 SLOAD PUSH1 0x1 PUSH1 0x1 PUSH1 0xA0 SHL SUB AND CALLER EQ PUSH2 0x385 JUMPI PUSH1 0x40 MLOAD PUSH3 0x461BCD PUSH1 0xE5 SHL DUP2 MSTORE PUSH1 0x4 ADD PUSH2 0x19B SWAP1 PUSH2 0xBA1 JUMP JUMPDEST PUSH2 0x38F PUSH1 0x0 PUSH2 0x928 JUMP JUMPDEST JUMP JUMPDEST PUSH1 0x4 DUP2 DUP2 SLOAD DUP2 LT PUSH2 0x3A1 JUMPI PUSH1 0x0 DUP1 REVERT JUMPDEST PUSH1 0x0 SWAP2 DUP3 MSTORE PUSH1 0x20 SWAP1 SWAP2 KECCAK256 ADD SLOAD PUSH1 0x1 PUSH1 0x1 PUSH1 0xA0 SHL SUB AND SWAP1 POP DUP2 JUMP JUMPDEST CALLER PUSH1 0x0 SWAP1 DUP2 MSTORE PUSH1 0x5 PUSH1 0x20 MSTORE PUSH1 0x40 SWAP1 KECCAK256 SLOAD PUSH1 0xFF AND ISZERO ISZERO PUSH1 0x1 EQ PUSH2 0x3DC JUMPI PUSH1 0x0 DUP1 REVERT JUMPDEST CALLER PUSH1 0x0 SWAP1 DUP2 MSTORE PUSH1 0x6 PUSH1 0x20 MSTORE PUSH1 0x40 SWAP1 KECCAK256 PUSH1 0x1 ADD SLOAD PUSH1 0x5 LT ISZERO PUSH2 0x3FC JUMPI PUSH1 0x0 DUP1 REVERT JUMPDEST PUSH1 0x0 PUSH2 0x406 PUSH2 0x978 JUMP JUMPDEST SWAP1 POP DUP1 PUSH1 0x2 DUP2 GT ISZERO PUSH2 0x428 JUMPI PUSH4 0x4E487B71 PUSH1 0xE0 SHL PUSH1 0x0 MSTORE PUSH1 0x21 PUSH1 0x4 MSTORE PUSH1 0x24 PUSH1 0x0 REVERT JUMPDEST DUP3 PUSH1 0x2 DUP2 GT ISZERO PUSH2 0x448 JUMPI PUSH4 0x4E487B71 PUSH1 0xE0 SHL PUSH1 0x0 MSTORE PUSH1 0x21 PUSH1 0x4 MSTORE PUSH1 0x24 PUSH1 0x0 REVERT JUMPDEST PUSH1 0x2 DUP2 GT ISZERO PUSH2 0x467 JUMPI PUSH4 0x4E487B71 PUSH1 0xE0 SHL PUSH1 0x0 MSTORE PUSH1 0x21 PUSH1 0x4 MSTORE PUSH1 0x24 PUSH1 0x0 REVERT JUMPDEST EQ ISZERO PUSH2 0x4DB JUMPI PUSH1 0x40 DUP1 MLOAD CALLER DUP2 MSTORE PUSH1 0x60 PUSH1 0x20 DUP3 ADD DUP2 SWAP1 MSTORE PUSH1 0x4 SWAP1 DUP3 ADD MSTORE PUSH4 0x64726177 PUSH1 0xE0 SHL PUSH1 0x80 DUP3 ADD MSTORE PUSH1 0x1 DUP2 DUP4 ADD MSTORE SWAP1 MLOAD PUSH1 0x0 DUP1 MLOAD PUSH1 0x20 PUSH2 0xC11 DUP4 CODECOPY DUP2 MLOAD SWAP2 MSTORE SWAP2 DUP2 SWAP1 SUB PUSH1 0xA0 ADD SWAP1 LOG1 CALLER PUSH1 0x0 SWAP1 DUP2 MSTORE PUSH1 0x6 PUSH1 0x20 MSTORE PUSH1 0x40 DUP2 KECCAK256 DUP1 SLOAD PUSH1 0x1 SWAP3 SWAP1 PUSH2 0x4D0 SWAP1 DUP5 SWAP1 PUSH2 0xBD6 JUMP JUMPDEST SWAP1 SWAP2 SSTORE POP PUSH2 0x838 SWAP1 POP JUMP JUMPDEST PUSH1 0x0 DUP3 PUSH1 0x2 DUP2 GT ISZERO PUSH2 0x4FD JUMPI PUSH4 0x4E487B71 PUSH1 0xE0 SHL PUSH1 0x0 MSTORE PUSH1 0x21 PUSH1 0x4 MSTORE PUSH1 0x24 PUSH1 0x0 REVERT JUMPDEST PUSH1 0x2 DUP2 GT ISZERO PUSH2 0x51C JUMPI PUSH4 0x4E487B71 PUSH1 0xE0 SHL PUSH1 0x0 MSTORE PUSH1 0x21 PUSH1 0x4 MSTORE PUSH1 0x24 PUSH1 0x0 REVERT JUMPDEST EQ DUP1 ISZERO PUSH2 0x548 JUMPI POP PUSH1 0x1 DUP2 PUSH1 0x2 DUP2 GT ISZERO PUSH2 0x546 JUMPI PUSH4 0x4E487B71 PUSH1 0xE0 SHL PUSH1 0x0 MSTORE PUSH1 0x21 PUSH1 0x4 MSTORE PUSH1 0x24 PUSH1 0x0 REVERT JUMPDEST EQ JUMPDEST ISZERO PUSH2 0x57A JUMPI PUSH1 0x0 DUP1 MLOAD PUSH1 0x20 PUSH2 0xC11 DUP4 CODECOPY DUP2 MLOAD SWAP2 MSTORE CALLER PUSH1 0x0 PUSH1 0x40 MLOAD PUSH2 0x56D SWAP3 SWAP2 SWAP1 PUSH2 0xADE JUMP JUMPDEST PUSH1 0x40 MLOAD DUP1 SWAP2 SUB SWAP1 LOG1 PUSH2 0x838 JUMP JUMPDEST PUSH1 0x0 DUP3 PUSH1 0x2 DUP2 GT ISZERO PUSH2 0x59C JUMPI PUSH4 0x4E487B71 PUSH1 0xE0 SHL PUSH1 0x0 MSTORE PUSH1 0x21 PUSH1 0x4 MSTORE PUSH1 0x24 PUSH1 0x0 REVERT JUMPDEST PUSH1 0x2 DUP2 GT ISZERO PUSH2 0x5BB JUMPI PUSH4 0x4E487B71 PUSH1 0xE0 SHL PUSH1 0x0 MSTORE PUSH1 0x21 PUSH1 0x4 MSTORE PUSH1 0x24 PUSH1 0x0 REVERT JUMPDEST EQ DUP1 ISZERO PUSH2 0x5E7 JUMPI POP PUSH1 0x2 DUP2 PUSH1 0x2 DUP2 GT ISZERO PUSH2 0x5E5 JUMPI PUSH4 0x4E487B71 PUSH1 0xE0 SHL PUSH1 0x0 MSTORE PUSH1 0x21 PUSH1 0x4 MSTORE PUSH1 0x24 PUSH1 0x0 REVERT JUMPDEST EQ JUMPDEST ISZERO PUSH2 0x634 JUMPI PUSH1 0x0 DUP1 MLOAD PUSH1 0x20 PUSH2 0xC11 DUP4 CODECOPY DUP2 MLOAD SWAP2 MSTORE CALLER PUSH1 0x3 PUSH1 0x40 MLOAD PUSH2 0x60C SWAP3 SWAP2 SWAP1 PUSH2 0xAAA JUMP JUMPDEST PUSH1 0x40 MLOAD DUP1 SWAP2 SUB SWAP1 LOG1 CALLER PUSH1 0x0 SWAP1 DUP2 MSTORE PUSH1 0x6 PUSH1 0x20 MSTORE PUSH1 0x40 DUP2 KECCAK256 DUP1 SLOAD PUSH1 0x3 SWAP3 SWAP1 PUSH2 0x4D0 SWAP1 DUP5 SWAP1 PUSH2 0xBD6 JUMP JUMPDEST PUSH1 0x1 DUP3 PUSH1 0x2 DUP2 GT ISZERO PUSH2 0x656 JUMPI PUSH4 0x4E487B71 PUSH1 0xE0 SHL PUSH1 0x0 MSTORE PUSH1 0x21 PUSH1 0x4 MSTORE PUSH1 0x24 PUSH1 0x0 REVERT JUMPDEST PUSH1 0x2 DUP2 GT ISZERO PUSH2 0x675 JUMPI PUSH4 0x4E487B71 PUSH1 0xE0 SHL PUSH1 0x0 MSTORE PUSH1 0x21 PUSH1 0x4 MSTORE PUSH1 0x24 PUSH1 0x0 REVERT JUMPDEST EQ DUP1 ISZERO PUSH2 0x6A1 JUMPI POP PUSH1 0x0 DUP2 PUSH1 0x2 DUP2 GT ISZERO PUSH2 0x69F JUMPI PUSH4 0x4E487B71 PUSH1 0xE0 SHL PUSH1 0x0 MSTORE PUSH1 0x21 PUSH1 0x4 MSTORE PUSH1 0x24 PUSH1 0x0 REVERT JUMPDEST EQ JUMPDEST ISZERO PUSH2 0x6C6 JUMPI PUSH1 0x0 DUP1 MLOAD PUSH1 0x20 PUSH2 0xC11 DUP4 CODECOPY DUP2 MLOAD SWAP2 MSTORE CALLER PUSH1 0x3 PUSH1 0x40 MLOAD PUSH2 0x60C SWAP3 SWAP2 SWAP1 PUSH2 0xAAA JUMP JUMPDEST PUSH1 0x1 DUP3 PUSH1 0x2 DUP2 GT ISZERO PUSH2 0x6E8 JUMPI PUSH4 0x4E487B71 PUSH1 0xE0 SHL PUSH1 0x0 MSTORE PUSH1 0x21 PUSH1 0x4 MSTORE PUSH1 0x24 PUSH1 0x0 REVERT JUMPDEST PUSH1 0x2 DUP2 GT ISZERO PUSH2 0x707 JUMPI PUSH4 0x4E487B71 PUSH1 0xE0 SHL PUSH1 0x0 MSTORE PUSH1 0x21 PUSH1 0x4 MSTORE PUSH1 0x24 PUSH1 0x0 REVERT JUMPDEST EQ DUP1 ISZERO PUSH2 0x733 JUMPI POP PUSH1 0x2 DUP2 PUSH1 0x2 DUP2 GT ISZERO PUSH2 0x731 JUMPI PUSH4 0x4E487B71 PUSH1 0xE0 SHL PUSH1 0x0 MSTORE PUSH1 0x21 PUSH1 0x4 MSTORE PUSH1 0x24 PUSH1 0x0 REVERT JUMPDEST EQ JUMPDEST ISZERO PUSH2 0x758 JUMPI PUSH1 0x0 DUP1 MLOAD PUSH1 0x20 PUSH2 0xC11 DUP4 CODECOPY DUP2 MLOAD SWAP2 MSTORE CALLER PUSH1 0x0 PUSH1 0x40 MLOAD PUSH2 0x56D SWAP3 SWAP2 SWAP1 PUSH2 0xADE JUMP JUMPDEST PUSH1 0x2 DUP3 PUSH1 0x2 DUP2 GT ISZERO PUSH2 0x77A JUMPI PUSH4 0x4E487B71 PUSH1 0xE0 SHL PUSH1 0x0 MSTORE PUSH1 0x21 PUSH1 0x4 MSTORE PUSH1 0x24 PUSH1 0x0 REVERT JUMPDEST PUSH1 0x2 DUP2 GT ISZERO PUSH2 0x799 JUMPI PUSH4 0x4E487B71 PUSH1 0xE0 SHL PUSH1 0x0 MSTORE PUSH1 0x21 PUSH1 0x4 MSTORE PUSH1 0x24 PUSH1 0x0 REVERT JUMPDEST EQ DUP1 ISZERO PUSH2 0x7C5 JUMPI POP PUSH1 0x0 DUP2 PUSH1 0x2 DUP2 GT ISZERO PUSH2 0x7C3 JUMPI PUSH4 0x4E487B71 PUSH1 0xE0 SHL PUSH1 0x0 MSTORE PUSH1 0x21 PUSH1 0x4 MSTORE PUSH1 0x24 PUSH1 0x0 REVERT JUMPDEST EQ JUMPDEST ISZERO PUSH2 0x7EA JUMPI PUSH1 0x0 DUP1 MLOAD PUSH1 0x20 PUSH2 0xC11 DUP4 CODECOPY DUP2 MLOAD SWAP2 MSTORE CALLER PUSH1 0x0 PUSH1 0x40 MLOAD PUSH2 0x56D SWAP3 SWAP2 SWAP1 PUSH2 0xADE JUMP JUMPDEST PUSH1 0x0 DUP1 MLOAD PUSH1 0x20 PUSH2 0xC11 DUP4 CODECOPY DUP2 MLOAD SWAP2 MSTORE CALLER PUSH1 0x3 PUSH1 0x40 MLOAD PUSH2 0x80A SWAP3 SWAP2 SWAP1 PUSH2 0xAAA JUMP JUMPDEST PUSH1 0x40 MLOAD DUP1 SWAP2 SUB SWAP1 LOG1 CALLER PUSH1 0x0 SWAP1 DUP2 MSTORE PUSH1 0x6 PUSH1 0x20 MSTORE PUSH1 0x40 DUP2 KECCAK256 DUP1 SLOAD PUSH1 0x3 SWAP3 SWAP1 PUSH2 0x832 SWAP1 DUP5 SWAP1 PUSH2 0xBD6 JUMP JUMPDEST SWAP1 SWAP2 SSTORE POP POP JUMPDEST CALLER PUSH1 0x0 SWAP1 DUP2 MSTORE PUSH1 0x6 PUSH1 0x20 MSTORE PUSH1 0x40 DUP2 KECCAK256 PUSH1 0x1 SWAP1 DUP2 ADD DUP1 SLOAD SWAP2 SWAP3 SWAP1 SWAP2 PUSH2 0x85D SWAP1 DUP5 SWAP1 PUSH2 0xBD6 JUMP JUMPDEST SWAP1 SWAP2 SSTORE POP POP CALLER PUSH1 0x0 SWAP1 DUP2 MSTORE PUSH1 0x6 PUSH1 0x20 MSTORE PUSH1 0x40 DUP2 KECCAK256 PUSH1 0x2 ADD DUP1 SLOAD TIMESTAMP SWAP3 SWAP1 PUSH2 0x884 SWAP1 DUP5 SWAP1 PUSH2 0xBD6 JUMP JUMPDEST SWAP1 SWAP2 SSTORE POP POP POP POP JUMP JUMPDEST PUSH1 0x0 SLOAD PUSH1 0x1 PUSH1 0x1 PUSH1 0xA0 SHL SUB AND CALLER EQ PUSH2 0x8B7 JUMPI PUSH1 0x40 MLOAD PUSH3 0x461BCD PUSH1 0xE5 SHL DUP2 MSTORE PUSH1 0x4 ADD PUSH2 0x19B SWAP1 PUSH2 0xBA1 JUMP JUMPDEST PUSH1 0x1 PUSH1 0x1 PUSH1 0xA0 SHL SUB DUP2 AND PUSH2 0x91C JUMPI PUSH1 0x40 MLOAD PUSH3 0x461BCD PUSH1 0xE5 SHL DUP2 MSTORE PUSH1 0x20 PUSH1 0x4 DUP3 ADD MSTORE PUSH1 0x26 PUSH1 0x24 DUP3 ADD MSTORE PUSH32 0x4F776E61626C653A206E6577206F776E657220697320746865207A65726F2061 PUSH1 0x44 DUP3 ADD MSTORE PUSH6 0x646472657373 PUSH1 0xD0 SHL PUSH1 0x64 DUP3 ADD MSTORE PUSH1 0x84 ADD PUSH2 0x19B JUMP JUMPDEST PUSH2 0x925 DUP2 PUSH2 0x928 JUMP JUMPDEST POP JUMP JUMPDEST PUSH1 0x0 DUP1 SLOAD PUSH1 0x1 PUSH1 0x1 PUSH1 0xA0 SHL SUB DUP4 DUP2 AND PUSH1 0x1 PUSH1 0x1 PUSH1 0xA0 SHL SUB NOT DUP4 AND DUP2 OR DUP5 SSTORE PUSH1 0x40 MLOAD SWAP2 SWAP1 SWAP3 AND SWAP3 DUP4 SWAP2 PUSH32 0x8BE0079C531659141344CD1FD0A4F28419497F9722A3DAAFE3B4186F6B6457E0 SWAP2 SWAP1 LOG3 POP POP JUMP JUMPDEST PUSH1 0x0 DUP1 DUP1 DUP1 JUMPDEST SWAP4 SWAP3 POP POP POP JUMP JUMPDEST DUP1 CALLDATALOAD PUSH4 0xFFFFFFFF DUP2 AND DUP2 EQ PUSH2 0x999 JUMPI PUSH1 0x0 DUP1 REVERT JUMPDEST SWAP2 SWAP1 POP JUMP JUMPDEST PUSH1 0x0 PUSH1 0x20 DUP3 DUP5 SUB SLT ISZERO PUSH2 0x9AF JUMPI DUP1 DUP2 REVERT JUMPDEST DUP2 CALLDATALOAD PUSH1 0x1 PUSH1 0x1 PUSH1 0xA0 SHL SUB DUP2 AND DUP2 EQ PUSH2 0x97E JUMPI DUP2 DUP3 REVERT JUMPDEST PUSH1 0x0 DUP1 PUSH1 0x0 PUSH1 0x60 DUP5 DUP7 SUB SLT ISZERO PUSH2 0x9D9 JUMPI DUP2 DUP3 REVERT JUMPDEST DUP4 CALLDATALOAD PUSH8 0xFFFFFFFFFFFFFFFF DUP1 DUP3 GT ISZERO PUSH2 0x9F0 JUMPI DUP4 DUP5 REVERT JUMPDEST DUP2 DUP7 ADD SWAP2 POP DUP7 PUSH1 0x1F DUP4 ADD SLT PUSH2 0xA03 JUMPI DUP4 DUP5 REVERT JUMPDEST DUP2 CALLDATALOAD DUP2 DUP2 GT ISZERO PUSH2 0xA15 JUMPI PUSH2 0xA15 PUSH2 0xBFA JUMP JUMPDEST PUSH1 0x40 MLOAD PUSH1 0x1F DUP3 ADD PUSH1 0x1F NOT SWAP1 DUP2 AND PUSH1 0x3F ADD AND DUP2 ADD SWAP1 DUP4 DUP3 GT DUP2 DUP4 LT OR ISZERO PUSH2 0xA3D JUMPI PUSH2 0xA3D PUSH2 0xBFA JUMP JUMPDEST DUP2 PUSH1 0x40 MSTORE DUP3 DUP2 MSTORE DUP10 PUSH1 0x20 DUP5 DUP8 ADD ADD GT ISZERO PUSH2 0xA55 JUMPI DUP7 DUP8 REVERT JUMPDEST DUP3 PUSH1 0x20 DUP7 ADD PUSH1 0x20 DUP4 ADD CALLDATACOPY DUP7 PUSH1 0x20 DUP5 DUP4 ADD ADD MSTORE DUP1 SWAP8 POP POP POP POP POP POP PUSH2 0xA7B PUSH1 0x20 DUP6 ADD PUSH2 0x985 JUMP JUMPDEST SWAP2 POP PUSH2 0xA89 PUSH1 0x40 DUP6 ADD PUSH2 0x985 JUMP JUMPDEST SWAP1 POP SWAP3 POP SWAP3 POP SWAP3 JUMP JUMPDEST PUSH1 0x0 PUSH1 0x20 DUP3 DUP5 SUB SLT ISZERO PUSH2 0xAA3 JUMPI DUP1 DUP2 REVERT JUMPDEST POP CALLDATALOAD SWAP2 SWAP1 POP JUMP JUMPDEST PUSH1 0x1 PUSH1 0x1 PUSH1 0xA0 SHL SUB SWAP3 SWAP1 SWAP3 AND DUP3 MSTORE PUSH1 0x60 PUSH1 0x20 DUP4 ADD DUP2 SWAP1 MSTORE PUSH1 0x3 SWAP1 DUP4 ADD MSTORE PUSH3 0x3BB4B7 PUSH1 0xE9 SHL PUSH1 0x80 DUP4 ADD MSTORE PUSH1 0x40 DUP3 ADD MSTORE PUSH1 0xA0 ADD SWAP1 JUMP JUMPDEST PUSH1 0x1 PUSH1 0x1 PUSH1 0xA0 SHL SUB SWAP3 SWAP1 SWAP3 AND DUP3 MSTORE PUSH1 0x60 PUSH1 0x20 DUP4 ADD DUP2 SWAP1 MSTORE PUSH1 0x4 SWAP1 DUP4 ADD MSTORE PUSH4 0x6C6F7373 PUSH1 0xE0 SHL PUSH1 0x80 DUP4 ADD MSTORE PUSH1 0x40 DUP3 ADD MSTORE PUSH1 0xA0 ADD SWAP1 JUMP JUMPDEST PUSH1 0xA0 DUP2 MSTORE PUSH1 0x0 DUP7 MLOAD DUP1 PUSH1 0xA0 DUP5 ADD MSTORE DUP2 JUMPDEST DUP2 DUP2 LT ISZERO PUSH2 0xB40 JUMPI PUSH1 0x20 DUP2 DUP11 ADD DUP2 ADD MLOAD PUSH1 0xC0 DUP7 DUP5 ADD ADD MSTORE ADD PUSH2 0xB23 JUMP JUMPDEST DUP2 DUP2 GT ISZERO PUSH2 0xB51 JUMPI DUP3 PUSH1 0xC0 DUP4 DUP7 ADD ADD MSTORE JUMPDEST POP PUSH1 0x1F ADD PUSH1 0x1F NOT AND DUP3 ADD PUSH1 0xC0 ADD SWAP1 POP PUSH2 0xB75 PUSH1 0x20 DUP4 ADD DUP8 PUSH1 0x1 PUSH1 0x1 PUSH1 0xA0 SHL SUB AND SWAP1 MSTORE JUMP JUMPDEST PUSH1 0x1 PUSH1 0x1 PUSH1 0xA0 SHL SUB SWAP5 SWAP1 SWAP5 AND PUSH1 0x40 DUP3 ADD MSTORE PUSH4 0xFFFFFFFF SWAP3 DUP4 AND PUSH1 0x60 DUP3 ADD MSTORE SWAP2 AND PUSH1 0x80 SWAP1 SWAP2 ADD MSTORE SWAP3 SWAP2 POP POP JUMP JUMPDEST PUSH1 0x20 DUP1 DUP3 MSTORE DUP2 DUP2 ADD MSTORE PUSH32 0x4F776E61626C653A2063616C6C6572206973206E6F7420746865206F776E6572 PUSH1 0x40 DUP3 ADD MSTORE PUSH1 0x60 ADD SWAP1 JUMP JUMPDEST PUSH1 0x0 DUP3 NOT DUP3 GT ISZERO PUSH2 0xBF5 JUMPI PUSH4 0x4E487B71 PUSH1 0xE0 SHL DUP2 MSTORE PUSH1 0x11 PUSH1 0x4 MSTORE PUSH1 0x24 DUP2 REVERT JUMPDEST POP ADD SWAP1 JUMP JUMPDEST PUSH4 0x4E487B71 PUSH1 0xE0 SHL PUSH1 0x0 MSTORE PUSH1 0x41 PUSH1 0x4 MSTORE PUSH1 0x24 PUSH1 0x0 REVERT INVALID DUP6 0xFC SHL 0xBB CODECOPY 0xDE DUP15 0xDC GT PUSH18 0x7B838A522D914A97C6952CB06DE101D20931 RETURN CALLDATASIZE CALL DUP8 LOG2 PUSH5 0x6970667358 0x22 SLT KECCAK256 JUMPDEST SGT CALLDATASIZE 0x1E REVERT MLOAD 0xA8 0xA7 SWAP13 0xD3 BYTE 0xBB JUMP 0xDC EXTCODESIZE PUSH2 0x438E 0xD GT STOP 0x22 0xEE 0x4B 0xF7 0x21 STATICCALL 0xAA 0x2C 0xEC 0xCC 0xC9 PUSH5 0x736F6C6343 STOP ADDMOD DIV STOP CALLER LOG2 PUSH5 0x6970667358 0x22 SLT KECCAK256 DUP6 0xDE 0xCB SWAP11 0xEC 0x24 NOT GASPRICE 0xD9 SUB 0xD3 ADDRESS LOG1 PUSH15 0x701182A2551E3CBB0EBC2D1DA01683 0x48 PUSH29 0x9A64736F6C634300080400330000000000000000000000000000000000 "
        },
        "methodIdentifiers": {
          "createEventGame(string,uint32,uint32)": "72391bed"
        }
      }
    }
  }
}