{
  "contracts/eventLog.sol": {
    "eventLog": {
      "abi": [
        {
          "inputs": [
            {
              "internalType": "string",
              "name": "_eventName",
              "type": "string"
            },
            {
              "internalType": "address",
              "name": "_winner",
              "type": "address"
            }
          ],
          "name": "_addWinner",
          "outputs": [],
          "stateMutability": "nonpayable",
          "type": "function"
        },
        {
          "inputs": [
            {
              "internalType": "string",
              "name": "_eventName",
              "type": "string"
            },
            {
              "internalType": "address",
              "name": "_eventGameAddress",
              "type": "address"
            },
            {
              "internalType": "address",
              "name": "_eventOwner",
              "type": "address"
            },
            {
              "internalType": "uint256",
              "name": "_numberOfTickets",
              "type": "uint256"
            },
            {
              "internalType": "uint256",
              "name": "_ticketPrice",
              "type": "uint256"
            }
          ],
          "name": "_logEvent",
          "outputs": [],
          "stateMutability": "nonpayable",
          "type": "function"
        },
        {
          "inputs": [
            {
              "internalType": "string",
              "name": "_eventName",
              "type": "string"
            }
          ],
          "name": "getEvent",
          "outputs": [
            {
              "components": [
                {
                  "internalType": "address",
                  "name": "eventGameAddress",
                  "type": "address"
                },
                {
                  "internalType": "address",
                  "name": "eventOwner",
                  "type": "address"
                },
                {
                  "internalType": "uint256",
                  "name": "numberOfTickets",
                  "type": "uint256"
                },
                {
                  "internalType": "uint256",
                  "name": "ticketPrice",
                  "type": "uint256"
                }
              ],
              "internalType": "struct eventLog.Event",
              "name": "",
              "type": "tuple"
            }
          ],
          "stateMutability": "view",
          "type": "function"
        }
      ],
      "evm": {
        "bytecode": {
          "linkReferences": {},
          "object": "608060405234801561001057600080fd5b506104b0806100206000396000f3fe608060405234801561001057600080fd5b50600436106100415760003560e01c80639f3feb4d14610046578063e19020631461005b578063fad8fe0d146100b8575b600080fd5b6100596100543660046102ea565b6100cb565b005b61006e6100693660046102aa565b61011a565b6040516100af919081516001600160a01b03908116825260208084015190911690820152604080830151908201526060918201519181019190915260800190565b60405180910390f35b6100596100c636600461033c565b6101a1565b60018084846040516100de92919061041b565b90815260408051602092819003830190206001600160a01b0394909416600090815293909152909120805460ff19169115159190911790555050565b6040805160808101825260008082526020820181905291810182905260608101919091526000838360405161015092919061041b565b90815260408051918290036020908101832060808401835280546001600160a01b03908116855260018201541691840191909152600281015491830191909152600301546060820152905092915050565b60006040518060800160405280866001600160a01b03168152602001856001600160a01b03168152602001848152602001838152509050806000876040516101e9919061042b565b9081526040805160209281900383019020835181546001600160a01b03199081166001600160a01b03928316178355938501516001830180549095169116179092558201516002820155606090910151600390910155505050505050565b80356001600160a01b038116811461025e57600080fd5b919050565b60008083601f840112610274578081fd5b50813567ffffffffffffffff81111561028b578182fd5b6020830191508360208285010111156102a357600080fd5b9250929050565b600080602083850312156102bc578182fd5b823567ffffffffffffffff8111156102d2578283fd5b6102de85828601610263565b90969095509350505050565b6000806000604084860312156102fe578081fd5b833567ffffffffffffffff811115610314578182fd5b61032086828701610263565b9094509250610333905060208501610247565b90509250925092565b600080600080600060a08688031215610353578081fd5b853567ffffffffffffffff8082111561036a578283fd5b818801915088601f83011261037d578283fd5b81358181111561038f5761038f610464565b604051601f8201601f19908116603f011681019083821181831017156103b7576103b7610464565b816040528281528b60208487010111156103cf578586fd5b82602086016020830137856020848301015280995050505050506103f560208701610247565b935061040360408701610247565b94979396509394606081013594506080013592915050565b8183823760009101908152919050565b60008251815b8181101561044b5760208186018101518583015201610431565b818111156104595782828501525b509190910192915050565b634e487b7160e01b600052604160045260246000fdfea264697066735822122035dc9a99d7c036d0bcfb1288235ba191cbc5b63ae3d499791c19abc8e865bddb64736f6c63430008040033",
          "opcodes": "PUSH1 0x80 PUSH1 0x40 MSTORE CALLVALUE DUP1 ISZERO PUSH2 0x10 JUMPI PUSH1 0x0 DUP1 REVERT JUMPDEST POP PUSH2 0x4B0 DUP1 PUSH2 0x20 PUSH1 0x0 CODECOPY PUSH1 0x0 RETURN INVALID PUSH1 0x80 PUSH1 0x40 MSTORE CALLVALUE DUP1 ISZERO PUSH2 0x10 JUMPI PUSH1 0x0 DUP1 REVERT JUMPDEST POP PUSH1 0x4 CALLDATASIZE LT PUSH2 0x41 JUMPI PUSH1 0x0 CALLDATALOAD PUSH1 0xE0 SHR DUP1 PUSH4 0x9F3FEB4D EQ PUSH2 0x46 JUMPI DUP1 PUSH4 0xE1902063 EQ PUSH2 0x5B JUMPI DUP1 PUSH4 0xFAD8FE0D EQ PUSH2 0xB8 JUMPI JUMPDEST PUSH1 0x0 DUP1 REVERT JUMPDEST PUSH2 0x59 PUSH2 0x54 CALLDATASIZE PUSH1 0x4 PUSH2 0x2EA JUMP JUMPDEST PUSH2 0xCB JUMP JUMPDEST STOP JUMPDEST PUSH2 0x6E PUSH2 0x69 CALLDATASIZE PUSH1 0x4 PUSH2 0x2AA JUMP JUMPDEST PUSH2 0x11A JUMP JUMPDEST PUSH1 0x40 MLOAD PUSH2 0xAF SWAP2 SWAP1 DUP2 MLOAD PUSH1 0x1 PUSH1 0x1 PUSH1 0xA0 SHL SUB SWAP1 DUP2 AND DUP3 MSTORE PUSH1 0x20 DUP1 DUP5 ADD MLOAD SWAP1 SWAP2 AND SWAP1 DUP3 ADD MSTORE PUSH1 0x40 DUP1 DUP4 ADD MLOAD SWAP1 DUP3 ADD MSTORE PUSH1 0x60 SWAP2 DUP3 ADD MLOAD SWAP2 DUP2 ADD SWAP2 SWAP1 SWAP2 MSTORE PUSH1 0x80 ADD SWAP1 JUMP JUMPDEST PUSH1 0x40 MLOAD DUP1 SWAP2 SUB SWAP1 RETURN JUMPDEST PUSH2 0x59 PUSH2 0xC6 CALLDATASIZE PUSH1 0x4 PUSH2 0x33C JUMP JUMPDEST PUSH2 0x1A1 JUMP JUMPDEST PUSH1 0x1 DUP1 DUP5 DUP5 PUSH1 0x40 MLOAD PUSH2 0xDE SWAP3 SWAP2 SWAP1 PUSH2 0x41B JUMP JUMPDEST SWAP1 DUP2 MSTORE PUSH1 0x40 DUP1 MLOAD PUSH1 0x20 SWAP3 DUP2 SWAP1 SUB DUP4 ADD SWAP1 KECCAK256 PUSH1 0x1 PUSH1 0x1 PUSH1 0xA0 SHL SUB SWAP5 SWAP1 SWAP5 AND PUSH1 0x0 SWAP1 DUP2 MSTORE SWAP4 SWAP1 SWAP2 MSTORE SWAP1 SWAP2 KECCAK256 DUP1 SLOAD PUSH1 0xFF NOT AND SWAP2 ISZERO ISZERO SWAP2 SWAP1 SWAP2 OR SWAP1 SSTORE POP POP JUMP JUMPDEST PUSH1 0x40 DUP1 MLOAD PUSH1 0x80 DUP2 ADD DUP3 MSTORE PUSH1 0x0 DUP1 DUP3 MSTORE PUSH1 0x20 DUP3 ADD DUP2 SWAP1 MSTORE SWAP2 DUP2 ADD DUP3 SWAP1 MSTORE PUSH1 0x60 DUP2 ADD SWAP2 SWAP1 SWAP2 MSTORE PUSH1 0x0 DUP4 DUP4 PUSH1 0x40 MLOAD PUSH2 0x150 SWAP3 SWAP2 SWAP1 PUSH2 0x41B JUMP JUMPDEST SWAP1 DUP2 MSTORE PUSH1 0x40 DUP1 MLOAD SWAP2 DUP3 SWAP1 SUB PUSH1 0x20 SWAP1 DUP2 ADD DUP4 KECCAK256 PUSH1 0x80 DUP5 ADD DUP4 MSTORE DUP1 SLOAD PUSH1 0x1 PUSH1 0x1 PUSH1 0xA0 SHL SUB SWAP1 DUP2 AND DUP6 MSTORE PUSH1 0x1 DUP3 ADD SLOAD AND SWAP2 DUP5 ADD SWAP2 SWAP1 SWAP2 MSTORE PUSH1 0x2 DUP2 ADD SLOAD SWAP2 DUP4 ADD SWAP2 SWAP1 SWAP2 MSTORE PUSH1 0x3 ADD SLOAD PUSH1 0x60 DUP3 ADD MSTORE SWAP1 POP SWAP3 SWAP2 POP POP JUMP JUMPDEST PUSH1 0x0 PUSH1 0x40 MLOAD DUP1 PUSH1 0x80 ADD PUSH1 0x40 MSTORE DUP1 DUP7 PUSH1 0x1 PUSH1 0x1 PUSH1 0xA0 SHL SUB AND DUP2 MSTORE PUSH1 0x20 ADD DUP6 PUSH1 0x1 PUSH1 0x1 PUSH1 0xA0 SHL SUB AND DUP2 MSTORE PUSH1 0x20 ADD DUP5 DUP2 MSTORE PUSH1 0x20 ADD DUP4 DUP2 MSTORE POP SWAP1 POP DUP1 PUSH1 0x0 DUP8 PUSH1 0x40 MLOAD PUSH2 0x1E9 SWAP2 SWAP1 PUSH2 0x42B JUMP JUMPDEST SWAP1 DUP2 MSTORE PUSH1 0x40 DUP1 MLOAD PUSH1 0x20 SWAP3 DUP2 SWAP1 SUB DUP4 ADD SWAP1 KECCAK256 DUP4 MLOAD DUP2 SLOAD PUSH1 0x1 PUSH1 0x1 PUSH1 0xA0 SHL SUB NOT SWAP1 DUP2 AND PUSH1 0x1 PUSH1 0x1 PUSH1 0xA0 SHL SUB SWAP3 DUP4 AND OR DUP4 SSTORE SWAP4 DUP6 ADD MLOAD PUSH1 0x1 DUP4 ADD DUP1 SLOAD SWAP1 SWAP6 AND SWAP2 AND OR SWAP1 SWAP3 SSTORE DUP3 ADD MLOAD PUSH1 0x2 DUP3 ADD SSTORE PUSH1 0x60 SWAP1 SWAP2 ADD MLOAD PUSH1 0x3 SWAP1 SWAP2 ADD SSTORE POP POP POP POP POP POP JUMP JUMPDEST DUP1 CALLDATALOAD PUSH1 0x1 PUSH1 0x1 PUSH1 0xA0 SHL SUB DUP2 AND DUP2 EQ PUSH2 0x25E JUMPI PUSH1 0x0 DUP1 REVERT JUMPDEST SWAP2 SWAP1 POP JUMP JUMPDEST PUSH1 0x0 DUP1 DUP4 PUSH1 0x1F DUP5 ADD SLT PUSH2 0x274 JUMPI DUP1 DUP2 REVERT JUMPDEST POP DUP2 CALLDATALOAD PUSH8 0xFFFFFFFFFFFFFFFF DUP2 GT ISZERO PUSH2 0x28B JUMPI DUP2 DUP3 REVERT JUMPDEST PUSH1 0x20 DUP4 ADD SWAP2 POP DUP4 PUSH1 0x20 DUP3 DUP6 ADD ADD GT ISZERO PUSH2 0x2A3 JUMPI PUSH1 0x0 DUP1 REVERT JUMPDEST SWAP3 POP SWAP3 SWAP1 POP JUMP JUMPDEST PUSH1 0x0 DUP1 PUSH1 0x20 DUP4 DUP6 SUB SLT ISZERO PUSH2 0x2BC JUMPI DUP2 DUP3 REVERT JUMPDEST DUP3 CALLDATALOAD PUSH8 0xFFFFFFFFFFFFFFFF DUP2 GT ISZERO PUSH2 0x2D2 JUMPI DUP3 DUP4 REVERT JUMPDEST PUSH2 0x2DE DUP6 DUP3 DUP7 ADD PUSH2 0x263 JUMP JUMPDEST SWAP1 SWAP7 SWAP1 SWAP6 POP SWAP4 POP POP POP POP JUMP JUMPDEST PUSH1 0x0 DUP1 PUSH1 0x0 PUSH1 0x40 DUP5 DUP7 SUB SLT ISZERO PUSH2 0x2FE JUMPI DUP1 DUP2 REVERT JUMPDEST DUP4 CALLDATALOAD PUSH8 0xFFFFFFFFFFFFFFFF DUP2 GT ISZERO PUSH2 0x314 JUMPI DUP2 DUP3 REVERT JUMPDEST PUSH2 0x320 DUP7 DUP3 DUP8 ADD PUSH2 0x263 JUMP JUMPDEST SWAP1 SWAP5 POP SWAP3 POP PUSH2 0x333 SWAP1 POP PUSH1 0x20 DUP6 ADD PUSH2 0x247 JUMP JUMPDEST SWAP1 POP SWAP3 POP SWAP3 POP SWAP3 JUMP JUMPDEST PUSH1 0x0 DUP1 PUSH1 0x0 DUP1 PUSH1 0x0 PUSH1 0xA0 DUP7 DUP9 SUB SLT ISZERO PUSH2 0x353 JUMPI DUP1 DUP2 REVERT JUMPDEST DUP6 CALLDATALOAD PUSH8 0xFFFFFFFFFFFFFFFF DUP1 DUP3 GT ISZERO PUSH2 0x36A JUMPI DUP3 DUP4 REVERT JUMPDEST DUP2 DUP9 ADD SWAP2 POP DUP9 PUSH1 0x1F DUP4 ADD SLT PUSH2 0x37D JUMPI DUP3 DUP4 REVERT JUMPDEST DUP2 CALLDATALOAD DUP2 DUP2 GT ISZERO PUSH2 0x38F JUMPI PUSH2 0x38F PUSH2 0x464 JUMP JUMPDEST PUSH1 0x40 MLOAD PUSH1 0x1F DUP3 ADD PUSH1 0x1F NOT SWAP1 DUP2 AND PUSH1 0x3F ADD AND DUP2 ADD SWAP1 DUP4 DUP3 GT DUP2 DUP4 LT OR ISZERO PUSH2 0x3B7 JUMPI PUSH2 0x3B7 PUSH2 0x464 JUMP JUMPDEST DUP2 PUSH1 0x40 MSTORE DUP3 DUP2 MSTORE DUP12 PUSH1 0x20 DUP5 DUP8 ADD ADD GT ISZERO PUSH2 0x3CF JUMPI DUP6 DUP7 REVERT JUMPDEST DUP3 PUSH1 0x20 DUP7 ADD PUSH1 0x20 DUP4 ADD CALLDATACOPY DUP6 PUSH1 0x20 DUP5 DUP4 ADD ADD MSTORE DUP1 SWAP10 POP POP POP POP POP POP PUSH2 0x3F5 PUSH1 0x20 DUP8 ADD PUSH2 0x247 JUMP JUMPDEST SWAP4 POP PUSH2 0x403 PUSH1 0x40 DUP8 ADD PUSH2 0x247 JUMP JUMPDEST SWAP5 SWAP8 SWAP4 SWAP7 POP SWAP4 SWAP5 PUSH1 0x60 DUP2 ADD CALLDATALOAD SWAP5 POP PUSH1 0x80 ADD CALLDATALOAD SWAP3 SWAP2 POP POP JUMP JUMPDEST DUP2 DUP4 DUP3 CALLDATACOPY PUSH1 0x0 SWAP2 ADD SWAP1 DUP2 MSTORE SWAP2 SWAP1 POP JUMP JUMPDEST PUSH1 0x0 DUP3 MLOAD DUP2 JUMPDEST DUP2 DUP2 LT ISZERO PUSH2 0x44B JUMPI PUSH1 0x20 DUP2 DUP7 ADD DUP2 ADD MLOAD DUP6 DUP4 ADD MSTORE ADD PUSH2 0x431 JUMP JUMPDEST DUP2 DUP2 GT ISZERO PUSH2 0x459 JUMPI DUP3 DUP3 DUP6 ADD MSTORE JUMPDEST POP SWAP2 SWAP1 SWAP2 ADD SWAP3 SWAP2 POP POP JUMP JUMPDEST PUSH4 0x4E487B71 PUSH1 0xE0 SHL PUSH1 0x0 MSTORE PUSH1 0x41 PUSH1 0x4 MSTORE PUSH1 0x24 PUSH1 0x0 REVERT INVALID LOG2 PUSH5 0x6970667358 0x22 SLT KECCAK256 CALLDATALOAD 0xDC SWAP11 SWAP10 0xD7 0xC0 CALLDATASIZE 0xD0 0xBC 0xFB SLT DUP9 0x23 JUMPDEST LOG1 SWAP2 0xCB 0xC5 0xB6 GASPRICE 0xE3 0xD4 SWAP10 PUSH26 0x1C19ABC8E865BDDB64736F6C6343000804003300000000000000 "
        },
        "methodIdentifiers": {
          "_addWinner(string,address)": "9f3feb4d",
          "_logEvent(string,address,address,uint256,uint256)": "fad8fe0d",
          "getEvent(string)": "e1902063"
        }
      }
    }
  }
}