{
  "_format": "hh-sol-artifact-1",
  "contractName": "VRF",
  "sourceName": "contracts/VFR.sol",
  "abi": [
    {
      "inputs": [],
      "stateMutability": "nonpayable",
      "type": "constructor"
    },
    {
      "inputs": [
        {
          "internalType": "address",
          "name": "have",
          "type": "address"
        },
        {
          "internalType": "address",
          "name": "want",
          "type": "address"
        }
      ],
      "name": "OnlyCoordinatorCanFulfill",
      "type": "error"
    },
    {
      "inputs": [
        {
          "internalType": "uint256",
          "name": "requestId",
          "type": "uint256"
        },
        {
          "internalType": "uint256[]",
          "name": "randomWords",
          "type": "uint256[]"
        }
      ],
      "name": "rawFulfillRandomWords",
      "outputs": [],
      "stateMutability": "nonpayable",
      "type": "function"
    },
    {
      "inputs": [],
      "name": "requestRandomWords",
      "outputs": [],
      "stateMutability": "nonpayable",
      "type": "function"
    },
    {
      "inputs": [],
      "name": "s_randomWords",
      "outputs": [
        {
          "internalType": "uint256",
          "name": "",
          "type": "uint256"
        }
      ],
      "stateMutability": "view",
      "type": "function"
    },
    {
      "inputs": [],
      "name": "s_requestId",
      "outputs": [
        {
          "internalType": "uint256",
          "name": "",
          "type": "uint256"
        }
      ],
      "stateMutability": "view",
      "type": "function"
    }
  ],
  "bytecode": "0x60c060405234801561001057600080fd5b507f6168499c0cffcacd319c818142124b7a15e857ab000000000000000000000000608081905260a052736168499c0cffcacd319c818142124b7a15e857ab8061035e6100746000396000610172015260008181609d015260df015261035e6000f3fe608060405234801561001057600080fd5b506004361061004c5760003560e01c80631d3c7b91146100515780631fe543e31461006c578063e0c8628914610081578063e89e106a14610089575b600080fd5b61005a60005481565b60405190815260200160405180910390f35b61007f61007a366004610246565b610092565b005b61007f61011e565b61005a60015481565b336001600160a01b037f000000000000000000000000000000000000000000000000000000000000000016146101105760405163073e64fd60e21b81523360048201526001600160a01b037f000000000000000000000000000000000000000000000000000000000000000016602482015260440160405180910390fd5b61011a82826101fb565b5050565b6040516305d3b1d360e41b81527fd89b2bf150e3b9e13446986e571fb9cab24b13cea0a43ea20a6049a85cc807cc600482015261131e602482015260036044820152620186a06064820152600160848201527f00000000000000000000000000000000000000000000000000000000000000006001600160a01b031690635d3b1d309060a401602060405180830381600087803b1580156101be57600080fd5b505af11580156101d2573d6000803e3d6000fd5b505050506040513d601f19601f820116820180604052508101906101f6919061022e565b600155565b8060008151811061021c57634e487b7160e01b600052603260045260246000fd5b60200260200101516000819055505050565b60006020828403121561023f578081fd5b5051919050565b60008060408385031215610258578081fd5b8235915060208084013567ffffffffffffffff80821115610277578384fd5b818601915086601f83011261028a578384fd5b81358181111561029c5761029c610312565b8060051b604051601f19603f830116810181811085821117156102c1576102c1610312565b604052828152858101935084860182860187018b10156102df578788fd5b8795505b838610156103015780358552600195909501949386019386016102e3565b508096505050505050509250929050565b634e487b7160e01b600052604160045260246000fdfea26469706673582212202d26d49705be934974106a5a697256305b20ff4d6f868047ff62e3c6c30715ca64736f6c63430008040033",
  "linkReferences": {},
  "deployedLinkReferences": {}
}