{
  "_format": "hh-sol-artifact-1",
  "contractName": "VRF",
  "sourceName": "contracts/VFR.sol",
  "abi": [
    {
      "inputs": [],
      "stateMutability": "nonpayable",
      "type": "constructor"
    },
    {
      "inputs": [
        {
          "internalType": "address",
          "name": "have",
          "type": "address"
        },
        {
          "internalType": "address",
          "name": "want",
          "type": "address"
        }
      ],
      "name": "OnlyCoordinatorCanFulfill",
      "type": "error"
    },
    {
      "inputs": [
        {
          "internalType": "uint256",
          "name": "_playId",
          "type": "uint256"
        }
      ],
      "name": "_getRandomNumber",
      "outputs": [
        {
          "internalType": "uint256",
          "name": "",
          "type": "uint256"
        }
      ],
      "stateMutability": "view",
      "type": "function"
    },
    {
      "inputs": [
        {
          "internalType": "uint256",
          "name": "requestId",
          "type": "uint256"
        },
        {
          "internalType": "uint256[]",
          "name": "randomWords",
          "type": "uint256[]"
        }
      ],
      "name": "rawFulfillRandomWords",
      "outputs": [],
      "stateMutability": "nonpayable",
      "type": "function"
    },
    {
      "inputs": [],
      "name": "requestRandomWords",
      "outputs": [],
      "stateMutability": "nonpayable",
      "type": "function"
    },
    {
      "inputs": [],
      "name": "s_requestId",
      "outputs": [
        {
          "internalType": "uint256",
          "name": "",
          "type": "uint256"
        }
      ],
      "stateMutability": "view",
      "type": "function"
    }
  ],
  "bytecode": "0x60c060405234801561001057600080fd5b507f6168499c0cffcacd319c818142124b7a15e857ab000000000000000000000000608081905260a052736168499c0cffcacd319c818142124b7a15e857ab8061044c61007560003960006101b001526000818160db015261011d015261044c6000f3fe608060405234801561001057600080fd5b506004361061004c5760003560e01c80630ac9d35f146100515780631fe543e314610076578063e0c862891461008b578063e89e106a14610093575b600080fd5b61006461005f3660046102bd565b61009c565b60405190815260200160405180910390f35b6100896100843660046102ed565b6100d0565b005b61008961015c565b61006460015481565b60008082815481106100be57634e487b7160e01b600052603260045260246000fd5b90600052602060002001549050919050565b336001600160a01b037f0000000000000000000000000000000000000000000000000000000000000000161461014e5760405163073e64fd60e21b81523360048201526001600160a01b037f000000000000000000000000000000000000000000000000000000000000000016602482015260440160405180910390fd5b6101588282610239565b5050565b6040516305d3b1d360e41b81527fd89b2bf150e3b9e13446986e571fb9cab24b13cea0a43ea20a6049a85cc807cc600482015261131e602482015260036044820152620186a06064820152600560848201527f00000000000000000000000000000000000000000000000000000000000000006001600160a01b031690635d3b1d309060a401602060405180830381600087803b1580156101fc57600080fd5b505af1158015610210573d6000803e3d6000fd5b505050506040513d601f19601f8201168201806040525081019061023491906102d5565b600155565b60005b60028110156102b857600282828151811061026757634e487b7160e01b600052603260045260246000fd5b602002602001015161027991906103e0565b6000828154811061029a57634e487b7160e01b600052603260045260246000fd5b600091825260209091200155806102b0816103b9565b91505061023c565b505050565b6000602082840312156102ce578081fd5b5035919050565b6000602082840312156102e6578081fd5b5051919050565b600080604083850312156102ff578081fd5b8235915060208084013567ffffffffffffffff8082111561031e578384fd5b818601915086601f830112610331578384fd5b81358181111561034357610343610400565b8060051b604051601f19603f8301168101818110858211171561036857610368610400565b604052828152858101935084860182860187018b1015610386578788fd5b8795505b838610156103a857803585526001959095019493860193860161038a565b508096505050505050509250929050565b60006000198214156103d957634e487b7160e01b81526011600452602481fd5b5060010190565b6000826103fb57634e487b7160e01b81526012600452602481fd5b500690565b634e487b7160e01b600052604160045260246000fdfea2646970667358221220bf456a33e03751c9ef8a580be4648abc9282a8457b10143b076517475acae46864736f6c63430008040033",
  "linkReferences": {},
  "deployedLinkReferences": {}
}