{
  "_format": "hh-sol-artifact-1",
  "contractName": "VRF",
  "sourceName": "contracts/VFR.sol",
  "abi": [
    {
      "inputs": [],
      "stateMutability": "nonpayable",
      "type": "constructor"
    },
    {
      "inputs": [
        {
          "internalType": "address",
          "name": "have",
          "type": "address"
        },
        {
          "internalType": "address",
          "name": "want",
          "type": "address"
        }
      ],
      "name": "OnlyCoordinatorCanFulfill",
      "type": "error"
    },
    {
      "inputs": [
        {
          "internalType": "uint256",
          "name": "_playId",
          "type": "uint256"
        }
      ],
      "name": "_getRandomNumber",
      "outputs": [
        {
          "internalType": "uint256",
          "name": "",
          "type": "uint256"
        }
      ],
      "stateMutability": "view",
      "type": "function"
    },
    {
      "inputs": [],
      "name": "_haveNumbers",
      "outputs": [
        {
          "internalType": "bool",
          "name": "",
          "type": "bool"
        }
      ],
      "stateMutability": "view",
      "type": "function"
    },
    {
      "inputs": [
        {
          "internalType": "uint256",
          "name": "requestId",
          "type": "uint256"
        },
        {
          "internalType": "uint256[]",
          "name": "randomWords",
          "type": "uint256[]"
        }
      ],
      "name": "rawFulfillRandomWords",
      "outputs": [],
      "stateMutability": "nonpayable",
      "type": "function"
    },
    {
      "inputs": [],
      "name": "requestRandomWords",
      "outputs": [],
      "stateMutability": "nonpayable",
      "type": "function"
    },
    {
      "inputs": [],
      "name": "s_requestId",
      "outputs": [
        {
          "internalType": "uint256",
          "name": "",
          "type": "uint256"
        }
      ],
      "stateMutability": "view",
      "type": "function"
    }
  ],
  "bytecode": "0x60c060405234801561001057600080fd5b507f6168499c0cffcacd319c818142124b7a15e857ab000000000000000000000000608081905260a052736168499c0cffcacd319c818142124b7a15e857ab8061048861007660003960006101ec015260008181610117015261015901526104886000f3fe608060405234801561001057600080fd5b50600436106100575760003560e01c80630ac9d35f1461005c5780631e209d18146100825780631fe543e31461009a578063e0c86289146100af578063e89e106a146100b7575b600080fd5b61006f61006a3660046102f9565b6100c0565b6040519081526020015b60405180910390f35b61008a6100f4565b6040519015158152602001610079565b6100ad6100a8366004610329565b61010c565b005b6100ad610198565b61006f60015481565b60008082815481106100e257634e487b7160e01b600052603260045260246000fd5b90600052602060002001549050919050565b60008054600314156101065750600190565b50600090565b336001600160a01b037f0000000000000000000000000000000000000000000000000000000000000000161461018a5760405163073e64fd60e21b81523360048201526001600160a01b037f000000000000000000000000000000000000000000000000000000000000000016602482015260440160405180910390fd5b6101948282610275565b5050565b6040516305d3b1d360e41b81527fd89b2bf150e3b9e13446986e571fb9cab24b13cea0a43ea20a6049a85cc807cc600482015261131e602482015260036044820152620186a06064820152600560848201527f00000000000000000000000000000000000000000000000000000000000000006001600160a01b031690635d3b1d309060a401602060405180830381600087803b15801561023857600080fd5b505af115801561024c573d6000803e3d6000fd5b505050506040513d601f19601f820116820180604052508101906102709190610311565b600155565b60005b60028110156102f45760028282815181106102a357634e487b7160e01b600052603260045260246000fd5b60200260200101516102b5919061041c565b600082815481106102d657634e487b7160e01b600052603260045260246000fd5b600091825260209091200155806102ec816103f5565b915050610278565b505050565b60006020828403121561030a578081fd5b5035919050565b600060208284031215610322578081fd5b5051919050565b6000806040838503121561033b578081fd5b8235915060208084013567ffffffffffffffff8082111561035a578384fd5b818601915086601f83011261036d578384fd5b81358181111561037f5761037f61043c565b8060051b604051601f19603f830116810181811085821117156103a4576103a461043c565b604052828152858101935084860182860187018b10156103c2578788fd5b8795505b838610156103e45780358552600195909501949386019386016103c6565b508096505050505050509250929050565b600060001982141561041557634e487b7160e01b81526011600452602481fd5b5060010190565b60008261043757634e487b7160e01b81526012600452602481fd5b500690565b634e487b7160e01b600052604160045260246000fdfea26469706673582212200b351ab7bb6972ed9b680bb369e5e535ccfd708178377ff3f12bdd8d918d3f3964736f6c63430008040033",
  "linkReferences": {},
  "deployedLinkReferences": {}
}