{"bytecode":"60806040523480156200001157600080fd5b5060405162001ac638038062001ac683398101604081905262000034916200017e565b604080518082018252600f81526e149bd8dad4185c195c951a58dad95d608a1b60208083019182528351808501909452600384526214941560ea1b9084015281519192916200008691600091620000c2565b5080516200009c906001906020840190620000c2565b50505060088290558051620000b9906009906020840190620000c2565b505050620002a4565b828054620000d09062000268565b90600052602060002090601f016020900481019282620000f457600085556200013f565b82601f106200010f57805160ff19168380011785556200013f565b828001600101855582156200013f579182015b828111156200013f57825182559160200191906001019062000122565b506200014d92915062000151565b5090565b5b808211156200014d576000815560010162000152565b634e487b7160e01b600052604160045260246000fd5b600080604083850312156200019257600080fd5b8251602080850151919350906001600160401b0380821115620001b457600080fd5b818601915086601f830112620001c957600080fd5b815181811115620001de57620001de62000168565b604051601f8201601f19908116603f0116810190838211818310171562000209576200020962000168565b8160405282815289868487010111156200022257600080fd5b600093505b8284101562000246578484018601518185018701529285019262000227565b82841115620002585760008684830101525b8096505050505050509250929050565b600181811c908216806200027d57607f821691505b6020821081036200029e57634e487b7160e01b600052602260045260246000fd5b50919050565b61181280620002b46000396000f3fe608060405234801561001057600080fd5b50600436106101005760003560e01c80638043c9c011610097578063b88d4fde11610066578063b88d4fde14610212578063c87b56dd14610225578063d5abeb0114610238578063e985e9c51461024157600080fd5b80638043c9c0146101dc57806395d89b41146101e457806396651ecf146101ec578063a22cb465146101ff57600080fd5b806323b872dd116100d357806323b872dd1461018257806342842e0e146101955780636352211e146101a857806370a08231146101bb57600080fd5b806301ffc9a71461010557806306fdde031461012d578063081812fc14610142578063095ea7b31461016d575b600080fd5b6101186101133660046112c6565b61027d565b60405190151581526020015b60405180910390f35b6101356102cf565b604051610124919061133b565b61015561015036600461134e565b610361565b6040516001600160a01b039091168152602001610124565b61018061017b366004611383565b6103ee565b005b6101806101903660046113ad565b610503565b6101806101a33660046113ad565b610534565b6101556101b636600461134e565b61054f565b6101ce6101c93660046113e9565b6105c6565b604051908152602001610124565b61013561064d565b6101356106db565b6101ce6101fa366004611490565b6106ea565b61018061020d3660046114d9565b610760565b610180610220366004611515565b61076f565b61013561023336600461134e565b6107a7565b6101ce60085481565b61011861024f366004611591565b6001600160a01b03918216600090815260056020908152604080832093909416825291909152205460ff1690565b60006001600160e01b031982166380ac58cd60e01b14806102ae57506001600160e01b03198216635b5e139f60e01b145b806102c957506301ffc9a760e01b6001600160e01b03198316145b92915050565b6060600080546102de906115c4565b80601f016020809104026020016040519081016040528092919081815260200182805461030a906115c4565b80156103575780601f1061032c57610100808354040283529160200191610357565b820191906000526020600020905b81548152906001019060200180831161033a57829003601f168201915b5050505050905090565b600061036c8261091d565b6103d25760405162461bcd60e51b815260206004820152602c60248201527f4552433732313a20617070726f76656420717565727920666f72206e6f6e657860448201526b34b9ba32b73a103a37b5b2b760a11b60648201526084015b60405180910390fd5b506000908152600460205260409020546001600160a01b031690565b60006103f98261054f565b9050806001600160a01b0316836001600160a01b0316036104665760405162461bcd60e51b815260206004820152602160248201527f4552433732313a20617070726f76616c20746f2063757272656e74206f776e656044820152603960f91b60648201526084016103c9565b336001600160a01b03821614806104825750610482813361024f565b6104f45760405162461bcd60e51b815260206004820152603860248201527f4552433732313a20617070726f76652063616c6c6572206973206e6f74206f7760448201527f6e6572206e6f7220617070726f76656420666f7220616c6c000000000000000060648201526084016103c9565b6104fe838361093a565b505050565b61050d33826109a8565b6105295760405162461bcd60e51b81526004016103c9906115fe565b6104fe838383610a8e565b6104fe8383836040518060200160405280600081525061076f565b6000818152600260205260408120546001600160a01b0316806102c95760405162461bcd60e51b815260206004820152602960248201527f4552433732313a206f776e657220717565727920666f72206e6f6e657869737460448201526832b73a103a37b5b2b760b91b60648201526084016103c9565b60006001600160a01b0382166106315760405162461bcd60e51b815260206004820152602a60248201527f4552433732313a2062616c616e636520717565727920666f7220746865207a65604482015269726f206164647265737360b01b60648201526084016103c9565b506001600160a01b031660009081526003602052604090205490565b6009805461065a906115c4565b80601f0160208091040260200160405190810160405280929190818152602001828054610686906115c4565b80156106d35780601f106106a8576101008083540402835291602001916106d3565b820191906000526020600020905b8154815290600101906020018083116106b657829003601f168201915b505050505081565b6060600180546102de906115c4565b60006106fa600780546001019055565b600061070560075490565b905060085481111561074c5760405162461bcd60e51b815260206004820152601060248201526f4e6f7420656e6f756768204e4654732160801b60448201526064016103c9565b6107563382610c2e565b6102c98184610c48565b61076b338383610cd3565b5050565b61077933836109a8565b6107955760405162461bcd60e51b81526004016103c9906115fe565b6107a184848484610da1565b50505050565b60606107b28261091d565b6108185760405162461bcd60e51b815260206004820152603160248201527f45524337323155524953746f726167653a2055524920717565727920666f72206044820152703737b732bc34b9ba32b73a103a37b5b2b760791b60648201526084016103c9565b60008281526006602052604081208054610831906115c4565b80601f016020809104026020016040519081016040528092919081815260200182805461085d906115c4565b80156108aa5780601f1061087f576101008083540402835291602001916108aa565b820191906000526020600020905b81548152906001019060200180831161088d57829003601f168201915b5050505050905060006108c860408051602081019091526000815290565b905080516000036108da575092915050565b81511561090c5780826040516020016108f492919061164f565b60405160208183030381529060405292505050919050565b61091584610dd4565b949350505050565b6000908152600260205260409020546001600160a01b0316151590565b600081815260046020526040902080546001600160a01b0319166001600160a01b038416908117909155819061096f8261054f565b6001600160a01b03167f8c5be1e5ebec7d5bd14f71427d1e84f3dd0314c0f7b2291e5b200ac8c7c3b92560405160405180910390a45050565b60006109b38261091d565b610a145760405162461bcd60e51b815260206004820152602c60248201527f4552433732313a206f70657261746f7220717565727920666f72206e6f6e657860448201526b34b9ba32b73a103a37b5b2b760a11b60648201526084016103c9565b6000610a1f8361054f565b9050806001600160a01b0316846001600160a01b03161480610a5a5750836001600160a01b0316610a4f84610361565b6001600160a01b0316145b8061091557506001600160a01b0380821660009081526005602090815260408083209388168352929052205460ff16610915565b826001600160a01b0316610aa18261054f565b6001600160a01b031614610b095760405162461bcd60e51b815260206004820152602960248201527f4552433732313a207472616e73666572206f6620746f6b656e2074686174206960448201526839903737ba1037bbb760b91b60648201526084016103c9565b6001600160a01b038216610b6b5760405162461bcd60e51b8152602060048201526024808201527f4552433732313a207472616e7366657220746f20746865207a65726f206164646044820152637265737360e01b60648201526084016103c9565b610b7660008261093a565b6001600160a01b0383166000908152600360205260408120805460019290610b9f908490611694565b90915550506001600160a01b0382166000908152600360205260408120805460019290610bcd9084906116ab565b909155505060008181526002602052604080822080546001600160a01b0319166001600160a01b0386811691821790925591518493918716917fddf252ad1be2c89b69c2b068fc378daa952ba7f163c4a11628f55a4df523b3ef91a4505050565b61076b828260405180602001604052806000815250610eac565b610c518261091d565b610cb45760405162461bcd60e51b815260206004820152602e60248201527f45524337323155524953746f726167653a2055524920736574206f66206e6f6e60448201526d32bc34b9ba32b73a103a37b5b2b760911b60648201526084016103c9565b600082815260066020908152604090912082516104fe92840190611214565b816001600160a01b0316836001600160a01b031603610d345760405162461bcd60e51b815260206004820152601960248201527f4552433732313a20617070726f766520746f2063616c6c65720000000000000060448201526064016103c9565b6001600160a01b03838116600081815260056020908152604080832094871680845294825291829020805460ff191686151590811790915591519182527f17307eab39ab6107e8899845ad3d59bd9653f200f220920489ca2b5937696c31910160405180910390a3505050565b610dac848484610a8e565b610db884848484610edf565b6107a15760405162461bcd60e51b81526004016103c9906116c3565b6060610ddf8261091d565b610e435760405162461bcd60e51b815260206004820152602f60248201527f4552433732314d657461646174613a2055524920717565727920666f72206e6f60448201526e3732bc34b9ba32b73a103a37b5b2b760891b60648201526084016103c9565b6000610e5a60408051602081019091526000815290565b90506000815111610e7a5760405180602001604052806000815250610ea5565b80610e8484610fe0565b604051602001610e9592919061164f565b6040516020818303038152906040525b9392505050565b610eb683836110e1565b610ec36000848484610edf565b6104fe5760405162461bcd60e51b81526004016103c9906116c3565b60006001600160a01b0384163b15610fd557604051630a85bd0160e11b81526001600160a01b0385169063150b7a0290610f23903390899088908890600401611715565b6020604051808303816000875af1925050508015610f5e575060408051601f3d908101601f19168201909252610f5b91810190611752565b60015b610fbb573d808015610f8c576040519150601f19603f3d011682016040523d82523d6000602084013e610f91565b606091505b508051600003610fb35760405162461bcd60e51b81526004016103c9906116c3565b805181602001fd5b6001600160e01b031916630a85bd0160e11b149050610915565b506001949350505050565b6060816000036110075750506040805180820190915260018152600360fc1b602082015290565b8160005b8115611031578061101b8161176f565b915061102a9050600a8361179e565b915061100b565b60008167ffffffffffffffff81111561104c5761104c611404565b6040519080825280601f01601f191660200182016040528015611076576020820181803683370190505b5090505b84156109155761108b600183611694565b9150611098600a866117b2565b6110a39060306116ab565b60f81b8183815181106110b8576110b86117c6565b60200101906001600160f81b031916908160001a9053506110da600a8661179e565b945061107a565b6001600160a01b0382166111375760405162461bcd60e51b815260206004820181905260248201527f4552433732313a206d696e7420746f20746865207a65726f206164647265737360448201526064016103c9565b6111408161091d565b1561118d5760405162461bcd60e51b815260206004820152601c60248201527f4552433732313a20746f6b656e20616c7265616479206d696e7465640000000060448201526064016103c9565b6001600160a01b03821660009081526003602052604081208054600192906111b69084906116ab565b909155505060008181526002602052604080822080546001600160a01b0319166001600160a01b03861690811790915590518392907fddf252ad1be2c89b69c2b068fc378daa952ba7f163c4a11628f55a4df523b3ef908290a45050565b828054611220906115c4565b90600052602060002090601f0160209004810192826112425760008555611288565b82601f1061125b57805160ff1916838001178555611288565b82800160010185558215611288579182015b8281111561128857825182559160200191906001019061126d565b50611294929150611298565b5090565b5b808211156112945760008155600101611299565b6001600160e01b0319811681146112c357600080fd5b50565b6000602082840312156112d857600080fd5b8135610ea5816112ad565b60005b838110156112fe5781810151838201526020016112e6565b838111156107a15750506000910152565b600081518084526113278160208601602086016112e3565b601f01601f19169290920160200192915050565b602081526000610ea5602083018461130f565b60006020828403121561136057600080fd5b5035919050565b80356001600160a01b038116811461137e57600080fd5b919050565b6000806040838503121561139657600080fd5b61139f83611367565b946020939093013593505050565b6000806000606084860312156113c257600080fd5b6113cb84611367565b92506113d960208501611367565b9150604084013590509250925092565b6000602082840312156113fb57600080fd5b610ea582611367565b634e487b7160e01b600052604160045260246000fd5b600067ffffffffffffffff8084111561143557611435611404565b604051601f8501601f19908116603f0116810190828211818310171561145d5761145d611404565b8160405280935085815286868601111561147657600080fd5b858560208301376000602087830101525050509392505050565b6000602082840312156114a257600080fd5b813567ffffffffffffffff8111156114b957600080fd5b8201601f810184136114ca57600080fd5b6109158482356020840161141a565b600080604083850312156114ec57600080fd5b6114f583611367565b91506020830135801515811461150a57600080fd5b809150509250929050565b6000806000806080858703121561152b57600080fd5b61153485611367565b935061154260208601611367565b925060408501359150606085013567ffffffffffffffff81111561156557600080fd5b8501601f8101871361157657600080fd5b6115858782356020840161141a565b91505092959194509250565b600080604083850312156115a457600080fd5b6115ad83611367565b91506115bb60208401611367565b90509250929050565b600181811c908216806115d857607f821691505b6020821081036115f857634e487b7160e01b600052602260045260246000fd5b50919050565b60208082526031908201527f4552433732313a207472616e736665722063616c6c6572206973206e6f74206f6040820152701ddb995c881b9bdc88185c1c1c9bdd9959607a1b606082015260800190565b600083516116618184602088016112e3565b8351908301906116758183602088016112e3565b01949350505050565b634e487b7160e01b600052601160045260246000fd5b6000828210156116a6576116a661167e565b500390565b600082198211156116be576116be61167e565b500190565b60208082526032908201527f4552433732313a207472616e7366657220746f206e6f6e20455243373231526560408201527131b2b4bb32b91034b6b83632b6b2b73a32b960711b606082015260800190565b6001600160a01b03858116825284166020820152604081018390526080606082018190526000906117489083018461130f565b9695505050505050565b60006020828403121561176457600080fd5b8151610ea5816112ad565b6000600182016117815761178161167e565b5060010190565b634e487b7160e01b600052601260045260246000fd5b6000826117ad576117ad611788565b500490565b6000826117c1576117c1611788565b500690565b634e487b7160e01b600052603260045260246000fdfea2646970667358221220ed6e1ce3c8f5f7ce1367b6a1e59777596b2080e4b59caa2a0aa991e4eb024c3464736f6c634300080d0033","bytecodeSha1":"21af8896506aeca6893ed2f3d14d16bf25312e4d","type":"contract","abi":[{"inputs":[{"internalType":"uint256","name":"_maxSupply","type":"uint256"},{"internalType":"string","name":"_eventName","type":"string"}],"stateMutability":"nonpayable","type":"constructor","name":"constructor"},{"anonymous":false,"inputs":[{"indexed":true,"internalType":"address","name":"owner","type":"address"},{"indexed":true,"internalType":"address","name":"approved","type":"address"},{"indexed":true,"internalType":"uint256","name":"tokenId","type":"uint256"}],"name":"Approval","type":"event"},{"anonymous":false,"inputs":[{"indexed":true,"internalType":"address","name":"owner","type":"address"},{"indexed":true,"internalType":"address","name":"operator","type":"address"},{"indexed":false,"internalType":"bool","name":"approved","type":"bool"}],"name":"ApprovalForAll","type":"event"},{"anonymous":false,"inputs":[{"indexed":true,"internalType":"address","name":"from","type":"address"},{"indexed":true,"internalType":"address","name":"to","type":"address"},{"indexed":true,"internalType":"uint256","name":"tokenId","type":"uint256"}],"name":"Transfer","type":"event"},{"inputs":[{"internalType":"address","name":"to","type":"address"},{"internalType":"uint256","name":"tokenId","type":"uint256"}],"name":"approve","outputs":[],"stateMutability":"nonpayable","type":"function"},{"inputs":[{"internalType":"address","name":"owner","type":"address"}],"name":"balanceOf","outputs":[{"internalType":"uint256","name":"","type":"uint256"}],"stateMutability":"view","type":"function"},{"inputs":[],"name":"eventName","outputs":[{"internalType":"string","name":"","type":"string"}],"stateMutability":"view","type":"function"},{"inputs":[{"internalType":"uint256","name":"tokenId","type":"uint256"}],"name":"getApproved","outputs":[{"internalType":"address","name":"","type":"address"}],"stateMutability":"view","type":"function"},{"inputs":[{"internalType":"address","name":"owner","type":"address"},{"internalType":"address","name":"operator","type":"address"}],"name":"isApprovedForAll","outputs":[{"internalType":"bool","name":"","type":"bool"}],"stateMutability":"view","type":"function"},{"inputs":[],"name":"maxSupply","outputs":[{"internalType":"uint256","name":"","type":"uint256"}],"stateMutability":"view","type":"function"},{"inputs":[{"internalType":"string","name":"tokenURI","type":"string"}],"name":"mintTicket","outputs":[{"internalType":"uint256","name":"","type":"uint256"}],"stateMutability":"nonpayable","type":"function"},{"inputs":[],"name":"name","outputs":[{"internalType":"string","name":"","type":"string"}],"stateMutability":"view","type":"function"},{"inputs":[{"internalType":"uint256","name":"tokenId","type":"uint256"}],"name":"ownerOf","outputs":[{"internalType":"address","name":"","type":"address"}],"stateMutability":"view","type":"function"},{"inputs":[{"internalType":"address","name":"from","type":"address"},{"internalType":"address","name":"to","type":"address"},{"internalType":"uint256","name":"tokenId","type":"uint256"}],"name":"safeTransferFrom","outputs":[],"stateMutability":"nonpayable","type":"function"},{"inputs":[{"internalType":"address","name":"from","type":"address"},{"internalType":"address","name":"to","type":"address"},{"internalType":"uint256","name":"tokenId","type":"uint256"},{"internalType":"bytes","name":"_data","type":"bytes"}],"name":"safeTransferFrom","outputs":[],"stateMutability":"nonpayable","type":"function"},{"inputs":[{"internalType":"address","name":"operator","type":"address"},{"internalType":"bool","name":"approved","type":"bool"}],"name":"setApprovalForAll","outputs":[],"stateMutability":"nonpayable","type":"function"},{"inputs":[{"internalType":"bytes4","name":"interfaceId","type":"bytes4"}],"name":"supportsInterface","outputs":[{"internalType":"bool","name":"","type":"bool"}],"stateMutability":"view","type":"function"},{"inputs":[],"name":"symbol","outputs":[{"internalType":"string","name":"","type":"string"}],"stateMutability":"view","type":"function"},{"inputs":[{"internalType":"uint256","name":"tokenId","type":"uint256"}],"name":"tokenURI","outputs":[{"internalType":"string","name":"","type":"string"}],"stateMutability":"view","type":"function"},{"inputs":[{"internalType":"address","name":"from","type":"address"},{"internalType":"address","name":"to","type":"address"},{"internalType":"uint256","name":"tokenId","type":"uint256"}],"name":"transferFrom","outputs":[],"stateMutability":"nonpayable","type":"function"}],"compiler":{"version":"0.8.13+commit.abaa5c0e","evm_version":"istanbul","optimizer":{"enabled":true,"runs":200}},"contractName":"TicketMinter","language":"Solidity","natspec":{"methods":{"approve(address,uint256)":{"details":"See {IERC721-approve}."},"balanceOf(address)":{"details":"See {IERC721-balanceOf}."},"getApproved(uint256)":{"details":"See {IERC721-getApproved}."},"isApprovedForAll(address,address)":{"details":"See {IERC721-isApprovedForAll}."},"name()":{"details":"See {IERC721Metadata-name}."},"ownerOf(uint256)":{"details":"See {IERC721-ownerOf}."},"safeTransferFrom(address,address,uint256)":{"details":"See {IERC721-safeTransferFrom}."},"safeTransferFrom(address,address,uint256,bytes)":{"details":"See {IERC721-safeTransferFrom}."},"setApprovalForAll(address,bool)":{"details":"See {IERC721-setApprovalForAll}."},"supportsInterface(bytes4)":{"details":"See {IERC165-supportsInterface}."},"symbol()":{"details":"See {IERC721Metadata-symbol}."},"tokenURI(uint256)":{"details":"See {IERC721Metadata-tokenURI}."},"transferFrom(address,address,uint256)":{"details":"See {IERC721-transferFrom}."}},"kind":"dev","version":1},"opcodes":"PUSH1 0x80 PUSH1 0x40 MSTORE CALLVALUE DUP1 ISZERO PUSH2 0x10 JUMPI PUSH1 0x0 DUP1 REVERT JUMPDEST POP PUSH1 0x4 CALLDATASIZE LT PUSH2 0x100 JUMPI PUSH1 0x0 CALLDATALOAD PUSH1 0xE0 SHR DUP1 PUSH4 0x8043C9C0 GT PUSH2 0x97 JUMPI DUP1 PUSH4 0xB88D4FDE GT PUSH2 0x66 JUMPI DUP1 PUSH4 0xB88D4FDE EQ PUSH2 0x212 JUMPI DUP1 PUSH4 0xC87B56DD EQ PUSH2 0x225 JUMPI DUP1 PUSH4 0xD5ABEB01 EQ PUSH2 0x238 JUMPI DUP1 PUSH4 0xE985E9C5 EQ PUSH2 0x241 JUMPI PUSH1 0x0 DUP1 REVERT JUMPDEST DUP1 PUSH4 0x8043C9C0 EQ PUSH2 0x1DC JUMPI DUP1 PUSH4 0x95D89B41 EQ PUSH2 0x1E4 JUMPI DUP1 PUSH4 0x96651ECF EQ PUSH2 0x1EC JUMPI DUP1 PUSH4 0xA22CB465 EQ PUSH2 0x1FF JUMPI PUSH1 0x0 DUP1 REVERT JUMPDEST DUP1 PUSH4 0x23B872DD GT PUSH2 0xD3 JUMPI DUP1 PUSH4 0x23B872DD EQ PUSH2 0x182 JUMPI DUP1 PUSH4 0x42842E0E EQ PUSH2 0x195 JUMPI DUP1 PUSH4 0x6352211E EQ PUSH2 0x1A8 JUMPI DUP1 PUSH4 0x70A08231 EQ PUSH2 0x1BB JUMPI PUSH1 0x0 DUP1 REVERT JUMPDEST DUP1 PUSH4 0x1FFC9A7 EQ PUSH2 0x105 JUMPI DUP1 PUSH4 0x6FDDE03 EQ PUSH2 0x12D JUMPI DUP1 PUSH4 0x81812FC EQ PUSH2 0x142 JUMPI DUP1 PUSH4 0x95EA7B3 EQ PUSH2 0x16D JUMPI JUMPDEST PUSH1 0x0 DUP1 REVERT JUMPDEST PUSH2 0x118 PUSH2 0x113 CALLDATASIZE PUSH1 0x4 PUSH2 0x12C6 JUMP JUMPDEST PUSH2 0x27D JUMP JUMPDEST PUSH1 0x40 MLOAD SWAP1 ISZERO ISZERO DUP2 MSTORE PUSH1 0x20 ADD JUMPDEST PUSH1 0x40 MLOAD DUP1 SWAP2 SUB SWAP1 RETURN JUMPDEST PUSH2 0x135 PUSH2 0x2CF JUMP JUMPDEST PUSH1 0x40 MLOAD PUSH2 0x124 SWAP2 SWAP1 PUSH2 0x133B JUMP JUMPDEST PUSH2 0x155 PUSH2 0x150 CALLDATASIZE PUSH1 0x4 PUSH2 0x134E JUMP JUMPDEST PUSH2 0x361 JUMP JUMPDEST PUSH1 0x40 MLOAD PUSH1 0x1 PUSH1 0x1 PUSH1 0xA0 SHL SUB SWAP1 SWAP2 AND DUP2 MSTORE PUSH1 0x20 ADD PUSH2 0x124 JUMP JUMPDEST PUSH2 0x180 PUSH2 0x17B CALLDATASIZE PUSH1 0x4 PUSH2 0x1383 JUMP JUMPDEST PUSH2 0x3EE JUMP JUMPDEST STOP JUMPDEST PUSH2 0x180 PUSH2 0x190 CALLDATASIZE PUSH1 0x4 PUSH2 0x13AD JUMP JUMPDEST PUSH2 0x503 JUMP JUMPDEST PUSH2 0x180 PUSH2 0x1A3 CALLDATASIZE PUSH1 0x4 PUSH2 0x13AD JUMP JUMPDEST PUSH2 0x534 JUMP JUMPDEST PUSH2 0x155 PUSH2 0x1B6 CALLDATASIZE PUSH1 0x4 PUSH2 0x134E JUMP JUMPDEST PUSH2 0x54F JUMP JUMPDEST PUSH2 0x1CE PUSH2 0x1C9 CALLDATASIZE PUSH1 0x4 PUSH2 0x13E9 JUMP JUMPDEST PUSH2 0x5C6 JUMP JUMPDEST PUSH1 0x40 MLOAD SWAP1 DUP2 MSTORE PUSH1 0x20 ADD PUSH2 0x124 JUMP JUMPDEST PUSH2 0x135 PUSH2 0x64D JUMP JUMPDEST PUSH2 0x135 PUSH2 0x6DB JUMP JUMPDEST PUSH2 0x1CE PUSH2 0x1FA CALLDATASIZE PUSH1 0x4 PUSH2 0x1490 JUMP JUMPDEST PUSH2 0x6EA JUMP JUMPDEST PUSH2 0x180 PUSH2 0x20D CALLDATASIZE PUSH1 0x4 PUSH2 0x14D9 JUMP JUMPDEST PUSH2 0x760 JUMP JUMPDEST PUSH2 0x180 PUSH2 0x220 CALLDATASIZE PUSH1 0x4 PUSH2 0x1515 JUMP JUMPDEST PUSH2 0x76F JUMP JUMPDEST PUSH2 0x135 PUSH2 0x233 CALLDATASIZE PUSH1 0x4 PUSH2 0x134E JUMP JUMPDEST PUSH2 0x7A7 JUMP JUMPDEST PUSH2 0x1CE PUSH1 0x8 SLOAD DUP2 JUMP JUMPDEST PUSH2 0x118 PUSH2 0x24F CALLDATASIZE PUSH1 0x4 PUSH2 0x1591 JUMP JUMPDEST PUSH1 0x1 PUSH1 0x1 PUSH1 0xA0 SHL SUB SWAP2 DUP3 AND PUSH1 0x0 SWAP1 DUP2 MSTORE PUSH1 0x5 PUSH1 0x20 SWAP1 DUP2 MSTORE PUSH1 0x40 DUP1 DUP4 KECCAK256 SWAP4 SWAP1 SWAP5 AND DUP3 MSTORE SWAP2 SWAP1 SWAP2 MSTORE KECCAK256 SLOAD PUSH1 0xFF AND SWAP1 JUMP JUMPDEST PUSH1 0x0 PUSH1 0x1 PUSH1 0x1 PUSH1 0xE0 SHL SUB NOT DUP3 AND PUSH4 0x80AC58CD PUSH1 0xE0 SHL EQ DUP1 PUSH2 0x2AE JUMPI POP PUSH1 0x1 PUSH1 0x1 PUSH1 0xE0 SHL SUB NOT DUP3 AND PUSH4 0x5B5E139F PUSH1 0xE0 SHL EQ JUMPDEST DUP1 PUSH2 0x2C9 JUMPI POP PUSH4 0x1FFC9A7 PUSH1 0xE0 SHL PUSH1 0x1 PUSH1 0x1 PUSH1 0xE0 SHL SUB NOT DUP4 AND EQ JUMPDEST SWAP3 SWAP2 POP POP JUMP JUMPDEST PUSH1 0x60 PUSH1 0x0 DUP1 SLOAD PUSH2 0x2DE SWAP1 PUSH2 0x15C4 JUMP JUMPDEST DUP1 PUSH1 0x1F ADD PUSH1 0x20 DUP1 SWAP2 DIV MUL PUSH1 0x20 ADD PUSH1 0x40 MLOAD SWAP1 DUP2 ADD PUSH1 0x40 MSTORE DUP1 SWAP3 SWAP2 SWAP1 DUP2 DUP2 MSTORE PUSH1 0x20 ADD DUP3 DUP1 SLOAD PUSH2 0x30A SWAP1 PUSH2 0x15C4 JUMP JUMPDEST DUP1 ISZERO PUSH2 0x357 JUMPI DUP1 PUSH1 0x1F LT PUSH2 0x32C JUMPI PUSH2 0x100 DUP1 DUP4 SLOAD DIV MUL DUP4 MSTORE SWAP2 PUSH1 0x20 ADD SWAP2 PUSH2 0x357 JUMP JUMPDEST DUP3 ADD SWAP2 SWAP1 PUSH1 0x0 MSTORE PUSH1 0x20 PUSH1 0x0 KECCAK256 SWAP1 JUMPDEST DUP2 SLOAD DUP2 MSTORE SWAP1 PUSH1 0x1 ADD SWAP1 PUSH1 0x20 ADD DUP1 DUP4 GT PUSH2 0x33A JUMPI DUP3 SWAP1 SUB PUSH1 0x1F AND DUP3 ADD SWAP2 JUMPDEST POP POP POP POP POP SWAP1 POP SWAP1 JUMP JUMPDEST PUSH1 0x0 PUSH2 0x36C DUP3 PUSH2 0x91D JUMP JUMPDEST PUSH2 0x3D2 JUMPI PUSH1 0x40 MLOAD PUSH3 0x461BCD PUSH1 0xE5 SHL DUP2 MSTORE PUSH1 0x20 PUSH1 0x4 DUP3 ADD MSTORE PUSH1 0x2C PUSH1 0x24 DUP3 ADD MSTORE PUSH32 0x4552433732313A20617070726F76656420717565727920666F72206E6F6E6578 PUSH1 0x44 DUP3 ADD MSTORE PUSH12 0x34B9BA32B73A103A37B5B2B7 PUSH1 0xA1 SHL PUSH1 0x64 DUP3 ADD MSTORE PUSH1 0x84 ADD JUMPDEST PUSH1 0x40 MLOAD DUP1 SWAP2 SUB SWAP1 REVERT JUMPDEST POP PUSH1 0x0 SWAP1 DUP2 MSTORE PUSH1 0x4 PUSH1 0x20 MSTORE PUSH1 0x40 SWAP1 KECCAK256 SLOAD PUSH1 0x1 PUSH1 0x1 PUSH1 0xA0 SHL SUB AND SWAP1 JUMP JUMPDEST PUSH1 0x0 PUSH2 0x3F9 DUP3 PUSH2 0x54F JUMP JUMPDEST SWAP1 POP DUP1 PUSH1 0x1 PUSH1 0x1 PUSH1 0xA0 SHL SUB AND DUP4 PUSH1 0x1 PUSH1 0x1 PUSH1 0xA0 SHL SUB AND SUB PUSH2 0x466 JUMPI PUSH1 0x40 MLOAD PUSH3 0x461BCD PUSH1 0xE5 SHL DUP2 MSTORE PUSH1 0x20 PUSH1 0x4 DUP3 ADD MSTORE PUSH1 0x21 PUSH1 0x24 DUP3 ADD MSTORE PUSH32 0x4552433732313A20617070726F76616C20746F2063757272656E74206F776E65 PUSH1 0x44 DUP3 ADD MSTORE PUSH1 0x39 PUSH1 0xF9 SHL PUSH1 0x64 DUP3 ADD MSTORE PUSH1 0x84 ADD PUSH2 0x3C9 JUMP JUMPDEST CALLER PUSH1 0x1 PUSH1 0x1 PUSH1 0xA0 SHL SUB DUP3 AND EQ DUP1 PUSH2 0x482 JUMPI POP PUSH2 0x482 DUP2 CALLER PUSH2 0x24F JUMP JUMPDEST PUSH2 0x4F4 JUMPI PUSH1 0x40 MLOAD PUSH3 0x461BCD PUSH1 0xE5 SHL DUP2 MSTORE PUSH1 0x20 PUSH1 0x4 DUP3 ADD MSTORE PUSH1 0x38 PUSH1 0x24 DUP3 ADD MSTORE PUSH32 0x4552433732313A20617070726F76652063616C6C6572206973206E6F74206F77 PUSH1 0x44 DUP3 ADD MSTORE PUSH32 0x6E6572206E6F7220617070726F76656420666F7220616C6C0000000000000000 PUSH1 0x64 DUP3 ADD MSTORE PUSH1 0x84 ADD PUSH2 0x3C9 JUMP JUMPDEST PUSH2 0x4FE DUP4 DUP4 PUSH2 0x93A JUMP JUMPDEST POP POP POP JUMP JUMPDEST PUSH2 0x50D CALLER DUP3 PUSH2 0x9A8 JUMP JUMPDEST PUSH2 0x529 JUMPI PUSH1 0x40 MLOAD PUSH3 0x461BCD PUSH1 0xE5 SHL DUP2 MSTORE PUSH1 0x4 ADD PUSH2 0x3C9 SWAP1 PUSH2 0x15FE JUMP JUMPDEST PUSH2 0x4FE DUP4 DUP4 DUP4 PUSH2 0xA8E JUMP JUMPDEST PUSH2 0x4FE DUP4 DUP4 DUP4 PUSH1 0x40 MLOAD DUP1 PUSH1 0x20 ADD PUSH1 0x40 MSTORE DUP1 PUSH1 0x0 DUP2 MSTORE POP PUSH2 0x76F JUMP JUMPDEST PUSH1 0x0 DUP2 DUP2 MSTORE PUSH1 0x2 PUSH1 0x20 MSTORE PUSH1 0x40 DUP2 KECCAK256 SLOAD PUSH1 0x1 PUSH1 0x1 PUSH1 0xA0 SHL SUB AND DUP1 PUSH2 0x2C9 JUMPI PUSH1 0x40 MLOAD PUSH3 0x461BCD PUSH1 0xE5 SHL DUP2 MSTORE PUSH1 0x20 PUSH1 0x4 DUP3 ADD MSTORE PUSH1 0x29 PUSH1 0x24 DUP3 ADD MSTORE PUSH32 0x4552433732313A206F776E657220717565727920666F72206E6F6E6578697374 PUSH1 0x44 DUP3 ADD MSTORE PUSH9 0x32B73A103A37B5B2B7 PUSH1 0xB9 SHL PUSH1 0x64 DUP3 ADD MSTORE PUSH1 0x84 ADD PUSH2 0x3C9 JUMP JUMPDEST PUSH1 0x0 PUSH1 0x1 PUSH1 0x1 PUSH1 0xA0 SHL SUB DUP3 AND PUSH2 0x631 JUMPI PUSH1 0x40 MLOAD PUSH3 0x461BCD PUSH1 0xE5 SHL DUP2 MSTORE PUSH1 0x20 PUSH1 0x4 DUP3 ADD MSTORE PUSH1 0x2A PUSH1 0x24 DUP3 ADD MSTORE PUSH32 0x4552433732313A2062616C616E636520717565727920666F7220746865207A65 PUSH1 0x44 DUP3 ADD MSTORE PUSH10 0x726F2061646472657373 PUSH1 0xB0 SHL PUSH1 0x64 DUP3 ADD MSTORE PUSH1 0x84 ADD PUSH2 0x3C9 JUMP JUMPDEST POP PUSH1 0x1 PUSH1 0x1 PUSH1 0xA0 SHL SUB AND PUSH1 0x0 SWAP1 DUP2 MSTORE PUSH1 0x3 PUSH1 0x20 MSTORE PUSH1 0x40 SWAP1 KECCAK256 SLOAD SWAP1 JUMP JUMPDEST PUSH1 0x9 DUP1 SLOAD PUSH2 0x65A SWAP1 PUSH2 0x15C4 JUMP JUMPDEST DUP1 PUSH1 0x1F ADD PUSH1 0x20 DUP1 SWAP2 DIV MUL PUSH1 0x20 ADD PUSH1 0x40 MLOAD SWAP1 DUP2 ADD PUSH1 0x40 MSTORE DUP1 SWAP3 SWAP2 SWAP1 DUP2 DUP2 MSTORE PUSH1 0x20 ADD DUP3 DUP1 SLOAD PUSH2 0x686 SWAP1 PUSH2 0x15C4 JUMP JUMPDEST DUP1 ISZERO PUSH2 0x6D3 JUMPI DUP1 PUSH1 0x1F LT PUSH2 0x6A8 JUMPI PUSH2 0x100 DUP1 DUP4 SLOAD DIV MUL DUP4 MSTORE SWAP2 PUSH1 0x20 ADD SWAP2 PUSH2 0x6D3 JUMP JUMPDEST DUP3 ADD SWAP2 SWAP1 PUSH1 0x0 MSTORE PUSH1 0x20 PUSH1 0x0 KECCAK256 SWAP1 JUMPDEST DUP2 SLOAD DUP2 MSTORE SWAP1 PUSH1 0x1 ADD SWAP1 PUSH1 0x20 ADD DUP1 DUP4 GT PUSH2 0x6B6 JUMPI DUP3 SWAP1 SUB PUSH1 0x1F AND DUP3 ADD SWAP2 JUMPDEST POP POP POP POP POP DUP2 JUMP JUMPDEST PUSH1 0x60 PUSH1 0x1 DUP1 SLOAD PUSH2 0x2DE SWAP1 PUSH2 0x15C4 JUMP JUMPDEST PUSH1 0x0 PUSH2 0x6FA PUSH1 0x7 DUP1 SLOAD PUSH1 0x1 ADD SWAP1 SSTORE JUMP JUMPDEST PUSH1 0x0 PUSH2 0x705 PUSH1 0x7 SLOAD SWAP1 JUMP JUMPDEST SWAP1 POP PUSH1 0x8 SLOAD DUP2 GT ISZERO PUSH2 0x74C JUMPI PUSH1 0x40 MLOAD PUSH3 0x461BCD PUSH1 0xE5 SHL DUP2 MSTORE PUSH1 0x20 PUSH1 0x4 DUP3 ADD MSTORE PUSH1 0x10 PUSH1 0x24 DUP3 ADD MSTORE PUSH16 0x4E6F7420656E6F756768204E46547321 PUSH1 0x80 SHL PUSH1 0x44 DUP3 ADD MSTORE PUSH1 0x64 ADD PUSH2 0x3C9 JUMP JUMPDEST PUSH2 0x756 CALLER DUP3 PUSH2 0xC2E JUMP JUMPDEST PUSH2 0x2C9 DUP2 DUP5 PUSH2 0xC48 JUMP JUMPDEST PUSH2 0x76B CALLER DUP4 DUP4 PUSH2 0xCD3 JUMP JUMPDEST POP POP JUMP JUMPDEST PUSH2 0x779 CALLER DUP4 PUSH2 0x9A8 JUMP JUMPDEST PUSH2 0x795 JUMPI PUSH1 0x40 MLOAD PUSH3 0x461BCD PUSH1 0xE5 SHL DUP2 MSTORE PUSH1 0x4 ADD PUSH2 0x3C9 SWAP1 PUSH2 0x15FE JUMP JUMPDEST PUSH2 0x7A1 DUP5 DUP5 DUP5 DUP5 PUSH2 0xDA1 JUMP JUMPDEST POP POP POP POP JUMP JUMPDEST PUSH1 0x60 PUSH2 0x7B2 DUP3 PUSH2 0x91D JUMP JUMPDEST PUSH2 0x818 JUMPI PUSH1 0x40 MLOAD PUSH3 0x461BCD PUSH1 0xE5 SHL DUP2 MSTORE PUSH1 0x20 PUSH1 0x4 DUP3 ADD MSTORE PUSH1 0x31 PUSH1 0x24 DUP3 ADD MSTORE PUSH32 0x45524337323155524953746F726167653A2055524920717565727920666F7220 PUSH1 0x44 DUP3 ADD MSTORE PUSH17 0x3737B732BC34B9BA32B73A103A37B5B2B7 PUSH1 0x79 SHL PUSH1 0x64 DUP3 ADD MSTORE PUSH1 0x84 ADD PUSH2 0x3C9 JUMP JUMPDEST PUSH1 0x0 DUP3 DUP2 MSTORE PUSH1 0x6 PUSH1 0x20 MSTORE PUSH1 0x40 DUP2 KECCAK256 DUP1 SLOAD PUSH2 0x831 SWAP1 PUSH2 0x15C4 JUMP JUMPDEST DUP1 PUSH1 0x1F ADD PUSH1 0x20 DUP1 SWAP2 DIV MUL PUSH1 0x20 ADD PUSH1 0x40 MLOAD SWAP1 DUP2 ADD PUSH1 0x40 MSTORE DUP1 SWAP3 SWAP2 SWAP1 DUP2 DUP2 MSTORE PUSH1 0x20 ADD DUP3 DUP1 SLOAD PUSH2 0x85D SWAP1 PUSH2 0x15C4 JUMP JUMPDEST DUP1 ISZERO PUSH2 0x8AA JUMPI DUP1 PUSH1 0x1F LT PUSH2 0x87F JUMPI PUSH2 0x100 DUP1 DUP4 SLOAD DIV MUL DUP4 MSTORE SWAP2 PUSH1 0x20 ADD SWAP2 PUSH2 0x8AA JUMP JUMPDEST DUP3 ADD SWAP2 SWAP1 PUSH1 0x0 MSTORE PUSH1 0x20 PUSH1 0x0 KECCAK256 SWAP1 JUMPDEST DUP2 SLOAD DUP2 MSTORE SWAP1 PUSH1 0x1 ADD SWAP1 PUSH1 0x20 ADD DUP1 DUP4 GT PUSH2 0x88D JUMPI DUP3 SWAP1 SUB PUSH1 0x1F AND DUP3 ADD SWAP2 JUMPDEST POP POP POP POP POP SWAP1 POP PUSH1 0x0 PUSH2 0x8C8 PUSH1 0x40 DUP1 MLOAD PUSH1 0x20 DUP2 ADD SWAP1 SWAP2 MSTORE PUSH1 0x0 DUP2 MSTORE SWAP1 JUMP JUMPDEST SWAP1 POP DUP1 MLOAD PUSH1 0x0 SUB PUSH2 0x8DA JUMPI POP SWAP3 SWAP2 POP POP JUMP JUMPDEST DUP2 MLOAD ISZERO PUSH2 0x90C JUMPI DUP1 DUP3 PUSH1 0x40 MLOAD PUSH1 0x20 ADD PUSH2 0x8F4 SWAP3 SWAP2 SWAP1 PUSH2 0x164F JUMP JUMPDEST PUSH1 0x40 MLOAD PUSH1 0x20 DUP2 DUP4 SUB SUB DUP2 MSTORE SWAP1 PUSH1 0x40 MSTORE SWAP3 POP POP POP SWAP2 SWAP1 POP JUMP JUMPDEST PUSH2 0x915 DUP5 PUSH2 0xDD4 JUMP JUMPDEST SWAP5 SWAP4 POP POP POP POP JUMP JUMPDEST PUSH1 0x0 SWAP1 DUP2 MSTORE PUSH1 0x2 PUSH1 0x20 MSTORE PUSH1 0x40 SWAP1 KECCAK256 SLOAD PUSH1 0x1 PUSH1 0x1 PUSH1 0xA0 SHL SUB AND ISZERO ISZERO SWAP1 JUMP JUMPDEST PUSH1 0x0 DUP2 DUP2 MSTORE PUSH1 0x4 PUSH1 0x20 MSTORE PUSH1 0x40 SWAP1 KECCAK256 DUP1 SLOAD PUSH1 0x1 PUSH1 0x1 PUSH1 0xA0 SHL SUB NOT AND PUSH1 0x1 PUSH1 0x1 PUSH1 0xA0 SHL SUB DUP5 AND SWAP1 DUP2 OR SWAP1 SWAP2 SSTORE DUP2 SWAP1 PUSH2 0x96F DUP3 PUSH2 0x54F JUMP JUMPDEST PUSH1 0x1 PUSH1 0x1 PUSH1 0xA0 SHL SUB AND PUSH32 0x8C5BE1E5EBEC7D5BD14F71427D1E84F3DD0314C0F7B2291E5B200AC8C7C3B925 PUSH1 0x40 MLOAD PUSH1 0x40 MLOAD DUP1 SWAP2 SUB SWAP1 LOG4 POP POP JUMP JUMPDEST PUSH1 0x0 PUSH2 0x9B3 DUP3 PUSH2 0x91D JUMP JUMPDEST PUSH2 0xA14 JUMPI PUSH1 0x40 MLOAD PUSH3 0x461BCD PUSH1 0xE5 SHL DUP2 MSTORE PUSH1 0x20 PUSH1 0x4 DUP3 ADD MSTORE PUSH1 0x2C PUSH1 0x24 DUP3 ADD MSTORE PUSH32 0x4552433732313A206F70657261746F7220717565727920666F72206E6F6E6578 PUSH1 0x44 DUP3 ADD MSTORE PUSH12 0x34B9BA32B73A103A37B5B2B7 PUSH1 0xA1 SHL PUSH1 0x64 DUP3 ADD MSTORE PUSH1 0x84 ADD PUSH2 0x3C9 JUMP JUMPDEST PUSH1 0x0 PUSH2 0xA1F DUP4 PUSH2 0x54F JUMP JUMPDEST SWAP1 POP DUP1 PUSH1 0x1 PUSH1 0x1 PUSH1 0xA0 SHL SUB AND DUP5 PUSH1 0x1 PUSH1 0x1 PUSH1 0xA0 SHL SUB AND EQ DUP1 PUSH2 0xA5A JUMPI POP DUP4 PUSH1 0x1 PUSH1 0x1 PUSH1 0xA0 SHL SUB AND PUSH2 0xA4F DUP5 PUSH2 0x361 JUMP JUMPDEST PUSH1 0x1 PUSH1 0x1 PUSH1 0xA0 SHL SUB AND EQ JUMPDEST DUP1 PUSH2 0x915 JUMPI POP PUSH1 0x1 PUSH1 0x1 PUSH1 0xA0 SHL SUB DUP1 DUP3 AND PUSH1 0x0 SWAP1 DUP2 MSTORE PUSH1 0x5 PUSH1 0x20 SWAP1 DUP2 MSTORE PUSH1 0x40 DUP1 DUP4 KECCAK256 SWAP4 DUP9 AND DUP4 MSTORE SWAP3 SWAP1 MSTORE KECCAK256 SLOAD PUSH1 0xFF AND PUSH2 0x915 JUMP JUMPDEST DUP3 PUSH1 0x1 PUSH1 0x1 PUSH1 0xA0 SHL SUB AND PUSH2 0xAA1 DUP3 PUSH2 0x54F JUMP JUMPDEST PUSH1 0x1 PUSH1 0x1 PUSH1 0xA0 SHL SUB AND EQ PUSH2 0xB09 JUMPI PUSH1 0x40 MLOAD PUSH3 0x461BCD PUSH1 0xE5 SHL DUP2 MSTORE PUSH1 0x20 PUSH1 0x4 DUP3 ADD MSTORE PUSH1 0x29 PUSH1 0x24 DUP3 ADD MSTORE PUSH32 0x4552433732313A207472616E73666572206F6620746F6B656E20746861742069 PUSH1 0x44 DUP3 ADD MSTORE PUSH9 0x39903737BA1037BBB7 PUSH1 0xB9 SHL PUSH1 0x64 DUP3 ADD MSTORE PUSH1 0x84 ADD PUSH2 0x3C9 JUMP JUMPDEST PUSH1 0x1 PUSH1 0x1 PUSH1 0xA0 SHL SUB DUP3 AND PUSH2 0xB6B JUMPI PUSH1 0x40 MLOAD PUSH3 0x461BCD PUSH1 0xE5 SHL DUP2 MSTORE PUSH1 0x20 PUSH1 0x4 DUP3 ADD MSTORE PUSH1 0x24 DUP1 DUP3 ADD MSTORE PUSH32 0x4552433732313A207472616E7366657220746F20746865207A65726F20616464 PUSH1 0x44 DUP3 ADD MSTORE PUSH4 0x72657373 PUSH1 0xE0 SHL PUSH1 0x64 DUP3 ADD MSTORE PUSH1 0x84 ADD PUSH2 0x3C9 JUMP JUMPDEST PUSH2 0xB76 PUSH1 0x0 DUP3 PUSH2 0x93A JUMP JUMPDEST PUSH1 0x1 PUSH1 0x1 PUSH1 0xA0 SHL SUB DUP4 AND PUSH1 0x0 SWAP1 DUP2 MSTORE PUSH1 0x3 PUSH1 0x20 MSTORE PUSH1 0x40 DUP2 KECCAK256 DUP1 SLOAD PUSH1 0x1 SWAP3 SWAP1 PUSH2 0xB9F SWAP1 DUP5 SWAP1 PUSH2 0x1694 JUMP JUMPDEST SWAP1 SWAP2 SSTORE POP POP PUSH1 0x1 PUSH1 0x1 PUSH1 0xA0 SHL SUB DUP3 AND PUSH1 0x0 SWAP1 DUP2 MSTORE PUSH1 0x3 PUSH1 0x20 MSTORE PUSH1 0x40 DUP2 KECCAK256 DUP1 SLOAD PUSH1 0x1 SWAP3 SWAP1 PUSH2 0xBCD SWAP1 DUP5 SWAP1 PUSH2 0x16AB JUMP JUMPDEST SWAP1 SWAP2 SSTORE POP POP PUSH1 0x0 DUP2 DUP2 MSTORE PUSH1 0x2 PUSH1 0x20 MSTORE PUSH1 0x40 DUP1 DUP3 KECCAK256 DUP1 SLOAD PUSH1 0x1 PUSH1 0x1 PUSH1 0xA0 SHL SUB NOT AND PUSH1 0x1 PUSH1 0x1 PUSH1 0xA0 SHL SUB DUP7 DUP2 AND SWAP2 DUP3 OR SWAP1 SWAP3 SSTORE SWAP2 MLOAD DUP5 SWAP4 SWAP2 DUP8 AND SWAP2 PUSH32 0xDDF252AD1BE2C89B69C2B068FC378DAA952BA7F163C4A11628F55A4DF523B3EF SWAP2 LOG4 POP POP POP JUMP JUMPDEST PUSH2 0x76B DUP3 DUP3 PUSH1 0x40 MLOAD DUP1 PUSH1 0x20 ADD PUSH1 0x40 MSTORE DUP1 PUSH1 0x0 DUP2 MSTORE POP PUSH2 0xEAC JUMP JUMPDEST PUSH2 0xC51 DUP3 PUSH2 0x91D JUMP JUMPDEST PUSH2 0xCB4 JUMPI PUSH1 0x40 MLOAD PUSH3 0x461BCD PUSH1 0xE5 SHL DUP2 MSTORE PUSH1 0x20 PUSH1 0x4 DUP3 ADD MSTORE PUSH1 0x2E PUSH1 0x24 DUP3 ADD MSTORE PUSH32 0x45524337323155524953746F726167653A2055524920736574206F66206E6F6E PUSH1 0x44 DUP3 ADD MSTORE PUSH14 0x32BC34B9BA32B73A103A37B5B2B7 PUSH1 0x91 SHL PUSH1 0x64 DUP3 ADD MSTORE PUSH1 0x84 ADD PUSH2 0x3C9 JUMP JUMPDEST PUSH1 0x0 DUP3 DUP2 MSTORE PUSH1 0x6 PUSH1 0x20 SWAP1 DUP2 MSTORE PUSH1 0x40 SWAP1 SWAP2 KECCAK256 DUP3 MLOAD PUSH2 0x4FE SWAP3 DUP5 ADD SWAP1 PUSH2 0x1214 JUMP JUMPDEST DUP2 PUSH1 0x1 PUSH1 0x1 PUSH1 0xA0 SHL SUB AND DUP4 PUSH1 0x1 PUSH1 0x1 PUSH1 0xA0 SHL SUB AND SUB PUSH2 0xD34 JUMPI PUSH1 0x40 MLOAD PUSH3 0x461BCD PUSH1 0xE5 SHL DUP2 MSTORE PUSH1 0x20 PUSH1 0x4 DUP3 ADD MSTORE PUSH1 0x19 PUSH1 0x24 DUP3 ADD MSTORE PUSH32 0x4552433732313A20617070726F766520746F2063616C6C657200000000000000 PUSH1 0x44 DUP3 ADD MSTORE PUSH1 0x64 ADD PUSH2 0x3C9 JUMP JUMPDEST PUSH1 0x1 PUSH1 0x1 PUSH1 0xA0 SHL SUB DUP4 DUP2 AND PUSH1 0x0 DUP2 DUP2 MSTORE PUSH1 0x5 PUSH1 0x20 SWAP1 DUP2 MSTORE PUSH1 0x40 DUP1 DUP4 KECCAK256 SWAP5 DUP8 AND DUP1 DUP5 MSTORE SWAP5 DUP3 MSTORE SWAP2 DUP3 SWAP1 KECCAK256 DUP1 SLOAD PUSH1 0xFF NOT AND DUP7 ISZERO ISZERO SWAP1 DUP2 OR SWAP1 SWAP2 SSTORE SWAP2 MLOAD SWAP2 DUP3 MSTORE PUSH32 0x17307EAB39AB6107E8899845AD3D59BD9653F200F220920489CA2B5937696C31 SWAP2 ADD PUSH1 0x40 MLOAD DUP1 SWAP2 SUB SWAP1 LOG3 POP POP POP JUMP JUMPDEST PUSH2 0xDAC DUP5 DUP5 DUP5 PUSH2 0xA8E JUMP JUMPDEST PUSH2 0xDB8 DUP5 DUP5 DUP5 DUP5 PUSH2 0xEDF JUMP JUMPDEST PUSH2 0x7A1 JUMPI PUSH1 0x40 MLOAD PUSH3 0x461BCD PUSH1 0xE5 SHL DUP2 MSTORE PUSH1 0x4 ADD PUSH2 0x3C9 SWAP1 PUSH2 0x16C3 JUMP JUMPDEST PUSH1 0x60 PUSH2 0xDDF DUP3 PUSH2 0x91D JUMP JUMPDEST PUSH2 0xE43 JUMPI PUSH1 0x40 MLOAD PUSH3 0x461BCD PUSH1 0xE5 SHL DUP2 MSTORE PUSH1 0x20 PUSH1 0x4 DUP3 ADD MSTORE PUSH1 0x2F PUSH1 0x24 DUP3 ADD MSTORE PUSH32 0x4552433732314D657461646174613A2055524920717565727920666F72206E6F PUSH1 0x44 DUP3 ADD MSTORE PUSH15 0x3732BC34B9BA32B73A103A37B5B2B7 PUSH1 0x89 SHL PUSH1 0x64 DUP3 ADD MSTORE PUSH1 0x84 ADD PUSH2 0x3C9 JUMP JUMPDEST PUSH1 0x0 PUSH2 0xE5A PUSH1 0x40 DUP1 MLOAD PUSH1 0x20 DUP2 ADD SWAP1 SWAP2 MSTORE PUSH1 0x0 DUP2 MSTORE SWAP1 JUMP JUMPDEST SWAP1 POP PUSH1 0x0 DUP2 MLOAD GT PUSH2 0xE7A JUMPI PUSH1 0x40 MLOAD DUP1 PUSH1 0x20 ADD PUSH1 0x40 MSTORE DUP1 PUSH1 0x0 DUP2 MSTORE POP PUSH2 0xEA5 JUMP JUMPDEST DUP1 PUSH2 0xE84 DUP5 PUSH2 0xFE0 JUMP JUMPDEST PUSH1 0x40 MLOAD PUSH1 0x20 ADD PUSH2 0xE95 SWAP3 SWAP2 SWAP1 PUSH2 0x164F JUMP JUMPDEST PUSH1 0x40 MLOAD PUSH1 0x20 DUP2 DUP4 SUB SUB DUP2 MSTORE SWAP1 PUSH1 0x40 MSTORE JUMPDEST SWAP4 SWAP3 POP POP POP JUMP JUMPDEST PUSH2 0xEB6 DUP4 DUP4 PUSH2 0x10E1 JUMP JUMPDEST PUSH2 0xEC3 PUSH1 0x0 DUP5 DUP5 DUP5 PUSH2 0xEDF JUMP JUMPDEST PUSH2 0x4FE JUMPI PUSH1 0x40 MLOAD PUSH3 0x461BCD PUSH1 0xE5 SHL DUP2 MSTORE PUSH1 0x4 ADD PUSH2 0x3C9 SWAP1 PUSH2 0x16C3 JUMP JUMPDEST PUSH1 0x0 PUSH1 0x1 PUSH1 0x1 PUSH1 0xA0 SHL SUB DUP5 AND EXTCODESIZE ISZERO PUSH2 0xFD5 JUMPI PUSH1 0x40 MLOAD PUSH4 0xA85BD01 PUSH1 0xE1 SHL DUP2 MSTORE PUSH1 0x1 PUSH1 0x1 PUSH1 0xA0 SHL SUB DUP6 AND SWAP1 PUSH4 0x150B7A02 SWAP1 PUSH2 0xF23 SWAP1 CALLER SWAP1 DUP10 SWAP1 DUP9 SWAP1 DUP9 SWAP1 PUSH1 0x4 ADD PUSH2 0x1715 JUMP JUMPDEST PUSH1 0x20 PUSH1 0x40 MLOAD DUP1 DUP4 SUB DUP2 PUSH1 0x0 DUP8 GAS CALL SWAP3 POP POP POP DUP1 ISZERO PUSH2 0xF5E JUMPI POP PUSH1 0x40 DUP1 MLOAD PUSH1 0x1F RETURNDATASIZE SWAP1 DUP2 ADD PUSH1 0x1F NOT AND DUP3 ADD SWAP1 SWAP3 MSTORE PUSH2 0xF5B SWAP2 DUP2 ADD SWAP1 PUSH2 0x1752 JUMP JUMPDEST PUSH1 0x1 JUMPDEST PUSH2 0xFBB JUMPI RETURNDATASIZE DUP1 DUP1 ISZERO PUSH2 0xF8C JUMPI PUSH1 0x40 MLOAD SWAP2 POP PUSH1 0x1F NOT PUSH1 0x3F RETURNDATASIZE ADD AND DUP3 ADD PUSH1 0x40 MSTORE RETURNDATASIZE DUP3 MSTORE RETURNDATASIZE PUSH1 0x0 PUSH1 0x20 DUP5 ADD RETURNDATACOPY PUSH2 0xF91 JUMP JUMPDEST PUSH1 0x60 SWAP2 POP JUMPDEST POP DUP1 MLOAD PUSH1 0x0 SUB PUSH2 0xFB3 JUMPI PUSH1 0x40 MLOAD PUSH3 0x461BCD PUSH1 0xE5 SHL DUP2 MSTORE PUSH1 0x4 ADD PUSH2 0x3C9 SWAP1 PUSH2 0x16C3 JUMP JUMPDEST DUP1 MLOAD DUP2 PUSH1 0x20 ADD REVERT JUMPDEST PUSH1 0x1 PUSH1 0x1 PUSH1 0xE0 SHL SUB NOT AND PUSH4 0xA85BD01 PUSH1 0xE1 SHL EQ SWAP1 POP PUSH2 0x915 JUMP JUMPDEST POP PUSH1 0x1 SWAP5 SWAP4 POP POP POP POP JUMP JUMPDEST PUSH1 0x60 DUP2 PUSH1 0x0 SUB PUSH2 0x1007 JUMPI POP POP PUSH1 0x40 DUP1 MLOAD DUP1 DUP3 ADD SWAP1 SWAP2 MSTORE PUSH1 0x1 DUP2 MSTORE PUSH1 0x3 PUSH1 0xFC SHL PUSH1 0x20 DUP3 ADD MSTORE SWAP1 JUMP JUMPDEST DUP2 PUSH1 0x0 JUMPDEST DUP2 ISZERO PUSH2 0x1031 JUMPI DUP1 PUSH2 0x101B DUP2 PUSH2 0x176F JUMP JUMPDEST SWAP2 POP PUSH2 0x102A SWAP1 POP PUSH1 0xA DUP4 PUSH2 0x179E JUMP JUMPDEST SWAP2 POP PUSH2 0x100B JUMP JUMPDEST PUSH1 0x0 DUP2 PUSH8 0xFFFFFFFFFFFFFFFF DUP2 GT ISZERO PUSH2 0x104C JUMPI PUSH2 0x104C PUSH2 0x1404 JUMP JUMPDEST PUSH1 0x40 MLOAD SWAP1 DUP1 DUP3 MSTORE DUP1 PUSH1 0x1F ADD PUSH1 0x1F NOT AND PUSH1 0x20 ADD DUP3 ADD PUSH1 0x40 MSTORE DUP1 ISZERO PUSH2 0x1076 JUMPI PUSH1 0x20 DUP3 ADD DUP2 DUP1 CALLDATASIZE DUP4 CALLDATACOPY ADD SWAP1 POP JUMPDEST POP SWAP1 POP JUMPDEST DUP5 ISZERO PUSH2 0x915 JUMPI PUSH2 0x108B PUSH1 0x1 DUP4 PUSH2 0x1694 JUMP JUMPDEST SWAP2 POP PUSH2 0x1098 PUSH1 0xA DUP7 PUSH2 0x17B2 JUMP JUMPDEST PUSH2 0x10A3 SWAP1 PUSH1 0x30 PUSH2 0x16AB JUMP JUMPDEST PUSH1 0xF8 SHL DUP2 DUP4 DUP2 MLOAD DUP2 LT PUSH2 0x10B8 JUMPI PUSH2 0x10B8 PUSH2 0x17C6 JUMP JUMPDEST PUSH1 0x20 ADD ADD SWAP1 PUSH1 0x1 PUSH1 0x1 PUSH1 0xF8 SHL SUB NOT AND SWAP1 DUP2 PUSH1 0x0 BYTE SWAP1 MSTORE8 POP PUSH2 0x10DA PUSH1 0xA DUP7 PUSH2 0x179E JUMP JUMPDEST SWAP5 POP PUSH2 0x107A JUMP JUMPDEST PUSH1 0x1 PUSH1 0x1 PUSH1 0xA0 SHL SUB DUP3 AND PUSH2 0x1137 JUMPI PUSH1 0x40 MLOAD PUSH3 0x461BCD PUSH1 0xE5 SHL DUP2 MSTORE PUSH1 0x20 PUSH1 0x4 DUP3 ADD DUP2 SWAP1 MSTORE PUSH1 0x24 DUP3 ADD MSTORE PUSH32 0x4552433732313A206D696E7420746F20746865207A65726F2061646472657373 PUSH1 0x44 DUP3 ADD MSTORE PUSH1 0x64 ADD PUSH2 0x3C9 JUMP JUMPDEST PUSH2 0x1140 DUP2 PUSH2 0x91D JUMP JUMPDEST ISZERO PUSH2 0x118D JUMPI PUSH1 0x40 MLOAD PUSH3 0x461BCD PUSH1 0xE5 SHL DUP2 MSTORE PUSH1 0x20 PUSH1 0x4 DUP3 ADD MSTORE PUSH1 0x1C PUSH1 0x24 DUP3 ADD MSTORE PUSH32 0x4552433732313A20746F6B656E20616C7265616479206D696E74656400000000 PUSH1 0x44 DUP3 ADD MSTORE PUSH1 0x64 ADD PUSH2 0x3C9 JUMP JUMPDEST PUSH1 0x1 PUSH1 0x1 PUSH1 0xA0 SHL SUB DUP3 AND PUSH1 0x0 SWAP1 DUP2 MSTORE PUSH1 0x3 PUSH1 0x20 MSTORE PUSH1 0x40 DUP2 KECCAK256 DUP1 SLOAD PUSH1 0x1 SWAP3 SWAP1 PUSH2 0x11B6 SWAP1 DUP5 SWAP1 PUSH2 0x16AB JUMP JUMPDEST SWAP1 SWAP2 SSTORE POP POP PUSH1 0x0 DUP2 DUP2 MSTORE PUSH1 0x2 PUSH1 0x20 MSTORE PUSH1 0x40 DUP1 DUP3 KECCAK256 DUP1 SLOAD PUSH1 0x1 PUSH1 0x1 PUSH1 0xA0 SHL SUB NOT AND PUSH1 0x1 PUSH1 0x1 PUSH1 0xA0 SHL SUB DUP7 AND SWAP1 DUP2 OR SWAP1 SWAP2 SSTORE SWAP1 MLOAD DUP4 SWAP3 SWAP1 PUSH32 0xDDF252AD1BE2C89B69C2B068FC378DAA952BA7F163C4A11628F55A4DF523B3EF SWAP1 DUP3 SWAP1 LOG4 POP POP JUMP JUMPDEST DUP3 DUP1 SLOAD PUSH2 0x1220 SWAP1 PUSH2 0x15C4 JUMP JUMPDEST SWAP1 PUSH1 0x0 MSTORE PUSH1 0x20 PUSH1 0x0 KECCAK256 SWAP1 PUSH1 0x1F ADD PUSH1 0x20 SWAP1 DIV DUP2 ADD SWAP3 DUP3 PUSH2 0x1242 JUMPI PUSH1 0x0 DUP6 SSTORE PUSH2 0x1288 JUMP JUMPDEST DUP3 PUSH1 0x1F LT PUSH2 0x125B JUMPI DUP1 MLOAD PUSH1 0xFF NOT AND DUP4 DUP1 ADD OR DUP6 SSTORE PUSH2 0x1288 JUMP JUMPDEST DUP3 DUP1 ADD PUSH1 0x1 ADD DUP6 SSTORE DUP3 ISZERO PUSH2 0x1288 JUMPI SWAP2 DUP3 ADD JUMPDEST DUP3 DUP2 GT ISZERO PUSH2 0x1288 JUMPI DUP3 MLOAD DUP3 SSTORE SWAP2 PUSH1 0x20 ADD SWAP2 SWAP1 PUSH1 0x1 ADD SWAP1 PUSH2 0x126D JUMP JUMPDEST POP PUSH2 0x1294 SWAP3 SWAP2 POP PUSH2 0x1298 JUMP JUMPDEST POP SWAP1 JUMP JUMPDEST JUMPDEST DUP1 DUP3 GT ISZERO PUSH2 0x1294 JUMPI PUSH1 0x0 DUP2 SSTORE PUSH1 0x1 ADD PUSH2 0x1299 JUMP JUMPDEST PUSH1 0x1 PUSH1 0x1 PUSH1 0xE0 SHL SUB NOT DUP2 AND DUP2 EQ PUSH2 0x12C3 JUMPI PUSH1 0x0 DUP1 REVERT JUMPDEST POP JUMP JUMPDEST PUSH1 0x0 PUSH1 0x20 DUP3 DUP5 SUB SLT ISZERO PUSH2 0x12D8 JUMPI PUSH1 0x0 DUP1 REVERT JUMPDEST DUP2 CALLDATALOAD PUSH2 0xEA5 DUP2 PUSH2 0x12AD JUMP JUMPDEST PUSH1 0x0 JUMPDEST DUP4 DUP2 LT ISZERO PUSH2 0x12FE JUMPI DUP2 DUP2 ADD MLOAD DUP4 DUP3 ADD MSTORE PUSH1 0x20 ADD PUSH2 0x12E6 JUMP JUMPDEST DUP4 DUP2 GT ISZERO PUSH2 0x7A1 JUMPI POP POP PUSH1 0x0 SWAP2 ADD MSTORE JUMP JUMPDEST PUSH1 0x0 DUP2 MLOAD DUP1 DUP5 MSTORE PUSH2 0x1327 DUP2 PUSH1 0x20 DUP7 ADD PUSH1 0x20 DUP7 ADD PUSH2 0x12E3 JUMP JUMPDEST PUSH1 0x1F ADD PUSH1 0x1F NOT AND SWAP3 SWAP1 SWAP3 ADD PUSH1 0x20 ADD SWAP3 SWAP2 POP POP JUMP JUMPDEST PUSH1 0x20 DUP2 MSTORE PUSH1 0x0 PUSH2 0xEA5 PUSH1 0x20 DUP4 ADD DUP5 PUSH2 0x130F JUMP JUMPDEST PUSH1 0x0 PUSH1 0x20 DUP3 DUP5 SUB SLT ISZERO PUSH2 0x1360 JUMPI PUSH1 0x0 DUP1 REVERT JUMPDEST POP CALLDATALOAD SWAP2 SWAP1 POP JUMP JUMPDEST DUP1 CALLDATALOAD PUSH1 0x1 PUSH1 0x1 PUSH1 0xA0 SHL SUB DUP2 AND DUP2 EQ PUSH2 0x137E JUMPI PUSH1 0x0 DUP1 REVERT JUMPDEST SWAP2 SWAP1 POP JUMP JUMPDEST PUSH1 0x0 DUP1 PUSH1 0x40 DUP4 DUP6 SUB SLT ISZERO PUSH2 0x1396 JUMPI PUSH1 0x0 DUP1 REVERT JUMPDEST PUSH2 0x139F DUP4 PUSH2 0x1367 JUMP JUMPDEST SWAP5 PUSH1 0x20 SWAP4 SWAP1 SWAP4 ADD CALLDATALOAD SWAP4 POP POP POP JUMP JUMPDEST PUSH1 0x0 DUP1 PUSH1 0x0 PUSH1 0x60 DUP5 DUP7 SUB SLT ISZERO PUSH2 0x13C2 JUMPI PUSH1 0x0 DUP1 REVERT JUMPDEST PUSH2 0x13CB DUP5 PUSH2 0x1367 JUMP JUMPDEST SWAP3 POP PUSH2 0x13D9 PUSH1 0x20 DUP6 ADD PUSH2 0x1367 JUMP JUMPDEST SWAP2 POP PUSH1 0x40 DUP5 ADD CALLDATALOAD SWAP1 POP SWAP3 POP SWAP3 POP SWAP3 JUMP JUMPDEST PUSH1 0x0 PUSH1 0x20 DUP3 DUP5 SUB SLT ISZERO PUSH2 0x13FB JUMPI PUSH1 0x0 DUP1 REVERT JUMPDEST PUSH2 0xEA5 DUP3 PUSH2 0x1367 JUMP JUMPDEST PUSH4 0x4E487B71 PUSH1 0xE0 SHL PUSH1 0x0 MSTORE PUSH1 0x41 PUSH1 0x4 MSTORE PUSH1 0x24 PUSH1 0x0 REVERT JUMPDEST PUSH1 0x0 PUSH8 0xFFFFFFFFFFFFFFFF DUP1 DUP5 GT ISZERO PUSH2 0x1435 JUMPI PUSH2 0x1435 PUSH2 0x1404 JUMP JUMPDEST PUSH1 0x40 MLOAD PUSH1 0x1F DUP6 ADD PUSH1 0x1F NOT SWAP1 DUP2 AND PUSH1 0x3F ADD AND DUP2 ADD SWAP1 DUP3 DUP3 GT DUP2 DUP4 LT OR ISZERO PUSH2 0x145D JUMPI PUSH2 0x145D PUSH2 0x1404 JUMP JUMPDEST DUP2 PUSH1 0x40 MSTORE DUP1 SWAP4 POP DUP6 DUP2 MSTORE DUP7 DUP7 DUP7 ADD GT ISZERO PUSH2 0x1476 JUMPI PUSH1 0x0 DUP1 REVERT JUMPDEST DUP6 DUP6 PUSH1 0x20 DUP4 ADD CALLDATACOPY PUSH1 0x0 PUSH1 0x20 DUP8 DUP4 ADD ADD MSTORE POP POP POP SWAP4 SWAP3 POP POP POP JUMP JUMPDEST PUSH1 0x0 PUSH1 0x20 DUP3 DUP5 SUB SLT ISZERO PUSH2 0x14A2 JUMPI PUSH1 0x0 DUP1 REVERT JUMPDEST DUP2 CALLDATALOAD PUSH8 0xFFFFFFFFFFFFFFFF DUP2 GT ISZERO PUSH2 0x14B9 JUMPI PUSH1 0x0 DUP1 REVERT JUMPDEST DUP3 ADD PUSH1 0x1F DUP2 ADD DUP5 SGT PUSH2 0x14CA JUMPI PUSH1 0x0 DUP1 REVERT JUMPDEST PUSH2 0x915 DUP5 DUP3 CALLDATALOAD PUSH1 0x20 DUP5 ADD PUSH2 0x141A JUMP JUMPDEST PUSH1 0x0 DUP1 PUSH1 0x40 DUP4 DUP6 SUB SLT ISZERO PUSH2 0x14EC JUMPI PUSH1 0x0 DUP1 REVERT JUMPDEST PUSH2 0x14F5 DUP4 PUSH2 0x1367 JUMP JUMPDEST SWAP2 POP PUSH1 0x20 DUP4 ADD CALLDATALOAD DUP1 ISZERO ISZERO DUP2 EQ PUSH2 0x150A JUMPI PUSH1 0x0 DUP1 REVERT JUMPDEST DUP1 SWAP2 POP POP SWAP3 POP SWAP3 SWAP1 POP JUMP JUMPDEST PUSH1 0x0 DUP1 PUSH1 0x0 DUP1 PUSH1 0x80 DUP6 DUP8 SUB SLT ISZERO PUSH2 0x152B JUMPI PUSH1 0x0 DUP1 REVERT JUMPDEST PUSH2 0x1534 DUP6 PUSH2 0x1367 JUMP JUMPDEST SWAP4 POP PUSH2 0x1542 PUSH1 0x20 DUP7 ADD PUSH2 0x1367 JUMP JUMPDEST SWAP3 POP PUSH1 0x40 DUP6 ADD CALLDATALOAD SWAP2 POP PUSH1 0x60 DUP6 ADD CALLDATALOAD PUSH8 0xFFFFFFFFFFFFFFFF DUP2 GT ISZERO PUSH2 0x1565 JUMPI PUSH1 0x0 DUP1 REVERT JUMPDEST DUP6 ADD PUSH1 0x1F DUP2 ADD DUP8 SGT PUSH2 0x1576 JUMPI PUSH1 0x0 DUP1 REVERT JUMPDEST PUSH2 0x1585 DUP8 DUP3 CALLDATALOAD PUSH1 0x20 DUP5 ADD PUSH2 0x141A JUMP JUMPDEST SWAP2 POP POP SWAP3 SWAP6 SWAP2 SWAP5 POP SWAP3 POP JUMP JUMPDEST PUSH1 0x0 DUP1 PUSH1 0x40 DUP4 DUP6 SUB SLT ISZERO PUSH2 0x15A4 JUMPI PUSH1 0x0 DUP1 REVERT JUMPDEST PUSH2 0x15AD DUP4 PUSH2 0x1367 JUMP JUMPDEST SWAP2 POP PUSH2 0x15BB PUSH1 0x20 DUP5 ADD PUSH2 0x1367 JUMP JUMPDEST SWAP1 POP SWAP3 POP SWAP3 SWAP1 POP JUMP JUMPDEST PUSH1 0x1 DUP2 DUP2 SHR SWAP1 DUP3 AND DUP1 PUSH2 0x15D8 JUMPI PUSH1 0x7F DUP3 AND SWAP2 POP JUMPDEST PUSH1 0x20 DUP3 LT DUP2 SUB PUSH2 0x15F8 JUMPI PUSH4 0x4E487B71 PUSH1 0xE0 SHL PUSH1 0x0 MSTORE PUSH1 0x22 PUSH1 0x4 MSTORE PUSH1 0x24 PUSH1 0x0 REVERT JUMPDEST POP SWAP2 SWAP1 POP JUMP JUMPDEST PUSH1 0x20 DUP1 DUP3 MSTORE PUSH1 0x31 SWAP1 DUP3 ADD MSTORE PUSH32 0x4552433732313A207472616E736665722063616C6C6572206973206E6F74206F PUSH1 0x40 DUP3 ADD MSTORE PUSH17 0x1DDB995C881B9BDC88185C1C1C9BDD9959 PUSH1 0x7A SHL PUSH1 0x60 DUP3 ADD MSTORE PUSH1 0x80 ADD SWAP1 JUMP JUMPDEST PUSH1 0x0 DUP4 MLOAD PUSH2 0x1661 DUP2 DUP5 PUSH1 0x20 DUP9 ADD PUSH2 0x12E3 JUMP JUMPDEST DUP4 MLOAD SWAP1 DUP4 ADD SWAP1 PUSH2 0x1675 DUP2 DUP4 PUSH1 0x20 DUP9 ADD PUSH2 0x12E3 JUMP JUMPDEST ADD SWAP5 SWAP4 POP POP POP POP JUMP JUMPDEST PUSH4 0x4E487B71 PUSH1 0xE0 SHL PUSH1 0x0 MSTORE PUSH1 0x11 PUSH1 0x4 MSTORE PUSH1 0x24 PUSH1 0x0 REVERT JUMPDEST PUSH1 0x0 DUP3 DUP3 LT ISZERO PUSH2 0x16A6 JUMPI PUSH2 0x16A6 PUSH2 0x167E JUMP JUMPDEST POP SUB SWAP1 JUMP JUMPDEST PUSH1 0x0 DUP3 NOT DUP3 GT ISZERO PUSH2 0x16BE JUMPI PUSH2 0x16BE PUSH2 0x167E JUMP JUMPDEST POP ADD SWAP1 JUMP JUMPDEST PUSH1 0x20 DUP1 DUP3 MSTORE PUSH1 0x32 SWAP1 DUP3 ADD MSTORE PUSH32 0x4552433732313A207472616E7366657220746F206E6F6E204552433732315265 PUSH1 0x40 DUP3 ADD MSTORE PUSH18 0x31B2B4BB32B91034B6B83632B6B2B73A32B9 PUSH1 0x71 SHL PUSH1 0x60 DUP3 ADD MSTORE PUSH1 0x80 ADD SWAP1 JUMP JUMPDEST PUSH1 0x1 PUSH1 0x1 PUSH1 0xA0 SHL SUB DUP6 DUP2 AND DUP3 MSTORE DUP5 AND PUSH1 0x20 DUP3 ADD MSTORE PUSH1 0x40 DUP2 ADD DUP4 SWAP1 MSTORE PUSH1 0x80 PUSH1 0x60 DUP3 ADD DUP2 SWAP1 MSTORE PUSH1 0x0 SWAP1 PUSH2 0x1748 SWAP1 DUP4 ADD DUP5 PUSH2 0x130F JUMP JUMPDEST SWAP7 SWAP6 POP POP POP POP POP POP JUMP JUMPDEST PUSH1 0x0 PUSH1 0x20 DUP3 DUP5 SUB SLT ISZERO PUSH2 0x1764 JUMPI PUSH1 0x0 DUP1 REVERT JUMPDEST DUP2 MLOAD PUSH2 0xEA5 DUP2 PUSH2 0x12AD JUMP JUMPDEST PUSH1 0x0 PUSH1 0x1 DUP3 ADD PUSH2 0x1781 JUMPI PUSH2 0x1781 PUSH2 0x167E JUMP JUMPDEST POP PUSH1 0x1 ADD SWAP1 JUMP JUMPDEST PUSH4 0x4E487B71 PUSH1 0xE0 SHL PUSH1 0x0 MSTORE PUSH1 0x12 PUSH1 0x4 MSTORE PUSH1 0x24 PUSH1 0x0 REVERT JUMPDEST PUSH1 0x0 DUP3 PUSH2 0x17AD JUMPI PUSH2 0x17AD PUSH2 0x1788 JUMP JUMPDEST POP DIV SWAP1 JUMP JUMPDEST PUSH1 0x0 DUP3 PUSH2 0x17C1 JUMPI PUSH2 0x17C1 PUSH2 0x1788 JUMP JUMPDEST POP MOD SWAP1 JUMP JUMPDEST PUSH4 0x4E487B71 PUSH1 0xE0 SHL PUSH1 0x0 MSTORE PUSH1 0x32 PUSH1 0x4 MSTORE PUSH1 0x24 PUSH1 0x0 REVERT INVALID LOG2 PUSH5 0x6970667358 0x22 SLT KECCAK256 0xED PUSH15 0x1CE3C8F5F7CE1367B6A1E59777596B KECCAK256 DUP1 0xE4 0xB5 SWAP13 0xAA 0x2A EXP 0xA9 SWAP2 0xE4 0xEB MUL 0x4C CALLVALUE PUSH5 0x736F6C6343 STOP ADDMOD 0xD STOP CALLER ","sha1":"a2c35919f3c89af29104cc4667a4077aa9e1c2d0","source":"// SPDX-License-Identifier: MIT\npragma solidity ^0.8.0;\n\nimport \"@openzeppelin/contracts/token/ERC721/extensions/ERC721URIStorage.sol\";\nimport \"@openzeppelin/contracts/utils/Counters.sol\";\n\ncontract TicketMinter is ERC721URIStorage{\n    using Counters for Counters.Counter;\n    Counters.Counter private _tokenIds;\n    // https://docs.openzeppelin.com/contracts/4.x/api/utils#Counters\n    uint256 public maxSupply; //global variable, any function in the contract can call this.\n    string public eventName;\n    //uint256 public newTokenId;\n\n    constructor(uint256 _maxSupply, string memory _eventName) public ERC721(\"RockPaperTicket\", \"RPT\"){\n        maxSupply = _maxSupply; //check ER721 contract\n        eventName = _eventName;\n    }\n\n    function mintTicket(string memory tokenURI) public returns (uint256){\n        // utilise Counters\n         //local variable, only this function can call it\n        _tokenIds.increment();\n        uint256 newTokenId = _tokenIds.current();\n        require(newTokenId <= maxSupply, \"Not enough NFTs!\");\n        _safeMint(msg.sender, newTokenId);\n        _setTokenURI(newTokenId, tokenURI);\n        return newTokenId;\n    }\n}","sourcePath":"contracts/TicketMinter.sol","deployment":{"address":"0x6929c02754AaAeCC982F3f2449f6C09BCcb8A28f","chainid":"4","blockHeight":10653291}}