{"bytecode":"60806040523480156200001157600080fd5b50604080518082018252600f81526e149bd8dad4185c195c951a58dad95d608a1b60208083019182528351808501909452600384526214941560ea1b9084015281519192916200006491600091620000f8565b5080516200007a906001906020840190620000f8565b5050506200009762000091620000a260201b60201c565b620000a6565b6001600955620001da565b3390565b600780546001600160a01b038381166001600160a01b0319831681179093556040519116919082907f8be0079c531659141344cd1fd0a4f28419497f9722a3daafe3b4186f6b6457e090600090a35050565b82805462000106906200019e565b90600052602060002090601f0160209004810192826200012a576000855562000175565b82601f106200014557805160ff191683800117855562000175565b8280016001018555821562000175579182015b828111156200017557825182559160200191906001019062000158565b506200018392915062000187565b5090565b5b8082111562000183576000815560010162000188565b600181811c90821680620001b357607f821691505b602082108103620001d457634e487b7160e01b600052602260045260246000fd5b50919050565b611d4f80620001ea6000396000f3fe608060405234801561001057600080fd5b50600436106101425760003560e01c806370a08231116100b8578063a22cb4651161007c578063a22cb46514610275578063b046db5114610288578063b88d4fde1461029b578063c87b56dd146102ae578063e985e9c5146102c1578063f2fde38b146102fd57600080fd5b806370a0823114610239578063715018a61461024c5780638043c9c0146102545780638da5cb5b1461025c57806395d89b411461026d57600080fd5b8063340754ed1161010a578063340754ed146101d757806342842e0e146101ee57806345745c10146102015780634f5501711461020a5780636352211e146102135780636f269b7a1461022657600080fd5b806301ffc9a71461014757806306fdde031461016f578063081812fc14610184578063095ea7b3146101af57806323b872dd146101c4575b600080fd5b61015a61015536600461171c565b610310565b60405190151581526020015b60405180910390f35b610177610362565b6040516101669190611791565b6101976101923660046117a4565b6103f4565b6040516001600160a01b039091168152602001610166565b6101c26101bd3660046117d9565b610481565b005b6101c26101d2366004611803565b610596565b6101e060095481565b604051908152602001610166565b6101c26101fc366004611803565b6105c7565b6101e0600b5481565b6101e0600c5481565b6101976102213660046117a4565b6105e2565b6101e06102343660046118ec565b610659565b6101e061024736600461194e565b61081d565b6101c26108a4565b61017761090a565b6007546001600160a01b0316610197565b610177610998565b6101c2610283366004611977565b6109a7565b6101c261029636600461194e565b6109b6565b6101c26102a93660046119ae565b610aab565b6101776102bc3660046117a4565b610ae3565b61015a6102cf366004611a2a565b6001600160a01b03918216600090815260056020908152604080832093909416825291909152205460ff1690565b6101c261030b36600461194e565b610c59565b60006001600160e01b031982166380ac58cd60e01b148061034157506001600160e01b03198216635b5e139f60e01b145b8061035c57506301ffc9a760e01b6001600160e01b03198316145b92915050565b60606000805461037190611a54565b80601f016020809104026020016040519081016040528092919081815260200182805461039d90611a54565b80156103ea5780601f106103bf576101008083540402835291602001916103ea565b820191906000526020600020905b8154815290600101906020018083116103cd57829003601f168201915b5050505050905090565b60006103ff82610d24565b6104655760405162461bcd60e51b815260206004820152602c60248201527f4552433732313a20617070726f76656420717565727920666f72206e6f6e657860448201526b34b9ba32b73a103a37b5b2b760a11b60648201526084015b60405180910390fd5b506000908152600460205260409020546001600160a01b031690565b600061048c826105e2565b9050806001600160a01b0316836001600160a01b0316036104f95760405162461bcd60e51b815260206004820152602160248201527f4552433732313a20617070726f76616c20746f2063757272656e74206f776e656044820152603960f91b606482015260840161045c565b336001600160a01b0382161480610515575061051581336102cf565b6105875760405162461bcd60e51b815260206004820152603860248201527f4552433732313a20617070726f76652063616c6c6572206973206e6f74206f7760448201527f6e6572206e6f7220617070726f76656420666f7220616c6c0000000000000000606482015260840161045c565b6105918383610d41565b505050565b6105a03382610daf565b6105bc5760405162461bcd60e51b815260040161045c90611a8e565b610591838383610e95565b61059183838360405180602001604052806000815250610aab565b6000818152600260205260408120546001600160a01b03168061035c5760405162461bcd60e51b815260206004820152602960248201527f4552433732313a206f776e657220717565727920666f72206e6f6e657869737460448201526832b73a103a37b5b2b760b91b606482015260840161045c565b6000610669600880546001019055565b6008546009819055600b5410156106c25760405162461bcd60e51b815260206004820152601f60248201527f416c6c205469636b6574732068617665206265656e20736f6c64206f75742100604482015260640161045c565b600c54604051637dfb132f60e11b815260048101919091523360248201526001600160a01b0383169063fbf6265e90604401602060405180830381865afa158015610711573d6000803e3d6000fd5b505050506040513d601f19601f820116820180604052508101906107359190611adf565b15156001146107995760405162461bcd60e51b815260206004820152602a60248201527f596f7520617265206e6f74207175616c696669656420746f20726563656976656044820152691030903a34b1b5b2ba1760b11b606482015260840161045c565b6107a23361081d565b156107fb5760405162461bcd60e51b815260206004820152602360248201527f4561636820706c61796572206d6179206f6e6c79206f776e206f6e65207469636044820152621ad95d60ea1b606482015260840161045c565b61080733600954611035565b6108136009548461104f565b5060095492915050565b60006001600160a01b0382166108885760405162461bcd60e51b815260206004820152602a60248201527f4552433732313a2062616c616e636520717565727920666f7220746865207a65604482015269726f206164647265737360b01b606482015260840161045c565b506001600160a01b031660009081526003602052604090205490565b6007546001600160a01b031633146108fe5760405162461bcd60e51b815260206004820181905260248201527f4f776e61626c653a2063616c6c6572206973206e6f7420746865206f776e6572604482015260640161045c565b61090860006110da565b565b600a805461091790611a54565b80601f016020809104026020016040519081016040528092919081815260200182805461094390611a54565b80156109905780601f1061096557610100808354040283529160200191610990565b820191906000526020600020905b81548152906001019060200180831161097357829003601f168201915b505050505081565b60606001805461037190611a54565b6109b233838361112c565b5050565b600c54604051634c6f880360e11b815260048101919091526001600160a01b038216906398df100690602401602060405180830381865afa1580156109ff573d6000803e3d6000fd5b505050506040513d601f19601f82011682018060405250810190610a239190611afc565b600b55600c54604051636e64d54960e01b815260048101919091526001600160a01b03821690636e64d54990602401600060405180830381865afa158015610a6f573d6000803e3d6000fd5b505050506040513d6000823e601f3d908101601f19168201604052610a979190810190611b15565b80516109b291600a9160209091019061166d565b610ab53383610daf565b610ad15760405162461bcd60e51b815260040161045c90611a8e565b610add848484846111fa565b50505050565b6060610aee82610d24565b610b545760405162461bcd60e51b815260206004820152603160248201527f45524337323155524953746f726167653a2055524920717565727920666f72206044820152703737b732bc34b9ba32b73a103a37b5b2b760791b606482015260840161045c565b60008281526006602052604081208054610b6d90611a54565b80601f0160208091040260200160405190810160405280929190818152602001828054610b9990611a54565b8015610be65780601f10610bbb57610100808354040283529160200191610be6565b820191906000526020600020905b815481529060010190602001808311610bc957829003601f168201915b505050505090506000610c0460408051602081019091526000815290565b90508051600003610c16575092915050565b815115610c48578082604051602001610c30929190611b8c565b60405160208183030381529060405292505050919050565b610c518461122d565b949350505050565b6007546001600160a01b03163314610cb35760405162461bcd60e51b815260206004820181905260248201527f4f776e61626c653a2063616c6c6572206973206e6f7420746865206f776e6572604482015260640161045c565b6001600160a01b038116610d185760405162461bcd60e51b815260206004820152602660248201527f4f776e61626c653a206e6577206f776e657220697320746865207a65726f206160448201526564647265737360d01b606482015260840161045c565b610d21816110da565b50565b6000908152600260205260409020546001600160a01b0316151590565b600081815260046020526040902080546001600160a01b0319166001600160a01b0384169081179091558190610d76826105e2565b6001600160a01b03167f8c5be1e5ebec7d5bd14f71427d1e84f3dd0314c0f7b2291e5b200ac8c7c3b92560405160405180910390a45050565b6000610dba82610d24565b610e1b5760405162461bcd60e51b815260206004820152602c60248201527f4552433732313a206f70657261746f7220717565727920666f72206e6f6e657860448201526b34b9ba32b73a103a37b5b2b760a11b606482015260840161045c565b6000610e26836105e2565b9050806001600160a01b0316846001600160a01b03161480610e615750836001600160a01b0316610e56846103f4565b6001600160a01b0316145b80610c5157506001600160a01b0380821660009081526005602090815260408083209388168352929052205460ff16610c51565b826001600160a01b0316610ea8826105e2565b6001600160a01b031614610f105760405162461bcd60e51b815260206004820152602960248201527f4552433732313a207472616e73666572206f6620746f6b656e2074686174206960448201526839903737ba1037bbb760b91b606482015260840161045c565b6001600160a01b038216610f725760405162461bcd60e51b8152602060048201526024808201527f4552433732313a207472616e7366657220746f20746865207a65726f206164646044820152637265737360e01b606482015260840161045c565b610f7d600082610d41565b6001600160a01b0383166000908152600360205260408120805460019290610fa6908490611bd1565b90915550506001600160a01b0382166000908152600360205260408120805460019290610fd4908490611be8565b909155505060008181526002602052604080822080546001600160a01b0319166001600160a01b0386811691821790925591518493918716917fddf252ad1be2c89b69c2b068fc378daa952ba7f163c4a11628f55a4df523b3ef91a4505050565b6109b2828260405180602001604052806000815250611305565b61105882610d24565b6110bb5760405162461bcd60e51b815260206004820152602e60248201527f45524337323155524953746f726167653a2055524920736574206f66206e6f6e60448201526d32bc34b9ba32b73a103a37b5b2b760911b606482015260840161045c565b600082815260066020908152604090912082516105919284019061166d565b600780546001600160a01b038381166001600160a01b0319831681179093556040519116919082907f8be0079c531659141344cd1fd0a4f28419497f9722a3daafe3b4186f6b6457e090600090a35050565b816001600160a01b0316836001600160a01b03160361118d5760405162461bcd60e51b815260206004820152601960248201527f4552433732313a20617070726f766520746f2063616c6c657200000000000000604482015260640161045c565b6001600160a01b03838116600081815260056020908152604080832094871680845294825291829020805460ff191686151590811790915591519182527f17307eab39ab6107e8899845ad3d59bd9653f200f220920489ca2b5937696c31910160405180910390a3505050565b611205848484610e95565b61121184848484611338565b610add5760405162461bcd60e51b815260040161045c90611c00565b606061123882610d24565b61129c5760405162461bcd60e51b815260206004820152602f60248201527f4552433732314d657461646174613a2055524920717565727920666f72206e6f60448201526e3732bc34b9ba32b73a103a37b5b2b760891b606482015260840161045c565b60006112b360408051602081019091526000815290565b905060008151116112d357604051806020016040528060008152506112fe565b806112dd84611439565b6040516020016112ee929190611b8c565b6040516020818303038152906040525b9392505050565b61130f838361153a565b61131c6000848484611338565b6105915760405162461bcd60e51b815260040161045c90611c00565b60006001600160a01b0384163b1561142e57604051630a85bd0160e11b81526001600160a01b0385169063150b7a029061137c903390899088908890600401611c52565b6020604051808303816000875af19250505080156113b7575060408051601f3d908101601f191682019092526113b491810190611c8f565b60015b611414573d8080156113e5576040519150601f19603f3d011682016040523d82523d6000602084013e6113ea565b606091505b50805160000361140c5760405162461bcd60e51b815260040161045c90611c00565b805181602001fd5b6001600160e01b031916630a85bd0160e11b149050610c51565b506001949350505050565b6060816000036114605750506040805180820190915260018152600360fc1b602082015290565b8160005b811561148a578061147481611cac565b91506114839050600a83611cdb565b9150611464565b60008167ffffffffffffffff8111156114a5576114a561183f565b6040519080825280601f01601f1916602001820160405280156114cf576020820181803683370190505b5090505b8415610c51576114e4600183611bd1565b91506114f1600a86611cef565b6114fc906030611be8565b60f81b81838151811061151157611511611d03565b60200101906001600160f81b031916908160001a905350611533600a86611cdb565b94506114d3565b6001600160a01b0382166115905760405162461bcd60e51b815260206004820181905260248201527f4552433732313a206d696e7420746f20746865207a65726f2061646472657373604482015260640161045c565b61159981610d24565b156115e65760405162461bcd60e51b815260206004820152601c60248201527f4552433732313a20746f6b656e20616c7265616479206d696e74656400000000604482015260640161045c565b6001600160a01b038216600090815260036020526040812080546001929061160f908490611be8565b909155505060008181526002602052604080822080546001600160a01b0319166001600160a01b03861690811790915590518392907fddf252ad1be2c89b69c2b068fc378daa952ba7f163c4a11628f55a4df523b3ef908290a45050565b82805461167990611a54565b90600052602060002090601f01602090048101928261169b57600085556116e1565b82601f106116b457805160ff19168380011785556116e1565b828001600101855582156116e1579182015b828111156116e15782518255916020019190600101906116c6565b506116ed9291506116f1565b5090565b5b808211156116ed57600081556001016116f2565b6001600160e01b031981168114610d2157600080fd5b60006020828403121561172e57600080fd5b81356112fe81611706565b60005b8381101561175457818101518382015260200161173c565b83811115610add5750506000910152565b6000815180845261177d816020860160208601611739565b601f01601f19169290920160200192915050565b6020815260006112fe6020830184611765565b6000602082840312156117b657600080fd5b5035919050565b80356001600160a01b03811681146117d457600080fd5b919050565b600080604083850312156117ec57600080fd5b6117f5836117bd565b946020939093013593505050565b60008060006060848603121561181857600080fd5b611821846117bd565b925061182f602085016117bd565b9150604084013590509250925092565b634e487b7160e01b600052604160045260246000fd5b604051601f8201601f1916810167ffffffffffffffff8111828210171561187e5761187e61183f565b604052919050565b600067ffffffffffffffff8211156118a0576118a061183f565b50601f01601f191660200190565b60006118c16118bc84611886565b611855565b90508281528383830111156118d557600080fd5b828260208301376000602084830101529392505050565b600080604083850312156118ff57600080fd5b823567ffffffffffffffff81111561191657600080fd5b8301601f8101851361192757600080fd5b611936858235602084016118ae565b925050611945602084016117bd565b90509250929050565b60006020828403121561196057600080fd5b6112fe826117bd565b8015158114610d2157600080fd5b6000806040838503121561198a57600080fd5b611993836117bd565b915060208301356119a381611969565b809150509250929050565b600080600080608085870312156119c457600080fd5b6119cd856117bd565b93506119db602086016117bd565b925060408501359150606085013567ffffffffffffffff8111156119fe57600080fd5b8501601f81018713611a0f57600080fd5b611a1e878235602084016118ae565b91505092959194509250565b60008060408385031215611a3d57600080fd5b611a46836117bd565b9150611945602084016117bd565b600181811c90821680611a6857607f821691505b602082108103611a8857634e487b7160e01b600052602260045260246000fd5b50919050565b60208082526031908201527f4552433732313a207472616e736665722063616c6c6572206973206e6f74206f6040820152701ddb995c881b9bdc88185c1c1c9bdd9959607a1b606082015260800190565b600060208284031215611af157600080fd5b81516112fe81611969565b600060208284031215611b0e57600080fd5b5051919050565b600060208284031215611b2757600080fd5b815167ffffffffffffffff811115611b3e57600080fd5b8201601f81018413611b4f57600080fd5b8051611b5d6118bc82611886565b818152856020838501011115611b7257600080fd5b611b83826020830160208601611739565b95945050505050565b60008351611b9e818460208801611739565b835190830190611bb2818360208801611739565b01949350505050565b634e487b7160e01b600052601160045260246000fd5b600082821015611be357611be3611bbb565b500390565b60008219821115611bfb57611bfb611bbb565b500190565b60208082526032908201527f4552433732313a207472616e7366657220746f206e6f6e20455243373231526560408201527131b2b4bb32b91034b6b83632b6b2b73a32b960711b606082015260800190565b6001600160a01b0385811682528416602082015260408101839052608060608201819052600090611c8590830184611765565b9695505050505050565b600060208284031215611ca157600080fd5b81516112fe81611706565b600060018201611cbe57611cbe611bbb565b5060010190565b634e487b7160e01b600052601260045260246000fd5b600082611cea57611cea611cc5565b500490565b600082611cfe57611cfe611cc5565b500690565b634e487b7160e01b600052603260045260246000fdfea26469706673582212203c041905fc35018ef34c6a1a03d0cbaacd8044a843a3f30c5bded2d03420736864736f6c634300080d0033","bytecodeSha1":"9da7d8a5eea1598422c60766406c7a1b7a571406","type":"contract","abi":[{"inputs":[],"stateMutability":"nonpayable","type":"constructor","name":"constructor"},{"anonymous":false,"inputs":[{"indexed":true,"internalType":"address","name":"owner","type":"address"},{"indexed":true,"internalType":"address","name":"approved","type":"address"},{"indexed":true,"internalType":"uint256","name":"tokenId","type":"uint256"}],"name":"Approval","type":"event"},{"anonymous":false,"inputs":[{"indexed":true,"internalType":"address","name":"owner","type":"address"},{"indexed":true,"internalType":"address","name":"operator","type":"address"},{"indexed":false,"internalType":"bool","name":"approved","type":"bool"}],"name":"ApprovalForAll","type":"event"},{"anonymous":false,"inputs":[{"indexed":true,"internalType":"address","name":"previousOwner","type":"address"},{"indexed":true,"internalType":"address","name":"newOwner","type":"address"}],"name":"OwnershipTransferred","type":"event"},{"anonymous":false,"inputs":[{"indexed":true,"internalType":"address","name":"from","type":"address"},{"indexed":true,"internalType":"address","name":"to","type":"address"},{"indexed":true,"internalType":"uint256","name":"tokenId","type":"uint256"}],"name":"Transfer","type":"event"},{"inputs":[],"name":"_eventId","outputs":[{"internalType":"uint256","name":"","type":"uint256"}],"stateMutability":"view","type":"function"},{"inputs":[{"internalType":"address","name":"to","type":"address"},{"internalType":"uint256","name":"tokenId","type":"uint256"}],"name":"approve","outputs":[],"stateMutability":"nonpayable","type":"function"},{"inputs":[{"internalType":"address","name":"owner","type":"address"}],"name":"balanceOf","outputs":[{"internalType":"uint256","name":"","type":"uint256"}],"stateMutability":"view","type":"function"},{"inputs":[],"name":"eventName","outputs":[{"internalType":"string","name":"","type":"string"}],"stateMutability":"view","type":"function"},{"inputs":[{"internalType":"uint256","name":"tokenId","type":"uint256"}],"name":"getApproved","outputs":[{"internalType":"address","name":"","type":"address"}],"stateMutability":"view","type":"function"},{"inputs":[{"internalType":"address","name":"_eventAddress","type":"address"}],"name":"getEventData","outputs":[],"stateMutability":"nonpayable","type":"function"},{"inputs":[{"internalType":"address","name":"owner","type":"address"},{"internalType":"address","name":"operator","type":"address"}],"name":"isApprovedForAll","outputs":[{"internalType":"bool","name":"","type":"bool"}],"stateMutability":"view","type":"function"},{"inputs":[{"internalType":"string","name":"tokenURI","type":"string"},{"internalType":"address","name":"_eventAddress","type":"address"}],"name":"mintTicket","outputs":[{"internalType":"uint256","name":"","type":"uint256"}],"stateMutability":"nonpayable","type":"function"},{"inputs":[],"name":"name","outputs":[{"internalType":"string","name":"","type":"string"}],"stateMutability":"view","type":"function"},{"inputs":[],"name":"newTokenId","outputs":[{"internalType":"uint256","name":"","type":"uint256"}],"stateMutability":"view","type":"function"},{"inputs":[],"name":"numberOfTickets","outputs":[{"internalType":"uint256","name":"","type":"uint256"}],"stateMutability":"view","type":"function"},{"inputs":[],"name":"owner","outputs":[{"internalType":"address","name":"","type":"address"}],"stateMutability":"view","type":"function"},{"inputs":[{"internalType":"uint256","name":"tokenId","type":"uint256"}],"name":"ownerOf","outputs":[{"internalType":"address","name":"","type":"address"}],"stateMutability":"view","type":"function"},{"inputs":[],"name":"renounceOwnership","outputs":[],"stateMutability":"nonpayable","type":"function"},{"inputs":[{"internalType":"address","name":"from","type":"address"},{"internalType":"address","name":"to","type":"address"},{"internalType":"uint256","name":"tokenId","type":"uint256"}],"name":"safeTransferFrom","outputs":[],"stateMutability":"nonpayable","type":"function"},{"inputs":[{"internalType":"address","name":"from","type":"address"},{"internalType":"address","name":"to","type":"address"},{"internalType":"uint256","name":"tokenId","type":"uint256"},{"internalType":"bytes","name":"_data","type":"bytes"}],"name":"safeTransferFrom","outputs":[],"stateMutability":"nonpayable","type":"function"},{"inputs":[{"internalType":"address","name":"operator","type":"address"},{"internalType":"bool","name":"approved","type":"bool"}],"name":"setApprovalForAll","outputs":[],"stateMutability":"nonpayable","type":"function"},{"inputs":[{"internalType":"bytes4","name":"interfaceId","type":"bytes4"}],"name":"supportsInterface","outputs":[{"internalType":"bool","name":"","type":"bool"}],"stateMutability":"view","type":"function"},{"inputs":[],"name":"symbol","outputs":[{"internalType":"string","name":"","type":"string"}],"stateMutability":"view","type":"function"},{"inputs":[{"internalType":"uint256","name":"tokenId","type":"uint256"}],"name":"tokenURI","outputs":[{"internalType":"string","name":"","type":"string"}],"stateMutability":"view","type":"function"},{"inputs":[{"internalType":"address","name":"from","type":"address"},{"internalType":"address","name":"to","type":"address"},{"internalType":"uint256","name":"tokenId","type":"uint256"}],"name":"transferFrom","outputs":[],"stateMutability":"nonpayable","type":"function"},{"inputs":[{"internalType":"address","name":"newOwner","type":"address"}],"name":"transferOwnership","outputs":[],"stateMutability":"nonpayable","type":"function"}],"compiler":{"version":"0.8.13+commit.abaa5c0e","evm_version":"istanbul","optimizer":{"enabled":true,"runs":200}},"contractName":"TicketMinter","language":"Solidity","natspec":{"methods":{"approve(address,uint256)":{"details":"See {IERC721-approve}."},"balanceOf(address)":{"details":"See {IERC721-balanceOf}."},"getApproved(uint256)":{"details":"See {IERC721-getApproved}."},"isApprovedForAll(address,address)":{"details":"See {IERC721-isApprovedForAll}."},"name()":{"details":"See {IERC721Metadata-name}."},"owner()":{"details":"Returns the address of the current owner."},"ownerOf(uint256)":{"details":"See {IERC721-ownerOf}."},"renounceOwnership()":{"details":"Leaves the contract without owner. It will not be possible to call `onlyOwner` functions anymore. Can only be called by the current owner. NOTE: Renouncing ownership will leave the contract without an owner, thereby removing any functionality that is only available to the owner."},"safeTransferFrom(address,address,uint256)":{"details":"See {IERC721-safeTransferFrom}."},"safeTransferFrom(address,address,uint256,bytes)":{"details":"See {IERC721-safeTransferFrom}."},"setApprovalForAll(address,bool)":{"details":"See {IERC721-setApprovalForAll}."},"supportsInterface(bytes4)":{"details":"See {IERC165-supportsInterface}."},"symbol()":{"details":"See {IERC721Metadata-symbol}."},"tokenURI(uint256)":{"details":"See {IERC721Metadata-tokenURI}."},"transferFrom(address,address,uint256)":{"details":"See {IERC721-transferFrom}."},"transferOwnership(address)":{"details":"Transfers ownership of the contract to a new account (`newOwner`). Can only be called by the current owner."}},"kind":"dev","version":1},"opcodes":"PUSH1 0x80 PUSH1 0x40 MSTORE CALLVALUE DUP1 ISZERO PUSH2 0x10 JUMPI PUSH1 0x0 DUP1 REVERT JUMPDEST POP PUSH1 0x4 CALLDATASIZE LT PUSH2 0x142 JUMPI PUSH1 0x0 CALLDATALOAD PUSH1 0xE0 SHR DUP1 PUSH4 0x70A08231 GT PUSH2 0xB8 JUMPI DUP1 PUSH4 0xA22CB465 GT PUSH2 0x7C JUMPI DUP1 PUSH4 0xA22CB465 EQ PUSH2 0x275 JUMPI DUP1 PUSH4 0xB046DB51 EQ PUSH2 0x288 JUMPI DUP1 PUSH4 0xB88D4FDE EQ PUSH2 0x29B JUMPI DUP1 PUSH4 0xC87B56DD EQ PUSH2 0x2AE JUMPI DUP1 PUSH4 0xE985E9C5 EQ PUSH2 0x2C1 JUMPI DUP1 PUSH4 0xF2FDE38B EQ PUSH2 0x2FD JUMPI PUSH1 0x0 DUP1 REVERT JUMPDEST DUP1 PUSH4 0x70A08231 EQ PUSH2 0x239 JUMPI DUP1 PUSH4 0x715018A6 EQ PUSH2 0x24C JUMPI DUP1 PUSH4 0x8043C9C0 EQ PUSH2 0x254 JUMPI DUP1 PUSH4 0x8DA5CB5B EQ PUSH2 0x25C JUMPI DUP1 PUSH4 0x95D89B41 EQ PUSH2 0x26D JUMPI PUSH1 0x0 DUP1 REVERT JUMPDEST DUP1 PUSH4 0x340754ED GT PUSH2 0x10A JUMPI DUP1 PUSH4 0x340754ED EQ PUSH2 0x1D7 JUMPI DUP1 PUSH4 0x42842E0E EQ PUSH2 0x1EE JUMPI DUP1 PUSH4 0x45745C10 EQ PUSH2 0x201 JUMPI DUP1 PUSH4 0x4F550171 EQ PUSH2 0x20A JUMPI DUP1 PUSH4 0x6352211E EQ PUSH2 0x213 JUMPI DUP1 PUSH4 0x6F269B7A EQ PUSH2 0x226 JUMPI PUSH1 0x0 DUP1 REVERT JUMPDEST DUP1 PUSH4 0x1FFC9A7 EQ PUSH2 0x147 JUMPI DUP1 PUSH4 0x6FDDE03 EQ PUSH2 0x16F JUMPI DUP1 PUSH4 0x81812FC EQ PUSH2 0x184 JUMPI DUP1 PUSH4 0x95EA7B3 EQ PUSH2 0x1AF JUMPI DUP1 PUSH4 0x23B872DD EQ PUSH2 0x1C4 JUMPI JUMPDEST PUSH1 0x0 DUP1 REVERT JUMPDEST PUSH2 0x15A PUSH2 0x155 CALLDATASIZE PUSH1 0x4 PUSH2 0x171C JUMP JUMPDEST PUSH2 0x310 JUMP JUMPDEST PUSH1 0x40 MLOAD SWAP1 ISZERO ISZERO DUP2 MSTORE PUSH1 0x20 ADD JUMPDEST PUSH1 0x40 MLOAD DUP1 SWAP2 SUB SWAP1 RETURN JUMPDEST PUSH2 0x177 PUSH2 0x362 JUMP JUMPDEST PUSH1 0x40 MLOAD PUSH2 0x166 SWAP2 SWAP1 PUSH2 0x1791 JUMP JUMPDEST PUSH2 0x197 PUSH2 0x192 CALLDATASIZE PUSH1 0x4 PUSH2 0x17A4 JUMP JUMPDEST PUSH2 0x3F4 JUMP JUMPDEST PUSH1 0x40 MLOAD PUSH1 0x1 PUSH1 0x1 PUSH1 0xA0 SHL SUB SWAP1 SWAP2 AND DUP2 MSTORE PUSH1 0x20 ADD PUSH2 0x166 JUMP JUMPDEST PUSH2 0x1C2 PUSH2 0x1BD CALLDATASIZE PUSH1 0x4 PUSH2 0x17D9 JUMP JUMPDEST PUSH2 0x481 JUMP JUMPDEST STOP JUMPDEST PUSH2 0x1C2 PUSH2 0x1D2 CALLDATASIZE PUSH1 0x4 PUSH2 0x1803 JUMP JUMPDEST PUSH2 0x596 JUMP JUMPDEST PUSH2 0x1E0 PUSH1 0x9 SLOAD DUP2 JUMP JUMPDEST PUSH1 0x40 MLOAD SWAP1 DUP2 MSTORE PUSH1 0x20 ADD PUSH2 0x166 JUMP JUMPDEST PUSH2 0x1C2 PUSH2 0x1FC CALLDATASIZE PUSH1 0x4 PUSH2 0x1803 JUMP JUMPDEST PUSH2 0x5C7 JUMP JUMPDEST PUSH2 0x1E0 PUSH1 0xB SLOAD DUP2 JUMP JUMPDEST PUSH2 0x1E0 PUSH1 0xC SLOAD DUP2 JUMP JUMPDEST PUSH2 0x197 PUSH2 0x221 CALLDATASIZE PUSH1 0x4 PUSH2 0x17A4 JUMP JUMPDEST PUSH2 0x5E2 JUMP JUMPDEST PUSH2 0x1E0 PUSH2 0x234 CALLDATASIZE PUSH1 0x4 PUSH2 0x18EC JUMP JUMPDEST PUSH2 0x659 JUMP JUMPDEST PUSH2 0x1E0 PUSH2 0x247 CALLDATASIZE PUSH1 0x4 PUSH2 0x194E JUMP JUMPDEST PUSH2 0x81D JUMP JUMPDEST PUSH2 0x1C2 PUSH2 0x8A4 JUMP JUMPDEST PUSH2 0x177 PUSH2 0x90A JUMP JUMPDEST PUSH1 0x7 SLOAD PUSH1 0x1 PUSH1 0x1 PUSH1 0xA0 SHL SUB AND PUSH2 0x197 JUMP JUMPDEST PUSH2 0x177 PUSH2 0x998 JUMP JUMPDEST PUSH2 0x1C2 PUSH2 0x283 CALLDATASIZE PUSH1 0x4 PUSH2 0x1977 JUMP JUMPDEST PUSH2 0x9A7 JUMP JUMPDEST PUSH2 0x1C2 PUSH2 0x296 CALLDATASIZE PUSH1 0x4 PUSH2 0x194E JUMP JUMPDEST PUSH2 0x9B6 JUMP JUMPDEST PUSH2 0x1C2 PUSH2 0x2A9 CALLDATASIZE PUSH1 0x4 PUSH2 0x19AE JUMP JUMPDEST PUSH2 0xAAB JUMP JUMPDEST PUSH2 0x177 PUSH2 0x2BC CALLDATASIZE PUSH1 0x4 PUSH2 0x17A4 JUMP JUMPDEST PUSH2 0xAE3 JUMP JUMPDEST PUSH2 0x15A PUSH2 0x2CF CALLDATASIZE PUSH1 0x4 PUSH2 0x1A2A JUMP JUMPDEST PUSH1 0x1 PUSH1 0x1 PUSH1 0xA0 SHL SUB SWAP2 DUP3 AND PUSH1 0x0 SWAP1 DUP2 MSTORE PUSH1 0x5 PUSH1 0x20 SWAP1 DUP2 MSTORE PUSH1 0x40 DUP1 DUP4 KECCAK256 SWAP4 SWAP1 SWAP5 AND DUP3 MSTORE SWAP2 SWAP1 SWAP2 MSTORE KECCAK256 SLOAD PUSH1 0xFF AND SWAP1 JUMP JUMPDEST PUSH2 0x1C2 PUSH2 0x30B CALLDATASIZE PUSH1 0x4 PUSH2 0x194E JUMP JUMPDEST PUSH2 0xC59 JUMP JUMPDEST PUSH1 0x0 PUSH1 0x1 PUSH1 0x1 PUSH1 0xE0 SHL SUB NOT DUP3 AND PUSH4 0x80AC58CD PUSH1 0xE0 SHL EQ DUP1 PUSH2 0x341 JUMPI POP PUSH1 0x1 PUSH1 0x1 PUSH1 0xE0 SHL SUB NOT DUP3 AND PUSH4 0x5B5E139F PUSH1 0xE0 SHL EQ JUMPDEST DUP1 PUSH2 0x35C JUMPI POP PUSH4 0x1FFC9A7 PUSH1 0xE0 SHL PUSH1 0x1 PUSH1 0x1 PUSH1 0xE0 SHL SUB NOT DUP4 AND EQ JUMPDEST SWAP3 SWAP2 POP POP JUMP JUMPDEST PUSH1 0x60 PUSH1 0x0 DUP1 SLOAD PUSH2 0x371 SWAP1 PUSH2 0x1A54 JUMP JUMPDEST DUP1 PUSH1 0x1F ADD PUSH1 0x20 DUP1 SWAP2 DIV MUL PUSH1 0x20 ADD PUSH1 0x40 MLOAD SWAP1 DUP2 ADD PUSH1 0x40 MSTORE DUP1 SWAP3 SWAP2 SWAP1 DUP2 DUP2 MSTORE PUSH1 0x20 ADD DUP3 DUP1 SLOAD PUSH2 0x39D SWAP1 PUSH2 0x1A54 JUMP JUMPDEST DUP1 ISZERO PUSH2 0x3EA JUMPI DUP1 PUSH1 0x1F LT PUSH2 0x3BF JUMPI PUSH2 0x100 DUP1 DUP4 SLOAD DIV MUL DUP4 MSTORE SWAP2 PUSH1 0x20 ADD SWAP2 PUSH2 0x3EA JUMP JUMPDEST DUP3 ADD SWAP2 SWAP1 PUSH1 0x0 MSTORE PUSH1 0x20 PUSH1 0x0 KECCAK256 SWAP1 JUMPDEST DUP2 SLOAD DUP2 MSTORE SWAP1 PUSH1 0x1 ADD SWAP1 PUSH1 0x20 ADD DUP1 DUP4 GT PUSH2 0x3CD JUMPI DUP3 SWAP1 SUB PUSH1 0x1F AND DUP3 ADD SWAP2 JUMPDEST POP POP POP POP POP SWAP1 POP SWAP1 JUMP JUMPDEST PUSH1 0x0 PUSH2 0x3FF DUP3 PUSH2 0xD24 JUMP JUMPDEST PUSH2 0x465 JUMPI PUSH1 0x40 MLOAD PUSH3 0x461BCD PUSH1 0xE5 SHL DUP2 MSTORE PUSH1 0x20 PUSH1 0x4 DUP3 ADD MSTORE PUSH1 0x2C PUSH1 0x24 DUP3 ADD MSTORE PUSH32 0x4552433732313A20617070726F76656420717565727920666F72206E6F6E6578 PUSH1 0x44 DUP3 ADD MSTORE PUSH12 0x34B9BA32B73A103A37B5B2B7 PUSH1 0xA1 SHL PUSH1 0x64 DUP3 ADD MSTORE PUSH1 0x84 ADD JUMPDEST PUSH1 0x40 MLOAD DUP1 SWAP2 SUB SWAP1 REVERT JUMPDEST POP PUSH1 0x0 SWAP1 DUP2 MSTORE PUSH1 0x4 PUSH1 0x20 MSTORE PUSH1 0x40 SWAP1 KECCAK256 SLOAD PUSH1 0x1 PUSH1 0x1 PUSH1 0xA0 SHL SUB AND SWAP1 JUMP JUMPDEST PUSH1 0x0 PUSH2 0x48C DUP3 PUSH2 0x5E2 JUMP JUMPDEST SWAP1 POP DUP1 PUSH1 0x1 PUSH1 0x1 PUSH1 0xA0 SHL SUB AND DUP4 PUSH1 0x1 PUSH1 0x1 PUSH1 0xA0 SHL SUB AND SUB PUSH2 0x4F9 JUMPI PUSH1 0x40 MLOAD PUSH3 0x461BCD PUSH1 0xE5 SHL DUP2 MSTORE PUSH1 0x20 PUSH1 0x4 DUP3 ADD MSTORE PUSH1 0x21 PUSH1 0x24 DUP3 ADD MSTORE PUSH32 0x4552433732313A20617070726F76616C20746F2063757272656E74206F776E65 PUSH1 0x44 DUP3 ADD MSTORE PUSH1 0x39 PUSH1 0xF9 SHL PUSH1 0x64 DUP3 ADD MSTORE PUSH1 0x84 ADD PUSH2 0x45C JUMP JUMPDEST CALLER PUSH1 0x1 PUSH1 0x1 PUSH1 0xA0 SHL SUB DUP3 AND EQ DUP1 PUSH2 0x515 JUMPI POP PUSH2 0x515 DUP2 CALLER PUSH2 0x2CF JUMP JUMPDEST PUSH2 0x587 JUMPI PUSH1 0x40 MLOAD PUSH3 0x461BCD PUSH1 0xE5 SHL DUP2 MSTORE PUSH1 0x20 PUSH1 0x4 DUP3 ADD MSTORE PUSH1 0x38 PUSH1 0x24 DUP3 ADD MSTORE PUSH32 0x4552433732313A20617070726F76652063616C6C6572206973206E6F74206F77 PUSH1 0x44 DUP3 ADD MSTORE PUSH32 0x6E6572206E6F7220617070726F76656420666F7220616C6C0000000000000000 PUSH1 0x64 DUP3 ADD MSTORE PUSH1 0x84 ADD PUSH2 0x45C JUMP JUMPDEST PUSH2 0x591 DUP4 DUP4 PUSH2 0xD41 JUMP JUMPDEST POP POP POP JUMP JUMPDEST PUSH2 0x5A0 CALLER DUP3 PUSH2 0xDAF JUMP JUMPDEST PUSH2 0x5BC JUMPI PUSH1 0x40 MLOAD PUSH3 0x461BCD PUSH1 0xE5 SHL DUP2 MSTORE PUSH1 0x4 ADD PUSH2 0x45C SWAP1 PUSH2 0x1A8E JUMP JUMPDEST PUSH2 0x591 DUP4 DUP4 DUP4 PUSH2 0xE95 JUMP JUMPDEST PUSH2 0x591 DUP4 DUP4 DUP4 PUSH1 0x40 MLOAD DUP1 PUSH1 0x20 ADD PUSH1 0x40 MSTORE DUP1 PUSH1 0x0 DUP2 MSTORE POP PUSH2 0xAAB JUMP JUMPDEST PUSH1 0x0 DUP2 DUP2 MSTORE PUSH1 0x2 PUSH1 0x20 MSTORE PUSH1 0x40 DUP2 KECCAK256 SLOAD PUSH1 0x1 PUSH1 0x1 PUSH1 0xA0 SHL SUB AND DUP1 PUSH2 0x35C JUMPI PUSH1 0x40 MLOAD PUSH3 0x461BCD PUSH1 0xE5 SHL DUP2 MSTORE PUSH1 0x20 PUSH1 0x4 DUP3 ADD MSTORE PUSH1 0x29 PUSH1 0x24 DUP3 ADD MSTORE PUSH32 0x4552433732313A206F776E657220717565727920666F72206E6F6E6578697374 PUSH1 0x44 DUP3 ADD MSTORE PUSH9 0x32B73A103A37B5B2B7 PUSH1 0xB9 SHL PUSH1 0x64 DUP3 ADD MSTORE PUSH1 0x84 ADD PUSH2 0x45C JUMP JUMPDEST PUSH1 0x0 PUSH2 0x669 PUSH1 0x8 DUP1 SLOAD PUSH1 0x1 ADD SWAP1 SSTORE JUMP JUMPDEST PUSH1 0x8 SLOAD PUSH1 0x9 DUP2 SWAP1 SSTORE PUSH1 0xB SLOAD LT ISZERO PUSH2 0x6C2 JUMPI PUSH1 0x40 MLOAD PUSH3 0x461BCD PUSH1 0xE5 SHL DUP2 MSTORE PUSH1 0x20 PUSH1 0x4 DUP3 ADD MSTORE PUSH1 0x1F PUSH1 0x24 DUP3 ADD MSTORE PUSH32 0x416C6C205469636B6574732068617665206265656E20736F6C64206F75742100 PUSH1 0x44 DUP3 ADD MSTORE PUSH1 0x64 ADD PUSH2 0x45C JUMP JUMPDEST PUSH1 0xC SLOAD PUSH1 0x40 MLOAD PUSH4 0x7DFB132F PUSH1 0xE1 SHL DUP2 MSTORE PUSH1 0x4 DUP2 ADD SWAP2 SWAP1 SWAP2 MSTORE CALLER PUSH1 0x24 DUP3 ADD MSTORE PUSH1 0x1 PUSH1 0x1 PUSH1 0xA0 SHL SUB DUP4 AND SWAP1 PUSH4 0xFBF6265E SWAP1 PUSH1 0x44 ADD PUSH1 0x20 PUSH1 0x40 MLOAD DUP1 DUP4 SUB DUP2 DUP7 GAS STATICCALL ISZERO DUP1 ISZERO PUSH2 0x711 JUMPI RETURNDATASIZE PUSH1 0x0 DUP1 RETURNDATACOPY RETURNDATASIZE PUSH1 0x0 REVERT JUMPDEST POP POP POP POP PUSH1 0x40 MLOAD RETURNDATASIZE PUSH1 0x1F NOT PUSH1 0x1F DUP3 ADD AND DUP3 ADD DUP1 PUSH1 0x40 MSTORE POP DUP2 ADD SWAP1 PUSH2 0x735 SWAP2 SWAP1 PUSH2 0x1ADF JUMP JUMPDEST ISZERO ISZERO PUSH1 0x1 EQ PUSH2 0x799 JUMPI PUSH1 0x40 MLOAD PUSH3 0x461BCD PUSH1 0xE5 SHL DUP2 MSTORE PUSH1 0x20 PUSH1 0x4 DUP3 ADD MSTORE PUSH1 0x2A PUSH1 0x24 DUP3 ADD MSTORE PUSH32 0x596F7520617265206E6F74207175616C696669656420746F2072656365697665 PUSH1 0x44 DUP3 ADD MSTORE PUSH10 0x1030903A34B1B5B2BA17 PUSH1 0xB1 SHL PUSH1 0x64 DUP3 ADD MSTORE PUSH1 0x84 ADD PUSH2 0x45C JUMP JUMPDEST PUSH2 0x7A2 CALLER PUSH2 0x81D JUMP JUMPDEST ISZERO PUSH2 0x7FB JUMPI PUSH1 0x40 MLOAD PUSH3 0x461BCD PUSH1 0xE5 SHL DUP2 MSTORE PUSH1 0x20 PUSH1 0x4 DUP3 ADD MSTORE PUSH1 0x23 PUSH1 0x24 DUP3 ADD MSTORE PUSH32 0x4561636820706C61796572206D6179206F6E6C79206F776E206F6E6520746963 PUSH1 0x44 DUP3 ADD MSTORE PUSH3 0x1AD95D PUSH1 0xEA SHL PUSH1 0x64 DUP3 ADD MSTORE PUSH1 0x84 ADD PUSH2 0x45C JUMP JUMPDEST PUSH2 0x807 CALLER PUSH1 0x9 SLOAD PUSH2 0x1035 JUMP JUMPDEST PUSH2 0x813 PUSH1 0x9 SLOAD DUP5 PUSH2 0x104F JUMP JUMPDEST POP PUSH1 0x9 SLOAD SWAP3 SWAP2 POP POP JUMP JUMPDEST PUSH1 0x0 PUSH1 0x1 PUSH1 0x1 PUSH1 0xA0 SHL SUB DUP3 AND PUSH2 0x888 JUMPI PUSH1 0x40 MLOAD PUSH3 0x461BCD PUSH1 0xE5 SHL DUP2 MSTORE PUSH1 0x20 PUSH1 0x4 DUP3 ADD MSTORE PUSH1 0x2A PUSH1 0x24 DUP3 ADD MSTORE PUSH32 0x4552433732313A2062616C616E636520717565727920666F7220746865207A65 PUSH1 0x44 DUP3 ADD MSTORE PUSH10 0x726F2061646472657373 PUSH1 0xB0 SHL PUSH1 0x64 DUP3 ADD MSTORE PUSH1 0x84 ADD PUSH2 0x45C JUMP JUMPDEST POP PUSH1 0x1 PUSH1 0x1 PUSH1 0xA0 SHL SUB AND PUSH1 0x0 SWAP1 DUP2 MSTORE PUSH1 0x3 PUSH1 0x20 MSTORE PUSH1 0x40 SWAP1 KECCAK256 SLOAD SWAP1 JUMP JUMPDEST PUSH1 0x7 SLOAD PUSH1 0x1 PUSH1 0x1 PUSH1 0xA0 SHL SUB AND CALLER EQ PUSH2 0x8FE JUMPI PUSH1 0x40 MLOAD PUSH3 0x461BCD PUSH1 0xE5 SHL DUP2 MSTORE PUSH1 0x20 PUSH1 0x4 DUP3 ADD DUP2 SWAP1 MSTORE PUSH1 0x24 DUP3 ADD MSTORE PUSH32 0x4F776E61626C653A2063616C6C6572206973206E6F7420746865206F776E6572 PUSH1 0x44 DUP3 ADD MSTORE PUSH1 0x64 ADD PUSH2 0x45C JUMP JUMPDEST PUSH2 0x908 PUSH1 0x0 PUSH2 0x10DA JUMP JUMPDEST JUMP JUMPDEST PUSH1 0xA DUP1 SLOAD PUSH2 0x917 SWAP1 PUSH2 0x1A54 JUMP JUMPDEST DUP1 PUSH1 0x1F ADD PUSH1 0x20 DUP1 SWAP2 DIV MUL PUSH1 0x20 ADD PUSH1 0x40 MLOAD SWAP1 DUP2 ADD PUSH1 0x40 MSTORE DUP1 SWAP3 SWAP2 SWAP1 DUP2 DUP2 MSTORE PUSH1 0x20 ADD DUP3 DUP1 SLOAD PUSH2 0x943 SWAP1 PUSH2 0x1A54 JUMP JUMPDEST DUP1 ISZERO PUSH2 0x990 JUMPI DUP1 PUSH1 0x1F LT PUSH2 0x965 JUMPI PUSH2 0x100 DUP1 DUP4 SLOAD DIV MUL DUP4 MSTORE SWAP2 PUSH1 0x20 ADD SWAP2 PUSH2 0x990 JUMP JUMPDEST DUP3 ADD SWAP2 SWAP1 PUSH1 0x0 MSTORE PUSH1 0x20 PUSH1 0x0 KECCAK256 SWAP1 JUMPDEST DUP2 SLOAD DUP2 MSTORE SWAP1 PUSH1 0x1 ADD SWAP1 PUSH1 0x20 ADD DUP1 DUP4 GT PUSH2 0x973 JUMPI DUP3 SWAP1 SUB PUSH1 0x1F AND DUP3 ADD SWAP2 JUMPDEST POP POP POP POP POP DUP2 JUMP JUMPDEST PUSH1 0x60 PUSH1 0x1 DUP1 SLOAD PUSH2 0x371 SWAP1 PUSH2 0x1A54 JUMP JUMPDEST PUSH2 0x9B2 CALLER DUP4 DUP4 PUSH2 0x112C JUMP JUMPDEST POP POP JUMP JUMPDEST PUSH1 0xC SLOAD PUSH1 0x40 MLOAD PUSH4 0x4C6F8803 PUSH1 0xE1 SHL DUP2 MSTORE PUSH1 0x4 DUP2 ADD SWAP2 SWAP1 SWAP2 MSTORE PUSH1 0x1 PUSH1 0x1 PUSH1 0xA0 SHL SUB DUP3 AND SWAP1 PUSH4 0x98DF1006 SWAP1 PUSH1 0x24 ADD PUSH1 0x20 PUSH1 0x40 MLOAD DUP1 DUP4 SUB DUP2 DUP7 GAS STATICCALL ISZERO DUP1 ISZERO PUSH2 0x9FF JUMPI RETURNDATASIZE PUSH1 0x0 DUP1 RETURNDATACOPY RETURNDATASIZE PUSH1 0x0 REVERT JUMPDEST POP POP POP POP PUSH1 0x40 MLOAD RETURNDATASIZE PUSH1 0x1F NOT PUSH1 0x1F DUP3 ADD AND DUP3 ADD DUP1 PUSH1 0x40 MSTORE POP DUP2 ADD SWAP1 PUSH2 0xA23 SWAP2 SWAP1 PUSH2 0x1AFC JUMP JUMPDEST PUSH1 0xB SSTORE PUSH1 0xC SLOAD PUSH1 0x40 MLOAD PUSH4 0x6E64D549 PUSH1 0xE0 SHL DUP2 MSTORE PUSH1 0x4 DUP2 ADD SWAP2 SWAP1 SWAP2 MSTORE PUSH1 0x1 PUSH1 0x1 PUSH1 0xA0 SHL SUB DUP3 AND SWAP1 PUSH4 0x6E64D549 SWAP1 PUSH1 0x24 ADD PUSH1 0x0 PUSH1 0x40 MLOAD DUP1 DUP4 SUB DUP2 DUP7 GAS STATICCALL ISZERO DUP1 ISZERO PUSH2 0xA6F JUMPI RETURNDATASIZE PUSH1 0x0 DUP1 RETURNDATACOPY RETURNDATASIZE PUSH1 0x0 REVERT JUMPDEST POP POP POP POP PUSH1 0x40 MLOAD RETURNDATASIZE PUSH1 0x0 DUP3 RETURNDATACOPY PUSH1 0x1F RETURNDATASIZE SWAP1 DUP2 ADD PUSH1 0x1F NOT AND DUP3 ADD PUSH1 0x40 MSTORE PUSH2 0xA97 SWAP2 SWAP1 DUP2 ADD SWAP1 PUSH2 0x1B15 JUMP JUMPDEST DUP1 MLOAD PUSH2 0x9B2 SWAP2 PUSH1 0xA SWAP2 PUSH1 0x20 SWAP1 SWAP2 ADD SWAP1 PUSH2 0x166D JUMP JUMPDEST PUSH2 0xAB5 CALLER DUP4 PUSH2 0xDAF JUMP JUMPDEST PUSH2 0xAD1 JUMPI PUSH1 0x40 MLOAD PUSH3 0x461BCD PUSH1 0xE5 SHL DUP2 MSTORE PUSH1 0x4 ADD PUSH2 0x45C SWAP1 PUSH2 0x1A8E JUMP JUMPDEST PUSH2 0xADD DUP5 DUP5 DUP5 DUP5 PUSH2 0x11FA JUMP JUMPDEST POP POP POP POP JUMP JUMPDEST PUSH1 0x60 PUSH2 0xAEE DUP3 PUSH2 0xD24 JUMP JUMPDEST PUSH2 0xB54 JUMPI PUSH1 0x40 MLOAD PUSH3 0x461BCD PUSH1 0xE5 SHL DUP2 MSTORE PUSH1 0x20 PUSH1 0x4 DUP3 ADD MSTORE PUSH1 0x31 PUSH1 0x24 DUP3 ADD MSTORE PUSH32 0x45524337323155524953746F726167653A2055524920717565727920666F7220 PUSH1 0x44 DUP3 ADD MSTORE PUSH17 0x3737B732BC34B9BA32B73A103A37B5B2B7 PUSH1 0x79 SHL PUSH1 0x64 DUP3 ADD MSTORE PUSH1 0x84 ADD PUSH2 0x45C JUMP JUMPDEST PUSH1 0x0 DUP3 DUP2 MSTORE PUSH1 0x6 PUSH1 0x20 MSTORE PUSH1 0x40 DUP2 KECCAK256 DUP1 SLOAD PUSH2 0xB6D SWAP1 PUSH2 0x1A54 JUMP JUMPDEST DUP1 PUSH1 0x1F ADD PUSH1 0x20 DUP1 SWAP2 DIV MUL PUSH1 0x20 ADD PUSH1 0x40 MLOAD SWAP1 DUP2 ADD PUSH1 0x40 MSTORE DUP1 SWAP3 SWAP2 SWAP1 DUP2 DUP2 MSTORE PUSH1 0x20 ADD DUP3 DUP1 SLOAD PUSH2 0xB99 SWAP1 PUSH2 0x1A54 JUMP JUMPDEST DUP1 ISZERO PUSH2 0xBE6 JUMPI DUP1 PUSH1 0x1F LT PUSH2 0xBBB JUMPI PUSH2 0x100 DUP1 DUP4 SLOAD DIV MUL DUP4 MSTORE SWAP2 PUSH1 0x20 ADD SWAP2 PUSH2 0xBE6 JUMP JUMPDEST DUP3 ADD SWAP2 SWAP1 PUSH1 0x0 MSTORE PUSH1 0x20 PUSH1 0x0 KECCAK256 SWAP1 JUMPDEST DUP2 SLOAD DUP2 MSTORE SWAP1 PUSH1 0x1 ADD SWAP1 PUSH1 0x20 ADD DUP1 DUP4 GT PUSH2 0xBC9 JUMPI DUP3 SWAP1 SUB PUSH1 0x1F AND DUP3 ADD SWAP2 JUMPDEST POP POP POP POP POP SWAP1 POP PUSH1 0x0 PUSH2 0xC04 PUSH1 0x40 DUP1 MLOAD PUSH1 0x20 DUP2 ADD SWAP1 SWAP2 MSTORE PUSH1 0x0 DUP2 MSTORE SWAP1 JUMP JUMPDEST SWAP1 POP DUP1 MLOAD PUSH1 0x0 SUB PUSH2 0xC16 JUMPI POP SWAP3 SWAP2 POP POP JUMP JUMPDEST DUP2 MLOAD ISZERO PUSH2 0xC48 JUMPI DUP1 DUP3 PUSH1 0x40 MLOAD PUSH1 0x20 ADD PUSH2 0xC30 SWAP3 SWAP2 SWAP1 PUSH2 0x1B8C JUMP JUMPDEST PUSH1 0x40 MLOAD PUSH1 0x20 DUP2 DUP4 SUB SUB DUP2 MSTORE SWAP1 PUSH1 0x40 MSTORE SWAP3 POP POP POP SWAP2 SWAP1 POP JUMP JUMPDEST PUSH2 0xC51 DUP5 PUSH2 0x122D JUMP JUMPDEST SWAP5 SWAP4 POP POP POP POP JUMP JUMPDEST PUSH1 0x7 SLOAD PUSH1 0x1 PUSH1 0x1 PUSH1 0xA0 SHL SUB AND CALLER EQ PUSH2 0xCB3 JUMPI PUSH1 0x40 MLOAD PUSH3 0x461BCD PUSH1 0xE5 SHL DUP2 MSTORE PUSH1 0x20 PUSH1 0x4 DUP3 ADD DUP2 SWAP1 MSTORE PUSH1 0x24 DUP3 ADD MSTORE PUSH32 0x4F776E61626C653A2063616C6C6572206973206E6F7420746865206F776E6572 PUSH1 0x44 DUP3 ADD MSTORE PUSH1 0x64 ADD PUSH2 0x45C JUMP JUMPDEST PUSH1 0x1 PUSH1 0x1 PUSH1 0xA0 SHL SUB DUP2 AND PUSH2 0xD18 JUMPI PUSH1 0x40 MLOAD PUSH3 0x461BCD PUSH1 0xE5 SHL DUP2 MSTORE PUSH1 0x20 PUSH1 0x4 DUP3 ADD MSTORE PUSH1 0x26 PUSH1 0x24 DUP3 ADD MSTORE PUSH32 0x4F776E61626C653A206E6577206F776E657220697320746865207A65726F2061 PUSH1 0x44 DUP3 ADD MSTORE PUSH6 0x646472657373 PUSH1 0xD0 SHL PUSH1 0x64 DUP3 ADD MSTORE PUSH1 0x84 ADD PUSH2 0x45C JUMP JUMPDEST PUSH2 0xD21 DUP2 PUSH2 0x10DA JUMP JUMPDEST POP JUMP JUMPDEST PUSH1 0x0 SWAP1 DUP2 MSTORE PUSH1 0x2 PUSH1 0x20 MSTORE PUSH1 0x40 SWAP1 KECCAK256 SLOAD PUSH1 0x1 PUSH1 0x1 PUSH1 0xA0 SHL SUB AND ISZERO ISZERO SWAP1 JUMP JUMPDEST PUSH1 0x0 DUP2 DUP2 MSTORE PUSH1 0x4 PUSH1 0x20 MSTORE PUSH1 0x40 SWAP1 KECCAK256 DUP1 SLOAD PUSH1 0x1 PUSH1 0x1 PUSH1 0xA0 SHL SUB NOT AND PUSH1 0x1 PUSH1 0x1 PUSH1 0xA0 SHL SUB DUP5 AND SWAP1 DUP2 OR SWAP1 SWAP2 SSTORE DUP2 SWAP1 PUSH2 0xD76 DUP3 PUSH2 0x5E2 JUMP JUMPDEST PUSH1 0x1 PUSH1 0x1 PUSH1 0xA0 SHL SUB AND PUSH32 0x8C5BE1E5EBEC7D5BD14F71427D1E84F3DD0314C0F7B2291E5B200AC8C7C3B925 PUSH1 0x40 MLOAD PUSH1 0x40 MLOAD DUP1 SWAP2 SUB SWAP1 LOG4 POP POP JUMP JUMPDEST PUSH1 0x0 PUSH2 0xDBA DUP3 PUSH2 0xD24 JUMP JUMPDEST PUSH2 0xE1B JUMPI PUSH1 0x40 MLOAD PUSH3 0x461BCD PUSH1 0xE5 SHL DUP2 MSTORE PUSH1 0x20 PUSH1 0x4 DUP3 ADD MSTORE PUSH1 0x2C PUSH1 0x24 DUP3 ADD MSTORE PUSH32 0x4552433732313A206F70657261746F7220717565727920666F72206E6F6E6578 PUSH1 0x44 DUP3 ADD MSTORE PUSH12 0x34B9BA32B73A103A37B5B2B7 PUSH1 0xA1 SHL PUSH1 0x64 DUP3 ADD MSTORE PUSH1 0x84 ADD PUSH2 0x45C JUMP JUMPDEST PUSH1 0x0 PUSH2 0xE26 DUP4 PUSH2 0x5E2 JUMP JUMPDEST SWAP1 POP DUP1 PUSH1 0x1 PUSH1 0x1 PUSH1 0xA0 SHL SUB AND DUP5 PUSH1 0x1 PUSH1 0x1 PUSH1 0xA0 SHL SUB AND EQ DUP1 PUSH2 0xE61 JUMPI POP DUP4 PUSH1 0x1 PUSH1 0x1 PUSH1 0xA0 SHL SUB AND PUSH2 0xE56 DUP5 PUSH2 0x3F4 JUMP JUMPDEST PUSH1 0x1 PUSH1 0x1 PUSH1 0xA0 SHL SUB AND EQ JUMPDEST DUP1 PUSH2 0xC51 JUMPI POP PUSH1 0x1 PUSH1 0x1 PUSH1 0xA0 SHL SUB DUP1 DUP3 AND PUSH1 0x0 SWAP1 DUP2 MSTORE PUSH1 0x5 PUSH1 0x20 SWAP1 DUP2 MSTORE PUSH1 0x40 DUP1 DUP4 KECCAK256 SWAP4 DUP9 AND DUP4 MSTORE SWAP3 SWAP1 MSTORE KECCAK256 SLOAD PUSH1 0xFF AND PUSH2 0xC51 JUMP JUMPDEST DUP3 PUSH1 0x1 PUSH1 0x1 PUSH1 0xA0 SHL SUB AND PUSH2 0xEA8 DUP3 PUSH2 0x5E2 JUMP JUMPDEST PUSH1 0x1 PUSH1 0x1 PUSH1 0xA0 SHL SUB AND EQ PUSH2 0xF10 JUMPI PUSH1 0x40 MLOAD PUSH3 0x461BCD PUSH1 0xE5 SHL DUP2 MSTORE PUSH1 0x20 PUSH1 0x4 DUP3 ADD MSTORE PUSH1 0x29 PUSH1 0x24 DUP3 ADD MSTORE PUSH32 0x4552433732313A207472616E73666572206F6620746F6B656E20746861742069 PUSH1 0x44 DUP3 ADD MSTORE PUSH9 0x39903737BA1037BBB7 PUSH1 0xB9 SHL PUSH1 0x64 DUP3 ADD MSTORE PUSH1 0x84 ADD PUSH2 0x45C JUMP JUMPDEST PUSH1 0x1 PUSH1 0x1 PUSH1 0xA0 SHL SUB DUP3 AND PUSH2 0xF72 JUMPI PUSH1 0x40 MLOAD PUSH3 0x461BCD PUSH1 0xE5 SHL DUP2 MSTORE PUSH1 0x20 PUSH1 0x4 DUP3 ADD MSTORE PUSH1 0x24 DUP1 DUP3 ADD MSTORE PUSH32 0x4552433732313A207472616E7366657220746F20746865207A65726F20616464 PUSH1 0x44 DUP3 ADD MSTORE PUSH4 0x72657373 PUSH1 0xE0 SHL PUSH1 0x64 DUP3 ADD MSTORE PUSH1 0x84 ADD PUSH2 0x45C JUMP JUMPDEST PUSH2 0xF7D PUSH1 0x0 DUP3 PUSH2 0xD41 JUMP JUMPDEST PUSH1 0x1 PUSH1 0x1 PUSH1 0xA0 SHL SUB DUP4 AND PUSH1 0x0 SWAP1 DUP2 MSTORE PUSH1 0x3 PUSH1 0x20 MSTORE PUSH1 0x40 DUP2 KECCAK256 DUP1 SLOAD PUSH1 0x1 SWAP3 SWAP1 PUSH2 0xFA6 SWAP1 DUP5 SWAP1 PUSH2 0x1BD1 JUMP JUMPDEST SWAP1 SWAP2 SSTORE POP POP PUSH1 0x1 PUSH1 0x1 PUSH1 0xA0 SHL SUB DUP3 AND PUSH1 0x0 SWAP1 DUP2 MSTORE PUSH1 0x3 PUSH1 0x20 MSTORE PUSH1 0x40 DUP2 KECCAK256 DUP1 SLOAD PUSH1 0x1 SWAP3 SWAP1 PUSH2 0xFD4 SWAP1 DUP5 SWAP1 PUSH2 0x1BE8 JUMP JUMPDEST SWAP1 SWAP2 SSTORE POP POP PUSH1 0x0 DUP2 DUP2 MSTORE PUSH1 0x2 PUSH1 0x20 MSTORE PUSH1 0x40 DUP1 DUP3 KECCAK256 DUP1 SLOAD PUSH1 0x1 PUSH1 0x1 PUSH1 0xA0 SHL SUB NOT AND PUSH1 0x1 PUSH1 0x1 PUSH1 0xA0 SHL SUB DUP7 DUP2 AND SWAP2 DUP3 OR SWAP1 SWAP3 SSTORE SWAP2 MLOAD DUP5 SWAP4 SWAP2 DUP8 AND SWAP2 PUSH32 0xDDF252AD1BE2C89B69C2B068FC378DAA952BA7F163C4A11628F55A4DF523B3EF SWAP2 LOG4 POP POP POP JUMP JUMPDEST PUSH2 0x9B2 DUP3 DUP3 PUSH1 0x40 MLOAD DUP1 PUSH1 0x20 ADD PUSH1 0x40 MSTORE DUP1 PUSH1 0x0 DUP2 MSTORE POP PUSH2 0x1305 JUMP JUMPDEST PUSH2 0x1058 DUP3 PUSH2 0xD24 JUMP JUMPDEST PUSH2 0x10BB JUMPI PUSH1 0x40 MLOAD PUSH3 0x461BCD PUSH1 0xE5 SHL DUP2 MSTORE PUSH1 0x20 PUSH1 0x4 DUP3 ADD MSTORE PUSH1 0x2E PUSH1 0x24 DUP3 ADD MSTORE PUSH32 0x45524337323155524953746F726167653A2055524920736574206F66206E6F6E PUSH1 0x44 DUP3 ADD MSTORE PUSH14 0x32BC34B9BA32B73A103A37B5B2B7 PUSH1 0x91 SHL PUSH1 0x64 DUP3 ADD MSTORE PUSH1 0x84 ADD PUSH2 0x45C JUMP JUMPDEST PUSH1 0x0 DUP3 DUP2 MSTORE PUSH1 0x6 PUSH1 0x20 SWAP1 DUP2 MSTORE PUSH1 0x40 SWAP1 SWAP2 KECCAK256 DUP3 MLOAD PUSH2 0x591 SWAP3 DUP5 ADD SWAP1 PUSH2 0x166D JUMP JUMPDEST PUSH1 0x7 DUP1 SLOAD PUSH1 0x1 PUSH1 0x1 PUSH1 0xA0 SHL SUB DUP4 DUP2 AND PUSH1 0x1 PUSH1 0x1 PUSH1 0xA0 SHL SUB NOT DUP4 AND DUP2 OR SWAP1 SWAP4 SSTORE PUSH1 0x40 MLOAD SWAP2 AND SWAP2 SWAP1 DUP3 SWAP1 PUSH32 0x8BE0079C531659141344CD1FD0A4F28419497F9722A3DAAFE3B4186F6B6457E0 SWAP1 PUSH1 0x0 SWAP1 LOG3 POP POP JUMP JUMPDEST DUP2 PUSH1 0x1 PUSH1 0x1 PUSH1 0xA0 SHL SUB AND DUP4 PUSH1 0x1 PUSH1 0x1 PUSH1 0xA0 SHL SUB AND SUB PUSH2 0x118D JUMPI PUSH1 0x40 MLOAD PUSH3 0x461BCD PUSH1 0xE5 SHL DUP2 MSTORE PUSH1 0x20 PUSH1 0x4 DUP3 ADD MSTORE PUSH1 0x19 PUSH1 0x24 DUP3 ADD MSTORE PUSH32 0x4552433732313A20617070726F766520746F2063616C6C657200000000000000 PUSH1 0x44 DUP3 ADD MSTORE PUSH1 0x64 ADD PUSH2 0x45C JUMP JUMPDEST PUSH1 0x1 PUSH1 0x1 PUSH1 0xA0 SHL SUB DUP4 DUP2 AND PUSH1 0x0 DUP2 DUP2 MSTORE PUSH1 0x5 PUSH1 0x20 SWAP1 DUP2 MSTORE PUSH1 0x40 DUP1 DUP4 KECCAK256 SWAP5 DUP8 AND DUP1 DUP5 MSTORE SWAP5 DUP3 MSTORE SWAP2 DUP3 SWAP1 KECCAK256 DUP1 SLOAD PUSH1 0xFF NOT AND DUP7 ISZERO ISZERO SWAP1 DUP2 OR SWAP1 SWAP2 SSTORE SWAP2 MLOAD SWAP2 DUP3 MSTORE PUSH32 0x17307EAB39AB6107E8899845AD3D59BD9653F200F220920489CA2B5937696C31 SWAP2 ADD PUSH1 0x40 MLOAD DUP1 SWAP2 SUB SWAP1 LOG3 POP POP POP JUMP JUMPDEST PUSH2 0x1205 DUP5 DUP5 DUP5 PUSH2 0xE95 JUMP JUMPDEST PUSH2 0x1211 DUP5 DUP5 DUP5 DUP5 PUSH2 0x1338 JUMP JUMPDEST PUSH2 0xADD JUMPI PUSH1 0x40 MLOAD PUSH3 0x461BCD PUSH1 0xE5 SHL DUP2 MSTORE PUSH1 0x4 ADD PUSH2 0x45C SWAP1 PUSH2 0x1C00 JUMP JUMPDEST PUSH1 0x60 PUSH2 0x1238 DUP3 PUSH2 0xD24 JUMP JUMPDEST PUSH2 0x129C JUMPI PUSH1 0x40 MLOAD PUSH3 0x461BCD PUSH1 0xE5 SHL DUP2 MSTORE PUSH1 0x20 PUSH1 0x4 DUP3 ADD MSTORE PUSH1 0x2F PUSH1 0x24 DUP3 ADD MSTORE PUSH32 0x4552433732314D657461646174613A2055524920717565727920666F72206E6F PUSH1 0x44 DUP3 ADD MSTORE PUSH15 0x3732BC34B9BA32B73A103A37B5B2B7 PUSH1 0x89 SHL PUSH1 0x64 DUP3 ADD MSTORE PUSH1 0x84 ADD PUSH2 0x45C JUMP JUMPDEST PUSH1 0x0 PUSH2 0x12B3 PUSH1 0x40 DUP1 MLOAD PUSH1 0x20 DUP2 ADD SWAP1 SWAP2 MSTORE PUSH1 0x0 DUP2 MSTORE SWAP1 JUMP JUMPDEST SWAP1 POP PUSH1 0x0 DUP2 MLOAD GT PUSH2 0x12D3 JUMPI PUSH1 0x40 MLOAD DUP1 PUSH1 0x20 ADD PUSH1 0x40 MSTORE DUP1 PUSH1 0x0 DUP2 MSTORE POP PUSH2 0x12FE JUMP JUMPDEST DUP1 PUSH2 0x12DD DUP5 PUSH2 0x1439 JUMP JUMPDEST PUSH1 0x40 MLOAD PUSH1 0x20 ADD PUSH2 0x12EE SWAP3 SWAP2 SWAP1 PUSH2 0x1B8C JUMP JUMPDEST PUSH1 0x40 MLOAD PUSH1 0x20 DUP2 DUP4 SUB SUB DUP2 MSTORE SWAP1 PUSH1 0x40 MSTORE JUMPDEST SWAP4 SWAP3 POP POP POP JUMP JUMPDEST PUSH2 0x130F DUP4 DUP4 PUSH2 0x153A JUMP JUMPDEST PUSH2 0x131C PUSH1 0x0 DUP5 DUP5 DUP5 PUSH2 0x1338 JUMP JUMPDEST PUSH2 0x591 JUMPI PUSH1 0x40 MLOAD PUSH3 0x461BCD PUSH1 0xE5 SHL DUP2 MSTORE PUSH1 0x4 ADD PUSH2 0x45C SWAP1 PUSH2 0x1C00 JUMP JUMPDEST PUSH1 0x0 PUSH1 0x1 PUSH1 0x1 PUSH1 0xA0 SHL SUB DUP5 AND EXTCODESIZE ISZERO PUSH2 0x142E JUMPI PUSH1 0x40 MLOAD PUSH4 0xA85BD01 PUSH1 0xE1 SHL DUP2 MSTORE PUSH1 0x1 PUSH1 0x1 PUSH1 0xA0 SHL SUB DUP6 AND SWAP1 PUSH4 0x150B7A02 SWAP1 PUSH2 0x137C SWAP1 CALLER SWAP1 DUP10 SWAP1 DUP9 SWAP1 DUP9 SWAP1 PUSH1 0x4 ADD PUSH2 0x1C52 JUMP JUMPDEST PUSH1 0x20 PUSH1 0x40 MLOAD DUP1 DUP4 SUB DUP2 PUSH1 0x0 DUP8 GAS CALL SWAP3 POP POP POP DUP1 ISZERO PUSH2 0x13B7 JUMPI POP PUSH1 0x40 DUP1 MLOAD PUSH1 0x1F RETURNDATASIZE SWAP1 DUP2 ADD PUSH1 0x1F NOT AND DUP3 ADD SWAP1 SWAP3 MSTORE PUSH2 0x13B4 SWAP2 DUP2 ADD SWAP1 PUSH2 0x1C8F JUMP JUMPDEST PUSH1 0x1 JUMPDEST PUSH2 0x1414 JUMPI RETURNDATASIZE DUP1 DUP1 ISZERO PUSH2 0x13E5 JUMPI PUSH1 0x40 MLOAD SWAP2 POP PUSH1 0x1F NOT PUSH1 0x3F RETURNDATASIZE ADD AND DUP3 ADD PUSH1 0x40 MSTORE RETURNDATASIZE DUP3 MSTORE RETURNDATASIZE PUSH1 0x0 PUSH1 0x20 DUP5 ADD RETURNDATACOPY PUSH2 0x13EA JUMP JUMPDEST PUSH1 0x60 SWAP2 POP JUMPDEST POP DUP1 MLOAD PUSH1 0x0 SUB PUSH2 0x140C JUMPI PUSH1 0x40 MLOAD PUSH3 0x461BCD PUSH1 0xE5 SHL DUP2 MSTORE PUSH1 0x4 ADD PUSH2 0x45C SWAP1 PUSH2 0x1C00 JUMP JUMPDEST DUP1 MLOAD DUP2 PUSH1 0x20 ADD REVERT JUMPDEST PUSH1 0x1 PUSH1 0x1 PUSH1 0xE0 SHL SUB NOT AND PUSH4 0xA85BD01 PUSH1 0xE1 SHL EQ SWAP1 POP PUSH2 0xC51 JUMP JUMPDEST POP PUSH1 0x1 SWAP5 SWAP4 POP POP POP POP JUMP JUMPDEST PUSH1 0x60 DUP2 PUSH1 0x0 SUB PUSH2 0x1460 JUMPI POP POP PUSH1 0x40 DUP1 MLOAD DUP1 DUP3 ADD SWAP1 SWAP2 MSTORE PUSH1 0x1 DUP2 MSTORE PUSH1 0x3 PUSH1 0xFC SHL PUSH1 0x20 DUP3 ADD MSTORE SWAP1 JUMP JUMPDEST DUP2 PUSH1 0x0 JUMPDEST DUP2 ISZERO PUSH2 0x148A JUMPI DUP1 PUSH2 0x1474 DUP2 PUSH2 0x1CAC JUMP JUMPDEST SWAP2 POP PUSH2 0x1483 SWAP1 POP PUSH1 0xA DUP4 PUSH2 0x1CDB JUMP JUMPDEST SWAP2 POP PUSH2 0x1464 JUMP JUMPDEST PUSH1 0x0 DUP2 PUSH8 0xFFFFFFFFFFFFFFFF DUP2 GT ISZERO PUSH2 0x14A5 JUMPI PUSH2 0x14A5 PUSH2 0x183F JUMP JUMPDEST PUSH1 0x40 MLOAD SWAP1 DUP1 DUP3 MSTORE DUP1 PUSH1 0x1F ADD PUSH1 0x1F NOT AND PUSH1 0x20 ADD DUP3 ADD PUSH1 0x40 MSTORE DUP1 ISZERO PUSH2 0x14CF JUMPI PUSH1 0x20 DUP3 ADD DUP2 DUP1 CALLDATASIZE DUP4 CALLDATACOPY ADD SWAP1 POP JUMPDEST POP SWAP1 POP JUMPDEST DUP5 ISZERO PUSH2 0xC51 JUMPI PUSH2 0x14E4 PUSH1 0x1 DUP4 PUSH2 0x1BD1 JUMP JUMPDEST SWAP2 POP PUSH2 0x14F1 PUSH1 0xA DUP7 PUSH2 0x1CEF JUMP JUMPDEST PUSH2 0x14FC SWAP1 PUSH1 0x30 PUSH2 0x1BE8 JUMP JUMPDEST PUSH1 0xF8 SHL DUP2 DUP4 DUP2 MLOAD DUP2 LT PUSH2 0x1511 JUMPI PUSH2 0x1511 PUSH2 0x1D03 JUMP JUMPDEST PUSH1 0x20 ADD ADD SWAP1 PUSH1 0x1 PUSH1 0x1 PUSH1 0xF8 SHL SUB NOT AND SWAP1 DUP2 PUSH1 0x0 BYTE SWAP1 MSTORE8 POP PUSH2 0x1533 PUSH1 0xA DUP7 PUSH2 0x1CDB JUMP JUMPDEST SWAP5 POP PUSH2 0x14D3 JUMP JUMPDEST PUSH1 0x1 PUSH1 0x1 PUSH1 0xA0 SHL SUB DUP3 AND PUSH2 0x1590 JUMPI PUSH1 0x40 MLOAD PUSH3 0x461BCD PUSH1 0xE5 SHL DUP2 MSTORE PUSH1 0x20 PUSH1 0x4 DUP3 ADD DUP2 SWAP1 MSTORE PUSH1 0x24 DUP3 ADD MSTORE PUSH32 0x4552433732313A206D696E7420746F20746865207A65726F2061646472657373 PUSH1 0x44 DUP3 ADD MSTORE PUSH1 0x64 ADD PUSH2 0x45C JUMP JUMPDEST PUSH2 0x1599 DUP2 PUSH2 0xD24 JUMP JUMPDEST ISZERO PUSH2 0x15E6 JUMPI PUSH1 0x40 MLOAD PUSH3 0x461BCD PUSH1 0xE5 SHL DUP2 MSTORE PUSH1 0x20 PUSH1 0x4 DUP3 ADD MSTORE PUSH1 0x1C PUSH1 0x24 DUP3 ADD MSTORE PUSH32 0x4552433732313A20746F6B656E20616C7265616479206D696E74656400000000 PUSH1 0x44 DUP3 ADD MSTORE PUSH1 0x64 ADD PUSH2 0x45C JUMP JUMPDEST PUSH1 0x1 PUSH1 0x1 PUSH1 0xA0 SHL SUB DUP3 AND PUSH1 0x0 SWAP1 DUP2 MSTORE PUSH1 0x3 PUSH1 0x20 MSTORE PUSH1 0x40 DUP2 KECCAK256 DUP1 SLOAD PUSH1 0x1 SWAP3 SWAP1 PUSH2 0x160F SWAP1 DUP5 SWAP1 PUSH2 0x1BE8 JUMP JUMPDEST SWAP1 SWAP2 SSTORE POP POP PUSH1 0x0 DUP2 DUP2 MSTORE PUSH1 0x2 PUSH1 0x20 MSTORE PUSH1 0x40 DUP1 DUP3 KECCAK256 DUP1 SLOAD PUSH1 0x1 PUSH1 0x1 PUSH1 0xA0 SHL SUB NOT AND PUSH1 0x1 PUSH1 0x1 PUSH1 0xA0 SHL SUB DUP7 AND SWAP1 DUP2 OR SWAP1 SWAP2 SSTORE SWAP1 MLOAD DUP4 SWAP3 SWAP1 PUSH32 0xDDF252AD1BE2C89B69C2B068FC378DAA952BA7F163C4A11628F55A4DF523B3EF SWAP1 DUP3 SWAP1 LOG4 POP POP JUMP JUMPDEST DUP3 DUP1 SLOAD PUSH2 0x1679 SWAP1 PUSH2 0x1A54 JUMP JUMPDEST SWAP1 PUSH1 0x0 MSTORE PUSH1 0x20 PUSH1 0x0 KECCAK256 SWAP1 PUSH1 0x1F ADD PUSH1 0x20 SWAP1 DIV DUP2 ADD SWAP3 DUP3 PUSH2 0x169B JUMPI PUSH1 0x0 DUP6 SSTORE PUSH2 0x16E1 JUMP JUMPDEST DUP3 PUSH1 0x1F LT PUSH2 0x16B4 JUMPI DUP1 MLOAD PUSH1 0xFF NOT AND DUP4 DUP1 ADD OR DUP6 SSTORE PUSH2 0x16E1 JUMP JUMPDEST DUP3 DUP1 ADD PUSH1 0x1 ADD DUP6 SSTORE DUP3 ISZERO PUSH2 0x16E1 JUMPI SWAP2 DUP3 ADD JUMPDEST DUP3 DUP2 GT ISZERO PUSH2 0x16E1 JUMPI DUP3 MLOAD DUP3 SSTORE SWAP2 PUSH1 0x20 ADD SWAP2 SWAP1 PUSH1 0x1 ADD SWAP1 PUSH2 0x16C6 JUMP JUMPDEST POP PUSH2 0x16ED SWAP3 SWAP2 POP PUSH2 0x16F1 JUMP JUMPDEST POP SWAP1 JUMP JUMPDEST JUMPDEST DUP1 DUP3 GT ISZERO PUSH2 0x16ED JUMPI PUSH1 0x0 DUP2 SSTORE PUSH1 0x1 ADD PUSH2 0x16F2 JUMP JUMPDEST PUSH1 0x1 PUSH1 0x1 PUSH1 0xE0 SHL SUB NOT DUP2 AND DUP2 EQ PUSH2 0xD21 JUMPI PUSH1 0x0 DUP1 REVERT JUMPDEST PUSH1 0x0 PUSH1 0x20 DUP3 DUP5 SUB SLT ISZERO PUSH2 0x172E JUMPI PUSH1 0x0 DUP1 REVERT JUMPDEST DUP2 CALLDATALOAD PUSH2 0x12FE DUP2 PUSH2 0x1706 JUMP JUMPDEST PUSH1 0x0 JUMPDEST DUP4 DUP2 LT ISZERO PUSH2 0x1754 JUMPI DUP2 DUP2 ADD MLOAD DUP4 DUP3 ADD MSTORE PUSH1 0x20 ADD PUSH2 0x173C JUMP JUMPDEST DUP4 DUP2 GT ISZERO PUSH2 0xADD JUMPI POP POP PUSH1 0x0 SWAP2 ADD MSTORE JUMP JUMPDEST PUSH1 0x0 DUP2 MLOAD DUP1 DUP5 MSTORE PUSH2 0x177D DUP2 PUSH1 0x20 DUP7 ADD PUSH1 0x20 DUP7 ADD PUSH2 0x1739 JUMP JUMPDEST PUSH1 0x1F ADD PUSH1 0x1F NOT AND SWAP3 SWAP1 SWAP3 ADD PUSH1 0x20 ADD SWAP3 SWAP2 POP POP JUMP JUMPDEST PUSH1 0x20 DUP2 MSTORE PUSH1 0x0 PUSH2 0x12FE PUSH1 0x20 DUP4 ADD DUP5 PUSH2 0x1765 JUMP JUMPDEST PUSH1 0x0 PUSH1 0x20 DUP3 DUP5 SUB SLT ISZERO PUSH2 0x17B6 JUMPI PUSH1 0x0 DUP1 REVERT JUMPDEST POP CALLDATALOAD SWAP2 SWAP1 POP JUMP JUMPDEST DUP1 CALLDATALOAD PUSH1 0x1 PUSH1 0x1 PUSH1 0xA0 SHL SUB DUP2 AND DUP2 EQ PUSH2 0x17D4 JUMPI PUSH1 0x0 DUP1 REVERT JUMPDEST SWAP2 SWAP1 POP JUMP JUMPDEST PUSH1 0x0 DUP1 PUSH1 0x40 DUP4 DUP6 SUB SLT ISZERO PUSH2 0x17EC JUMPI PUSH1 0x0 DUP1 REVERT JUMPDEST PUSH2 0x17F5 DUP4 PUSH2 0x17BD JUMP JUMPDEST SWAP5 PUSH1 0x20 SWAP4 SWAP1 SWAP4 ADD CALLDATALOAD SWAP4 POP POP POP JUMP JUMPDEST PUSH1 0x0 DUP1 PUSH1 0x0 PUSH1 0x60 DUP5 DUP7 SUB SLT ISZERO PUSH2 0x1818 JUMPI PUSH1 0x0 DUP1 REVERT JUMPDEST PUSH2 0x1821 DUP5 PUSH2 0x17BD JUMP JUMPDEST SWAP3 POP PUSH2 0x182F PUSH1 0x20 DUP6 ADD PUSH2 0x17BD JUMP JUMPDEST SWAP2 POP PUSH1 0x40 DUP5 ADD CALLDATALOAD SWAP1 POP SWAP3 POP SWAP3 POP SWAP3 JUMP JUMPDEST PUSH4 0x4E487B71 PUSH1 0xE0 SHL PUSH1 0x0 MSTORE PUSH1 0x41 PUSH1 0x4 MSTORE PUSH1 0x24 PUSH1 0x0 REVERT JUMPDEST PUSH1 0x40 MLOAD PUSH1 0x1F DUP3 ADD PUSH1 0x1F NOT AND DUP2 ADD PUSH8 0xFFFFFFFFFFFFFFFF DUP2 GT DUP3 DUP3 LT OR ISZERO PUSH2 0x187E JUMPI PUSH2 0x187E PUSH2 0x183F JUMP JUMPDEST PUSH1 0x40 MSTORE SWAP2 SWAP1 POP JUMP JUMPDEST PUSH1 0x0 PUSH8 0xFFFFFFFFFFFFFFFF DUP3 GT ISZERO PUSH2 0x18A0 JUMPI PUSH2 0x18A0 PUSH2 0x183F JUMP JUMPDEST POP PUSH1 0x1F ADD PUSH1 0x1F NOT AND PUSH1 0x20 ADD SWAP1 JUMP JUMPDEST PUSH1 0x0 PUSH2 0x18C1 PUSH2 0x18BC DUP5 PUSH2 0x1886 JUMP JUMPDEST PUSH2 0x1855 JUMP JUMPDEST SWAP1 POP DUP3 DUP2 MSTORE DUP4 DUP4 DUP4 ADD GT ISZERO PUSH2 0x18D5 JUMPI PUSH1 0x0 DUP1 REVERT JUMPDEST DUP3 DUP3 PUSH1 0x20 DUP4 ADD CALLDATACOPY PUSH1 0x0 PUSH1 0x20 DUP5 DUP4 ADD ADD MSTORE SWAP4 SWAP3 POP POP POP JUMP JUMPDEST PUSH1 0x0 DUP1 PUSH1 0x40 DUP4 DUP6 SUB SLT ISZERO PUSH2 0x18FF JUMPI PUSH1 0x0 DUP1 REVERT JUMPDEST DUP3 CALLDATALOAD PUSH8 0xFFFFFFFFFFFFFFFF DUP2 GT ISZERO PUSH2 0x1916 JUMPI PUSH1 0x0 DUP1 REVERT JUMPDEST DUP4 ADD PUSH1 0x1F DUP2 ADD DUP6 SGT PUSH2 0x1927 JUMPI PUSH1 0x0 DUP1 REVERT JUMPDEST PUSH2 0x1936 DUP6 DUP3 CALLDATALOAD PUSH1 0x20 DUP5 ADD PUSH2 0x18AE JUMP JUMPDEST SWAP3 POP POP PUSH2 0x1945 PUSH1 0x20 DUP5 ADD PUSH2 0x17BD JUMP JUMPDEST SWAP1 POP SWAP3 POP SWAP3 SWAP1 POP JUMP JUMPDEST PUSH1 0x0 PUSH1 0x20 DUP3 DUP5 SUB SLT ISZERO PUSH2 0x1960 JUMPI PUSH1 0x0 DUP1 REVERT JUMPDEST PUSH2 0x12FE DUP3 PUSH2 0x17BD JUMP JUMPDEST DUP1 ISZERO ISZERO DUP2 EQ PUSH2 0xD21 JUMPI PUSH1 0x0 DUP1 REVERT JUMPDEST PUSH1 0x0 DUP1 PUSH1 0x40 DUP4 DUP6 SUB SLT ISZERO PUSH2 0x198A JUMPI PUSH1 0x0 DUP1 REVERT JUMPDEST PUSH2 0x1993 DUP4 PUSH2 0x17BD JUMP JUMPDEST SWAP2 POP PUSH1 0x20 DUP4 ADD CALLDATALOAD PUSH2 0x19A3 DUP2 PUSH2 0x1969 JUMP JUMPDEST DUP1 SWAP2 POP POP SWAP3 POP SWAP3 SWAP1 POP JUMP JUMPDEST PUSH1 0x0 DUP1 PUSH1 0x0 DUP1 PUSH1 0x80 DUP6 DUP8 SUB SLT ISZERO PUSH2 0x19C4 JUMPI PUSH1 0x0 DUP1 REVERT JUMPDEST PUSH2 0x19CD DUP6 PUSH2 0x17BD JUMP JUMPDEST SWAP4 POP PUSH2 0x19DB PUSH1 0x20 DUP7 ADD PUSH2 0x17BD JUMP JUMPDEST SWAP3 POP PUSH1 0x40 DUP6 ADD CALLDATALOAD SWAP2 POP PUSH1 0x60 DUP6 ADD CALLDATALOAD PUSH8 0xFFFFFFFFFFFFFFFF DUP2 GT ISZERO PUSH2 0x19FE JUMPI PUSH1 0x0 DUP1 REVERT JUMPDEST DUP6 ADD PUSH1 0x1F DUP2 ADD DUP8 SGT PUSH2 0x1A0F JUMPI PUSH1 0x0 DUP1 REVERT JUMPDEST PUSH2 0x1A1E DUP8 DUP3 CALLDATALOAD PUSH1 0x20 DUP5 ADD PUSH2 0x18AE JUMP JUMPDEST SWAP2 POP POP SWAP3 SWAP6 SWAP2 SWAP5 POP SWAP3 POP JUMP JUMPDEST PUSH1 0x0 DUP1 PUSH1 0x40 DUP4 DUP6 SUB SLT ISZERO PUSH2 0x1A3D JUMPI PUSH1 0x0 DUP1 REVERT JUMPDEST PUSH2 0x1A46 DUP4 PUSH2 0x17BD JUMP JUMPDEST SWAP2 POP PUSH2 0x1945 PUSH1 0x20 DUP5 ADD PUSH2 0x17BD JUMP JUMPDEST PUSH1 0x1 DUP2 DUP2 SHR SWAP1 DUP3 AND DUP1 PUSH2 0x1A68 JUMPI PUSH1 0x7F DUP3 AND SWAP2 POP JUMPDEST PUSH1 0x20 DUP3 LT DUP2 SUB PUSH2 0x1A88 JUMPI PUSH4 0x4E487B71 PUSH1 0xE0 SHL PUSH1 0x0 MSTORE PUSH1 0x22 PUSH1 0x4 MSTORE PUSH1 0x24 PUSH1 0x0 REVERT JUMPDEST POP SWAP2 SWAP1 POP JUMP JUMPDEST PUSH1 0x20 DUP1 DUP3 MSTORE PUSH1 0x31 SWAP1 DUP3 ADD MSTORE PUSH32 0x4552433732313A207472616E736665722063616C6C6572206973206E6F74206F PUSH1 0x40 DUP3 ADD MSTORE PUSH17 0x1DDB995C881B9BDC88185C1C1C9BDD9959 PUSH1 0x7A SHL PUSH1 0x60 DUP3 ADD MSTORE PUSH1 0x80 ADD SWAP1 JUMP JUMPDEST PUSH1 0x0 PUSH1 0x20 DUP3 DUP5 SUB SLT ISZERO PUSH2 0x1AF1 JUMPI PUSH1 0x0 DUP1 REVERT JUMPDEST DUP2 MLOAD PUSH2 0x12FE DUP2 PUSH2 0x1969 JUMP JUMPDEST PUSH1 0x0 PUSH1 0x20 DUP3 DUP5 SUB SLT ISZERO PUSH2 0x1B0E JUMPI PUSH1 0x0 DUP1 REVERT JUMPDEST POP MLOAD SWAP2 SWAP1 POP JUMP JUMPDEST PUSH1 0x0 PUSH1 0x20 DUP3 DUP5 SUB SLT ISZERO PUSH2 0x1B27 JUMPI PUSH1 0x0 DUP1 REVERT JUMPDEST DUP2 MLOAD PUSH8 0xFFFFFFFFFFFFFFFF DUP2 GT ISZERO PUSH2 0x1B3E JUMPI PUSH1 0x0 DUP1 REVERT JUMPDEST DUP3 ADD PUSH1 0x1F DUP2 ADD DUP5 SGT PUSH2 0x1B4F JUMPI PUSH1 0x0 DUP1 REVERT JUMPDEST DUP1 MLOAD PUSH2 0x1B5D PUSH2 0x18BC DUP3 PUSH2 0x1886 JUMP JUMPDEST DUP2 DUP2 MSTORE DUP6 PUSH1 0x20 DUP4 DUP6 ADD ADD GT ISZERO PUSH2 0x1B72 JUMPI PUSH1 0x0 DUP1 REVERT JUMPDEST PUSH2 0x1B83 DUP3 PUSH1 0x20 DUP4 ADD PUSH1 0x20 DUP7 ADD PUSH2 0x1739 JUMP JUMPDEST SWAP6 SWAP5 POP POP POP POP POP JUMP JUMPDEST PUSH1 0x0 DUP4 MLOAD PUSH2 0x1B9E DUP2 DUP5 PUSH1 0x20 DUP9 ADD PUSH2 0x1739 JUMP JUMPDEST DUP4 MLOAD SWAP1 DUP4 ADD SWAP1 PUSH2 0x1BB2 DUP2 DUP4 PUSH1 0x20 DUP9 ADD PUSH2 0x1739 JUMP JUMPDEST ADD SWAP5 SWAP4 POP POP POP POP JUMP JUMPDEST PUSH4 0x4E487B71 PUSH1 0xE0 SHL PUSH1 0x0 MSTORE PUSH1 0x11 PUSH1 0x4 MSTORE PUSH1 0x24 PUSH1 0x0 REVERT JUMPDEST PUSH1 0x0 DUP3 DUP3 LT ISZERO PUSH2 0x1BE3 JUMPI PUSH2 0x1BE3 PUSH2 0x1BBB JUMP JUMPDEST POP SUB SWAP1 JUMP JUMPDEST PUSH1 0x0 DUP3 NOT DUP3 GT ISZERO PUSH2 0x1BFB JUMPI PUSH2 0x1BFB PUSH2 0x1BBB JUMP JUMPDEST POP ADD SWAP1 JUMP JUMPDEST PUSH1 0x20 DUP1 DUP3 MSTORE PUSH1 0x32 SWAP1 DUP3 ADD MSTORE PUSH32 0x4552433732313A207472616E7366657220746F206E6F6E204552433732315265 PUSH1 0x40 DUP3 ADD MSTORE PUSH18 0x31B2B4BB32B91034B6B83632B6B2B73A32B9 PUSH1 0x71 SHL PUSH1 0x60 DUP3 ADD MSTORE PUSH1 0x80 ADD SWAP1 JUMP JUMPDEST PUSH1 0x1 PUSH1 0x1 PUSH1 0xA0 SHL SUB DUP6 DUP2 AND DUP3 MSTORE DUP5 AND PUSH1 0x20 DUP3 ADD MSTORE PUSH1 0x40 DUP2 ADD DUP4 SWAP1 MSTORE PUSH1 0x80 PUSH1 0x60 DUP3 ADD DUP2 SWAP1 MSTORE PUSH1 0x0 SWAP1 PUSH2 0x1C85 SWAP1 DUP4 ADD DUP5 PUSH2 0x1765 JUMP JUMPDEST SWAP7 SWAP6 POP POP POP POP POP POP JUMP JUMPDEST PUSH1 0x0 PUSH1 0x20 DUP3 DUP5 SUB SLT ISZERO PUSH2 0x1CA1 JUMPI PUSH1 0x0 DUP1 REVERT JUMPDEST DUP2 MLOAD PUSH2 0x12FE DUP2 PUSH2 0x1706 JUMP JUMPDEST PUSH1 0x0 PUSH1 0x1 DUP3 ADD PUSH2 0x1CBE JUMPI PUSH2 0x1CBE PUSH2 0x1BBB JUMP JUMPDEST POP PUSH1 0x1 ADD SWAP1 JUMP JUMPDEST PUSH4 0x4E487B71 PUSH1 0xE0 SHL PUSH1 0x0 MSTORE PUSH1 0x12 PUSH1 0x4 MSTORE PUSH1 0x24 PUSH1 0x0 REVERT JUMPDEST PUSH1 0x0 DUP3 PUSH2 0x1CEA JUMPI PUSH2 0x1CEA PUSH2 0x1CC5 JUMP JUMPDEST POP DIV SWAP1 JUMP JUMPDEST PUSH1 0x0 DUP3 PUSH2 0x1CFE JUMPI PUSH2 0x1CFE PUSH2 0x1CC5 JUMP JUMPDEST POP MOD SWAP1 JUMP JUMPDEST PUSH4 0x4E487B71 PUSH1 0xE0 SHL PUSH1 0x0 MSTORE PUSH1 0x32 PUSH1 0x4 MSTORE PUSH1 0x24 PUSH1 0x0 REVERT INVALID LOG2 PUSH5 0x6970667358 0x22 SLT KECCAK256 EXTCODECOPY DIV NOT SDIV 0xFC CALLDATALOAD ADD DUP15 RETURN 0x4C PUSH11 0x1A03D0CBAACD8044A843A3 RETURN 0xC JUMPDEST 0xDE 0xD2 0xD0 CALLVALUE KECCAK256 PUSH20 0x6864736F6C634300080D00330000000000000000 ","sha1":"8abfa83d436399a51ef84b771b95b078c181223f","source":"// SPDX-License-Identifier: MIT\npragma solidity ^0.8.0;\n\nimport \"@openzeppelin/contracts/token/ERC721/extensions/ERC721URIStorage.sol\";\nimport \"@openzeppelin/contracts/utils/Counters.sol\";\nimport \"@openzeppelin/contracts/access/Ownable.sol\";\n\ninterface IeventLog {\n    function _isWinner(uint256 _eventId, address _userAddress) external view returns (bool);\n    function _getNumberOfTickets(uint256 _eventId) external view returns (uint256);\n    function _getEventName(uint256 _eventId) external view returns (string memory);\n}\n\ncontract TicketMinter is ERC721URIStorage, Ownable{\n    using Counters for Counters.Counter;\n    Counters.Counter private _tokenIds;\n    uint256 public newTokenId;\n    string public eventName;\n    uint256 public numberOfTickets;\n    uint256 public _eventId;\n\n    constructor() ERC721(\"RockPaperTicket\", \"RPT\"){\n        newTokenId = 1;\n    }\n\n    function getEventData (address _eventAddress) public {\n        numberOfTickets = IeventLog(_eventAddress)._getNumberOfTickets(_eventId);\n        eventName = IeventLog(_eventAddress)._getEventName(_eventId);\n    }\n\n    function mintTicket(string memory tokenURI, address _eventAddress) public returns (uint256) {\n        _tokenIds.increment();\n        newTokenId = _tokenIds.current();\n        require(newTokenId <= numberOfTickets, \"All Tickets have been sold out!\");\n        require(IeventLog(_eventAddress)._isWinner(_eventId, msg.sender) == true, \"You are not qualified to receive a ticket.\");\n        require(balanceOf(msg.sender) == 0, 'Each player may only own one ticket');\n        _safeMint(msg.sender, newTokenId);\n        _setTokenURI(newTokenId, tokenURI);\n        return newTokenId;\n    }\n}","sourcePath":"contracts/TicketMinter.sol","deployment":{"address":"0xdd26E0fdA35ae0F7f6B9557F6870799742682A7e","chainid":"42","blockHeight":31787321}}