{
  "_format": "hh-sol-artifact-1",
  "contractName": "EventLog",
  "sourceName": "contracts/eventLog.sol",
  "abi": [
    {
      "inputs": [],
      "stateMutability": "nonpayable",
      "type": "constructor"
    },
    {
      "anonymous": false,
      "inputs": [
        {
          "indexed": true,
          "internalType": "address",
          "name": "gameAddress",
          "type": "address"
        },
        {
          "indexed": true,
          "internalType": "address",
          "name": "owner",
          "type": "address"
        },
        {
          "indexed": false,
          "internalType": "uint256",
          "name": "timeStarted",
          "type": "uint256"
        }
      ],
      "name": "GameEnded",
      "type": "event"
    },
    {
      "anonymous": false,
      "inputs": [
        {
          "indexed": true,
          "internalType": "address",
          "name": "gameAddress",
          "type": "address"
        },
        {
          "indexed": true,
          "internalType": "address",
          "name": "owner",
          "type": "address"
        },
        {
          "indexed": false,
          "internalType": "uint256",
          "name": "timeStarted",
          "type": "uint256"
        }
      ],
      "name": "GameStarted",
      "type": "event"
    },
    {
      "inputs": [
        {
          "internalType": "address",
          "name": "_userAddress",
          "type": "address"
        },
        {
          "internalType": "uint256",
          "name": "_eventId",
          "type": "uint256"
        }
      ],
      "name": "_addCreatedEvent",
      "outputs": [],
      "stateMutability": "nonpayable",
      "type": "function"
    },
    {
      "inputs": [
        {
          "internalType": "address",
          "name": "_userAddress",
          "type": "address"
        },
        {
          "internalType": "uint256",
          "name": "_eventId",
          "type": "uint256"
        }
      ],
      "name": "_addRegisteredEvent",
      "outputs": [],
      "stateMutability": "nonpayable",
      "type": "function"
    },
    {
      "inputs": [
        {
          "internalType": "uint256",
          "name": "_eventId",
          "type": "uint256"
        },
        {
          "internalType": "address",
          "name": "_winner",
          "type": "address"
        }
      ],
      "name": "_addWinner",
      "outputs": [],
      "stateMutability": "nonpayable",
      "type": "function"
    },
    {
      "inputs": [
        {
          "internalType": "uint256",
          "name": "_eventId",
          "type": "uint256"
        }
      ],
      "name": "_gameEnd",
      "outputs": [],
      "stateMutability": "nonpayable",
      "type": "function"
    },
    {
      "inputs": [
        {
          "internalType": "uint256",
          "name": "_eventId",
          "type": "uint256"
        }
      ],
      "name": "_gameStart",
      "outputs": [],
      "stateMutability": "nonpayable",
      "type": "function"
    },
    {
      "inputs": [
        {
          "internalType": "uint256",
          "name": "_eventId",
          "type": "uint256"
        },
        {
          "internalType": "address",
          "name": "_userAddress",
          "type": "address"
        }
      ],
      "name": "_isWinner",
      "outputs": [
        {
          "internalType": "bool",
          "name": "",
          "type": "bool"
        }
      ],
      "stateMutability": "view",
      "type": "function"
    },
    {
      "inputs": [
        {
          "internalType": "uint256",
          "name": "_eventId",
          "type": "uint256"
        },
        {
          "internalType": "address",
          "name": "_eventGameAddress",
          "type": "address"
        },
        {
          "internalType": "address",
          "name": "_eventOwner",
          "type": "address"
        },
        {
          "internalType": "string",
          "name": "_eventName",
          "type": "string"
        },
        {
          "internalType": "uint256",
          "name": "_numberOfTickets",
          "type": "uint256"
        },
        {
          "internalType": "uint256",
          "name": "_ticketPrice",
          "type": "uint256"
        }
      ],
      "name": "_logEvent",
      "outputs": [],
      "stateMutability": "nonpayable",
      "type": "function"
    },
    {
      "inputs": [
        {
          "internalType": "uint256",
          "name": "_eventId",
          "type": "uint256"
        },
        {
          "internalType": "string",
          "name": "_newName",
          "type": "string"
        }
      ],
      "name": "_updateName",
      "outputs": [],
      "stateMutability": "nonpayable",
      "type": "function"
    },
    {
      "inputs": [
        {
          "internalType": "uint256",
          "name": "_eventId",
          "type": "uint256"
        },
        {
          "internalType": "uint256",
          "name": "_newPrice",
          "type": "uint256"
        }
      ],
      "name": "_updatePrice",
      "outputs": [],
      "stateMutability": "nonpayable",
      "type": "function"
    },
    {
      "inputs": [
        {
          "internalType": "uint256",
          "name": "_eventId",
          "type": "uint256"
        },
        {
          "internalType": "uint256",
          "name": "_newTickets",
          "type": "uint256"
        }
      ],
      "name": "_updateTickets",
      "outputs": [],
      "stateMutability": "nonpayable",
      "type": "function"
    },
    {
      "inputs": [
        {
          "internalType": "address",
          "name": "_userAddress",
          "type": "address"
        }
      ],
      "name": "getCreatedEvents",
      "outputs": [
        {
          "components": [
            {
              "internalType": "address",
              "name": "eventGameAddress",
              "type": "address"
            },
            {
              "internalType": "address",
              "name": "eventOwner",
              "type": "address"
            },
            {
              "internalType": "string",
              "name": "eventName",
              "type": "string"
            },
            {
              "internalType": "uint256",
              "name": "numberOfTickets",
              "type": "uint256"
            },
            {
              "internalType": "uint256",
              "name": "ticketPrice",
              "type": "uint256"
            },
            {
              "internalType": "uint256",
              "name": "totalUsers",
              "type": "uint256"
            },
            {
              "internalType": "enum EventLog.GameStatus",
              "name": "status",
              "type": "uint8"
            }
          ],
          "internalType": "struct EventLog.Event[]",
          "name": "",
          "type": "tuple[]"
        }
      ],
      "stateMutability": "view",
      "type": "function"
    },
    {
      "inputs": [
        {
          "internalType": "uint256",
          "name": "_eventId",
          "type": "uint256"
        }
      ],
      "name": "getEvent",
      "outputs": [
        {
          "components": [
            {
              "internalType": "address",
              "name": "eventGameAddress",
              "type": "address"
            },
            {
              "internalType": "address",
              "name": "eventOwner",
              "type": "address"
            },
            {
              "internalType": "string",
              "name": "eventName",
              "type": "string"
            },
            {
              "internalType": "uint256",
              "name": "numberOfTickets",
              "type": "uint256"
            },
            {
              "internalType": "uint256",
              "name": "ticketPrice",
              "type": "uint256"
            },
            {
              "internalType": "uint256",
              "name": "totalUsers",
              "type": "uint256"
            },
            {
              "internalType": "enum EventLog.GameStatus",
              "name": "status",
              "type": "uint8"
            }
          ],
          "internalType": "struct EventLog.Event",
          "name": "",
          "type": "tuple"
        }
      ],
      "stateMutability": "view",
      "type": "function"
    },
    {
      "inputs": [
        {
          "internalType": "uint256",
          "name": "_eventId",
          "type": "uint256"
        }
      ],
      "name": "getEventAddress",
      "outputs": [
        {
          "internalType": "address",
          "name": "",
          "type": "address"
        }
      ],
      "stateMutability": "view",
      "type": "function"
    },
    {
      "inputs": [
        {
          "internalType": "uint256",
          "name": "_eventId",
          "type": "uint256"
        }
      ],
      "name": "getEventName",
      "outputs": [
        {
          "internalType": "string",
          "name": "",
          "type": "string"
        }
      ],
      "stateMutability": "view",
      "type": "function"
    },
    {
      "inputs": [
        {
          "internalType": "uint256",
          "name": "_eventId",
          "type": "uint256"
        }
      ],
      "name": "getNumberOfTickets",
      "outputs": [
        {
          "internalType": "uint256",
          "name": "",
          "type": "uint256"
        }
      ],
      "stateMutability": "view",
      "type": "function"
    },
    {
      "inputs": [],
      "name": "getOpenEvents",
      "outputs": [
        {
          "components": [
            {
              "internalType": "address",
              "name": "eventGameAddress",
              "type": "address"
            },
            {
              "internalType": "address",
              "name": "eventOwner",
              "type": "address"
            },
            {
              "internalType": "string",
              "name": "eventName",
              "type": "string"
            },
            {
              "internalType": "uint256",
              "name": "numberOfTickets",
              "type": "uint256"
            },
            {
              "internalType": "uint256",
              "name": "ticketPrice",
              "type": "uint256"
            },
            {
              "internalType": "uint256",
              "name": "totalUsers",
              "type": "uint256"
            },
            {
              "internalType": "enum EventLog.GameStatus",
              "name": "status",
              "type": "uint8"
            }
          ],
          "internalType": "struct EventLog.Event[]",
          "name": "",
          "type": "tuple[]"
        }
      ],
      "stateMutability": "view",
      "type": "function"
    },
    {
      "inputs": [
        {
          "internalType": "address",
          "name": "_userAddress",
          "type": "address"
        }
      ],
      "name": "getRegisteredEvents",
      "outputs": [
        {
          "components": [
            {
              "internalType": "address",
              "name": "eventGameAddress",
              "type": "address"
            },
            {
              "internalType": "address",
              "name": "eventOwner",
              "type": "address"
            },
            {
              "internalType": "string",
              "name": "eventName",
              "type": "string"
            },
            {
              "internalType": "uint256",
              "name": "numberOfTickets",
              "type": "uint256"
            },
            {
              "internalType": "uint256",
              "name": "ticketPrice",
              "type": "uint256"
            },
            {
              "internalType": "uint256",
              "name": "totalUsers",
              "type": "uint256"
            },
            {
              "internalType": "enum EventLog.GameStatus",
              "name": "status",
              "type": "uint8"
            }
          ],
          "internalType": "struct EventLog.Event[]",
          "name": "",
          "type": "tuple[]"
        }
      ],
      "stateMutability": "view",
      "type": "function"
    }
  ],
  "bytecode": "0x608060405234801561001057600080fd5b50600080556117f5806100246000396000f3fe608060405234801561001057600080fd5b506004361061010b5760003560e01c806379050904116100a2578063c90eeff111610071578063c90eeff114610263578063ee0591fe14610276578063f052cf99146102b4578063fbf6265e146102c7578063fc999f201461031057600080fd5b806379050904146102225780637b7528ac1461022a5780639abea6c11461023d578063ab31803f1461025057600080fd5b80634945fcc7116100de5780634945fcc71461019e57806364ab2b10146101be5780636d1884e0146101d15780636e59b1ad146101f157600080fd5b8063069e2fb2146101105780631210b3d6146101255780631c25f16e1461013857806320037f331461017e575b600080fd5b61012361011e366004611482565b61034a565b005b6101236101333660046115ab565b61039f565b6101616101463660046114ab565b6000908152600260205260409020546001600160a01b031690565b6040516001600160a01b0390911681526020015b60405180910390f35b61019161018c366004611461565b6103d7565b604051610175919061169e565b6101b16101ac3660046114ab565b610669565b60405161017591906116ff565b6101236101cc366004611566565b610711565b6101e46101df3660046114ab565b61075e565b6040516101759190611712565b6102146101ff3660046114ab565b60009081526002602052604090206003015490565b604051908152602001610175565b6101916108a5565b6101236102383660046114ab565b610b4b565b61012361024b3660046115ab565b610cf2565b61019161025e366004611461565b610d2a565b6101236102713660046114ee565b610fb3565b6101236102843660046114c3565b60009182526005602090815260408084206001600160a01b0390931684529190529020805460ff19166001179055565b6101236102c23660046114ab565b61111d565b6103006102d53660046114c3565b60009182526005602090815260408084206001600160a01b0393909316845291905290205460ff1690565b6040519015158152602001610175565b61012361031e366004611482565b6001600160a01b0390911660009081526004602090815260408220805460018101825590835291200155565b6001600160a01b03821660009081526003602090815260408083208054600181810183559185528385200185905584845260029092528220600501805491929091610396908490611725565b90915550505050565b6000828152600260205260409020546001600160a01b031633146103c257600080fd5b60009182526002602052604090912060040155565b6001600160a01b038116600090815260046020908152604080832080548251818502810185019093528083526060949383018282801561043657602002820191906000526020600020905b815481526020019060010190808311610422575b5050505050905060008151905060008167ffffffffffffffff81111561046c57634e487b7160e01b600052604160045260246000fd5b6040519080825280602002602001820160405280156104a557816020015b6104926112b8565b81526020019060019003908161048a5790505b50905060005b828110156106605760008482815181106104d557634e487b7160e01b600052603260045260246000fd5b602090810291909101810151600081815260028084526040808320815160e08101835281546001600160a01b03908116825260018301541696810196909652918201805494965092949391929084019161052e9061173d565b80601f016020809104026020016040519081016040528092919081815260200182805461055a9061173d565b80156105a75780601f1061057c576101008083540402835291602001916105a7565b820191906000526020600020905b81548152906001019060200180831161058a57829003601f168201915b5050509183525050600382015460208201526004820154604082015260058201546060820152600682015460809091019060ff1660028111156105fa57634e487b7160e01b600052602160045260246000fd5b600281111561061957634e487b7160e01b600052602160045260246000fd5b8152505090508084848151811061064057634e487b7160e01b600052603260045260246000fd5b60200260200101819052505050808061065890611778565b9150506104ab565b50949350505050565b606060026000838152602001908152602001600020600201805461068c9061173d565b80601f01602080910402602001604051908101604052809291908181526020018280546106b89061173d565b80156107055780601f106106da57610100808354040283529160200191610705565b820191906000526020600020905b8154815290600101906020018083116106e857829003601f168201915b50505050509050919050565b6000828152600260205260409020546001600160a01b0316331461073457600080fd5b6000828152600260208181526040909220835161075993919092019190840190611325565b505050565b6107666112b8565b6000828152600260208181526040808420815160e08101835281546001600160a01b039081168252600183015416938101939093529283018054929392918401916107b09061173d565b80601f01602080910402602001604051908101604052809291908181526020018280546107dc9061173d565b80156108295780601f106107fe57610100808354040283529160200191610829565b820191906000526020600020905b81548152906001019060200180831161080c57829003601f168201915b5050509183525050600382015460208201526004820154604082015260058201546060820152600682015460809091019060ff16600281111561087c57634e487b7160e01b600052602160045260246000fd5b600281111561089b57634e487b7160e01b600052602160045260246000fd5b9052509392505050565b6060600060015b600054811161091057600081815260026020819052604082206006015460ff16908111156108ea57634e487b7160e01b600052602160045260246000fd5b14156108fe576108fb600183611725565b91505b8061090881611778565b9150506108ac565b5060008167ffffffffffffffff81111561093a57634e487b7160e01b600052604160045260246000fd5b60405190808252806020026020018201604052801561097357816020015b6109606112b8565b8152602001906001900390816109585790505b509050600060015b6000548111610b4257600081815260026020819052604082206006015460ff16908111156109b957634e487b7160e01b600052602160045260246000fd5b1415610b3057600081815260026020818152604092839020835160e08101855281546001600160a01b0390811682526001830154169281019290925291820180549193840191610a089061173d565b80601f0160208091040260200160405190810160405280929190818152602001828054610a349061173d565b8015610a815780601f10610a5657610100808354040283529160200191610a81565b820191906000526020600020905b815481529060010190602001808311610a6457829003601f168201915b5050509183525050600382015460208201526004820154604082015260058201546060820152600682015460809091019060ff166002811115610ad457634e487b7160e01b600052602160045260246000fd5b6002811115610af357634e487b7160e01b600052602160045260246000fd5b81525050838381518110610b1757634e487b7160e01b600052603260045260246000fd5b6020908102919091010152610b2d600183611725565b91505b80610b3a81611778565b91505061097b565b50909392505050565b600081815260026020818152604080842060068101805460ff19166001908117909155825160e08101845282546001600160a01b0390811682529183015490911693810193909352928301805492939291840191610ba89061173d565b80601f0160208091040260200160405190810160405280929190818152602001828054610bd49061173d565b8015610c215780601f10610bf657610100808354040283529160200191610c21565b820191906000526020600020905b815481529060010190602001808311610c0457829003601f168201915b5050509183525050600382015460208201526004820154604082015260058201546060820152600682015460809091019060ff166002811115610c7457634e487b7160e01b600052602160045260246000fd5b6002811115610c9357634e487b7160e01b600052602160045260246000fd5b81525050905080602001516001600160a01b031681600001516001600160a01b03167fc5e48929c6ad41636874ae3938e60e36431dd0899ca520e58c58107c9e4454de42604051610ce691815260200190565b60405180910390a35050565b6000828152600260205260409020546001600160a01b03163314610d1557600080fd5b60009182526002602052604090912060030155565b6001600160a01b0381166000908152600360209081526040808320805482518185028101850190935280835260609493830182828015610d8957602002820191906000526020600020905b815481526020019060010190808311610d75575b5050505050905060008151905060008167ffffffffffffffff811115610dbf57634e487b7160e01b600052604160045260246000fd5b604051908082528060200260200182016040528015610df857816020015b610de56112b8565b815260200190600190039081610ddd5790505b50905060005b82811015610660576000848281518110610e2857634e487b7160e01b600052603260045260246000fd5b602090810291909101810151600081815260028084526040808320815160e08101835281546001600160a01b039081168252600183015416968101969096529182018054949650929493919290840191610e819061173d565b80601f0160208091040260200160405190810160405280929190818152602001828054610ead9061173d565b8015610efa5780601f10610ecf57610100808354040283529160200191610efa565b820191906000526020600020905b815481529060010190602001808311610edd57829003601f168201915b5050509183525050600382015460208201526004820154604082015260058201546060820152600682015460809091019060ff166002811115610f4d57634e487b7160e01b600052602160045260246000fd5b6002811115610f6c57634e487b7160e01b600052602160045260246000fd5b81525050905080848481518110610f9357634e487b7160e01b600052603260045260246000fd5b602002602001018190525050508080610fab90611778565b915050610dfe565b6040518060e00160405280866001600160a01b03168152602001856001600160a01b03168152602001848152602001838152602001828152602001600081526020016000600281111561101657634e487b7160e01b600052602160045260246000fd5b9052600087815260026020818152604092839020845181546001600160a01b039182166001600160a01b031991821617835586840151600184018054919093169116179055928401518051611072938501929190910190611325565b50606082015160038201556080820151600482015560a0820151600582015560c082015160068201805460ff191660018360028111156110c257634e487b7160e01b600052602160045260246000fd5b021790555090505060016000808282546110dc9190611725565b90915550506001805480820182556000919091527fb10e2d527612073b26eecdfd717e6a320cf44b4afac2b0732d9fcbe2b7fa0cf601959095555050505050565b600081815260026020818152604080842060068101805460ff19166001908117909155825160e08101845282546001600160a01b039081168252918301549091169381019390935292830180549293929184019161117a9061173d565b80601f01602080910402602001604051908101604052809291908181526020018280546111a69061173d565b80156111f35780601f106111c8576101008083540402835291602001916111f3565b820191906000526020600020905b8154815290600101906020018083116111d657829003601f168201915b5050509183525050600382015460208201526004820154604082015260058201546060820152600682015460809091019060ff16600281111561124657634e487b7160e01b600052602160045260246000fd5b600281111561126557634e487b7160e01b600052602160045260246000fd5b81525050905080602001516001600160a01b031681600001516001600160a01b03167fee0dca10a9957dad74da3fe318a3ccc561c46d96be0ab0b66e7aff32aab94cf342604051610ce691815260200190565b6040518060e0016040528060006001600160a01b0316815260200160006001600160a01b03168152602001606081526020016000815260200160008152602001600081526020016000600281111561132057634e487b7160e01b600052602160045260246000fd5b905290565b8280546113319061173d565b90600052602060002090601f0160209004810192826113535760008555611399565b82601f1061136c57805160ff1916838001178555611399565b82800160010185558215611399579182015b8281111561139957825182559160200191906001019061137e565b506113a59291506113a9565b5090565b5b808211156113a557600081556001016113aa565b80356001600160a01b03811681146113d557600080fd5b919050565b600082601f8301126113ea578081fd5b813567ffffffffffffffff80821115611405576114056117a9565b604051601f8301601f19908116603f0116810190828211818310171561142d5761142d6117a9565b81604052838152866020858801011115611445578485fd5b8360208701602083013792830160200193909352509392505050565b600060208284031215611472578081fd5b61147b826113be565b9392505050565b60008060408385031215611494578081fd5b61149d836113be565b946020939093013593505050565b6000602082840312156114bc578081fd5b5035919050565b600080604083850312156114d5578182fd5b823591506114e5602084016113be565b90509250929050565b60008060008060008060c08789031215611506578182fd5b86359550611516602088016113be565b9450611524604088016113be565b9350606087013567ffffffffffffffff81111561153f578283fd5b61154b89828a016113da565b9350506080870135915060a087013590509295509295509295565b60008060408385031215611578578182fd5b82359150602083013567ffffffffffffffff811115611595578182fd5b6115a1858286016113da565b9150509250929050565b600080604083850312156115bd578182fd5b50508035926020909101359150565b60008151808452815b818110156115f1576020818501810151868301820152016115d5565b818111156116025782602083870101525b50601f01601f19169290920160200192915050565b600060018060a01b0380835116845280602084015116602085015250604082015160e0604085015261164c60e08501826115cc565b9050606083015160608501526080830151608085015260a083015160a085015260c08301516003811061168d57634e487b7160e01b83526021600452602483fd5b8060c0860152508091505092915050565b6000602080830181845280855180835260408601915060408160051b8701019250838701855b828110156116f257603f198886030184526116e0858351611617565b945092850192908501906001016116c4565b5092979650505050505050565b60208152600061147b60208301846115cc565b60208152600061147b6020830184611617565b6000821982111561173857611738611793565b500190565b600181811c9082168061175157607f821691505b6020821081141561177257634e487b7160e01b600052602260045260246000fd5b50919050565b600060001982141561178c5761178c611793565b5060010190565b634e487b7160e01b600052601160045260246000fd5b634e487b7160e01b600052604160045260246000fdfea2646970667358221220e5caef132f528d5bd9361ae376edc0ab9a02c161874ff33c945390147da1939a64736f6c63430008040033",
  "linkReferences": {},
  "deployedLinkReferences": {}
}