{
  "_format": "hh-sol-artifact-1",
  "contractName": "eventLog",
  "sourceName": "contracts/eventLog.sol",
  "abi": [
    {
      "inputs": [
        {
          "internalType": "string",
          "name": "_eventName",
          "type": "string"
        },
        {
          "internalType": "address",
          "name": "_winner",
          "type": "address"
        }
      ],
      "name": "_addWinner",
      "outputs": [],
      "stateMutability": "nonpayable",
      "type": "function"
    },
    {
      "inputs": [
        {
          "internalType": "string",
          "name": "_eventName",
          "type": "string"
        },
        {
          "internalType": "address",
          "name": "_eventGameAddress",
          "type": "address"
        },
        {
          "internalType": "address",
          "name": "_eventOwner",
          "type": "address"
        },
        {
          "internalType": "uint32",
          "name": "_numberOfTickets",
          "type": "uint32"
        },
        {
          "internalType": "uint32",
          "name": "_ticketPrice",
          "type": "uint32"
        }
      ],
      "name": "_logEvent",
      "outputs": [],
      "stateMutability": "nonpayable",
      "type": "function"
    },
    {
      "inputs": [
        {
          "internalType": "string",
          "name": "_eventName",
          "type": "string"
        }
      ],
      "name": "getEvent",
      "outputs": [
        {
          "components": [
            {
              "internalType": "address",
              "name": "eventGameAddress",
              "type": "address"
            },
            {
              "internalType": "address",
              "name": "eventOwner",
              "type": "address"
            },
            {
              "internalType": "uint32",
              "name": "numberOfTickets",
              "type": "uint32"
            },
            {
              "internalType": "uint32",
              "name": "ticketPrice",
              "type": "uint32"
            }
          ],
          "internalType": "struct eventLog.Event",
          "name": "",
          "type": "tuple"
        }
      ],
      "stateMutability": "view",
      "type": "function"
    }
  ],
  "bytecode": "0x608060405234801561001057600080fd5b5061050a806100206000396000f3fe608060405234801561001057600080fd5b50600436106100415760003560e01c80632cd9e389146100465780639f3feb4d1461005b578063e19020631461006e575b600080fd5b610059610054366004610386565b6100ca565b005b610059610069366004610334565b610197565b61008161007c3660046102f4565b6101e6565b6040805182516001600160a01b039081168252602080850151909116908201528282015163ffffffff908116828401526060938401511692810192909252519081900360800190f35b604080516080810182526001600160a01b0380871682528516602082015263ffffffff80851682840152831660608201529051819060009061010d908990610485565b9081526040805160209281900383019020835181546001600160a01b0319166001600160a01b03918216178255928401516001909101805492850151606090950151919093166001600160c01b031990921691909117600160a01b63ffffffff948516021763ffffffff60c01b1916600160c01b9390911692909202919091179055505050505050565b60018084846040516101aa929190610475565b90815260408051602092819003830190206001600160a01b0394909416600090815293909152909120805460ff19169115159190911790555050565b6040805160808101825260008082526020820181905291810182905260608101919091526000838360405161021c929190610475565b90815260408051918290036020908101832060808401835280546001600160a01b0390811685526001909101549081169184019190915263ffffffff600160a01b8204811692840192909252600160c01b9004166060820152905092915050565b80356001600160a01b038116811461029457600080fd5b919050565b60008083601f8401126102aa578081fd5b50813567ffffffffffffffff8111156102c1578182fd5b6020830191508360208285010111156102d957600080fd5b9250929050565b803563ffffffff8116811461029457600080fd5b60008060208385031215610306578182fd5b823567ffffffffffffffff81111561031c578283fd5b61032885828601610299565b90969095509350505050565b600080600060408486031215610348578081fd5b833567ffffffffffffffff81111561035e578182fd5b61036a86828701610299565b909450925061037d90506020850161027d565b90509250925092565b600080600080600060a0868803121561039d578081fd5b853567ffffffffffffffff808211156103b4578283fd5b818801915088601f8301126103c7578283fd5b8135818111156103d9576103d96104be565b604051601f8201601f19908116603f01168101908382118183101715610401576104016104be565b816040528281528b6020848701011115610419578586fd5b826020860160208301378560208483010152809950505050505061043f6020870161027d565b935061044d6040870161027d565b925061045b606087016102e0565b9150610469608087016102e0565b90509295509295909350565b8183823760009101908152919050565b60008251815b818110156104a5576020818601810151858301520161048b565b818111156104b35782828501525b509190910192915050565b634e487b7160e01b600052604160045260246000fdfea264697066735822122040525d8674175a9bcf9d812beaa7fbf25b7bf4d6db6e6660e9af2fa088cb203564736f6c63430008040033",
  "linkReferences": {},
  "deployedLinkReferences": {}
}