{
  "_format": "hh-sol-artifact-1",
  "contractName": "EventLog",
  "sourceName": "contracts/eventLog.sol",
  "abi": [
    {
      "inputs": [],
      "stateMutability": "nonpayable",
      "type": "constructor"
    },
    {
      "anonymous": false,
      "inputs": [
        {
          "indexed": true,
          "internalType": "address",
          "name": "gameAddress",
          "type": "address"
        },
        {
          "indexed": true,
          "internalType": "address",
          "name": "owner",
          "type": "address"
        }
      ],
      "name": "GameStarted",
      "type": "event"
    },
    {
      "inputs": [
        {
          "internalType": "address",
          "name": "_userAddress",
          "type": "address"
        },
        {
          "internalType": "uint256",
          "name": "_eventId",
          "type": "uint256"
        }
      ],
      "name": "_addCreatedEvent",
      "outputs": [],
      "stateMutability": "nonpayable",
      "type": "function"
    },
    {
      "inputs": [
        {
          "internalType": "address",
          "name": "_userAddress",
          "type": "address"
        },
        {
          "internalType": "uint256",
          "name": "_eventId",
          "type": "uint256"
        }
      ],
      "name": "_addRegisteredEvent",
      "outputs": [],
      "stateMutability": "nonpayable",
      "type": "function"
    },
    {
      "inputs": [
        {
          "internalType": "uint256",
          "name": "_eventId",
          "type": "uint256"
        },
        {
          "internalType": "address",
          "name": "_winner",
          "type": "address"
        }
      ],
      "name": "_addWinner",
      "outputs": [],
      "stateMutability": "nonpayable",
      "type": "function"
    },
    {
      "inputs": [
        {
          "internalType": "uint256",
          "name": "_eventId",
          "type": "uint256"
        }
      ],
      "name": "_gameStart",
      "outputs": [],
      "stateMutability": "nonpayable",
      "type": "function"
    },
    {
      "inputs": [
        {
          "internalType": "uint256",
          "name": "_eventId",
          "type": "uint256"
        }
      ],
      "name": "_getEventName",
      "outputs": [
        {
          "internalType": "string",
          "name": "",
          "type": "string"
        }
      ],
      "stateMutability": "view",
      "type": "function"
    },
    {
      "inputs": [
        {
          "internalType": "uint256",
          "name": "_eventId",
          "type": "uint256"
        }
      ],
      "name": "_getNumberOfTickets",
      "outputs": [
        {
          "internalType": "uint256",
          "name": "",
          "type": "uint256"
        }
      ],
      "stateMutability": "view",
      "type": "function"
    },
    {
      "inputs": [
        {
          "internalType": "uint256",
          "name": "_eventId",
          "type": "uint256"
        },
        {
          "internalType": "address",
          "name": "_userAddress",
          "type": "address"
        }
      ],
      "name": "_isWinner",
      "outputs": [
        {
          "internalType": "bool",
          "name": "",
          "type": "bool"
        }
      ],
      "stateMutability": "view",
      "type": "function"
    },
    {
      "inputs": [
        {
          "internalType": "uint256",
          "name": "_eventId",
          "type": "uint256"
        },
        {
          "internalType": "address",
          "name": "_eventGameAddress",
          "type": "address"
        },
        {
          "internalType": "address",
          "name": "_eventOwner",
          "type": "address"
        },
        {
          "internalType": "string",
          "name": "_eventName",
          "type": "string"
        },
        {
          "internalType": "uint256",
          "name": "_numberOfTickets",
          "type": "uint256"
        },
        {
          "internalType": "uint256",
          "name": "_ticketPrice",
          "type": "uint256"
        }
      ],
      "name": "_logEvent",
      "outputs": [],
      "stateMutability": "nonpayable",
      "type": "function"
    },
    {
      "inputs": [
        {
          "internalType": "uint256",
          "name": "_eventId",
          "type": "uint256"
        },
        {
          "internalType": "string",
          "name": "_newName",
          "type": "string"
        }
      ],
      "name": "_updateName",
      "outputs": [],
      "stateMutability": "nonpayable",
      "type": "function"
    },
    {
      "inputs": [
        {
          "internalType": "uint256",
          "name": "_eventId",
          "type": "uint256"
        },
        {
          "internalType": "uint256",
          "name": "_newPrice",
          "type": "uint256"
        }
      ],
      "name": "_updatePrice",
      "outputs": [],
      "stateMutability": "nonpayable",
      "type": "function"
    },
    {
      "inputs": [
        {
          "internalType": "uint256",
          "name": "_eventId",
          "type": "uint256"
        },
        {
          "internalType": "uint256",
          "name": "_newTickets",
          "type": "uint256"
        }
      ],
      "name": "_updateTickets",
      "outputs": [],
      "stateMutability": "nonpayable",
      "type": "function"
    },
    {
      "inputs": [
        {
          "internalType": "address",
          "name": "_userAddress",
          "type": "address"
        }
      ],
      "name": "getCreatedEvents",
      "outputs": [
        {
          "components": [
            {
              "internalType": "address",
              "name": "eventGameAddress",
              "type": "address"
            },
            {
              "internalType": "address",
              "name": "eventOwner",
              "type": "address"
            },
            {
              "internalType": "string",
              "name": "eventName",
              "type": "string"
            },
            {
              "internalType": "uint256",
              "name": "numberOfTickets",
              "type": "uint256"
            },
            {
              "internalType": "uint256",
              "name": "ticketPrice",
              "type": "uint256"
            },
            {
              "internalType": "uint256",
              "name": "totalUsers",
              "type": "uint256"
            },
            {
              "internalType": "enum EventLog.GameStatus",
              "name": "status",
              "type": "uint8"
            }
          ],
          "internalType": "struct EventLog.Event[]",
          "name": "",
          "type": "tuple[]"
        }
      ],
      "stateMutability": "view",
      "type": "function"
    },
    {
      "inputs": [
        {
          "internalType": "uint256",
          "name": "_eventId",
          "type": "uint256"
        }
      ],
      "name": "getEvent",
      "outputs": [
        {
          "components": [
            {
              "internalType": "address",
              "name": "eventGameAddress",
              "type": "address"
            },
            {
              "internalType": "address",
              "name": "eventOwner",
              "type": "address"
            },
            {
              "internalType": "string",
              "name": "eventName",
              "type": "string"
            },
            {
              "internalType": "uint256",
              "name": "numberOfTickets",
              "type": "uint256"
            },
            {
              "internalType": "uint256",
              "name": "ticketPrice",
              "type": "uint256"
            },
            {
              "internalType": "uint256",
              "name": "totalUsers",
              "type": "uint256"
            },
            {
              "internalType": "enum EventLog.GameStatus",
              "name": "status",
              "type": "uint8"
            }
          ],
          "internalType": "struct EventLog.Event",
          "name": "",
          "type": "tuple"
        }
      ],
      "stateMutability": "view",
      "type": "function"
    },
    {
      "inputs": [
        {
          "internalType": "uint256",
          "name": "_eventId",
          "type": "uint256"
        }
      ],
      "name": "getEventAddress",
      "outputs": [
        {
          "internalType": "address",
          "name": "",
          "type": "address"
        }
      ],
      "stateMutability": "view",
      "type": "function"
    },
    {
      "inputs": [],
      "name": "getOpenEvents",
      "outputs": [
        {
          "components": [
            {
              "internalType": "address",
              "name": "eventGameAddress",
              "type": "address"
            },
            {
              "internalType": "address",
              "name": "eventOwner",
              "type": "address"
            },
            {
              "internalType": "string",
              "name": "eventName",
              "type": "string"
            },
            {
              "internalType": "uint256",
              "name": "numberOfTickets",
              "type": "uint256"
            },
            {
              "internalType": "uint256",
              "name": "ticketPrice",
              "type": "uint256"
            },
            {
              "internalType": "uint256",
              "name": "totalUsers",
              "type": "uint256"
            },
            {
              "internalType": "enum EventLog.GameStatus",
              "name": "status",
              "type": "uint8"
            }
          ],
          "internalType": "struct EventLog.Event[]",
          "name": "",
          "type": "tuple[]"
        }
      ],
      "stateMutability": "view",
      "type": "function"
    },
    {
      "inputs": [
        {
          "internalType": "address",
          "name": "_userAddress",
          "type": "address"
        }
      ],
      "name": "getRegisteredEvents",
      "outputs": [
        {
          "components": [
            {
              "internalType": "address",
              "name": "eventGameAddress",
              "type": "address"
            },
            {
              "internalType": "address",
              "name": "eventOwner",
              "type": "address"
            },
            {
              "internalType": "string",
              "name": "eventName",
              "type": "string"
            },
            {
              "internalType": "uint256",
              "name": "numberOfTickets",
              "type": "uint256"
            },
            {
              "internalType": "uint256",
              "name": "ticketPrice",
              "type": "uint256"
            },
            {
              "internalType": "uint256",
              "name": "totalUsers",
              "type": "uint256"
            },
            {
              "internalType": "enum EventLog.GameStatus",
              "name": "status",
              "type": "uint8"
            }
          ],
          "internalType": "struct EventLog.Event[]",
          "name": "",
          "type": "tuple[]"
        }
      ],
      "stateMutability": "view",
      "type": "function"
    }
  ],
  "bytecode": "0x608060405234801561001057600080fd5b50600080556115ce806100246000396000f3fe608060405234801561001057600080fd5b50600436106101005760003560e01c806398df100611610097578063ee0591fe11610066578063ee0591fe14610278578063f052cf99146102b6578063fbf6265e146102c9578063fc999f20146102ec57600080fd5b806398df1006146101fe5780639abea6c11461022f578063ab31803f14610252578063c90eeff11461026557600080fd5b806364ab2b10116100d357806364ab2b10146101a35780636d1884e0146101b65780636e64d549146101d657806379050904146101f657600080fd5b8063069e2fb2146101055780631210b3d61461011a5780631c25f16e1461013d57806320037f3314610183575b600080fd5b61011861011336600461125b565b610326565b005b610118610128366004611384565b60009182526002602052604090912060040155565b61016661014b366004611284565b6000908152600260205260409020546001600160a01b031690565b6040516001600160a01b0390911681526020015b60405180910390f35b61019661019136600461123a565b61037b565b60405161017a9190611477565b6101186101b136600461133f565b61060d565b6101c96101c4366004611284565b610637565b60405161017a91906114eb565b6101e96101e4366004611284565b61077e565b60405161017a91906114d8565b610196610825565b61022161020c366004611284565b60009081526002602052604090206003015490565b60405190815260200161017a565b61011861023d366004611384565b60009182526002602052604090912060030155565b61019661026036600461123a565b610acb565b6101186102733660046112c7565b610d54565b61011861028636600461129c565b60009182526005602090815260408084206001600160a01b0390931684529190529020805460ff19166001179055565b6101186102c4366004611284565b610ebe565b6102dc6102d736600461129c565b61104f565b604051901515815260200161017a565b6101186102fa36600461125b565b6001600160a01b0390911660009081526004602090815260408220805460018101825590835291200155565b6001600160a01b038216600090815260036020908152604080832080546001818101835591855283852001859055848452600290925282206005018054919290916103729084906114fe565b90915550505050565b6001600160a01b03811660009081526004602090815260408083208054825181850281018501909352808352606094938301828280156103da57602002820191906000526020600020905b8154815260200190600101908083116103c6575b5050505050905060008151905060008167ffffffffffffffff81111561041057634e487b7160e01b600052604160045260246000fd5b60405190808252806020026020018201604052801561044957816020015b610436611091565b81526020019060019003908161042e5790505b50905060005b8281101561060457600084828151811061047957634e487b7160e01b600052603260045260246000fd5b602090810291909101810151600081815260028084526040808320815160e08101835281546001600160a01b0390811682526001830154169681019690965291820180549496509294939192908401916104d290611516565b80601f01602080910402602001604051908101604052809291908181526020018280546104fe90611516565b801561054b5780601f106105205761010080835404028352916020019161054b565b820191906000526020600020905b81548152906001019060200180831161052e57829003601f168201915b5050509183525050600382015460208201526004820154604082015260058201546060820152600682015460809091019060ff16600281111561059e57634e487b7160e01b600052602160045260246000fd5b60028111156105bd57634e487b7160e01b600052602160045260246000fd5b815250509050808484815181106105e457634e487b7160e01b600052603260045260246000fd5b6020026020010181905250505080806105fc90611551565b91505061044f565b50949350505050565b60008281526002602081815260409092208351610632939190920191908401906110fe565b505050565b61063f611091565b6000828152600260208181526040808420815160e08101835281546001600160a01b0390811682526001830154169381019390935292830180549293929184019161068990611516565b80601f01602080910402602001604051908101604052809291908181526020018280546106b590611516565b80156107025780601f106106d757610100808354040283529160200191610702565b820191906000526020600020905b8154815290600101906020018083116106e557829003601f168201915b5050509183525050600382015460208201526004820154604082015260058201546060820152600682015460809091019060ff16600281111561075557634e487b7160e01b600052602160045260246000fd5b600281111561077457634e487b7160e01b600052602160045260246000fd5b9052509392505050565b60008181526002602081905260408220018054606092919061079f90611516565b80601f01602080910402602001604051908101604052809291908181526020018280546107cb90611516565b80156108185780601f106107ed57610100808354040283529160200191610818565b820191906000526020600020905b8154815290600101906020018083116107fb57829003601f168201915b5093979650505050505050565b6060600060015b600054811161089057600081815260026020819052604082206006015460ff169081111561086a57634e487b7160e01b600052602160045260246000fd5b141561087e5761087b6001836114fe565b91505b8061088881611551565b91505061082c565b5060008167ffffffffffffffff8111156108ba57634e487b7160e01b600052604160045260246000fd5b6040519080825280602002602001820160405280156108f357816020015b6108e0611091565b8152602001906001900390816108d85790505b509050600060015b6000548111610ac257600081815260026020819052604082206006015460ff169081111561093957634e487b7160e01b600052602160045260246000fd5b1415610ab057600081815260026020818152604092839020835160e08101855281546001600160a01b039081168252600183015416928101929092529182018054919384019161098890611516565b80601f01602080910402602001604051908101604052809291908181526020018280546109b490611516565b8015610a015780601f106109d657610100808354040283529160200191610a01565b820191906000526020600020905b8154815290600101906020018083116109e457829003601f168201915b5050509183525050600382015460208201526004820154604082015260058201546060820152600682015460809091019060ff166002811115610a5457634e487b7160e01b600052602160045260246000fd5b6002811115610a7357634e487b7160e01b600052602160045260246000fd5b81525050838381518110610a9757634e487b7160e01b600052603260045260246000fd5b6020908102919091010152610aad6001836114fe565b91505b80610aba81611551565b9150506108fb565b50909392505050565b6001600160a01b0381166000908152600360209081526040808320805482518185028101850190935280835260609493830182828015610b2a57602002820191906000526020600020905b815481526020019060010190808311610b16575b5050505050905060008151905060008167ffffffffffffffff811115610b6057634e487b7160e01b600052604160045260246000fd5b604051908082528060200260200182016040528015610b9957816020015b610b86611091565b815260200190600190039081610b7e5790505b50905060005b82811015610604576000848281518110610bc957634e487b7160e01b600052603260045260246000fd5b602090810291909101810151600081815260028084526040808320815160e08101835281546001600160a01b039081168252600183015416968101969096529182018054949650929493919290840191610c2290611516565b80601f0160208091040260200160405190810160405280929190818152602001828054610c4e90611516565b8015610c9b5780601f10610c7057610100808354040283529160200191610c9b565b820191906000526020600020905b815481529060010190602001808311610c7e57829003601f168201915b5050509183525050600382015460208201526004820154604082015260058201546060820152600682015460809091019060ff166002811115610cee57634e487b7160e01b600052602160045260246000fd5b6002811115610d0d57634e487b7160e01b600052602160045260246000fd5b81525050905080848481518110610d3457634e487b7160e01b600052603260045260246000fd5b602002602001018190525050508080610d4c90611551565b915050610b9f565b6040518060e00160405280866001600160a01b03168152602001856001600160a01b031681526020018481526020018381526020018281526020016000815260200160006002811115610db757634e487b7160e01b600052602160045260246000fd5b9052600087815260026020818152604092839020845181546001600160a01b039182166001600160a01b031991821617835586840151600184018054919093169116179055928401518051610e139385019291909101906110fe565b50606082015160038201556080820151600482015560a0820151600582015560c082015160068201805460ff19166001836002811115610e6357634e487b7160e01b600052602160045260246000fd5b02179055509050506001600080828254610e7d91906114fe565b90915550506001805480820182556000919091527fb10e2d527612073b26eecdfd717e6a320cf44b4afac2b0732d9fcbe2b7fa0cf601959095555050505050565b600081815260026020818152604080842060068101805460ff19166001908117909155825160e08101845282546001600160a01b0390811682529183015490911693810193909352928301805492939291840191610f1b90611516565b80601f0160208091040260200160405190810160405280929190818152602001828054610f4790611516565b8015610f945780601f10610f6957610100808354040283529160200191610f94565b820191906000526020600020905b815481529060010190602001808311610f7757829003601f168201915b5050509183525050600382015460208201526004820154604082015260058201546060820152600682015460809091019060ff166002811115610fe757634e487b7160e01b600052602160045260246000fd5b600281111561100657634e487b7160e01b600052602160045260246000fd5b905250602081015181516040519293506001600160a01b03918216929116907f55b25d7f9b5bf8ea934ba7079455d2ba00c68ea7e66c13695275f6b75b95e5f890600090a35050565b60008281526005602090815260408083206001600160a01b038516845290915281205460ff161515600114156110875750600161108b565b5060005b92915050565b6040518060e0016040528060006001600160a01b0316815260200160006001600160a01b0316815260200160608152602001600081526020016000815260200160008152602001600060028111156110f957634e487b7160e01b600052602160045260246000fd5b905290565b82805461110a90611516565b90600052602060002090601f01602090048101928261112c5760008555611172565b82601f1061114557805160ff1916838001178555611172565b82800160010185558215611172579182015b82811115611172578251825591602001919060010190611157565b5061117e929150611182565b5090565b5b8082111561117e5760008155600101611183565b80356001600160a01b03811681146111ae57600080fd5b919050565b600082601f8301126111c3578081fd5b813567ffffffffffffffff808211156111de576111de611582565b604051601f8301601f19908116603f0116810190828211818310171561120657611206611582565b8160405283815286602085880101111561121e578485fd5b8360208701602083013792830160200193909352509392505050565b60006020828403121561124b578081fd5b61125482611197565b9392505050565b6000806040838503121561126d578081fd5b61127683611197565b946020939093013593505050565b600060208284031215611295578081fd5b5035919050565b600080604083850312156112ae578182fd5b823591506112be60208401611197565b90509250929050565b60008060008060008060c087890312156112df578182fd5b863595506112ef60208801611197565b94506112fd60408801611197565b9350606087013567ffffffffffffffff811115611318578283fd5b61132489828a016111b3565b9350506080870135915060a087013590509295509295509295565b60008060408385031215611351578182fd5b82359150602083013567ffffffffffffffff81111561136e578182fd5b61137a858286016111b3565b9150509250929050565b60008060408385031215611396578182fd5b50508035926020909101359150565b60008151808452815b818110156113ca576020818501810151868301820152016113ae565b818111156113db5782602083870101525b50601f01601f19169290920160200192915050565b600060018060a01b0380835116845280602084015116602085015250604082015160e0604085015261142560e08501826113a5565b9050606083015160608501526080830151608085015260a083015160a085015260c08301516003811061146657634e487b7160e01b83526021600452602483fd5b8060c0860152508091505092915050565b6000602080830181845280855180835260408601915060408160051b8701019250838701855b828110156114cb57603f198886030184526114b98583516113f0565b9450928501929085019060010161149d565b5092979650505050505050565b60208152600061125460208301846113a5565b60208152600061125460208301846113f0565b600082198211156115115761151161156c565b500190565b600181811c9082168061152a57607f821691505b6020821081141561154b57634e487b7160e01b600052602260045260246000fd5b50919050565b60006000198214156115655761156561156c565b5060010190565b634e487b7160e01b600052601160045260246000fd5b634e487b7160e01b600052604160045260246000fdfea2646970667358221220105b228669cad577d9b6272552c08feaf16272037a55a975ec2d81882b46cfe764736f6c63430008040033",
  "linkReferences": {},
  "deployedLinkReferences": {}
}