{
  "_format": "hh-sol-artifact-1",
  "contractName": "EventLog",
  "sourceName": "contracts/eventLog.sol",
  "abi": [
    {
      "inputs": [],
      "stateMutability": "nonpayable",
      "type": "constructor"
    },
    {
      "anonymous": false,
      "inputs": [
        {
          "indexed": true,
          "internalType": "address",
          "name": "gameAddress",
          "type": "address"
        },
        {
          "indexed": true,
          "internalType": "address",
          "name": "owner",
          "type": "address"
        },
        {
          "indexed": false,
          "internalType": "uint256",
          "name": "timeStarted",
          "type": "uint256"
        }
      ],
      "name": "GameEnded",
      "type": "event"
    },
    {
      "anonymous": false,
      "inputs": [
        {
          "indexed": true,
          "internalType": "address",
          "name": "gameAddress",
          "type": "address"
        },
        {
          "indexed": true,
          "internalType": "address",
          "name": "owner",
          "type": "address"
        },
        {
          "indexed": false,
          "internalType": "uint256",
          "name": "timeStarted",
          "type": "uint256"
        }
      ],
      "name": "GameStarted",
      "type": "event"
    },
    {
      "inputs": [
        {
          "internalType": "address",
          "name": "_userAddress",
          "type": "address"
        },
        {
          "internalType": "uint256",
          "name": "_eventId",
          "type": "uint256"
        }
      ],
      "name": "_addCreatedEvent",
      "outputs": [],
      "stateMutability": "nonpayable",
      "type": "function"
    },
    {
      "inputs": [
        {
          "internalType": "address",
          "name": "_userAddress",
          "type": "address"
        },
        {
          "internalType": "uint256",
          "name": "_eventId",
          "type": "uint256"
        }
      ],
      "name": "_addRegisteredEvent",
      "outputs": [],
      "stateMutability": "nonpayable",
      "type": "function"
    },
    {
      "inputs": [
        {
          "internalType": "uint256",
          "name": "_eventId",
          "type": "uint256"
        },
        {
          "internalType": "address",
          "name": "_winner",
          "type": "address"
        }
      ],
      "name": "_addWinner",
      "outputs": [],
      "stateMutability": "nonpayable",
      "type": "function"
    },
    {
      "inputs": [
        {
          "internalType": "uint256",
          "name": "_eventId",
          "type": "uint256"
        }
      ],
      "name": "_gameEnd",
      "outputs": [],
      "stateMutability": "nonpayable",
      "type": "function"
    },
    {
      "inputs": [
        {
          "internalType": "uint256",
          "name": "_eventId",
          "type": "uint256"
        }
      ],
      "name": "_gameStart",
      "outputs": [],
      "stateMutability": "nonpayable",
      "type": "function"
    },
    {
      "inputs": [
        {
          "internalType": "uint256",
          "name": "_eventId",
          "type": "uint256"
        }
      ],
      "name": "_getEventName",
      "outputs": [
        {
          "internalType": "string",
          "name": "",
          "type": "string"
        }
      ],
      "stateMutability": "view",
      "type": "function"
    },
    {
      "inputs": [
        {
          "internalType": "uint256",
          "name": "_eventId",
          "type": "uint256"
        }
      ],
      "name": "_getNumberOfTickets",
      "outputs": [
        {
          "internalType": "uint256",
          "name": "",
          "type": "uint256"
        }
      ],
      "stateMutability": "view",
      "type": "function"
    },
    {
      "inputs": [
        {
          "internalType": "uint256",
          "name": "_eventId",
          "type": "uint256"
        },
        {
          "internalType": "address",
          "name": "_userAddress",
          "type": "address"
        }
      ],
      "name": "_isWinner",
      "outputs": [
        {
          "internalType": "bool",
          "name": "",
          "type": "bool"
        }
      ],
      "stateMutability": "view",
      "type": "function"
    },
    {
      "inputs": [
        {
          "internalType": "uint256",
          "name": "_eventId",
          "type": "uint256"
        },
        {
          "internalType": "address",
          "name": "_eventGameAddress",
          "type": "address"
        },
        {
          "internalType": "address",
          "name": "_eventOwner",
          "type": "address"
        },
        {
          "internalType": "string",
          "name": "_eventName",
          "type": "string"
        },
        {
          "internalType": "uint256",
          "name": "_numberOfTickets",
          "type": "uint256"
        },
        {
          "internalType": "uint256",
          "name": "_ticketPrice",
          "type": "uint256"
        }
      ],
      "name": "_logEvent",
      "outputs": [],
      "stateMutability": "nonpayable",
      "type": "function"
    },
    {
      "inputs": [
        {
          "internalType": "uint256",
          "name": "_eventId",
          "type": "uint256"
        },
        {
          "internalType": "string",
          "name": "_newName",
          "type": "string"
        }
      ],
      "name": "_updateName",
      "outputs": [],
      "stateMutability": "nonpayable",
      "type": "function"
    },
    {
      "inputs": [
        {
          "internalType": "uint256",
          "name": "_eventId",
          "type": "uint256"
        },
        {
          "internalType": "uint256",
          "name": "_newPrice",
          "type": "uint256"
        }
      ],
      "name": "_updatePrice",
      "outputs": [],
      "stateMutability": "nonpayable",
      "type": "function"
    },
    {
      "inputs": [
        {
          "internalType": "uint256",
          "name": "_eventId",
          "type": "uint256"
        },
        {
          "internalType": "uint256",
          "name": "_newTickets",
          "type": "uint256"
        }
      ],
      "name": "_updateTickets",
      "outputs": [],
      "stateMutability": "nonpayable",
      "type": "function"
    },
    {
      "inputs": [
        {
          "internalType": "address",
          "name": "_userAddress",
          "type": "address"
        }
      ],
      "name": "getCreatedEvents",
      "outputs": [
        {
          "components": [
            {
              "internalType": "address",
              "name": "eventGameAddress",
              "type": "address"
            },
            {
              "internalType": "address",
              "name": "eventOwner",
              "type": "address"
            },
            {
              "internalType": "string",
              "name": "eventName",
              "type": "string"
            },
            {
              "internalType": "uint256",
              "name": "numberOfTickets",
              "type": "uint256"
            },
            {
              "internalType": "uint256",
              "name": "ticketPrice",
              "type": "uint256"
            },
            {
              "internalType": "uint256",
              "name": "totalUsers",
              "type": "uint256"
            },
            {
              "internalType": "enum EventLog.GameStatus",
              "name": "status",
              "type": "uint8"
            }
          ],
          "internalType": "struct EventLog.Event[]",
          "name": "",
          "type": "tuple[]"
        }
      ],
      "stateMutability": "view",
      "type": "function"
    },
    {
      "inputs": [
        {
          "internalType": "uint256",
          "name": "_eventId",
          "type": "uint256"
        }
      ],
      "name": "getEvent",
      "outputs": [
        {
          "components": [
            {
              "internalType": "address",
              "name": "eventGameAddress",
              "type": "address"
            },
            {
              "internalType": "address",
              "name": "eventOwner",
              "type": "address"
            },
            {
              "internalType": "string",
              "name": "eventName",
              "type": "string"
            },
            {
              "internalType": "uint256",
              "name": "numberOfTickets",
              "type": "uint256"
            },
            {
              "internalType": "uint256",
              "name": "ticketPrice",
              "type": "uint256"
            },
            {
              "internalType": "uint256",
              "name": "totalUsers",
              "type": "uint256"
            },
            {
              "internalType": "enum EventLog.GameStatus",
              "name": "status",
              "type": "uint8"
            }
          ],
          "internalType": "struct EventLog.Event",
          "name": "",
          "type": "tuple"
        }
      ],
      "stateMutability": "view",
      "type": "function"
    },
    {
      "inputs": [
        {
          "internalType": "uint256",
          "name": "_eventId",
          "type": "uint256"
        }
      ],
      "name": "getEventAddress",
      "outputs": [
        {
          "internalType": "address",
          "name": "",
          "type": "address"
        }
      ],
      "stateMutability": "view",
      "type": "function"
    },
    {
      "inputs": [],
      "name": "getOpenEvents",
      "outputs": [
        {
          "components": [
            {
              "internalType": "address",
              "name": "eventGameAddress",
              "type": "address"
            },
            {
              "internalType": "address",
              "name": "eventOwner",
              "type": "address"
            },
            {
              "internalType": "string",
              "name": "eventName",
              "type": "string"
            },
            {
              "internalType": "uint256",
              "name": "numberOfTickets",
              "type": "uint256"
            },
            {
              "internalType": "uint256",
              "name": "ticketPrice",
              "type": "uint256"
            },
            {
              "internalType": "uint256",
              "name": "totalUsers",
              "type": "uint256"
            },
            {
              "internalType": "enum EventLog.GameStatus",
              "name": "status",
              "type": "uint8"
            }
          ],
          "internalType": "struct EventLog.Event[]",
          "name": "",
          "type": "tuple[]"
        }
      ],
      "stateMutability": "view",
      "type": "function"
    },
    {
      "inputs": [
        {
          "internalType": "address",
          "name": "_userAddress",
          "type": "address"
        }
      ],
      "name": "getRegisteredEvents",
      "outputs": [
        {
          "components": [
            {
              "internalType": "address",
              "name": "eventGameAddress",
              "type": "address"
            },
            {
              "internalType": "address",
              "name": "eventOwner",
              "type": "address"
            },
            {
              "internalType": "string",
              "name": "eventName",
              "type": "string"
            },
            {
              "internalType": "uint256",
              "name": "numberOfTickets",
              "type": "uint256"
            },
            {
              "internalType": "uint256",
              "name": "ticketPrice",
              "type": "uint256"
            },
            {
              "internalType": "uint256",
              "name": "totalUsers",
              "type": "uint256"
            },
            {
              "internalType": "enum EventLog.GameStatus",
              "name": "status",
              "type": "uint8"
            }
          ],
          "internalType": "struct EventLog.Event[]",
          "name": "",
          "type": "tuple[]"
        }
      ],
      "stateMutability": "view",
      "type": "function"
    }
  ],
  "bytecode": "0x608060405234801561001057600080fd5b50600080556117f4806100246000396000f3fe608060405234801561001057600080fd5b506004361061010b5760003560e01c80637b7528ac116100a2578063c90eeff111610071578063c90eeff114610263578063ee0591fe14610276578063f052cf99146102b4578063fbf6265e146102c7578063fc999f201461031057600080fd5b80637b7528ac146101f957806398df10061461020c5780639abea6c11461023d578063ab31803f1461025057600080fd5b806364ab2b10116100de57806364ab2b101461019e5780636d1884e0146101b15780636e64d549146101d157806379050904146101f157600080fd5b8063069e2fb2146101105780631210b3d6146101255780631c25f16e1461013857806320037f331461017e575b600080fd5b61012361011e366004611481565b61034a565b005b6101236101333660046115aa565b61039f565b6101616101463660046114aa565b6000908152600260205260409020546001600160a01b031690565b6040516001600160a01b0390911681526020015b60405180910390f35b61019161018c366004611460565b6103d7565b604051610175919061169d565b6101236101ac366004611565565b610669565b6101c46101bf3660046114aa565b6106b6565b6040516101759190611711565b6101e46101df3660046114aa565b6107fd565b60405161017591906116fe565b6101916108a4565b6101236102073660046114aa565b610b4a565b61022f61021a3660046114aa565b60009081526002602052604090206003015490565b604051908152602001610175565b61012361024b3660046115aa565b610cf1565b61019161025e366004611460565b610d29565b6101236102713660046114ed565b610fb2565b6101236102843660046114c2565b60009182526005602090815260408084206001600160a01b0390931684529190529020805460ff19166001179055565b6101236102c23660046114aa565b61111c565b6103006102d53660046114c2565b60009182526005602090815260408084206001600160a01b0393909316845291905290205460ff1690565b6040519015158152602001610175565b61012361031e366004611481565b6001600160a01b0390911660009081526004602090815260408220805460018101825590835291200155565b6001600160a01b03821660009081526003602090815260408083208054600181810183559185528385200185905584845260029092528220600501805491929091610396908490611724565b90915550505050565b6000828152600260205260409020546001600160a01b031633146103c257600080fd5b60009182526002602052604090912060040155565b6001600160a01b038116600090815260046020908152604080832080548251818502810185019093528083526060949383018282801561043657602002820191906000526020600020905b815481526020019060010190808311610422575b5050505050905060008151905060008167ffffffffffffffff81111561046c57634e487b7160e01b600052604160045260246000fd5b6040519080825280602002602001820160405280156104a557816020015b6104926112b7565b81526020019060019003908161048a5790505b50905060005b828110156106605760008482815181106104d557634e487b7160e01b600052603260045260246000fd5b602090810291909101810151600081815260028084526040808320815160e08101835281546001600160a01b03908116825260018301541696810196909652918201805494965092949391929084019161052e9061173c565b80601f016020809104026020016040519081016040528092919081815260200182805461055a9061173c565b80156105a75780601f1061057c576101008083540402835291602001916105a7565b820191906000526020600020905b81548152906001019060200180831161058a57829003601f168201915b5050509183525050600382015460208201526004820154604082015260058201546060820152600682015460809091019060ff1660028111156105fa57634e487b7160e01b600052602160045260246000fd5b600281111561061957634e487b7160e01b600052602160045260246000fd5b8152505090508084848151811061064057634e487b7160e01b600052603260045260246000fd5b60200260200101819052505050808061065890611777565b9150506104ab565b50949350505050565b6000828152600260205260409020546001600160a01b0316331461068c57600080fd5b600082815260026020818152604090922083516106b193919092019190840190611324565b505050565b6106be6112b7565b6000828152600260208181526040808420815160e08101835281546001600160a01b039081168252600183015416938101939093529283018054929392918401916107089061173c565b80601f01602080910402602001604051908101604052809291908181526020018280546107349061173c565b80156107815780601f1061075657610100808354040283529160200191610781565b820191906000526020600020905b81548152906001019060200180831161076457829003601f168201915b5050509183525050600382015460208201526004820154604082015260058201546060820152600682015460809091019060ff1660028111156107d457634e487b7160e01b600052602160045260246000fd5b60028111156107f357634e487b7160e01b600052602160045260246000fd5b9052509392505050565b60008181526002602081905260408220018054606092919061081e9061173c565b80601f016020809104026020016040519081016040528092919081815260200182805461084a9061173c565b80156108975780601f1061086c57610100808354040283529160200191610897565b820191906000526020600020905b81548152906001019060200180831161087a57829003601f168201915b5093979650505050505050565b6060600060015b600054811161090f57600081815260026020819052604082206006015460ff16908111156108e957634e487b7160e01b600052602160045260246000fd5b14156108fd576108fa600183611724565b91505b8061090781611777565b9150506108ab565b5060008167ffffffffffffffff81111561093957634e487b7160e01b600052604160045260246000fd5b60405190808252806020026020018201604052801561097257816020015b61095f6112b7565b8152602001906001900390816109575790505b509050600060015b6000548111610b4157600081815260026020819052604082206006015460ff16908111156109b857634e487b7160e01b600052602160045260246000fd5b1415610b2f57600081815260026020818152604092839020835160e08101855281546001600160a01b0390811682526001830154169281019290925291820180549193840191610a079061173c565b80601f0160208091040260200160405190810160405280929190818152602001828054610a339061173c565b8015610a805780601f10610a5557610100808354040283529160200191610a80565b820191906000526020600020905b815481529060010190602001808311610a6357829003601f168201915b5050509183525050600382015460208201526004820154604082015260058201546060820152600682015460809091019060ff166002811115610ad357634e487b7160e01b600052602160045260246000fd5b6002811115610af257634e487b7160e01b600052602160045260246000fd5b81525050838381518110610b1657634e487b7160e01b600052603260045260246000fd5b6020908102919091010152610b2c600183611724565b91505b80610b3981611777565b91505061097a565b50909392505050565b600081815260026020818152604080842060068101805460ff19166001908117909155825160e08101845282546001600160a01b0390811682529183015490911693810193909352928301805492939291840191610ba79061173c565b80601f0160208091040260200160405190810160405280929190818152602001828054610bd39061173c565b8015610c205780601f10610bf557610100808354040283529160200191610c20565b820191906000526020600020905b815481529060010190602001808311610c0357829003601f168201915b5050509183525050600382015460208201526004820154604082015260058201546060820152600682015460809091019060ff166002811115610c7357634e487b7160e01b600052602160045260246000fd5b6002811115610c9257634e487b7160e01b600052602160045260246000fd5b81525050905080602001516001600160a01b031681600001516001600160a01b03167fc5e48929c6ad41636874ae3938e60e36431dd0899ca520e58c58107c9e4454de42604051610ce591815260200190565b60405180910390a35050565b6000828152600260205260409020546001600160a01b03163314610d1457600080fd5b60009182526002602052604090912060030155565b6001600160a01b0381166000908152600360209081526040808320805482518185028101850190935280835260609493830182828015610d8857602002820191906000526020600020905b815481526020019060010190808311610d74575b5050505050905060008151905060008167ffffffffffffffff811115610dbe57634e487b7160e01b600052604160045260246000fd5b604051908082528060200260200182016040528015610df757816020015b610de46112b7565b815260200190600190039081610ddc5790505b50905060005b82811015610660576000848281518110610e2757634e487b7160e01b600052603260045260246000fd5b602090810291909101810151600081815260028084526040808320815160e08101835281546001600160a01b039081168252600183015416968101969096529182018054949650929493919290840191610e809061173c565b80601f0160208091040260200160405190810160405280929190818152602001828054610eac9061173c565b8015610ef95780601f10610ece57610100808354040283529160200191610ef9565b820191906000526020600020905b815481529060010190602001808311610edc57829003601f168201915b5050509183525050600382015460208201526004820154604082015260058201546060820152600682015460809091019060ff166002811115610f4c57634e487b7160e01b600052602160045260246000fd5b6002811115610f6b57634e487b7160e01b600052602160045260246000fd5b81525050905080848481518110610f9257634e487b7160e01b600052603260045260246000fd5b602002602001018190525050508080610faa90611777565b915050610dfd565b6040518060e00160405280866001600160a01b03168152602001856001600160a01b03168152602001848152602001838152602001828152602001600081526020016000600281111561101557634e487b7160e01b600052602160045260246000fd5b9052600087815260026020818152604092839020845181546001600160a01b039182166001600160a01b031991821617835586840151600184018054919093169116179055928401518051611071938501929190910190611324565b50606082015160038201556080820151600482015560a0820151600582015560c082015160068201805460ff191660018360028111156110c157634e487b7160e01b600052602160045260246000fd5b021790555090505060016000808282546110db9190611724565b90915550506001805480820182556000919091527fb10e2d527612073b26eecdfd717e6a320cf44b4afac2b0732d9fcbe2b7fa0cf601959095555050505050565b600081815260026020818152604080842060068101805460ff19166001908117909155825160e08101845282546001600160a01b03908116825291830154909116938101939093529283018054929392918401916111799061173c565b80601f01602080910402602001604051908101604052809291908181526020018280546111a59061173c565b80156111f25780601f106111c7576101008083540402835291602001916111f2565b820191906000526020600020905b8154815290600101906020018083116111d557829003601f168201915b5050509183525050600382015460208201526004820154604082015260058201546060820152600682015460809091019060ff16600281111561124557634e487b7160e01b600052602160045260246000fd5b600281111561126457634e487b7160e01b600052602160045260246000fd5b81525050905080602001516001600160a01b031681600001516001600160a01b03167fee0dca10a9957dad74da3fe318a3ccc561c46d96be0ab0b66e7aff32aab94cf342604051610ce591815260200190565b6040518060e0016040528060006001600160a01b0316815260200160006001600160a01b03168152602001606081526020016000815260200160008152602001600081526020016000600281111561131f57634e487b7160e01b600052602160045260246000fd5b905290565b8280546113309061173c565b90600052602060002090601f0160209004810192826113525760008555611398565b82601f1061136b57805160ff1916838001178555611398565b82800160010185558215611398579182015b8281111561139857825182559160200191906001019061137d565b506113a49291506113a8565b5090565b5b808211156113a457600081556001016113a9565b80356001600160a01b03811681146113d457600080fd5b919050565b600082601f8301126113e9578081fd5b813567ffffffffffffffff80821115611404576114046117a8565b604051601f8301601f19908116603f0116810190828211818310171561142c5761142c6117a8565b81604052838152866020858801011115611444578485fd5b8360208701602083013792830160200193909352509392505050565b600060208284031215611471578081fd5b61147a826113bd565b9392505050565b60008060408385031215611493578081fd5b61149c836113bd565b946020939093013593505050565b6000602082840312156114bb578081fd5b5035919050565b600080604083850312156114d4578182fd5b823591506114e4602084016113bd565b90509250929050565b60008060008060008060c08789031215611505578182fd5b86359550611515602088016113bd565b9450611523604088016113bd565b9350606087013567ffffffffffffffff81111561153e578283fd5b61154a89828a016113d9565b9350506080870135915060a087013590509295509295509295565b60008060408385031215611577578182fd5b82359150602083013567ffffffffffffffff811115611594578182fd5b6115a0858286016113d9565b9150509250929050565b600080604083850312156115bc578182fd5b50508035926020909101359150565b60008151808452815b818110156115f0576020818501810151868301820152016115d4565b818111156116015782602083870101525b50601f01601f19169290920160200192915050565b600060018060a01b0380835116845280602084015116602085015250604082015160e0604085015261164b60e08501826115cb565b9050606083015160608501526080830151608085015260a083015160a085015260c08301516003811061168c57634e487b7160e01b83526021600452602483fd5b8060c0860152508091505092915050565b6000602080830181845280855180835260408601915060408160051b8701019250838701855b828110156116f157603f198886030184526116df858351611616565b945092850192908501906001016116c3565b5092979650505050505050565b60208152600061147a60208301846115cb565b60208152600061147a6020830184611616565b6000821982111561173757611737611792565b500190565b600181811c9082168061175057607f821691505b6020821081141561177157634e487b7160e01b600052602260045260246000fd5b50919050565b600060001982141561178b5761178b611792565b5060010190565b634e487b7160e01b600052601160045260246000fd5b634e487b7160e01b600052604160045260246000fdfea26469706673582212206d4477843d49b02e77c0ca065613cb7488dedd5b3600abf90152f946cefca27564736f6c63430008040033",
  "linkReferences": {},
  "deployedLinkReferences": {}
}