{
  "_format": "hh-sol-artifact-1",
  "contractName": "EventLog",
  "sourceName": "contracts/eventLog.sol",
  "abi": [
    {
      "inputs": [],
      "stateMutability": "nonpayable",
      "type": "constructor"
    },
    {
      "anonymous": false,
      "inputs": [
        {
          "indexed": true,
          "internalType": "address",
          "name": "gameAddress",
          "type": "address"
        },
        {
          "indexed": true,
          "internalType": "address",
          "name": "owner",
          "type": "address"
        },
        {
          "indexed": false,
          "internalType": "uint256",
          "name": "timeStarted",
          "type": "uint256"
        }
      ],
      "name": "GameEnded",
      "type": "event"
    },
    {
      "anonymous": false,
      "inputs": [
        {
          "indexed": true,
          "internalType": "address",
          "name": "gameAddress",
          "type": "address"
        },
        {
          "indexed": true,
          "internalType": "address",
          "name": "owner",
          "type": "address"
        },
        {
          "indexed": false,
          "internalType": "uint256",
          "name": "timeStarted",
          "type": "uint256"
        }
      ],
      "name": "GameStarted",
      "type": "event"
    },
    {
      "inputs": [
        {
          "internalType": "address",
          "name": "_userAddress",
          "type": "address"
        },
        {
          "internalType": "uint256",
          "name": "_eventId",
          "type": "uint256"
        }
      ],
      "name": "_addCreatedEvent",
      "outputs": [],
      "stateMutability": "nonpayable",
      "type": "function"
    },
    {
      "inputs": [
        {
          "internalType": "address",
          "name": "_userAddress",
          "type": "address"
        },
        {
          "internalType": "uint256",
          "name": "_eventId",
          "type": "uint256"
        }
      ],
      "name": "_addRegisteredEvent",
      "outputs": [],
      "stateMutability": "nonpayable",
      "type": "function"
    },
    {
      "inputs": [
        {
          "internalType": "uint256",
          "name": "_eventId",
          "type": "uint256"
        },
        {
          "internalType": "address",
          "name": "_winner",
          "type": "address"
        }
      ],
      "name": "_addWinner",
      "outputs": [],
      "stateMutability": "nonpayable",
      "type": "function"
    },
    {
      "inputs": [
        {
          "internalType": "uint256",
          "name": "_eventId",
          "type": "uint256"
        }
      ],
      "name": "_gameEnd",
      "outputs": [],
      "stateMutability": "nonpayable",
      "type": "function"
    },
    {
      "inputs": [
        {
          "internalType": "uint256",
          "name": "_eventId",
          "type": "uint256"
        }
      ],
      "name": "_gameStart",
      "outputs": [],
      "stateMutability": "nonpayable",
      "type": "function"
    },
    {
      "inputs": [
        {
          "internalType": "uint256",
          "name": "_eventId",
          "type": "uint256"
        },
        {
          "internalType": "address",
          "name": "_userAddress",
          "type": "address"
        }
      ],
      "name": "_isWinner",
      "outputs": [
        {
          "internalType": "bool",
          "name": "",
          "type": "bool"
        }
      ],
      "stateMutability": "view",
      "type": "function"
    },
    {
      "inputs": [
        {
          "internalType": "uint256",
          "name": "_eventId",
          "type": "uint256"
        },
        {
          "internalType": "address",
          "name": "_eventGameAddress",
          "type": "address"
        },
        {
          "internalType": "address",
          "name": "_eventOwner",
          "type": "address"
        },
        {
          "internalType": "string",
          "name": "_eventName",
          "type": "string"
        },
        {
          "internalType": "uint256",
          "name": "_numberOfTickets",
          "type": "uint256"
        },
        {
          "internalType": "uint256",
          "name": "_ticketPrice",
          "type": "uint256"
        }
      ],
      "name": "_logEvent",
      "outputs": [],
      "stateMutability": "nonpayable",
      "type": "function"
    },
    {
      "inputs": [
        {
          "internalType": "uint256",
          "name": "_eventId",
          "type": "uint256"
        },
        {
          "internalType": "string",
          "name": "_newName",
          "type": "string"
        }
      ],
      "name": "_updateName",
      "outputs": [],
      "stateMutability": "nonpayable",
      "type": "function"
    },
    {
      "inputs": [
        {
          "internalType": "uint256",
          "name": "_eventId",
          "type": "uint256"
        },
        {
          "internalType": "uint256",
          "name": "_newPrice",
          "type": "uint256"
        }
      ],
      "name": "_updatePrice",
      "outputs": [],
      "stateMutability": "nonpayable",
      "type": "function"
    },
    {
      "inputs": [
        {
          "internalType": "uint256",
          "name": "_eventId",
          "type": "uint256"
        },
        {
          "internalType": "uint256",
          "name": "_newTickets",
          "type": "uint256"
        }
      ],
      "name": "_updateTickets",
      "outputs": [],
      "stateMutability": "nonpayable",
      "type": "function"
    },
    {
      "inputs": [
        {
          "internalType": "address",
          "name": "_userAddress",
          "type": "address"
        }
      ],
      "name": "getCreatedEvents",
      "outputs": [
        {
          "components": [
            {
              "internalType": "address",
              "name": "eventGameAddress",
              "type": "address"
            },
            {
              "internalType": "address",
              "name": "eventOwner",
              "type": "address"
            },
            {
              "internalType": "string",
              "name": "eventName",
              "type": "string"
            },
            {
              "internalType": "uint256",
              "name": "numberOfTickets",
              "type": "uint256"
            },
            {
              "internalType": "uint256",
              "name": "ticketPrice",
              "type": "uint256"
            },
            {
              "internalType": "uint256",
              "name": "totalUsers",
              "type": "uint256"
            },
            {
              "internalType": "enum EventLog.GameStatus",
              "name": "status",
              "type": "uint8"
            }
          ],
          "internalType": "struct EventLog.Event[]",
          "name": "",
          "type": "tuple[]"
        }
      ],
      "stateMutability": "view",
      "type": "function"
    },
    {
      "inputs": [
        {
          "internalType": "uint256",
          "name": "_eventId",
          "type": "uint256"
        }
      ],
      "name": "getEvent",
      "outputs": [
        {
          "components": [
            {
              "internalType": "address",
              "name": "eventGameAddress",
              "type": "address"
            },
            {
              "internalType": "address",
              "name": "eventOwner",
              "type": "address"
            },
            {
              "internalType": "string",
              "name": "eventName",
              "type": "string"
            },
            {
              "internalType": "uint256",
              "name": "numberOfTickets",
              "type": "uint256"
            },
            {
              "internalType": "uint256",
              "name": "ticketPrice",
              "type": "uint256"
            },
            {
              "internalType": "uint256",
              "name": "totalUsers",
              "type": "uint256"
            },
            {
              "internalType": "enum EventLog.GameStatus",
              "name": "status",
              "type": "uint8"
            }
          ],
          "internalType": "struct EventLog.Event",
          "name": "",
          "type": "tuple"
        }
      ],
      "stateMutability": "view",
      "type": "function"
    },
    {
      "inputs": [
        {
          "internalType": "uint256",
          "name": "_eventId",
          "type": "uint256"
        }
      ],
      "name": "getEventAddress",
      "outputs": [
        {
          "internalType": "address",
          "name": "",
          "type": "address"
        }
      ],
      "stateMutability": "view",
      "type": "function"
    },
    {
      "inputs": [
        {
          "internalType": "uint256",
          "name": "_eventId",
          "type": "uint256"
        }
      ],
      "name": "getEventName",
      "outputs": [
        {
          "internalType": "string",
          "name": "",
          "type": "string"
        }
      ],
      "stateMutability": "view",
      "type": "function"
    },
    {
      "inputs": [
        {
          "internalType": "uint256",
          "name": "_eventId",
          "type": "uint256"
        }
      ],
      "name": "getNumberOfTickets",
      "outputs": [
        {
          "internalType": "uint256",
          "name": "",
          "type": "uint256"
        }
      ],
      "stateMutability": "view",
      "type": "function"
    },
    {
      "inputs": [],
      "name": "getOpenEvents",
      "outputs": [
        {
          "components": [
            {
              "internalType": "address",
              "name": "eventGameAddress",
              "type": "address"
            },
            {
              "internalType": "address",
              "name": "eventOwner",
              "type": "address"
            },
            {
              "internalType": "string",
              "name": "eventName",
              "type": "string"
            },
            {
              "internalType": "uint256",
              "name": "numberOfTickets",
              "type": "uint256"
            },
            {
              "internalType": "uint256",
              "name": "ticketPrice",
              "type": "uint256"
            },
            {
              "internalType": "uint256",
              "name": "totalUsers",
              "type": "uint256"
            },
            {
              "internalType": "enum EventLog.GameStatus",
              "name": "status",
              "type": "uint8"
            }
          ],
          "internalType": "struct EventLog.Event[]",
          "name": "",
          "type": "tuple[]"
        }
      ],
      "stateMutability": "view",
      "type": "function"
    },
    {
      "inputs": [
        {
          "internalType": "address",
          "name": "_userAddress",
          "type": "address"
        }
      ],
      "name": "getRegisteredEvents",
      "outputs": [
        {
          "components": [
            {
              "internalType": "address",
              "name": "eventGameAddress",
              "type": "address"
            },
            {
              "internalType": "address",
              "name": "eventOwner",
              "type": "address"
            },
            {
              "internalType": "string",
              "name": "eventName",
              "type": "string"
            },
            {
              "internalType": "uint256",
              "name": "numberOfTickets",
              "type": "uint256"
            },
            {
              "internalType": "uint256",
              "name": "ticketPrice",
              "type": "uint256"
            },
            {
              "internalType": "uint256",
              "name": "totalUsers",
              "type": "uint256"
            },
            {
              "internalType": "enum EventLog.GameStatus",
              "name": "status",
              "type": "uint8"
            }
          ],
          "internalType": "struct EventLog.Event[]",
          "name": "",
          "type": "tuple[]"
        }
      ],
      "stateMutability": "view",
      "type": "function"
    }
  ],
  "bytecode": "0x608060405234801561001057600080fd5b506000805561192a806100246000396000f3fe608060405234801561001057600080fd5b506004361061010b5760003560e01c806379050904116100a2578063c90eeff111610071578063c90eeff114610263578063ee0591fe14610276578063f052cf9914610289578063fbf6265e1461029c578063fc999f20146102e557600080fd5b806379050904146102225780637b7528ac1461022a5780639abea6c11461023d578063ab31803f1461025057600080fd5b80634945fcc7116100de5780634945fcc71461019e57806364ab2b10146101be5780636d1884e0146101d15780636e59b1ad146101f157600080fd5b8063069e2fb2146101105780631210b3d6146101255780631c25f16e1461013857806320037f331461017e575b600080fd5b61012361011e3660046115b7565b6102f8565b005b6101236101333660046116e0565b610370565b6101616101463660046115e0565b6000908152600260205260409020546001600160a01b031690565b6040516001600160a01b0390911681526020015b60405180910390f35b61019161018c366004611596565b6103a8565b60405161017591906117d3565b6101b16101ac3660046115e0565b61063a565b6040516101759190611834565b6101236101cc36600461169b565b6106e2565b6101e46101df3660046115e0565b61072f565b6040516101759190611847565b6102146101ff3660046115e0565b60009081526002602052604090206003015490565b604051908152602001610175565b610191610876565b6101236102383660046115e0565b610b1c565b61012361024b3660046116e0565b610d23565b61019161025e366004611596565b610d5b565b610123610271366004611623565b610fe4565b6101236102843660046115f8565b61114e565b6101236102973660046115e0565b6111a1565b6102d56102aa3660046115f8565b60009182526005602090815260408084206001600160a01b0393909316845291905290205460ff1690565b6040519015158152602001610175565b6101236102f33660046115b7565b61139e565b6000818152600260205260409020546001600160a01b0316331461031b57600080fd5b6001600160a01b0382166000908152600360209081526040808320805460018181018355918552838520018590558484526002909252822060050180549192909161036790849061185a565b90915550505050565b6000828152600260205260409020546001600160a01b0316331461039357600080fd5b60009182526002602052604090912060040155565b6001600160a01b038116600090815260046020908152604080832080548251818502810185019093528083526060949383018282801561040757602002820191906000526020600020905b8154815260200190600101908083116103f3575b5050505050905060008151905060008167ffffffffffffffff81111561043d57634e487b7160e01b600052604160045260246000fd5b60405190808252806020026020018201604052801561047657816020015b6104636113ed565b81526020019060019003908161045b5790505b50905060005b828110156106315760008482815181106104a657634e487b7160e01b600052603260045260246000fd5b602090810291909101810151600081815260028084526040808320815160e08101835281546001600160a01b0390811682526001830154169681019690965291820180549496509294939192908401916104ff90611872565b80601f016020809104026020016040519081016040528092919081815260200182805461052b90611872565b80156105785780601f1061054d57610100808354040283529160200191610578565b820191906000526020600020905b81548152906001019060200180831161055b57829003601f168201915b5050509183525050600382015460208201526004820154604082015260058201546060820152600682015460809091019060ff1660028111156105cb57634e487b7160e01b600052602160045260246000fd5b60028111156105ea57634e487b7160e01b600052602160045260246000fd5b8152505090508084848151811061061157634e487b7160e01b600052603260045260246000fd5b602002602001018190525050508080610629906118ad565b91505061047c565b50949350505050565b606060026000838152602001908152602001600020600201805461065d90611872565b80601f016020809104026020016040519081016040528092919081815260200182805461068990611872565b80156106d65780601f106106ab576101008083540402835291602001916106d6565b820191906000526020600020905b8154815290600101906020018083116106b957829003601f168201915b50505050509050919050565b6000828152600260205260409020546001600160a01b0316331461070557600080fd5b6000828152600260208181526040909220835161072a9391909201919084019061145a565b505050565b6107376113ed565b6000828152600260208181526040808420815160e08101835281546001600160a01b0390811682526001830154169381019390935292830180549293929184019161078190611872565b80601f01602080910402602001604051908101604052809291908181526020018280546107ad90611872565b80156107fa5780601f106107cf576101008083540402835291602001916107fa565b820191906000526020600020905b8154815290600101906020018083116107dd57829003601f168201915b5050509183525050600382015460208201526004820154604082015260058201546060820152600682015460809091019060ff16600281111561084d57634e487b7160e01b600052602160045260246000fd5b600281111561086c57634e487b7160e01b600052602160045260246000fd5b9052509392505050565b6060600060015b60005481116108e157600081815260026020819052604082206006015460ff16908111156108bb57634e487b7160e01b600052602160045260246000fd5b14156108cf576108cc60018361185a565b91505b806108d9816118ad565b91505061087d565b5060008167ffffffffffffffff81111561090b57634e487b7160e01b600052604160045260246000fd5b60405190808252806020026020018201604052801561094457816020015b6109316113ed565b8152602001906001900390816109295790505b509050600060015b6000548111610b1357600081815260026020819052604082206006015460ff169081111561098a57634e487b7160e01b600052602160045260246000fd5b1415610b0157600081815260026020818152604092839020835160e08101855281546001600160a01b03908116825260018301541692810192909252918201805491938401916109d990611872565b80601f0160208091040260200160405190810160405280929190818152602001828054610a0590611872565b8015610a525780601f10610a2757610100808354040283529160200191610a52565b820191906000526020600020905b815481529060010190602001808311610a3557829003601f168201915b5050509183525050600382015460208201526004820154604082015260058201546060820152600682015460809091019060ff166002811115610aa557634e487b7160e01b600052602160045260246000fd5b6002811115610ac457634e487b7160e01b600052602160045260246000fd5b81525050838381518110610ae857634e487b7160e01b600052603260045260246000fd5b6020908102919091010152610afe60018361185a565b91505b80610b0b816118ad565b91505061094c565b50909392505050565b6000818152600260205260409020546001600160a01b03163314610b3f57600080fd5b600160008281526002602081905260409091206006015460ff1690811115610b7757634e487b7160e01b600052602160045260246000fd5b14610b8157600080fd5b600081815260026020818152604080842060068101805460ff191685179055815160e08101835281546001600160a01b03908116825260018301541693810193909352928301805492939291840191610bd990611872565b80601f0160208091040260200160405190810160405280929190818152602001828054610c0590611872565b8015610c525780601f10610c2757610100808354040283529160200191610c52565b820191906000526020600020905b815481529060010190602001808311610c3557829003601f168201915b5050509183525050600382015460208201526004820154604082015260058201546060820152600682015460809091019060ff166002811115610ca557634e487b7160e01b600052602160045260246000fd5b6002811115610cc457634e487b7160e01b600052602160045260246000fd5b81525050905080602001516001600160a01b031681600001516001600160a01b03167fc5e48929c6ad41636874ae3938e60e36431dd0899ca520e58c58107c9e4454de42604051610d1791815260200190565b60405180910390a35050565b6000828152600260205260409020546001600160a01b03163314610d4657600080fd5b60009182526002602052604090912060030155565b6001600160a01b0381166000908152600360209081526040808320805482518185028101850190935280835260609493830182828015610dba57602002820191906000526020600020905b815481526020019060010190808311610da6575b5050505050905060008151905060008167ffffffffffffffff811115610df057634e487b7160e01b600052604160045260246000fd5b604051908082528060200260200182016040528015610e2957816020015b610e166113ed565b815260200190600190039081610e0e5790505b50905060005b82811015610631576000848281518110610e5957634e487b7160e01b600052603260045260246000fd5b602090810291909101810151600081815260028084526040808320815160e08101835281546001600160a01b039081168252600183015416968101969096529182018054949650929493919290840191610eb290611872565b80601f0160208091040260200160405190810160405280929190818152602001828054610ede90611872565b8015610f2b5780601f10610f0057610100808354040283529160200191610f2b565b820191906000526020600020905b815481529060010190602001808311610f0e57829003601f168201915b5050509183525050600382015460208201526004820154604082015260058201546060820152600682015460809091019060ff166002811115610f7e57634e487b7160e01b600052602160045260246000fd5b6002811115610f9d57634e487b7160e01b600052602160045260246000fd5b81525050905080848481518110610fc457634e487b7160e01b600052603260045260246000fd5b602002602001018190525050508080610fdc906118ad565b915050610e2f565b6040518060e00160405280866001600160a01b03168152602001856001600160a01b03168152602001848152602001838152602001828152602001600081526020016000600281111561104757634e487b7160e01b600052602160045260246000fd5b9052600087815260026020818152604092839020845181546001600160a01b039182166001600160a01b0319918216178355868401516001840180549190931691161790559284015180516110a393850192919091019061145a565b50606082015160038201556080820151600482015560a0820151600582015560c082015160068201805460ff191660018360028111156110f357634e487b7160e01b600052602160045260246000fd5b0217905550905050600160008082825461110d919061185a565b90915550506001805480820182556000919091527fb10e2d527612073b26eecdfd717e6a320cf44b4afac2b0732d9fcbe2b7fa0cf601959095555050505050565b6000828152600260205260409020546001600160a01b0316331461117157600080fd5b60009182526005602090815260408084206001600160a01b0390931684529190529020805460ff19166001179055565b6000818152600260205260409020546001600160a01b031633146111c457600080fd5b600081815260026020819052604082206006015460ff16908111156111f957634e487b7160e01b600052602160045260246000fd5b1461120357600080fd5b600081815260026020818152604080842060068101805460ff19166001908117909155825160e08101845282546001600160a01b039081168252918301549091169381019390935292830180549293929184019161126090611872565b80601f016020809104026020016040519081016040528092919081815260200182805461128c90611872565b80156112d95780601f106112ae576101008083540402835291602001916112d9565b820191906000526020600020905b8154815290600101906020018083116112bc57829003601f168201915b5050509183525050600382015460208201526004820154604082015260058201546060820152600682015460809091019060ff16600281111561132c57634e487b7160e01b600052602160045260246000fd5b600281111561134b57634e487b7160e01b600052602160045260246000fd5b81525050905080602001516001600160a01b031681600001516001600160a01b03167fee0dca10a9957dad74da3fe318a3ccc561c46d96be0ab0b66e7aff32aab94cf342604051610d1791815260200190565b6000818152600260205260409020546001600160a01b031633146113c157600080fd5b6001600160a01b0390911660009081526004602090815260408220805460018101825590835291200155565b6040518060e0016040528060006001600160a01b0316815260200160006001600160a01b03168152602001606081526020016000815260200160008152602001600081526020016000600281111561145557634e487b7160e01b600052602160045260246000fd5b905290565b82805461146690611872565b90600052602060002090601f01602090048101928261148857600085556114ce565b82601f106114a157805160ff19168380011785556114ce565b828001600101855582156114ce579182015b828111156114ce5782518255916020019190600101906114b3565b506114da9291506114de565b5090565b5b808211156114da57600081556001016114df565b80356001600160a01b038116811461150a57600080fd5b919050565b600082601f83011261151f578081fd5b813567ffffffffffffffff8082111561153a5761153a6118de565b604051601f8301601f19908116603f01168101908282118183101715611562576115626118de565b8160405283815286602085880101111561157a578485fd5b8360208701602083013792830160200193909352509392505050565b6000602082840312156115a7578081fd5b6115b0826114f3565b9392505050565b600080604083850312156115c9578081fd5b6115d2836114f3565b946020939093013593505050565b6000602082840312156115f1578081fd5b5035919050565b6000806040838503121561160a578182fd5b8235915061161a602084016114f3565b90509250929050565b60008060008060008060c0878903121561163b578182fd5b8635955061164b602088016114f3565b9450611659604088016114f3565b9350606087013567ffffffffffffffff811115611674578283fd5b61168089828a0161150f565b9350506080870135915060a087013590509295509295509295565b600080604083850312156116ad578182fd5b82359150602083013567ffffffffffffffff8111156116ca578182fd5b6116d68582860161150f565b9150509250929050565b600080604083850312156116f2578182fd5b50508035926020909101359150565b60008151808452815b818110156117265760208185018101518683018201520161170a565b818111156117375782602083870101525b50601f01601f19169290920160200192915050565b600060018060a01b0380835116845280602084015116602085015250604082015160e0604085015261178160e0850182611701565b9050606083015160608501526080830151608085015260a083015160a085015260c0830151600381106117c257634e487b7160e01b83526021600452602483fd5b8060c0860152508091505092915050565b6000602080830181845280855180835260408601915060408160051b8701019250838701855b8281101561182757603f1988860301845261181585835161174c565b945092850192908501906001016117f9565b5092979650505050505050565b6020815260006115b06020830184611701565b6020815260006115b0602083018461174c565b6000821982111561186d5761186d6118c8565b500190565b600181811c9082168061188657607f821691505b602082108114156118a757634e487b7160e01b600052602260045260246000fd5b50919050565b60006000198214156118c1576118c16118c8565b5060010190565b634e487b7160e01b600052601160045260246000fd5b634e487b7160e01b600052604160045260246000fdfea26469706673582212203e2d86794a8ce668221195d18cfc0eb09cc763268a91dc4dd3326504d5c4eada64736f6c63430008040033",
  "linkReferences": {},
  "deployedLinkReferences": {}
}