{
  "_format": "hh-sol-artifact-1",
  "contractName": "EventLog",
  "sourceName": "contracts/eventLog.sol",
  "abi": [
    {
      "inputs": [],
      "stateMutability": "nonpayable",
      "type": "constructor"
    },
    {
      "anonymous": false,
      "inputs": [
        {
          "indexed": true,
          "internalType": "address",
          "name": "previousOwner",
          "type": "address"
        },
        {
          "indexed": true,
          "internalType": "address",
          "name": "newOwner",
          "type": "address"
        }
      ],
      "name": "OwnershipTransferred",
      "type": "event"
    },
    {
      "inputs": [
        {
          "internalType": "address",
          "name": "_userAddress",
          "type": "address"
        },
        {
          "internalType": "uint256",
          "name": "_eventId",
          "type": "uint256"
        }
      ],
      "name": "_addCreatedEvent",
      "outputs": [],
      "stateMutability": "nonpayable",
      "type": "function"
    },
    {
      "inputs": [
        {
          "internalType": "address",
          "name": "_userAddress",
          "type": "address"
        },
        {
          "internalType": "uint256",
          "name": "_eventId",
          "type": "uint256"
        }
      ],
      "name": "_addRegisteredEvent",
      "outputs": [],
      "stateMutability": "nonpayable",
      "type": "function"
    },
    {
      "inputs": [
        {
          "internalType": "uint256",
          "name": "_eventId",
          "type": "uint256"
        },
        {
          "internalType": "address",
          "name": "_winner",
          "type": "address"
        }
      ],
      "name": "_addWinner",
      "outputs": [],
      "stateMutability": "nonpayable",
      "type": "function"
    },
    {
      "inputs": [
        {
          "internalType": "uint256",
          "name": "_eventId",
          "type": "uint256"
        }
      ],
      "name": "_closeEvent",
      "outputs": [],
      "stateMutability": "nonpayable",
      "type": "function"
    },
    {
      "inputs": [
        {
          "internalType": "uint256",
          "name": "_eventId",
          "type": "uint256"
        },
        {
          "internalType": "address",
          "name": "_eventGameAddress",
          "type": "address"
        },
        {
          "internalType": "address",
          "name": "_eventOwner",
          "type": "address"
        },
        {
          "internalType": "string",
          "name": "_eventName",
          "type": "string"
        },
        {
          "internalType": "uint256",
          "name": "_numberOfTickets",
          "type": "uint256"
        },
        {
          "internalType": "uint256",
          "name": "_ticketPrice",
          "type": "uint256"
        }
      ],
      "name": "_logEvent",
      "outputs": [],
      "stateMutability": "nonpayable",
      "type": "function"
    },
    {
      "inputs": [
        {
          "internalType": "uint256",
          "name": "_eventId",
          "type": "uint256"
        },
        {
          "internalType": "string",
          "name": "_newName",
          "type": "string"
        }
      ],
      "name": "_updateName",
      "outputs": [],
      "stateMutability": "nonpayable",
      "type": "function"
    },
    {
      "inputs": [
        {
          "internalType": "uint256",
          "name": "_eventId",
          "type": "uint256"
        },
        {
          "internalType": "uint256",
          "name": "_newPrice",
          "type": "uint256"
        }
      ],
      "name": "_updatePrice",
      "outputs": [],
      "stateMutability": "nonpayable",
      "type": "function"
    },
    {
      "inputs": [
        {
          "internalType": "uint256",
          "name": "_eventId",
          "type": "uint256"
        },
        {
          "internalType": "uint256",
          "name": "_newTickets",
          "type": "uint256"
        }
      ],
      "name": "_updateTickets",
      "outputs": [],
      "stateMutability": "nonpayable",
      "type": "function"
    },
    {
      "inputs": [
        {
          "internalType": "address",
          "name": "_userAddress",
          "type": "address"
        }
      ],
      "name": "getCreatedEvents",
      "outputs": [
        {
          "components": [
            {
              "internalType": "address",
              "name": "eventGameAddress",
              "type": "address"
            },
            {
              "internalType": "address",
              "name": "eventOwner",
              "type": "address"
            },
            {
              "internalType": "string",
              "name": "eventName",
              "type": "string"
            },
            {
              "internalType": "uint256",
              "name": "numberOfTickets",
              "type": "uint256"
            },
            {
              "internalType": "uint256",
              "name": "ticketPrice",
              "type": "uint256"
            },
            {
              "internalType": "bool",
              "name": "isOpen",
              "type": "bool"
            }
          ],
          "internalType": "struct EventLog.Event[]",
          "name": "",
          "type": "tuple[]"
        }
      ],
      "stateMutability": "view",
      "type": "function"
    },
    {
      "inputs": [
        {
          "internalType": "uint256",
          "name": "_eventId",
          "type": "uint256"
        }
      ],
      "name": "getEvent",
      "outputs": [
        {
          "components": [
            {
              "internalType": "address",
              "name": "eventGameAddress",
              "type": "address"
            },
            {
              "internalType": "address",
              "name": "eventOwner",
              "type": "address"
            },
            {
              "internalType": "string",
              "name": "eventName",
              "type": "string"
            },
            {
              "internalType": "uint256",
              "name": "numberOfTickets",
              "type": "uint256"
            },
            {
              "internalType": "uint256",
              "name": "ticketPrice",
              "type": "uint256"
            },
            {
              "internalType": "bool",
              "name": "isOpen",
              "type": "bool"
            }
          ],
          "internalType": "struct EventLog.Event",
          "name": "",
          "type": "tuple"
        }
      ],
      "stateMutability": "view",
      "type": "function"
    },
    {
      "inputs": [],
      "name": "getOpenEvents",
      "outputs": [
        {
          "components": [
            {
              "internalType": "address",
              "name": "eventGameAddress",
              "type": "address"
            },
            {
              "internalType": "address",
              "name": "eventOwner",
              "type": "address"
            },
            {
              "internalType": "string",
              "name": "eventName",
              "type": "string"
            },
            {
              "internalType": "uint256",
              "name": "numberOfTickets",
              "type": "uint256"
            },
            {
              "internalType": "uint256",
              "name": "ticketPrice",
              "type": "uint256"
            },
            {
              "internalType": "bool",
              "name": "isOpen",
              "type": "bool"
            }
          ],
          "internalType": "struct EventLog.Event[]",
          "name": "",
          "type": "tuple[]"
        }
      ],
      "stateMutability": "view",
      "type": "function"
    },
    {
      "inputs": [
        {
          "internalType": "address",
          "name": "_userAddress",
          "type": "address"
        }
      ],
      "name": "getRegisteredEvents",
      "outputs": [
        {
          "components": [
            {
              "internalType": "address",
              "name": "eventGameAddress",
              "type": "address"
            },
            {
              "internalType": "address",
              "name": "eventOwner",
              "type": "address"
            },
            {
              "internalType": "string",
              "name": "eventName",
              "type": "string"
            },
            {
              "internalType": "uint256",
              "name": "numberOfTickets",
              "type": "uint256"
            },
            {
              "internalType": "uint256",
              "name": "ticketPrice",
              "type": "uint256"
            },
            {
              "internalType": "bool",
              "name": "isOpen",
              "type": "bool"
            }
          ],
          "internalType": "struct EventLog.Event[]",
          "name": "",
          "type": "tuple[]"
        }
      ],
      "stateMutability": "view",
      "type": "function"
    },
    {
      "inputs": [],
      "name": "owner",
      "outputs": [
        {
          "internalType": "address",
          "name": "",
          "type": "address"
        }
      ],
      "stateMutability": "view",
      "type": "function"
    },
    {
      "inputs": [],
      "name": "renounceOwnership",
      "outputs": [],
      "stateMutability": "nonpayable",
      "type": "function"
    },
    {
      "inputs": [
        {
          "internalType": "address",
          "name": "newOwner",
          "type": "address"
        }
      ],
      "name": "transferOwnership",
      "outputs": [],
      "stateMutability": "nonpayable",
      "type": "function"
    }
  ],
  "bytecode": "0x608060405234801561001057600080fd5b5061001a33610024565b6000600155610074565b600080546001600160a01b038381166001600160a01b0319831681178455604051919092169283917f8be0079c531659141344cd1fd0a4f28419497f9722a3daafe3b4186f6b6457e09190a35050565b6112c7806100836000396000f3fe608060405234801561001057600080fd5b50600436106100f55760003560e01c80638da5cb5b11610097578063d5af7b7211610066578063d5af7b7214610209578063ee0591fe1461021c578063f2fde38b1461025a578063fc999f201461026d57600080fd5b80638da5cb5b146101b55780639abea6c1146101d0578063ab31803f146101e3578063c90eeff1146101f657600080fd5b806364ab2b10116100d357806364ab2b10146101725780636d1884e014610185578063715018a6146101a557806379050904146101ad57600080fd5b8063069e2fb2146100fa5780631210b3d61461013657806320037f3314610149575b600080fd5b610134610108366004610f64565b6001600160a01b0390911660009081526004602090815260408220805460018101825590835291200155565b005b61013461014436600461108d565b6102a7565b61015c610157366004610f43565b6102ef565b604051610169919061114e565b60405180910390f35b610134610180366004611048565b61053d565b610198610193366004610f8d565b610591565b60405161016991906111e4565b610134610692565b61015c6106c8565b6000546040516001600160a01b039091168152602001610169565b6101346101de36600461108d565b6108f3565b61015c6101f1366004610f43565b610934565b610134610204366004610fd0565b610b79565b610134610217366004610f8d565b610c8d565b61013461022a366004610fa5565b60009182526006602090815260408084206001600160a01b0390931684529190529020805460ff19166001179055565b610134610268366004610f43565b610cd2565b61013461027b366004610f64565b6001600160a01b0390911660009081526005602090815260408220805460018101825590835291200155565b6000546001600160a01b031633146102da5760405162461bcd60e51b81526004016102d1906111af565b60405180910390fd5b60009182526003602052604090912060040155565b6001600160a01b038116600090815260056020908152604080832080548251818502810185019093528083526060949383018282801561034e57602002820191906000526020600020905b81548152602001906001019080831161033a575b5050505050905060008151905060008167ffffffffffffffff81111561038457634e487b7160e01b600052604160045260246000fd5b6040519080825280602002602001820160405280156103bd57816020015b6103aa610dbd565b8152602001906001900390816103a25790505b50905060005b828110156105345760008482815181106103ed57634e487b7160e01b600052603260045260246000fd5b6020908102919091018101516000818152600383526040808220815160c08101835281546001600160a01b03908116825260018301541695810195909552600281018054949650929493909291840191906104479061120f565b80601f01602080910402602001604051908101604052809291908181526020018280546104739061120f565b80156104c05780601f10610495576101008083540402835291602001916104c0565b820191906000526020600020905b8154815290600101906020018083116104a357829003601f168201915b5050509183525050600382015460208201526004820154604082015260059091015460ff1615156060909101528451909150819085908590811061051457634e487b7160e01b600052603260045260246000fd5b60200260200101819052505050808061052c9061124a565b9150506103c3565b50949350505050565b6000546001600160a01b031633146105675760405162461bcd60e51b81526004016102d1906111af565b6000828152600360209081526040909120825161058c92600290920191840190610e07565b505050565b610599610dbd565b600082815260036020908152604091829020825160c08101845281546001600160a01b0390811682526001830154169281019290925260028101805492939192918401916105e69061120f565b80601f01602080910402602001604051908101604052809291908181526020018280546106129061120f565b801561065f5780601f106106345761010080835404028352916020019161065f565b820191906000526020600020905b81548152906001019060200180831161064257829003601f168201915b5050509183525050600382015460208201526004820154604082015260059091015460ff16151560609091015292915050565b6000546001600160a01b031633146106bc5760405162461bcd60e51b81526004016102d1906111af565b6106c66000610d6d565b565b60606000805b6001548110156107175760008181526003602052604090206005015460ff16151560011415610705576107026001836111f7565b91505b8061070f8161124a565b9150506106ce565b5060008167ffffffffffffffff81111561074157634e487b7160e01b600052604160045260246000fd5b60405190808252806020026020018201604052801561077a57816020015b610767610dbd565b81526020019060019003908161075f5790505b5090506000805b6001548110156108ea5760008181526003602052604090206005015460ff161515600114156108d857600081815260036020908152604091829020825160c08101845281546001600160a01b0390811682526001830154169281019290925260028101805492939192918401916107f79061120f565b80601f01602080910402602001604051908101604052809291908181526020018280546108239061120f565b80156108705780601f1061084557610100808354040283529160200191610870565b820191906000526020600020905b81548152906001019060200180831161085357829003601f168201915b5050509183525050600382015460208201526004820154604082015260059091015460ff16151560609091015283518490849081106108bf57634e487b7160e01b600052603260045260246000fd5b60209081029190910101526108d56001836111f7565b91505b806108e28161124a565b915050610781565b50909392505050565b6000546001600160a01b0316331461091d5760405162461bcd60e51b81526004016102d1906111af565b600091825260036020819052604090922090910155565b6001600160a01b038116600090815260046020908152604080832080548251818502810185019093528083526060949383018282801561099357602002820191906000526020600020905b81548152602001906001019080831161097f575b5050505050905060008151905060008167ffffffffffffffff8111156109c957634e487b7160e01b600052604160045260246000fd5b604051908082528060200260200182016040528015610a0257816020015b6109ef610dbd565b8152602001906001900390816109e75790505b50905060005b82811015610534576000848281518110610a3257634e487b7160e01b600052603260045260246000fd5b6020908102919091018101516000818152600383526040808220815160c08101835281546001600160a01b0390811682526001830154169581019590955260028101805494965092949390929184019190610a8c9061120f565b80601f0160208091040260200160405190810160405280929190818152602001828054610ab89061120f565b8015610b055780601f10610ada57610100808354040283529160200191610b05565b820191906000526020600020905b815481529060010190602001808311610ae857829003601f168201915b5050509183525050600382015460208201526004820154604082015260059091015460ff16151560609091015284519091508190859085908110610b5957634e487b7160e01b600052603260045260246000fd5b602002602001018190525050508080610b719061124a565b915050610a08565b6040805160c0810182526001600160a01b03808816825286811660208084019182528385018881526060850188905260808501879052600160a0860181905260008d81526003845296909620855181549086166001600160a01b03199182161782559351968101805497909516969093169590951790925592518051929392610c089260028501920190610e07565b50606082015160038201556080820151600482015560a0909101516005909101805460ff1916911515919091179055600180548190600090610c4b9083906111f7565b9091555050600280546001810182556000919091527f405787fa12a823e0f2b7631cc41b3ba8828b3321ca811111fa75cd3aa3bb5ace01959095555050505050565b6000546001600160a01b03163314610cb75760405162461bcd60e51b81526004016102d1906111af565b6000908152600360205260409020600501805460ff19169055565b6000546001600160a01b03163314610cfc5760405162461bcd60e51b81526004016102d1906111af565b6001600160a01b038116610d615760405162461bcd60e51b815260206004820152602660248201527f4f776e61626c653a206e6577206f776e657220697320746865207a65726f206160448201526564647265737360d01b60648201526084016102d1565b610d6a81610d6d565b50565b600080546001600160a01b038381166001600160a01b0319831681178455604051919092169283917f8be0079c531659141344cd1fd0a4f28419497f9722a3daafe3b4186f6b6457e09190a35050565b6040518060c0016040528060006001600160a01b0316815260200160006001600160a01b031681526020016060815260200160008152602001600081526020016000151581525090565b828054610e139061120f565b90600052602060002090601f016020900481019282610e355760008555610e7b565b82601f10610e4e57805160ff1916838001178555610e7b565b82800160010185558215610e7b579182015b82811115610e7b578251825591602001919060010190610e60565b50610e87929150610e8b565b5090565b5b80821115610e875760008155600101610e8c565b80356001600160a01b0381168114610eb757600080fd5b919050565b600082601f830112610ecc578081fd5b813567ffffffffffffffff80821115610ee757610ee761127b565b604051601f8301601f19908116603f01168101908282118183101715610f0f57610f0f61127b565b81604052838152866020858801011115610f27578485fd5b8360208701602083013792830160200193909352509392505050565b600060208284031215610f54578081fd5b610f5d82610ea0565b9392505050565b60008060408385031215610f76578081fd5b610f7f83610ea0565b946020939093013593505050565b600060208284031215610f9e578081fd5b5035919050565b60008060408385031215610fb7578182fd5b82359150610fc760208401610ea0565b90509250929050565b60008060008060008060c08789031215610fe8578182fd5b86359550610ff860208801610ea0565b945061100660408801610ea0565b9350606087013567ffffffffffffffff811115611021578283fd5b61102d89828a01610ebc565b9350506080870135915060a087013590509295509295509295565b6000806040838503121561105a578182fd5b82359150602083013567ffffffffffffffff811115611077578182fd5b61108385828601610ebc565b9150509250929050565b6000806040838503121561109f578182fd5b50508035926020909101359150565b600060018060a01b038083511684526020818185015116818601526040840151915060c0604086015281518060c0870152835b818110156110fd5783810183015187820160e0015282016110e1565b8181111561110e578460e083890101525b50606085015160608701526080850151608087015260a0850151925061113860a087018415159052565b601f01601f19169490940160e001949350505050565b6000602080830181845280855180835260408601915060408160051b8701019250838701855b828110156111a257603f198886030184526111908583516110ae565b94509285019290850190600101611174565b5092979650505050505050565b6020808252818101527f4f776e61626c653a2063616c6c6572206973206e6f7420746865206f776e6572604082015260600190565b602081526000610f5d60208301846110ae565b6000821982111561120a5761120a611265565b500190565b600181811c9082168061122357607f821691505b6020821081141561124457634e487b7160e01b600052602260045260246000fd5b50919050565b600060001982141561125e5761125e611265565b5060010190565b634e487b7160e01b600052601160045260246000fd5b634e487b7160e01b600052604160045260246000fdfea2646970667358221220817c283948a723db069fa0b94f51febbf5a3869cab0af5b529f9c4768702945464736f6c63430008040033",
  "linkReferences": {},
  "deployedLinkReferences": {}
}