{
  "_format": "hh-sol-artifact-1",
  "contractName": "eventLog",
  "sourceName": "contracts/eventLog.sol",
  "abi": [
    {
      "inputs": [
        {
          "internalType": "string",
          "name": "_eventName",
          "type": "string"
        },
        {
          "internalType": "address",
          "name": "_winner",
          "type": "address"
        }
      ],
      "name": "_addWinner",
      "outputs": [],
      "stateMutability": "nonpayable",
      "type": "function"
    },
    {
      "inputs": [
        {
          "internalType": "string",
          "name": "_eventName",
          "type": "string"
        },
        {
          "internalType": "address",
          "name": "_eventGameAddress",
          "type": "address"
        },
        {
          "internalType": "address",
          "name": "_eventOwner",
          "type": "address"
        },
        {
          "internalType": "uint256",
          "name": "_numberOfTickets",
          "type": "uint256"
        },
        {
          "internalType": "uint256",
          "name": "_ticketPrice",
          "type": "uint256"
        }
      ],
      "name": "_logEvent",
      "outputs": [],
      "stateMutability": "nonpayable",
      "type": "function"
    },
    {
      "inputs": [
        {
          "internalType": "string",
          "name": "_eventName",
          "type": "string"
        }
      ],
      "name": "getEvent",
      "outputs": [
        {
          "components": [
            {
              "internalType": "address",
              "name": "eventGameAddress",
              "type": "address"
            },
            {
              "internalType": "address",
              "name": "eventOwner",
              "type": "address"
            },
            {
              "internalType": "uint256",
              "name": "numberOfTickets",
              "type": "uint256"
            },
            {
              "internalType": "uint256",
              "name": "ticketPrice",
              "type": "uint256"
            }
          ],
          "internalType": "struct eventLog.Event",
          "name": "",
          "type": "tuple"
        }
      ],
      "stateMutability": "view",
      "type": "function"
    }
  ],
  "bytecode": "0x608060405234801561001057600080fd5b506104b0806100206000396000f3fe608060405234801561001057600080fd5b50600436106100415760003560e01c80639f3feb4d14610046578063e19020631461005b578063fad8fe0d146100b8575b600080fd5b6100596100543660046102ea565b6100cb565b005b61006e6100693660046102aa565b61011a565b6040516100af919081516001600160a01b03908116825260208084015190911690820152604080830151908201526060918201519181019190915260800190565b60405180910390f35b6100596100c636600461033c565b6101a1565b60018084846040516100de92919061041b565b90815260408051602092819003830190206001600160a01b0394909416600090815293909152909120805460ff19169115159190911790555050565b6040805160808101825260008082526020820181905291810182905260608101919091526000838360405161015092919061041b565b90815260408051918290036020908101832060808401835280546001600160a01b03908116855260018201541691840191909152600281015491830191909152600301546060820152905092915050565b60006040518060800160405280866001600160a01b03168152602001856001600160a01b03168152602001848152602001838152509050806000876040516101e9919061042b565b9081526040805160209281900383019020835181546001600160a01b03199081166001600160a01b03928316178355938501516001830180549095169116179092558201516002820155606090910151600390910155505050505050565b80356001600160a01b038116811461025e57600080fd5b919050565b60008083601f840112610274578081fd5b50813567ffffffffffffffff81111561028b578182fd5b6020830191508360208285010111156102a357600080fd5b9250929050565b600080602083850312156102bc578182fd5b823567ffffffffffffffff8111156102d2578283fd5b6102de85828601610263565b90969095509350505050565b6000806000604084860312156102fe578081fd5b833567ffffffffffffffff811115610314578182fd5b61032086828701610263565b9094509250610333905060208501610247565b90509250925092565b600080600080600060a08688031215610353578081fd5b853567ffffffffffffffff8082111561036a578283fd5b818801915088601f83011261037d578283fd5b81358181111561038f5761038f610464565b604051601f8201601f19908116603f011681019083821181831017156103b7576103b7610464565b816040528281528b60208487010111156103cf578586fd5b82602086016020830137856020848301015280995050505050506103f560208701610247565b935061040360408701610247565b94979396509394606081013594506080013592915050565b8183823760009101908152919050565b60008251815b8181101561044b5760208186018101518583015201610431565b818111156104595782828501525b509190910192915050565b634e487b7160e01b600052604160045260246000fdfea264697066735822122035dc9a99d7c036d0bcfb1288235ba191cbc5b63ae3d499791c19abc8e865bddb64736f6c63430008040033",
  "linkReferences": {},
  "deployedLinkReferences": {}
}