{
  "_format": "hh-sol-artifact-1",
  "contractName": "eventLog",
  "sourceName": "contracts/eventLog.sol",
  "abi": [
    {
      "inputs": [
        {
          "internalType": "string",
          "name": "_eventName",
          "type": "string"
        },
        {
          "internalType": "address",
          "name": "_eventGameAddress",
          "type": "address"
        },
        {
          "internalType": "address",
          "name": "_eventOwner",
          "type": "address"
        },
        {
          "internalType": "uint32",
          "name": "_numberOfTickets",
          "type": "uint32"
        },
        {
          "internalType": "uint32",
          "name": "_ticketPrice",
          "type": "uint32"
        }
      ],
      "name": "_logEvent",
      "outputs": [],
      "stateMutability": "nonpayable",
      "type": "function"
    }
  ],
  "bytecode": "0x608060405234801561001057600080fd5b506104dd806100206000396000f3fe608060405234801561001057600080fd5b506004361061002b5760003560e01c80632cd9e38914610030575b600080fd5b61004a60048036038101906100459190610241565b61004c565b005b600060405180608001604052808673ffffffffffffffffffffffffffffffffffffffff1681526020018573ffffffffffffffffffffffffffffffffffffffff1681526020018463ffffffff1681526020018363ffffffff168152509050806000876040516100ba9190610301565b908152602001604051809103902060008201518160000160006101000a81548173ffffffffffffffffffffffffffffffffffffffff021916908373ffffffffffffffffffffffffffffffffffffffff16021790555060208201518160010160006101000a81548173ffffffffffffffffffffffffffffffffffffffff021916908373ffffffffffffffffffffffffffffffffffffffff16021790555060408201518160010160146101000a81548163ffffffff021916908363ffffffff16021790555060608201518160010160186101000a81548163ffffffff021916908363ffffffff160217905550905050505050505050565b60006101c26101bd8461033d565b610318565b9050828152602081018484840111156101da57600080fd5b6101e58482856103c6565b509392505050565b6000813590506101fc81610479565b92915050565b600082601f83011261021357600080fd5b81356102238482602086016101af565b91505092915050565b60008135905061023b81610490565b92915050565b600080600080600060a0868803121561025957600080fd5b600086013567ffffffffffffffff81111561027357600080fd5b61027f88828901610202565b9550506020610290888289016101ed565b94505060406102a1888289016101ed565b93505060606102b28882890161022c565b92505060806102c38882890161022c565b9150509295509295909350565b60006102db8261036e565b6102e58185610379565b93506102f58185602086016103d5565b80840191505092915050565b600061030d82846102d0565b915081905092915050565b6000610322610333565b905061032e8282610408565b919050565b6000604051905090565b600067ffffffffffffffff82111561035857610357610439565b5b61036182610468565b9050602081019050919050565b600081519050919050565b600081905092915050565b600061038f82610396565b9050919050565b600073ffffffffffffffffffffffffffffffffffffffff82169050919050565b600063ffffffff82169050919050565b82818337600083830152505050565b60005b838110156103f35780820151818401526020810190506103d8565b83811115610402576000848401525b50505050565b61041182610468565b810181811067ffffffffffffffff821117156104305761042f610439565b5b80604052505050565b7f4e487b7100000000000000000000000000000000000000000000000000000000600052604160045260246000fd5b6000601f19601f8301169050919050565b61048281610384565b811461048d57600080fd5b50565b610499816103b6565b81146104a457600080fd5b5056fea26469706673582212204d8de07c45f9e07fbdb5538ee242095335e5f37e9c81551dcf83da2a8f86510464736f6c63430008040033",
  "linkReferences": {},
  "deployedLinkReferences": {}
}