{
  "_format": "hh-sol-artifact-1",
  "contractName": "eventLog",
  "sourceName": "contracts/eventLog.sol",
  "abi": [
    {
      "inputs": [
        {
          "internalType": "string",
          "name": "_eventName",
          "type": "string"
        }
      ],
      "name": "_getEvent",
      "outputs": [
        {
          "components": [
            {
              "internalType": "address",
              "name": "eventGameAddress",
              "type": "address"
            },
            {
              "internalType": "address",
              "name": "eventOwner",
              "type": "address"
            },
            {
              "internalType": "uint32",
              "name": "numberOfTickets",
              "type": "uint32"
            },
            {
              "internalType": "uint32",
              "name": "ticketPrice",
              "type": "uint32"
            }
          ],
          "internalType": "struct eventLog.Event",
          "name": "",
          "type": "tuple"
        }
      ],
      "stateMutability": "view",
      "type": "function"
    },
    {
      "inputs": [
        {
          "internalType": "string",
          "name": "_eventName",
          "type": "string"
        },
        {
          "internalType": "address",
          "name": "_eventGameAddress",
          "type": "address"
        },
        {
          "internalType": "address",
          "name": "_eventOwner",
          "type": "address"
        },
        {
          "internalType": "uint32",
          "name": "_numberOfTickets",
          "type": "uint32"
        },
        {
          "internalType": "uint32",
          "name": "_ticketPrice",
          "type": "uint32"
        }
      ],
      "name": "_logEvent",
      "outputs": [],
      "stateMutability": "nonpayable",
      "type": "function"
    }
  ],
  "bytecode": "0x608060405234801561001057600080fd5b50610401806100206000396000f3fe608060405234801561001057600080fd5b50600436106100365760003560e01c80632cd9e3891461003b57806397dee4c214610050575b600080fd5b61004e6100493660046102fe565b6100ac565b005b61006361005e3660046102c3565b610179565b6040805182516001600160a01b039081168252602080850151909116908201528282015163ffffffff908116828401526060938401511692810192909252519081900360800190f35b604080516080810182526001600160a01b0380871682528516602082015263ffffffff8085168284015283166060820152905181906000906100ef90899061037c565b9081526040805160209281900383019020835181546001600160a01b0319166001600160a01b03918216178255928401516001909101805492850151606090950151919093166001600160c01b031990921691909117600160a01b63ffffffff948516021763ffffffff60c01b1916600160c01b9390911692909202919091179055505050505050565b6040805160808101825260008082526020820181905291810182905260608101919091526000826040516101ad919061037c565b90815260408051918290036020908101832060808401835280546001600160a01b0390811685526001909101549081169184019190915263ffffffff600160a01b8204811692840192909252600160c01b900416606082015292915050565b80356001600160a01b038116811461022357600080fd5b919050565b600082601f830112610238578081fd5b813567ffffffffffffffff80821115610253576102536103b5565b604051601f8301601f19908116603f0116810190828211818310171561027b5761027b6103b5565b81604052838152866020858801011115610293578485fd5b8360208701602083013792830160200193909352509392505050565b803563ffffffff8116811461022357600080fd5b6000602082840312156102d4578081fd5b813567ffffffffffffffff8111156102ea578182fd5b6102f684828501610228565b949350505050565b600080600080600060a08688031215610315578081fd5b853567ffffffffffffffff81111561032b578182fd5b61033788828901610228565b9550506103466020870161020c565b93506103546040870161020c565b9250610362606087016102af565b9150610370608087016102af565b90509295509295909350565b60008251815b8181101561039c5760208186018101518583015201610382565b818111156103aa5782828501525b509190910192915050565b634e487b7160e01b600052604160045260246000fdfea26469706673582212207b25d3ab5fb507fd8962dc82d64ae6e7bca3acc35c9b6fbd6a90ba1cee53f78564736f6c63430008040033",
  "linkReferences": {},
  "deployedLinkReferences": {}
}