{
  "_format": "hh-sol-artifact-1",
  "contractName": "EventLog",
  "sourceName": "contracts/eventLog.sol",
  "abi": [
    {
      "inputs": [],
      "stateMutability": "nonpayable",
      "type": "constructor"
    },
    {
      "inputs": [
        {
          "internalType": "address",
          "name": "_userAddress",
          "type": "address"
        },
        {
          "internalType": "uint256",
          "name": "_eventId",
          "type": "uint256"
        }
      ],
      "name": "_addCreatedEvent",
      "outputs": [],
      "stateMutability": "nonpayable",
      "type": "function"
    },
    {
      "inputs": [
        {
          "internalType": "address",
          "name": "_userAddress",
          "type": "address"
        },
        {
          "internalType": "uint256",
          "name": "_eventId",
          "type": "uint256"
        }
      ],
      "name": "_addRegisteredEvent",
      "outputs": [],
      "stateMutability": "nonpayable",
      "type": "function"
    },
    {
      "inputs": [
        {
          "internalType": "uint256",
          "name": "_eventId",
          "type": "uint256"
        },
        {
          "internalType": "address",
          "name": "_winner",
          "type": "address"
        }
      ],
      "name": "_addWinner",
      "outputs": [],
      "stateMutability": "nonpayable",
      "type": "function"
    },
    {
      "inputs": [
        {
          "internalType": "uint256",
          "name": "_eventId",
          "type": "uint256"
        }
      ],
      "name": "_closeEvent",
      "outputs": [],
      "stateMutability": "nonpayable",
      "type": "function"
    },
    {
      "inputs": [
        {
          "internalType": "uint256",
          "name": "_eventId",
          "type": "uint256"
        },
        {
          "internalType": "address",
          "name": "_eventGameAddress",
          "type": "address"
        },
        {
          "internalType": "address",
          "name": "_eventOwner",
          "type": "address"
        },
        {
          "internalType": "string",
          "name": "_eventName",
          "type": "string"
        },
        {
          "internalType": "uint256",
          "name": "_numberOfTickets",
          "type": "uint256"
        },
        {
          "internalType": "uint256",
          "name": "_ticketPrice",
          "type": "uint256"
        }
      ],
      "name": "_logEvent",
      "outputs": [],
      "stateMutability": "nonpayable",
      "type": "function"
    },
    {
      "inputs": [
        {
          "internalType": "uint256",
          "name": "_eventId",
          "type": "uint256"
        },
        {
          "internalType": "string",
          "name": "_newName",
          "type": "string"
        }
      ],
      "name": "_updateName",
      "outputs": [],
      "stateMutability": "nonpayable",
      "type": "function"
    },
    {
      "inputs": [
        {
          "internalType": "uint256",
          "name": "_eventId",
          "type": "uint256"
        },
        {
          "internalType": "uint256",
          "name": "_newPrice",
          "type": "uint256"
        }
      ],
      "name": "_updatePrice",
      "outputs": [],
      "stateMutability": "nonpayable",
      "type": "function"
    },
    {
      "inputs": [
        {
          "internalType": "uint256",
          "name": "_eventId",
          "type": "uint256"
        },
        {
          "internalType": "uint256",
          "name": "_newTickets",
          "type": "uint256"
        }
      ],
      "name": "_updateTickets",
      "outputs": [],
      "stateMutability": "nonpayable",
      "type": "function"
    },
    {
      "inputs": [
        {
          "internalType": "address",
          "name": "_userAddress",
          "type": "address"
        }
      ],
      "name": "getCreatedEvents",
      "outputs": [
        {
          "components": [
            {
              "internalType": "address",
              "name": "eventGameAddress",
              "type": "address"
            },
            {
              "internalType": "address",
              "name": "eventOwner",
              "type": "address"
            },
            {
              "internalType": "string",
              "name": "eventName",
              "type": "string"
            },
            {
              "internalType": "uint256",
              "name": "numberOfTickets",
              "type": "uint256"
            },
            {
              "internalType": "uint256",
              "name": "ticketPrice",
              "type": "uint256"
            },
            {
              "internalType": "bool",
              "name": "isOpen",
              "type": "bool"
            }
          ],
          "internalType": "struct EventLog.Event[]",
          "name": "",
          "type": "tuple[]"
        }
      ],
      "stateMutability": "view",
      "type": "function"
    },
    {
      "inputs": [
        {
          "internalType": "uint256",
          "name": "_eventId",
          "type": "uint256"
        }
      ],
      "name": "getEventAddress",
      "outputs": [
        {
          "internalType": "address",
          "name": "",
          "type": "address"
        }
      ],
      "stateMutability": "view",
      "type": "function"
    },
    {
      "inputs": [],
      "name": "getOpenEvents",
      "outputs": [
        {
          "components": [
            {
              "internalType": "address",
              "name": "eventGameAddress",
              "type": "address"
            },
            {
              "internalType": "address",
              "name": "eventOwner",
              "type": "address"
            },
            {
              "internalType": "string",
              "name": "eventName",
              "type": "string"
            },
            {
              "internalType": "uint256",
              "name": "numberOfTickets",
              "type": "uint256"
            },
            {
              "internalType": "uint256",
              "name": "ticketPrice",
              "type": "uint256"
            },
            {
              "internalType": "bool",
              "name": "isOpen",
              "type": "bool"
            }
          ],
          "internalType": "struct EventLog.Event[]",
          "name": "",
          "type": "tuple[]"
        }
      ],
      "stateMutability": "view",
      "type": "function"
    },
    {
      "inputs": [
        {
          "internalType": "address",
          "name": "_userAddress",
          "type": "address"
        }
      ],
      "name": "getRegisteredEvents",
      "outputs": [
        {
          "components": [
            {
              "internalType": "address",
              "name": "eventGameAddress",
              "type": "address"
            },
            {
              "internalType": "address",
              "name": "eventOwner",
              "type": "address"
            },
            {
              "internalType": "string",
              "name": "eventName",
              "type": "string"
            },
            {
              "internalType": "uint256",
              "name": "numberOfTickets",
              "type": "uint256"
            },
            {
              "internalType": "uint256",
              "name": "ticketPrice",
              "type": "uint256"
            },
            {
              "internalType": "bool",
              "name": "isOpen",
              "type": "bool"
            }
          ],
          "internalType": "struct EventLog.Event[]",
          "name": "",
          "type": "tuple[]"
        }
      ],
      "stateMutability": "view",
      "type": "function"
    }
  ],
  "bytecode": "0x608060405234801561001057600080fd5b5060008055610f26806100246000396000f3fe608060405234801561001057600080fd5b50600436106100b45760003560e01c80639abea6c1116100715780639abea6c114610199578063ab31803f146101bc578063c90eeff1146101cf578063d5af7b72146101e2578063ee0591fe1461020b578063fc999f201461024957600080fd5b8063069e2fb2146100b95780631210b3d6146100f55780631c25f16e1461011857806320037f331461015e57806364ab2b101461017e5780637905090414610191575b600080fd5b6100f36100c7366004610c20565b6001600160a01b0390911660009081526003602090815260408220805460018101825590835291200155565b005b6100f3610103366004610d49565b60009182526002602052604090912060040155565b610141610126366004610c49565b6000908152600260205260409020546001600160a01b031690565b6040516001600160a01b0390911681526020015b60405180910390f35b61017161016c366004610bff565b610283565b6040516101559190610d6a565b6100f361018c366004610d04565b6104d0565b6101716104fa565b6100f36101a7366004610d49565b60009182526002602052604090912060030155565b6101716101ca366004610bff565b610721565b6100f36101dd366004610c8c565b610965565b6100f36101f0366004610c49565b6000908152600260205260409020600501805460ff19169055565b6100f3610219366004610c61565b60009182526005602090815260408084206001600160a01b0390931684529190529020805460ff19166001179055565b6100f3610257366004610c20565b6001600160a01b0390911660009081526004602090815260408220805460018101825590835291200155565b6001600160a01b03811660009081526004602090815260408083208054825181850281018501909352808352606094938301828280156102e257602002820191906000526020600020905b8154815260200190600101908083116102ce575b5050505050905060008151905060008167ffffffffffffffff81111561031857634e487b7160e01b600052604160045260246000fd5b60405190808252806020026020018201604052801561035157816020015b61033e610a79565b8152602001906001900390816103365790505b50905060005b828110156104c757600084828151811061038157634e487b7160e01b600052603260045260246000fd5b602090810291909101810151600081815260028084526040808320815160c08101835281546001600160a01b0390811682526001830154169681019690965291820180549496509294939192908401916103da90610e6e565b80601f016020809104026020016040519081016040528092919081815260200182805461040690610e6e565b80156104535780601f1061042857610100808354040283529160200191610453565b820191906000526020600020905b81548152906001019060200180831161043657829003601f168201915b5050509183525050600382015460208201526004820154604082015260059091015460ff161515606090910152845190915081908590859081106104a757634e487b7160e01b600052603260045260246000fd5b6020026020010181905250505080806104bf90610ea9565b915050610357565b50949350505050565b600082815260026020818152604090922083516104f593919092019190840190610ac3565b505050565b60606000805b6000548110156105495760008181526002602052604090206005015460ff1615156001141561053757610534600183610e56565b91505b8061054181610ea9565b915050610500565b5060008167ffffffffffffffff81111561057357634e487b7160e01b600052604160045260246000fd5b6040519080825280602002602001820160405280156105ac57816020015b610599610a79565b8152602001906001900390816105915790505b5090506000805b6000548110156107185760008181526002602052604090206005015460ff1615156001141561070657600081815260026020818152604092839020835160c08101855281546001600160a01b039081168252600183015416928101929092529182018054919384019161062590610e6e565b80601f016020809104026020016040519081016040528092919081815260200182805461065190610e6e565b801561069e5780601f106106735761010080835404028352916020019161069e565b820191906000526020600020905b81548152906001019060200180831161068157829003601f168201915b5050509183525050600382015460208201526004820154604082015260059091015460ff16151560609091015283518490849081106106ed57634e487b7160e01b600052603260045260246000fd5b6020908102919091010152610703600183610e56565b91505b8061071081610ea9565b9150506105b3565b50909392505050565b6001600160a01b038116600090815260036020908152604080832080548251818502810185019093528083526060949383018282801561078057602002820191906000526020600020905b81548152602001906001019080831161076c575b5050505050905060008151905060008167ffffffffffffffff8111156107b657634e487b7160e01b600052604160045260246000fd5b6040519080825280602002602001820160405280156107ef57816020015b6107dc610a79565b8152602001906001900390816107d45790505b50905060005b828110156104c757600084828151811061081f57634e487b7160e01b600052603260045260246000fd5b602090810291909101810151600081815260028084526040808320815160c08101835281546001600160a01b03908116825260018301541696810196909652918201805494965092949391929084019161087890610e6e565b80601f01602080910402602001604051908101604052809291908181526020018280546108a490610e6e565b80156108f15780601f106108c6576101008083540402835291602001916108f1565b820191906000526020600020905b8154815290600101906020018083116108d457829003601f168201915b5050509183525050600382015460208201526004820154604082015260059091015460ff1615156060909101528451909150819085908590811061094557634e487b7160e01b600052603260045260246000fd5b60200260200101819052505050808061095d90610ea9565b9150506107f5565b6040805160c0810182526001600160a01b03808816825286811660208084019182528385018881526060850188905260808501879052600160a0860181905260008d81526002808552979020865181549087166001600160a01b03199182161782559451918101805492909616919094161790935591518051939491936109f493928501929190910190610ac3565b50606082015160038201556080820151600482015560a0909101516005909101805460ff191691151591909117905560008054600191908190610a38908490610e56565b90915550506001805480820182556000919091527fb10e2d527612073b26eecdfd717e6a320cf44b4afac2b0732d9fcbe2b7fa0cf601959095555050505050565b6040518060c0016040528060006001600160a01b0316815260200160006001600160a01b031681526020016060815260200160008152602001600081526020016000151581525090565b828054610acf90610e6e565b90600052602060002090601f016020900481019282610af15760008555610b37565b82601f10610b0a57805160ff1916838001178555610b37565b82800160010185558215610b37579182015b82811115610b37578251825591602001919060010190610b1c565b50610b43929150610b47565b5090565b5b80821115610b435760008155600101610b48565b80356001600160a01b0381168114610b7357600080fd5b919050565b600082601f830112610b88578081fd5b813567ffffffffffffffff80821115610ba357610ba3610eda565b604051601f8301601f19908116603f01168101908282118183101715610bcb57610bcb610eda565b81604052838152866020858801011115610be3578485fd5b8360208701602083013792830160200193909352509392505050565b600060208284031215610c10578081fd5b610c1982610b5c565b9392505050565b60008060408385031215610c32578081fd5b610c3b83610b5c565b946020939093013593505050565b600060208284031215610c5a578081fd5b5035919050565b60008060408385031215610c73578182fd5b82359150610c8360208401610b5c565b90509250929050565b60008060008060008060c08789031215610ca4578182fd5b86359550610cb460208801610b5c565b9450610cc260408801610b5c565b9350606087013567ffffffffffffffff811115610cdd578283fd5b610ce989828a01610b78565b9350506080870135915060a087013590509295509295509295565b60008060408385031215610d16578182fd5b82359150602083013567ffffffffffffffff811115610d33578182fd5b610d3f85828601610b78565b9150509250929050565b60008060408385031215610d5b578182fd5b50508035926020909101359150565b60006020808301818452808551808352604092508286019150828160051b870101848801865b83811015610e4857888303603f19018552815180516001600160a01b0390811685528882015116888501528681015160c088860181905281519086018190528a91905b80831015610df1578183018b015187840160e00152918a0191610dd3565b80831115610e02578b60e082890101525b606084810151908801526080808501519088015260a09384015180151585890152939250978a0197601f01601f19169590950160e0019450505090860190600101610d90565b509098975050505050505050565b60008219821115610e6957610e69610ec4565b500190565b600181811c90821680610e8257607f821691505b60208210811415610ea357634e487b7160e01b600052602260045260246000fd5b50919050565b6000600019821415610ebd57610ebd610ec4565b5060010190565b634e487b7160e01b600052601160045260246000fd5b634e487b7160e01b600052604160045260246000fdfea26469706673582212204df0a27b54d2b7468fce20a30aaeaf7a48a562e598a9f83ed60e2ce7ccdb807464736f6c63430008040033",
  "linkReferences": {},
  "deployedLinkReferences": {}
}