{
  "_format": "hh-sol-artifact-1",
  "contractName": "EventGame",
  "sourceName": "contracts/eventGame.sol",
  "abi": [
    {
      "inputs": [
        {
          "internalType": "address",
          "name": "_logAddress",
          "type": "address"
        },
        {
          "internalType": "address",
          "name": "_vrfAddress",
          "type": "address"
        },
        {
          "internalType": "address",
          "name": "_owner",
          "type": "address"
        },
        {
          "internalType": "uint256",
          "name": "_eventId",
          "type": "uint256"
        }
      ],
      "stateMutability": "nonpayable",
      "type": "constructor"
    },
    {
      "anonymous": false,
      "inputs": [
        {
          "indexed": true,
          "internalType": "address",
          "name": "gameAddress",
          "type": "address"
        },
        {
          "indexed": true,
          "internalType": "address",
          "name": "player",
          "type": "address"
        },
        {
          "indexed": false,
          "internalType": "string",
          "name": "result",
          "type": "string"
        },
        {
          "indexed": false,
          "internalType": "uint256",
          "name": "points",
          "type": "uint256"
        }
      ],
      "name": "result",
      "type": "event"
    },
    {
      "inputs": [],
      "name": "endGame",
      "outputs": [],
      "stateMutability": "nonpayable",
      "type": "function"
    },
    {
      "inputs": [],
      "name": "getScoreboard",
      "outputs": [
        {
          "components": [
            {
              "internalType": "uint256",
              "name": "points",
              "type": "uint256"
            },
            {
              "internalType": "uint256",
              "name": "numberOfPlays",
              "type": "uint256"
            },
            {
              "internalType": "uint256",
              "name": "timeElapsed",
              "type": "uint256"
            }
          ],
          "internalType": "struct EventGame.UserScore",
          "name": "",
          "type": "tuple"
        }
      ],
      "stateMutability": "view",
      "type": "function"
    },
    {
      "inputs": [
        {
          "internalType": "address",
          "name": "_userAddress",
          "type": "address"
        }
      ],
      "name": "isWinner",
      "outputs": [
        {
          "internalType": "bool",
          "name": "",
          "type": "bool"
        }
      ],
      "stateMutability": "view",
      "type": "function"
    },
    {
      "inputs": [],
      "name": "register",
      "outputs": [],
      "stateMutability": "nonpayable",
      "type": "function"
    },
    {
      "inputs": [],
      "name": "s_eventId",
      "outputs": [
        {
          "internalType": "uint256",
          "name": "",
          "type": "uint256"
        }
      ],
      "stateMutability": "view",
      "type": "function"
    },
    {
      "inputs": [
        {
          "internalType": "address",
          "name": "",
          "type": "address"
        }
      ],
      "name": "s_isRegistered",
      "outputs": [
        {
          "internalType": "bool",
          "name": "",
          "type": "bool"
        }
      ],
      "stateMutability": "view",
      "type": "function"
    },
    {
      "inputs": [
        {
          "internalType": "uint256",
          "name": "",
          "type": "uint256"
        }
      ],
      "name": "s_registeredAddresses",
      "outputs": [
        {
          "internalType": "address",
          "name": "",
          "type": "address"
        }
      ],
      "stateMutability": "view",
      "type": "function"
    },
    {
      "inputs": [
        {
          "internalType": "address",
          "name": "",
          "type": "address"
        }
      ],
      "name": "scoreboard",
      "outputs": [
        {
          "internalType": "uint256",
          "name": "points",
          "type": "uint256"
        },
        {
          "internalType": "uint256",
          "name": "numberOfPlays",
          "type": "uint256"
        },
        {
          "internalType": "uint256",
          "name": "timeElapsed",
          "type": "uint256"
        }
      ],
      "stateMutability": "view",
      "type": "function"
    },
    {
      "inputs": [],
      "name": "startGame",
      "outputs": [],
      "stateMutability": "nonpayable",
      "type": "function"
    },
    {
      "inputs": [],
      "name": "status",
      "outputs": [
        {
          "internalType": "enum EventGame.GameStatus",
          "name": "",
          "type": "uint8"
        }
      ],
      "stateMutability": "view",
      "type": "function"
    },
    {
      "inputs": [
        {
          "internalType": "string",
          "name": "_newName",
          "type": "string"
        }
      ],
      "name": "updateName",
      "outputs": [],
      "stateMutability": "nonpayable",
      "type": "function"
    },
    {
      "inputs": [
        {
          "internalType": "uint256",
          "name": "_newPrice",
          "type": "uint256"
        }
      ],
      "name": "updatePrice",
      "outputs": [],
      "stateMutability": "nonpayable",
      "type": "function"
    },
    {
      "inputs": [
        {
          "internalType": "uint256",
          "name": "_newTickets",
          "type": "uint256"
        }
      ],
      "name": "updateTickets",
      "outputs": [],
      "stateMutability": "nonpayable",
      "type": "function"
    },
    {
      "inputs": [
        {
          "internalType": "uint256",
          "name": "_play",
          "type": "uint256"
        }
      ],
      "name": "userPlay",
      "outputs": [],
      "stateMutability": "nonpayable",
      "type": "function"
    }
  ],
  "bytecode": "0x6101006040523480156200001257600080fd5b5060405162001fe838038062001fe883398101604081905262000035916200007c565b6001600160601b0319606094851b811660805292841b831660a052921b1660c05260e052620000cd565b80516001600160a01b03811681146200007757600080fd5b919050565b6000806000806080858703121562000092578384fd5b6200009d856200005f565b9350620000ad602086016200005f565b9250620000bd604086016200005f565b6060959095015193969295505050565b60805160601c60a05160601c60c05160601c60e051611e3e620001aa60003960008181610233015281816103c50152818161054001528181610651015281816106ef015281816107c101528181610fdf015281816110b70152818161118601528181611223015281816112f701526114610152600081816104d7015281816105b101526106860152600081816108b001528181610f6d015261139f0152600081816103ec0152818161056d0152818161061a0152818161071c015281816107f7015281816110050152818161124901526114870152611e3e6000f3fe608060405234801561001057600080fd5b50600436106100ea5760003560e01c80638d6cc56d1161008c578063a3195c4711610066578063a3195c471461021b578063a48e7eec1461022e578063bc3c09c414610263578063d65ab5f21461028657600080fd5b80638d6cc56d146101ba5780639d5b24c0146101cd5780639d9ca28d146101f857600080fd5b806343610884116100c857806343610884146101625780636cbc2ded1461018c57806377897d211461019457806384da92a7146101a757600080fd5b80630c3a5699146100ef5780631aa3a0081461013e578063200d2ed214610148575b600080fd5b61011e6100fd366004611b26565b60036020526000908152604090208054600182015460029092015490919083565b604080519384526020840192909252908201526060015b60405180910390f35b61014661028e565b005b6000546101559060ff1681565b6040516101359190611c47565b61016a610457565b6040805182518152602080840151908201529181015190820152606001610135565b6101466104b5565b6101466101a2366004611c17565b6104cc565b6101466101b5366004611b6d565b6105a6565b6101466101c8366004611c17565b61067b565b6101e06101db366004611c17565b610755565b6040516001600160a01b039091168152602001610135565b61020b610206366004611b26565b61077f565b6040519015158152602001610135565b610146610229366004611c17565b61087b565b6102557f000000000000000000000000000000000000000000000000000000000000000081565b604051908152602001610135565b61020b610271366004611b26565b60026020526000908152604090205460ff1681565b610146610f1e565b6000805460ff1660028111156102b457634e487b7160e01b600052602160045260246000fd5b146102be57600080fd5b3360009081526002602052604090205460ff16156103235760405162461bcd60e51b815260206004820152601c60248201527f596f75206861766520616c72656164792072656769737465726564210000000060448201526064015b60405180910390fd5b60408051606081018252600080825260208083018281524284860190815233808552600384528685208651815592516001808501919091559151600293840155815480830183557fb10e2d527612073b26eecdfd717e6a320cf44b4afac2b0732d9fcbe2b7fa0cf60180546001600160a01b031916821790559190925291849020805460ff19169091179055915163034f17d960e11b815260048101929092527f00000000000000000000000000000000000000000000000000000000000000006024830152907f0000000000000000000000000000000000000000000000000000000000000000906001600160a01b0382169063069e2fb2906044015b600060405180830381600087803b15801561043b57600080fd5b505af115801561044f573d6000803e3d6000fd5b505050505050565b61047b60405180606001604052806000815260200160008152602001600081525090565b5033600090815260036020908152604091829020825160608101845281548152600182015492810192909252600201549181019190915290565b6000805460ff191660021790556104ca611214565b565b336001600160a01b037f0000000000000000000000000000000000000000000000000000000000000000161461050157600080fd5b6000805460ff16600281111561052757634e487b7160e01b600052602160045260246000fd5b1461053157600080fd5b604051639abea6c160e01b81527f00000000000000000000000000000000000000000000000000000000000000006004820152602481018290527f0000000000000000000000000000000000000000000000000000000000000000906001600160a01b03821690639abea6c190604401610421565b336001600160a01b037f000000000000000000000000000000000000000000000000000000000000000016146105db57600080fd5b6000805460ff16600281111561060157634e487b7160e01b600052602160045260246000fd5b1461060b57600080fd5b60405163064ab2b160e41b81527f0000000000000000000000000000000000000000000000000000000000000000906001600160a01b038216906364ab2b1090610421907f0000000000000000000000000000000000000000000000000000000000000000908690600401611cba565b336001600160a01b037f000000000000000000000000000000000000000000000000000000000000000016146106b057600080fd5b6000805460ff1660028111156106d657634e487b7160e01b600052602160045260246000fd5b146106e057600080fd5b60405163090859eb60e11b81527f00000000000000000000000000000000000000000000000000000000000000006004820152602481018290527f0000000000000000000000000000000000000000000000000000000000000000906001600160a01b03821690631210b3d690604401610421565b6001818154811061076557600080fd5b6000918252602090912001546001600160a01b0316905081565b6000600260005460ff1660028111156107a857634e487b7160e01b600052602160045260246000fd5b146107b257600080fd5b604051637dfb132f60e11b81527f000000000000000000000000000000000000000000000000000000000000000060048201526001600160a01b0383811660248301527f0000000000000000000000000000000000000000000000000000000000000000919082169063fbf6265e9060440160206040518083038186803b15801561083c57600080fd5b505afa158015610850573d6000803e3d6000fd5b505050506040513d601f19601f820116820180604052508101906108749190611b4d565b9392505050565b600160005460ff1660028111156108a257634e487b7160e01b600052602160045260246000fd5b146108ac57600080fd5b60007f00000000000000000000000000000000000000000000000000000000000000009050806001600160a01b0316631e209d186040518163ffffffff1660e01b815260040160206040518083038186803b15801561090a57600080fd5b505afa15801561091e573d6000803e3d6000fd5b505050506040513d601f19601f820116820180604052508101906109429190611b4d565b6109a35760405162461bcd60e51b815260206004820152602c60248201527f43616c63756c6174696e6720616c676f726974686d696320706c61792c20706c60448201526b32b0b9b2903bb0b4ba17171760a11b606482015260840161031a565b3360009081526003602090815260408083206001908101546002909352922054909160ff909116151514610a195760405162461bcd60e51b815260206004820152601760248201527f596f7520617265206e6f74207265676973746572656421000000000000000000604482015260640161031a565b6005811115610a785760405162461bcd60e51b815260206004820152602560248201527f596f75206861766520616c7265616479206d61646520616c6c20796f757220706044820152646c6179732160d81b606482015260840161031a565b6000610a8382611386565b9050806002811115610aa557634e487b7160e01b600052602160045260246000fd5b846002811115610ac557634e487b7160e01b600052602160045260246000fd5b6002811115610ae457634e487b7160e01b600052602160045260246000fd5b1415610b545760408051818152600481830152636472617760e01b606082015260016020820152905133913091600080516020611de98339815191529181900360800190a3336000908152600360205260408120805460019290610b49908490611d15565b90915550610ec79050565b6000846002811115610b7657634e487b7160e01b600052602160045260246000fd5b6002811115610b9557634e487b7160e01b600052602160045260246000fd5b148015610bc157506001816002811115610bbf57634e487b7160e01b600052602160045260246000fd5b145b15610bf65760405133903090600080516020611de983398151915290610be990600090611c94565b60405180910390a3610ec7565b6000846002811115610c1857634e487b7160e01b600052602160045260246000fd5b6002811115610c3757634e487b7160e01b600052602160045260246000fd5b148015610c6357506002816002811115610c6157634e487b7160e01b600052602160045260246000fd5b145b15610cb55760405133903090600080516020611de983398151915290610c8b90600390611c6f565b60405180910390a33360009081526003602081905260408220805491929091610b49908490611d15565b6001846002811115610cd757634e487b7160e01b600052602160045260246000fd5b6002811115610cf657634e487b7160e01b600052602160045260246000fd5b148015610d2257506000816002811115610d2057634e487b7160e01b600052602160045260246000fd5b145b15610d4a5760405133903090600080516020611de983398151915290610c8b90600390611c6f565b6001846002811115610d6c57634e487b7160e01b600052602160045260246000fd5b6002811115610d8b57634e487b7160e01b600052602160045260246000fd5b148015610db757506002816002811115610db557634e487b7160e01b600052602160045260246000fd5b145b15610ddf5760405133903090600080516020611de983398151915290610be990600090611c94565b6002846002811115610e0157634e487b7160e01b600052602160045260246000fd5b6002811115610e2057634e487b7160e01b600052602160045260246000fd5b148015610e4c57506000816002811115610e4a57634e487b7160e01b600052602160045260246000fd5b145b15610e745760405133903090600080516020611de983398151915290610be990600090611c94565b60405133903090600080516020611de983398151915290610e9790600390611c6f565b60405180910390a33360009081526003602081905260408220805491929091610ec1908490611d15565b90915550505b3360009081526003602052604081206001908101805491929091610eec908490611d15565b90915550503360009081526003602052604081206002018054429290610f13908490611d15565b909155505050505050565b6000805460ff166002811115610f4457634e487b7160e01b600052602160045260246000fd5b14610f4e57600080fd5b6000805460ff191660011781556040805163e0c8628960e01b815290517f0000000000000000000000000000000000000000000000000000000000000000926001600160a01b0384169263e0c86289926004808301939282900301818387803b158015610fba57600080fd5b505af1158015610fce573d6000803e3d6000fd5b5050604051636e59b1ad60e01b81527f000000000000000000000000000000000000000000000000000000000000000060048201527f00000000000000000000000000000000000000000000000000000000000000009250600091506001600160a01b03831690636e59b1ad9060240160206040518083038186803b15801561105657600080fd5b505afa15801561106a573d6000803e3d6000fd5b505050506040513d601f19601f8201168201806040525081019061108e9190611c2f565b6001549091508082106111775760005b8181101561117557836001600160a01b031663ee0591fe7f0000000000000000000000000000000000000000000000000000000000000000600184815481106110f757634e487b7160e01b600052603260045260246000fd5b60009182526020909120015460405160e084901b6001600160e01b031916815260048101929092526001600160a01b03166024820152604401600060405180830381600087803b15801561114a57600080fd5b505af115801561115e573d6000803e3d6000fd5b50505050808061116d90611d77565b91505061109e565b505b60405163f052cf9960e01b81527f000000000000000000000000000000000000000000000000000000000000000060048201526001600160a01b0384169063f052cf9990602401600060405180830381600087803b1580156111d857600080fd5b505af11580156111ec573d6000803e3d6000fd5b505050504266038d7ea4c680006112039190611d15565b60055561120e611452565b50505050565b604051636e59b1ad60e01b81527f000000000000000000000000000000000000000000000000000000000000000060048201527f0000000000000000000000000000000000000000000000000000000000000000906000906001600160a01b03831690636e59b1ad9060240160206040518083038186803b15801561129857600080fd5b505afa1580156112ac573d6000803e3d6000fd5b505050506040513d601f19601f820116820180604052508101906112d09190611c2f565b905060005b818110156113815760006112e882611557565b604051637702c8ff60e11b81527f000000000000000000000000000000000000000000000000000000000000000060048201526001600160a01b0380831660248301529192509085169063ee0591fe90604401600060405180830381600087803b15801561135557600080fd5b505af1158015611369573d6000803e3d6000fd5b5050505050808061137990611d77565b9150506112d5565b505050565b604051630ac9d35f60e01b8152600481018290526000907f00000000000000000000000000000000000000000000000000000000000000009082906001600160a01b03831690630ac9d35f9060240160206040518083038186803b1580156113ed57600080fd5b505afa158015611401573d6000803e3d6000fd5b505050506040513d601f19601f820116820180604052508101906114259190611c2f565b9050600081600281111561144957634e487b7160e01b600052602160045260246000fd5b95945050505050565b604051636e59b1ad60e01b81527f000000000000000000000000000000000000000000000000000000000000000060048201527f0000000000000000000000000000000000000000000000000000000000000000906000906001600160a01b03831690636e59b1ad9060240160206040518083038186803b1580156114d657600080fd5b505afa1580156114ea573d6000803e3d6000fd5b505050506040513d601f19601f8201168201806040525081019061150e9190611c2f565b60015490915060006115208383611d92565b905060008361152f8385611d60565b6115399190611d2d565b90506115468484836115f4565b61155084826116ed565b5050505050565b6000818152600460209081526040808320805482518185028101850190935280835284938301828280156115b457602002820191906000526020600020905b81546001600160a01b03168152600190910190602001808311611596575b5050505050905060008151905060006115cd83836117e5565b905060006115da82611888565b905060006115e9858386611909565b979650505050505050565b6060600082611604600187611d60565b61160e9190611d41565b90506000815b858110156116b2576001818154811061163d57634e487b7160e01b600052603260045260246000fd5b9060005260206000200160009054906101000a90046001600160a01b031684838151811061167b57634e487b7160e01b600052603260045260246000fd5b6001600160a01b039092166020928302919091019091015261169e600183611d15565b9150806116aa81611d77565b915050611614565b5082600460006116c360018a611d60565b815260200190815260200160002090805190602001906116e4929190611aac565b50505050505050565b60005b6116fb600184611d60565b81101561138157606060006117108484611d41565b905060005b848110156117af5760016117298383611d15565b8154811061174757634e487b7160e01b600052603260045260246000fd5b9060005260206000200160009054906101000a90046001600160a01b031683828151811061178557634e487b7160e01b600052603260045260246000fd5b6001600160a01b0390921660209283029190910190910152806117a781611d77565b915050611715565b50600083815260046020908152604090912083516117cf92850190611aac565b50505080806117dd90611d77565b9150506116f0565b60608060005b83811015611880576003600086838151811061181757634e487b7160e01b600052603260045260246000fd5b60200260200101516001600160a01b03166001600160a01b031681526020019081526020016000206000015482828151811061186357634e487b7160e01b600052603260045260246000fd5b60209081029190910101528061187881611d77565b9150506117eb565b509392505050565b600080805b835181101561190257818482815181106118b757634e487b7160e01b600052603260045260246000fd5b602002602001015111156118f0578381815181106118e557634e487b7160e01b600052603260045260246000fd5b602002602001015191505b806118fa81611d77565b91505061188d565b5092915050565b600060608180805b858110156119cf57600088828151811061193b57634e487b7160e01b600052603260045260246000fd5b602002602001015190508760036000836001600160a01b03166001600160a01b031681526020019081526020016000206000015414156119bc578085848151811061199657634e487b7160e01b600052603260045260246000fd5b6001600160a01b03909216602092830291909101909101526119b9600184611d15565b92505b50806119c781611d77565b915050611911565b50825160011415611a0a57826000815181106119fb57634e487b7160e01b600052603260045260246000fd5b60200260200101519150611a16565b611a1383611a20565b91505b5095945050505050565b60004281805b8451811015611880576000858281518110611a5157634e487b7160e01b600052603260045260246000fd5b60200260200101519050600060036000836001600160a01b03166001600160a01b0316815260200190815260200160002060020154905084811015611a97578094508193505b50508080611aa490611d77565b915050611a26565b828054828255906000526020600020908101928215611b01579160200282015b82811115611b0157825182546001600160a01b0319166001600160a01b03909116178255602090920191600190910190611acc565b50611b0d929150611b11565b5090565b5b80821115611b0d5760008155600101611b12565b600060208284031215611b37578081fd5b81356001600160a01b0381168114610874578182fd5b600060208284031215611b5e578081fd5b81518015158114610874578182fd5b600060208284031215611b7e578081fd5b813567ffffffffffffffff80821115611b95578283fd5b818401915084601f830112611ba8578283fd5b813581811115611bba57611bba611dd2565b604051601f8201601f19908116603f01168101908382118183101715611be257611be2611dd2565b81604052828152876020848701011115611bfa578586fd5b826020860160208301379182016020019490945295945050505050565b600060208284031215611c28578081fd5b5035919050565b600060208284031215611c40578081fd5b5051919050565b6020810160038310611c6957634e487b7160e01b600052602160045260246000fd5b91905290565b6040808252600390820152623bb4b760e91b6060820152602081019190915260800190565b6040808252600490820152636c6f737360e01b6060820152602081019190915260800190565b828152600060206040818401528351806040850152825b81811015611ced57858101830151858201606001528201611cd1565b81811115611cfe5783606083870101525b50601f01601f191692909201606001949350505050565b60008219821115611d2857611d28611da6565b500190565b600082611d3c57611d3c611dbc565b500490565b6000816000190483118215151615611d5b57611d5b611da6565b500290565b600082821015611d7257611d72611da6565b500390565b6000600019821415611d8b57611d8b611da6565b5060010190565b600082611da157611da1611dbc565b500690565b634e487b7160e01b600052601160045260246000fd5b634e487b7160e01b600052601260045260246000fd5b634e487b7160e01b600052604160045260246000fdfea17f8b350e3cc303626d75275908b42a311c29ea946002f85d057f018e43ced2a2646970667358221220c2a802ff9990cb160362649404937515b28301515d9055ac1e79fb2163af0a2a64736f6c63430008040033",
  "linkReferences": {},
  "deployedLinkReferences": {}
}