{
  "_format": "hh-sol-artifact-1",
  "contractName": "EventGame",
  "sourceName": "contracts/eventGame.sol",
  "abi": [
    {
      "inputs": [
        {
          "internalType": "address",
          "name": "_logAddress",
          "type": "address"
        },
        {
          "internalType": "address",
          "name": "_owner",
          "type": "address"
        },
        {
          "internalType": "uint256",
          "name": "_eventId",
          "type": "uint256"
        }
      ],
      "stateMutability": "nonpayable",
      "type": "constructor"
    },
    {
      "anonymous": false,
      "inputs": [
        {
          "indexed": false,
          "internalType": "address",
          "name": "player",
          "type": "address"
        },
        {
          "indexed": false,
          "internalType": "string",
          "name": "result",
          "type": "string"
        },
        {
          "indexed": false,
          "internalType": "uint256",
          "name": "points",
          "type": "uint256"
        }
      ],
      "name": "result",
      "type": "event"
    },
    {
      "inputs": [],
      "name": "register",
      "outputs": [],
      "stateMutability": "nonpayable",
      "type": "function"
    },
    {
      "inputs": [
        {
          "internalType": "address",
          "name": "",
          "type": "address"
        }
      ],
      "name": "s_isRegistered",
      "outputs": [
        {
          "internalType": "bool",
          "name": "",
          "type": "bool"
        }
      ],
      "stateMutability": "view",
      "type": "function"
    },
    {
      "inputs": [
        {
          "internalType": "uint256",
          "name": "",
          "type": "uint256"
        }
      ],
      "name": "s_registeredAddresses",
      "outputs": [
        {
          "internalType": "address",
          "name": "",
          "type": "address"
        }
      ],
      "stateMutability": "view",
      "type": "function"
    },
    {
      "inputs": [],
      "name": "startGame",
      "outputs": [],
      "stateMutability": "nonpayable",
      "type": "function"
    },
    {
      "inputs": [],
      "name": "test",
      "outputs": [
        {
          "internalType": "string",
          "name": "",
          "type": "string"
        }
      ],
      "stateMutability": "view",
      "type": "function"
    },
    {
      "inputs": [
        {
          "internalType": "string",
          "name": "_newName",
          "type": "string"
        }
      ],
      "name": "updateName",
      "outputs": [],
      "stateMutability": "nonpayable",
      "type": "function"
    },
    {
      "inputs": [
        {
          "internalType": "uint256",
          "name": "_newPrice",
          "type": "uint256"
        }
      ],
      "name": "updatePrice",
      "outputs": [],
      "stateMutability": "nonpayable",
      "type": "function"
    },
    {
      "inputs": [
        {
          "internalType": "uint256",
          "name": "_newTickets",
          "type": "uint256"
        }
      ],
      "name": "updateTickets",
      "outputs": [],
      "stateMutability": "nonpayable",
      "type": "function"
    },
    {
      "inputs": [
        {
          "internalType": "uint256",
          "name": "_play",
          "type": "uint256"
        }
      ],
      "name": "userPlay",
      "outputs": [],
      "stateMutability": "nonpayable",
      "type": "function"
    }
  ],
  "bytecode": "0x60e06040526000805460ff1916600117905534801561001d57600080fd5b50604051610e3e380380610e3e83398101604081905261003c9161007b565b6001600160601b0319606093841b81166080529190921b1660a05260c0526100b6565b80516001600160a01b038116811461007657600080fd5b919050565b60008060006060848603121561008f578283fd5b6100988461005f565b92506100a66020850161005f565b9150604084015190509250925092565b60805160601c60a05160601c60c051610d1461012a600039600081816102c40152818161039a0152818161047b01526104e90152600081816103610152818161040b015281816104b00152610a5c0152600081816102eb015281816103c70152818161044401526105160152610d146000f3fe608060405234801561001057600080fd5b50600436106100935760003560e01c80639d5b24c0116100665780639d5b24c0146100db578063a3195c471461010b578063bc3c09c41461011e578063d65ab5f2146100a0578063f8a8fd6d1461015157600080fd5b80631aa3a0081461009857806377897d21146100a257806384da92a7146100b55780638d6cc56d146100c8575b600080fd5b6100a0610166565b005b6100a06100b0366004610b84565b610356565b6100a06100c3366004610ada565b610400565b6100a06100d6366004610b84565b6104a5565b6100ee6100e9366004610b84565b61054f565b6040516001600160a01b0390911681526020015b60405180910390f35b6100a0610119366004610b84565b610579565b61014161012c366004610ab3565b60026020526000908152604090205460ff1681565b6040519015158152602001610102565b610159610a4f565b6040516101029190610c50565b60005460ff1615156001146101c25760405162461bcd60e51b815260206004820152601a60248201527f526567697374726174696f6e206e6f74206f70656e207965742100000000000060448201526064015b60405180910390fd5b3360009081526002602052604090205460ff16156102225760405162461bcd60e51b815260206004820152601c60248201527f596f75206861766520616c72656164792072656769737465726564210000000060448201526064016101b9565b60408051606081018252600080825260208083018281524284860190815233808552600384528685208651815592516001808501919091559151600293840155815480830183557fb10e2d527612073b26eecdfd717e6a320cf44b4afac2b0732d9fcbe2b7fa0cf60180546001600160a01b031916821790559190925291849020805460ff19169091179055915163034f17d960e11b815260048101929092527f00000000000000000000000000000000000000000000000000000000000000006024830152907f0000000000000000000000000000000000000000000000000000000000000000906001600160a01b0382169063069e2fb2906044015b600060405180830381600087803b15801561033a57600080fd5b505af115801561034e573d6000803e3d6000fd5b505050505050565b336001600160a01b037f0000000000000000000000000000000000000000000000000000000000000000161461038b57600080fd5b604051639abea6c160e01b81527f00000000000000000000000000000000000000000000000000000000000000006004820152602481018290527f0000000000000000000000000000000000000000000000000000000000000000906001600160a01b03821690639abea6c190604401610320565b336001600160a01b037f0000000000000000000000000000000000000000000000000000000000000000161461043557600080fd5b60405163064ab2b160e41b81527f0000000000000000000000000000000000000000000000000000000000000000906001600160a01b038216906364ab2b1090610320907f0000000000000000000000000000000000000000000000000000000000000000908690600401610c63565b336001600160a01b037f000000000000000000000000000000000000000000000000000000000000000016146104da57600080fd5b60405163090859eb60e11b81527f00000000000000000000000000000000000000000000000000000000000000006004820152602481018290527f0000000000000000000000000000000000000000000000000000000000000000906001600160a01b03821690631210b3d690604401610320565b6001818154811061055f57600080fd5b6000918252602090912001546001600160a01b0316905081565b3360009081526002602052604090205460ff16151560011461059a57600080fd5b33600090815260036020526040902060010154600510156105ba57600080fd5b60006105c4610aa6565b90508060028111156105e657634e487b7160e01b600052602160045260246000fd5b82600281111561060657634e487b7160e01b600052602160045260246000fd5b600281111561062557634e487b7160e01b600052602160045260246000fd5b14156106995760408051338152606060208201819052600490820152636472617760e01b60808201526001818301529051600080516020610cbf8339815191529181900360a00190a133600090815260036020526040812080546001929061068e908490610c84565b909155506109fa9050565b60008260028111156106bb57634e487b7160e01b600052602160045260246000fd5b60028111156106da57634e487b7160e01b600052602160045260246000fd5b1480156107065750600181600281111561070457634e487b7160e01b600052602160045260246000fd5b145b1561073857600080516020610cbf83398151915233600060405161072b929190610c1b565b60405180910390a16109fa565b600082600281111561075a57634e487b7160e01b600052602160045260246000fd5b600281111561077957634e487b7160e01b600052602160045260246000fd5b1480156107a5575060028160028111156107a357634e487b7160e01b600052602160045260246000fd5b145b156107f457600080516020610cbf8339815191523360036040516107ca929190610be7565b60405180910390a1336000908152600360208190526040822080549192909161068e908490610c84565b600182600281111561081657634e487b7160e01b600052602160045260246000fd5b600281111561083557634e487b7160e01b600052602160045260246000fd5b1480156108615750600081600281111561085f57634e487b7160e01b600052602160045260246000fd5b145b1561088657600080516020610cbf8339815191523360036040516107ca929190610be7565b60018260028111156108a857634e487b7160e01b600052602160045260246000fd5b60028111156108c757634e487b7160e01b600052602160045260246000fd5b1480156108f3575060028160028111156108f157634e487b7160e01b600052602160045260246000fd5b145b1561091857600080516020610cbf83398151915233600060405161072b929190610c1b565b600282600281111561093a57634e487b7160e01b600052602160045260246000fd5b600281111561095957634e487b7160e01b600052602160045260246000fd5b1480156109855750600081600281111561098357634e487b7160e01b600052602160045260246000fd5b145b156109aa57600080516020610cbf83398151915233600060405161072b929190610c1b565b600080516020610cbf8339815191523360036040516109ca929190610be7565b60405180910390a133600090815260036020819052604082208054919290916109f4908490610c84565b90915550505b3360009081526003602052604081206001908101805491929091610a1f908490610c84565b90915550503360009081526003602052604081206002018054429290610a46908490610c84565b90915550505050565b6060336001600160a01b037f00000000000000000000000000000000000000000000000000000000000000001614610a8657600080fd5b5060408051808201909152600581526468656c6c6f60d81b602082015290565b60008080805b9392505050565b600060208284031215610ac4578081fd5b81356001600160a01b0381168114610aac578182fd5b600060208284031215610aeb578081fd5b813567ffffffffffffffff80821115610b02578283fd5b818401915084601f830112610b15578283fd5b813581811115610b2757610b27610ca8565b604051601f8201601f19908116603f01168101908382118183101715610b4f57610b4f610ca8565b81604052828152876020848701011115610b67578586fd5b826020860160208301379182016020019490945295945050505050565b600060208284031215610b95578081fd5b5035919050565b60008151808452815b81811015610bc157602081850181015186830182015201610ba5565b81811115610bd25782602083870101525b50601f01601f19169290920160200192915050565b6001600160a01b03929092168252606060208301819052600390830152623bb4b760e91b6080830152604082015260a00190565b6001600160a01b03929092168252606060208301819052600490830152636c6f737360e01b6080830152604082015260a00190565b602081526000610aac6020830184610b9c565b828152604060208201526000610c7c6040830184610b9c565b949350505050565b60008219821115610ca357634e487b7160e01b81526011600452602481fd5b500190565b634e487b7160e01b600052604160045260246000fdfe85fc1bbb39de8edc11717b838a522d914a97c6952cb06de101d20931f336f187a26469706673582212205b698aa02319102829f68a454e887867590b85ceecee916da3baa05e0456af5564736f6c63430008040033",
  "linkReferences": {},
  "deployedLinkReferences": {}
}