{
  "_format": "hh-sol-artifact-1",
  "contractName": "EventGame",
  "sourceName": "contracts/eventGame.sol",
  "abi": [
    {
      "inputs": [
        {
          "internalType": "address",
          "name": "_logAddress",
          "type": "address"
        },
        {
          "internalType": "address",
          "name": "_owner",
          "type": "address"
        },
        {
          "internalType": "uint256",
          "name": "_eventId",
          "type": "uint256"
        }
      ],
      "stateMutability": "nonpayable",
      "type": "constructor"
    },
    {
      "anonymous": false,
      "inputs": [
        {
          "indexed": true,
          "internalType": "address",
          "name": "gameAddress",
          "type": "address"
        },
        {
          "indexed": true,
          "internalType": "address",
          "name": "player",
          "type": "address"
        },
        {
          "indexed": false,
          "internalType": "string",
          "name": "result",
          "type": "string"
        },
        {
          "indexed": false,
          "internalType": "uint256",
          "name": "points",
          "type": "uint256"
        }
      ],
      "name": "result",
      "type": "event"
    },
    {
      "inputs": [],
      "name": "endGame",
      "outputs": [],
      "stateMutability": "nonpayable",
      "type": "function"
    },
    {
      "inputs": [],
      "name": "getScoreboard",
      "outputs": [
        {
          "components": [
            {
              "internalType": "uint256",
              "name": "points",
              "type": "uint256"
            },
            {
              "internalType": "uint256",
              "name": "numberOfPlays",
              "type": "uint256"
            },
            {
              "internalType": "uint256",
              "name": "timeElapsed",
              "type": "uint256"
            }
          ],
          "internalType": "struct EventGame.UserScore",
          "name": "",
          "type": "tuple"
        }
      ],
      "stateMutability": "view",
      "type": "function"
    },
    {
      "inputs": [
        {
          "internalType": "address",
          "name": "_userAddress",
          "type": "address"
        }
      ],
      "name": "isWinner",
      "outputs": [
        {
          "internalType": "bool",
          "name": "",
          "type": "bool"
        }
      ],
      "stateMutability": "view",
      "type": "function"
    },
    {
      "inputs": [],
      "name": "register",
      "outputs": [],
      "stateMutability": "nonpayable",
      "type": "function"
    },
    {
      "inputs": [
        {
          "internalType": "address",
          "name": "",
          "type": "address"
        }
      ],
      "name": "s_isRegistered",
      "outputs": [
        {
          "internalType": "bool",
          "name": "",
          "type": "bool"
        }
      ],
      "stateMutability": "view",
      "type": "function"
    },
    {
      "inputs": [
        {
          "internalType": "uint256",
          "name": "",
          "type": "uint256"
        }
      ],
      "name": "s_registeredAddresses",
      "outputs": [
        {
          "internalType": "address",
          "name": "",
          "type": "address"
        }
      ],
      "stateMutability": "view",
      "type": "function"
    },
    {
      "inputs": [
        {
          "internalType": "address",
          "name": "",
          "type": "address"
        }
      ],
      "name": "scoreboard",
      "outputs": [
        {
          "internalType": "uint256",
          "name": "points",
          "type": "uint256"
        },
        {
          "internalType": "uint256",
          "name": "numberOfPlays",
          "type": "uint256"
        },
        {
          "internalType": "uint256",
          "name": "timeElapsed",
          "type": "uint256"
        }
      ],
      "stateMutability": "view",
      "type": "function"
    },
    {
      "inputs": [],
      "name": "startGame",
      "outputs": [],
      "stateMutability": "nonpayable",
      "type": "function"
    },
    {
      "inputs": [],
      "name": "status",
      "outputs": [
        {
          "internalType": "enum EventGame.GameStatus",
          "name": "",
          "type": "uint8"
        }
      ],
      "stateMutability": "view",
      "type": "function"
    },
    {
      "inputs": [
        {
          "internalType": "string",
          "name": "_newName",
          "type": "string"
        }
      ],
      "name": "updateName",
      "outputs": [],
      "stateMutability": "nonpayable",
      "type": "function"
    },
    {
      "inputs": [
        {
          "internalType": "uint256",
          "name": "_newPrice",
          "type": "uint256"
        }
      ],
      "name": "updatePrice",
      "outputs": [],
      "stateMutability": "nonpayable",
      "type": "function"
    },
    {
      "inputs": [
        {
          "internalType": "uint256",
          "name": "_newTickets",
          "type": "uint256"
        }
      ],
      "name": "updateTickets",
      "outputs": [],
      "stateMutability": "nonpayable",
      "type": "function"
    },
    {
      "inputs": [
        {
          "internalType": "uint256",
          "name": "_play",
          "type": "uint256"
        }
      ],
      "name": "userPlay",
      "outputs": [],
      "stateMutability": "nonpayable",
      "type": "function"
    }
  ],
  "bytecode": "0x60e060405234801561001057600080fd5b506040516111d43803806111d483398101604081905261002f9161006e565b6001600160601b0319606093841b81166080529190921b1660a05260c0526100a9565b80516001600160a01b038116811461006957600080fd5b919050565b600080600060608486031215610082578283fd5b61008b84610052565b925061009960208501610052565b9150604084015190509250925092565b60805160601c60a05160601c60c0516110a26101326000396000818161037e015281816104e2015281816105f301528181610691015281816107630152610d8c0152600081816104790152818161055301526106280152600081816103a50152818161050f015281816105bc015281816106be015281816107990152610db201526110a26000f3fe608060405234801561001057600080fd5b50600436106100cf5760003560e01c806384da92a71161008c5780639d9ca28d116100665780639d9ca28d146101e7578063a3195c471461020a578063bc3c09c41461021d578063d65ab5f21461024057600080fd5b806384da92a7146101965780638d6cc56d146101a95780639d5b24c0146101bc57600080fd5b80630c3a5699146100d45780631aa3a00814610123578063200d2ed21461012d57806343610884146101475780636cbc2ded1461017157806377897d2114610183575b600080fd5b6101036100e2366004610e3b565b60036020526000908152604090208054600182015460029092015490919083565b604080519384526020840192909252908201526060015b60405180910390f35b61012b610248565b005b60005461013a9060ff1681565b60405161011a9190610f44565b61014f610410565b604080518251815260208084015190820152918101519082015260600161011a565b61012b6000805460ff19166002179055565b61012b610191366004610f2c565b61046e565b61012b6101a4366004610e82565b610548565b61012b6101b7366004610f2c565b61061d565b6101cf6101ca366004610f2c565b6106f7565b6040516001600160a01b03909116815260200161011a565b6101fa6101f5366004610e3b565b610721565b604051901515815260200161011a565b61012b610218366004610f2c565b61081d565b6101fa61022b366004610e3b565b60026020526000908152604090205460ff1681565b61012b610d40565b6000805460ff16600281111561026e57634e487b7160e01b600052602160045260246000fd5b1461027857600080fd5b3360009081526002602052604090205460ff16156102dc5760405162461bcd60e51b815260206004820152601c60248201527f596f75206861766520616c726561647920726567697374657265642100000000604482015260640160405180910390fd5b60408051606081018252600080825260208083018281524284860190815233808552600384528685208651815592516001808501919091559151600293840155815480830183557fb10e2d527612073b26eecdfd717e6a320cf44b4afac2b0732d9fcbe2b7fa0cf60180546001600160a01b031916821790559190925291849020805460ff19169091179055915163034f17d960e11b815260048101929092527f00000000000000000000000000000000000000000000000000000000000000006024830152907f0000000000000000000000000000000000000000000000000000000000000000906001600160a01b0382169063069e2fb2906044015b600060405180830381600087803b1580156103f457600080fd5b505af1158015610408573d6000803e3d6000fd5b505050505050565b61043460405180606001604052806000815260200160008152602001600081525090565b5033600090815260036020908152604091829020825160608101845281548152600182015492810192909252600201549181019190915290565b336001600160a01b037f000000000000000000000000000000000000000000000000000000000000000016146104a357600080fd5b6000805460ff1660028111156104c957634e487b7160e01b600052602160045260246000fd5b146104d357600080fd5b604051639abea6c160e01b81527f00000000000000000000000000000000000000000000000000000000000000006004820152602481018290527f0000000000000000000000000000000000000000000000000000000000000000906001600160a01b03821690639abea6c1906044016103da565b336001600160a01b037f0000000000000000000000000000000000000000000000000000000000000000161461057d57600080fd5b6000805460ff1660028111156105a357634e487b7160e01b600052602160045260246000fd5b146105ad57600080fd5b60405163064ab2b160e41b81527f0000000000000000000000000000000000000000000000000000000000000000906001600160a01b038216906364ab2b10906103da907f0000000000000000000000000000000000000000000000000000000000000000908690600401610fb7565b336001600160a01b037f0000000000000000000000000000000000000000000000000000000000000000161461065257600080fd5b6000805460ff16600281111561067857634e487b7160e01b600052602160045260246000fd5b1461068257600080fd5b60405163090859eb60e11b81527f00000000000000000000000000000000000000000000000000000000000000006004820152602481018290527f0000000000000000000000000000000000000000000000000000000000000000906001600160a01b03821690631210b3d6906044016103da565b6001818154811061070757600080fd5b6000918252602090912001546001600160a01b0316905081565b6000600260005460ff16600281111561074a57634e487b7160e01b600052602160045260246000fd5b1461075457600080fd5b604051637dfb132f60e11b81527f000000000000000000000000000000000000000000000000000000000000000060048201526001600160a01b0383811660248301527f0000000000000000000000000000000000000000000000000000000000000000919082169063fbf6265e9060440160206040518083038186803b1580156107de57600080fd5b505afa1580156107f2573d6000803e3d6000fd5b505050506040513d601f19601f820116820180604052508101906108169190610e62565b9392505050565b600160005460ff16600281111561084457634e487b7160e01b600052602160045260246000fd5b1461084e57600080fd5b3360009081526002602052604090205460ff16151560011461086f57600080fd5b336000908152600360205260409020600101546005101561088f57600080fd5b600454421061089d57600080fd5b60006108a7610e31565b90508060028111156108c957634e487b7160e01b600052602160045260246000fd5b8260028111156108e957634e487b7160e01b600052602160045260246000fd5b600281111561090857634e487b7160e01b600052602160045260246000fd5b14156109785760408051818152600481830152636472617760e01b60608201526001602082015290513391309160008051602061104d8339815191529181900360800190a333600090815260036020526040812080546001929061096d908490611012565b90915550610ceb9050565b600082600281111561099a57634e487b7160e01b600052602160045260246000fd5b60028111156109b957634e487b7160e01b600052602160045260246000fd5b1480156109e5575060018160028111156109e357634e487b7160e01b600052602160045260246000fd5b145b15610a1a576040513390309060008051602061104d83398151915290610a0d90600090610f91565b60405180910390a3610ceb565b6000826002811115610a3c57634e487b7160e01b600052602160045260246000fd5b6002811115610a5b57634e487b7160e01b600052602160045260246000fd5b148015610a8757506002816002811115610a8557634e487b7160e01b600052602160045260246000fd5b145b15610ad9576040513390309060008051602061104d83398151915290610aaf90600390610f6c565b60405180910390a3336000908152600360208190526040822080549192909161096d908490611012565b6001826002811115610afb57634e487b7160e01b600052602160045260246000fd5b6002811115610b1a57634e487b7160e01b600052602160045260246000fd5b148015610b4657506000816002811115610b4457634e487b7160e01b600052602160045260246000fd5b145b15610b6e576040513390309060008051602061104d83398151915290610aaf90600390610f6c565b6001826002811115610b9057634e487b7160e01b600052602160045260246000fd5b6002811115610baf57634e487b7160e01b600052602160045260246000fd5b148015610bdb57506002816002811115610bd957634e487b7160e01b600052602160045260246000fd5b145b15610c03576040513390309060008051602061104d83398151915290610a0d90600090610f91565b6002826002811115610c2557634e487b7160e01b600052602160045260246000fd5b6002811115610c4457634e487b7160e01b600052602160045260246000fd5b148015610c7057506000816002811115610c6e57634e487b7160e01b600052602160045260246000fd5b145b15610c98576040513390309060008051602061104d83398151915290610a0d90600090610f91565b6040513390309060008051602061104d83398151915290610cbb90600390610f6c565b60405180910390a33360009081526003602081905260408220805491929091610ce5908490611012565b90915550505b3360009081526003602052604081206001908101805491929091610d10908490611012565b90915550503360009081526003602052604081206002018054429290610d37908490611012565b90915550505050565b6000805460ff166002811115610d6657634e487b7160e01b600052602160045260246000fd5b14610d7057600080fd5b6000805460ff1916600117905560405163f052cf9960e01b81527f000000000000000000000000000000000000000000000000000000000000000060048201527f0000000000000000000000000000000000000000000000000000000000000000906001600160a01b0382169063f052cf9990602401600060405180830381600087803b158015610e0057600080fd5b505af1158015610e14573d6000803e3d6000fd5b505050504266038d7ea4c68000610e2b9190611012565b60045550565b6000808080610816565b600060208284031215610e4c578081fd5b81356001600160a01b0381168114610816578182fd5b600060208284031215610e73578081fd5b81518015158114610816578182fd5b600060208284031215610e93578081fd5b813567ffffffffffffffff80821115610eaa578283fd5b818401915084601f830112610ebd578283fd5b813581811115610ecf57610ecf611036565b604051601f8201601f19908116603f01168101908382118183101715610ef757610ef7611036565b81604052828152876020848701011115610f0f578586fd5b826020860160208301379182016020019490945295945050505050565b600060208284031215610f3d578081fd5b5035919050565b6020810160038310610f6657634e487b7160e01b600052602160045260246000fd5b91905290565b6040808252600390820152623bb4b760e91b6060820152602081019190915260800190565b6040808252600490820152636c6f737360e01b6060820152602081019190915260800190565b828152600060206040818401528351806040850152825b81811015610fea57858101830151858201606001528201610fce565b81811115610ffb5783606083870101525b50601f01601f191692909201606001949350505050565b6000821982111561103157634e487b7160e01b81526011600452602481fd5b500190565b634e487b7160e01b600052604160045260246000fdfea17f8b350e3cc303626d75275908b42a311c29ea946002f85d057f018e43ced2a264697066735822122025667c713ef75557c5f51c360b62b390717231b266261db57958a649f4a3bf7d64736f6c63430008040033",
  "linkReferences": {},
  "deployedLinkReferences": {}
}