{
  "_format": "hh-sol-artifact-1",
  "contractName": "EventGame",
  "sourceName": "contracts/eventGame.sol",
  "abi": [
    {
      "inputs": [
        {
          "internalType": "address",
          "name": "_logAddress",
          "type": "address"
        },
        {
          "internalType": "address",
          "name": "_owner",
          "type": "address"
        },
        {
          "internalType": "uint256",
          "name": "_eventId",
          "type": "uint256"
        }
      ],
      "stateMutability": "nonpayable",
      "type": "constructor"
    },
    {
      "anonymous": false,
      "inputs": [
        {
          "indexed": true,
          "internalType": "address",
          "name": "previousOwner",
          "type": "address"
        },
        {
          "indexed": true,
          "internalType": "address",
          "name": "newOwner",
          "type": "address"
        }
      ],
      "name": "OwnershipTransferred",
      "type": "event"
    },
    {
      "anonymous": false,
      "inputs": [
        {
          "indexed": false,
          "internalType": "address",
          "name": "player",
          "type": "address"
        },
        {
          "indexed": false,
          "internalType": "string",
          "name": "result",
          "type": "string"
        },
        {
          "indexed": false,
          "internalType": "uint256",
          "name": "points",
          "type": "uint256"
        }
      ],
      "name": "result",
      "type": "event"
    },
    {
      "inputs": [],
      "name": "owner",
      "outputs": [
        {
          "internalType": "address",
          "name": "",
          "type": "address"
        }
      ],
      "stateMutability": "view",
      "type": "function"
    },
    {
      "inputs": [],
      "name": "register",
      "outputs": [],
      "stateMutability": "nonpayable",
      "type": "function"
    },
    {
      "inputs": [],
      "name": "renounceOwnership",
      "outputs": [],
      "stateMutability": "nonpayable",
      "type": "function"
    },
    {
      "inputs": [
        {
          "internalType": "address",
          "name": "",
          "type": "address"
        }
      ],
      "name": "s_isRegistered",
      "outputs": [
        {
          "internalType": "bool",
          "name": "",
          "type": "bool"
        }
      ],
      "stateMutability": "view",
      "type": "function"
    },
    {
      "inputs": [
        {
          "internalType": "uint256",
          "name": "",
          "type": "uint256"
        }
      ],
      "name": "s_registeredAddresses",
      "outputs": [
        {
          "internalType": "address",
          "name": "",
          "type": "address"
        }
      ],
      "stateMutability": "view",
      "type": "function"
    },
    {
      "inputs": [],
      "name": "startGame",
      "outputs": [],
      "stateMutability": "nonpayable",
      "type": "function"
    },
    {
      "inputs": [
        {
          "internalType": "address",
          "name": "newOwner",
          "type": "address"
        }
      ],
      "name": "transferOwnership",
      "outputs": [],
      "stateMutability": "nonpayable",
      "type": "function"
    },
    {
      "inputs": [
        {
          "internalType": "string",
          "name": "_newName",
          "type": "string"
        }
      ],
      "name": "updateName",
      "outputs": [],
      "stateMutability": "nonpayable",
      "type": "function"
    },
    {
      "inputs": [
        {
          "internalType": "uint256",
          "name": "_newPrice",
          "type": "uint256"
        }
      ],
      "name": "updatePrice",
      "outputs": [],
      "stateMutability": "nonpayable",
      "type": "function"
    },
    {
      "inputs": [
        {
          "internalType": "uint256",
          "name": "_newTickets",
          "type": "uint256"
        }
      ],
      "name": "updateTickets",
      "outputs": [],
      "stateMutability": "nonpayable",
      "type": "function"
    },
    {
      "inputs": [
        {
          "internalType": "uint256",
          "name": "_play",
          "type": "uint256"
        }
      ],
      "name": "userPlay",
      "outputs": [],
      "stateMutability": "nonpayable",
      "type": "function"
    }
  ],
  "bytecode": "0x60e06040526000805460ff60a01b1916600160a01b17905534801561002357600080fd5b50604051610f6f380380610f6f833981016040819052610042916100da565b61004b3361006e565b6001600160601b0319606093841b81166080529190921b1660a05260c052610115565b600080546001600160a01b038381166001600160a01b0319831681178455604051919092169283917f8be0079c531659141344cd1fd0a4f28419497f9722a3daafe3b4186f6b6457e09190a35050565b80516001600160a01b03811681146100d557600080fd5b919050565b6000806000606084860312156100ee578283fd5b6100f7846100be565b9250610105602085016100be565b9150604084015190509250925092565b60805160601c60a05160601c60c051610dfe610171600039600081816102f4015281816103f5015281816104cb015261052e0152600050506000818161031b0152818161042201528181610494015261055b0152610dfe6000f3fe608060405234801561001057600080fd5b50600436106100a95760003560e01c80638da5cb5b116100715780638da5cb5b146100f95780639d5b24c014610123578063a3195c4714610136578063bc3c09c414610149578063d65ab5f2146100b6578063f2fde38b1461017c57600080fd5b80631aa3a008146100ae578063715018a6146100b857806377897d21146100c057806384da92a7146100d35780638d6cc56d146100e6575b600080fd5b6100b661018f565b005b6100b6610386565b6100b66100ce366004610c5d565b6103bc565b6100b66100e1366004610bb3565b61045b565b6100b66100f4366004610c5d565b6104f5565b6000546001600160a01b03165b6040516001600160a01b0390911681526020015b60405180910390f35b610106610131366004610c5d565b610594565b6100b6610144366004610c5d565b6105be565b61016c610157366004610b8c565b60026020526000908152604090205460ff1681565b604051901515815260200161011a565b6100b661018a366004610b8c565b610a94565b600054600160a01b900460ff1615156001146101f25760405162461bcd60e51b815260206004820152601a60248201527f526567697374726174696f6e206e6f74206f70656e207965742100000000000060448201526064015b60405180910390fd5b3360009081526002602052604090205460ff16156102525760405162461bcd60e51b815260206004820152601c60248201527f596f75206861766520616c72656164792072656769737465726564210000000060448201526064016101e9565b60408051606081018252600080825260208083018281524284860190815233808552600384528685208651815592516001808501919091559151600293840155815480830183557fb10e2d527612073b26eecdfd717e6a320cf44b4afac2b0732d9fcbe2b7fa0cf60180546001600160a01b031916821790559190925291849020805460ff19169091179055915163034f17d960e11b815260048101929092527f00000000000000000000000000000000000000000000000000000000000000006024830152907f0000000000000000000000000000000000000000000000000000000000000000906001600160a01b0382169063069e2fb2906044015b600060405180830381600087803b15801561036a57600080fd5b505af115801561037e573d6000803e3d6000fd5b505050505050565b6000546001600160a01b031633146103b05760405162461bcd60e51b81526004016101e990610cde565b6103ba6000610b2f565b565b6000546001600160a01b031633146103e65760405162461bcd60e51b81526004016101e990610cde565b604051639abea6c160e01b81527f00000000000000000000000000000000000000000000000000000000000000006004820152602481018290527f0000000000000000000000000000000000000000000000000000000000000000906001600160a01b03821690639abea6c190604401610350565b6000546001600160a01b031633146104855760405162461bcd60e51b81526004016101e990610cde565b60405163064ab2b160e41b81527f0000000000000000000000000000000000000000000000000000000000000000906001600160a01b038216906364ab2b1090610350907f0000000000000000000000000000000000000000000000000000000000000000908690600401610d13565b6000546001600160a01b0316331461051f5760405162461bcd60e51b81526004016101e990610cde565b60405163090859eb60e11b81527f00000000000000000000000000000000000000000000000000000000000000006004820152602481018290527f0000000000000000000000000000000000000000000000000000000000000000906001600160a01b03821690631210b3d690604401610350565b600181815481106105a457600080fd5b6000918252602090912001546001600160a01b0316905081565b3360009081526002602052604090205460ff1615156001146105df57600080fd5b33600090815260036020526040902060010154600510156105ff57600080fd5b6000610609610b7f565b905080600281111561062b57634e487b7160e01b600052602160045260246000fd5b82600281111561064b57634e487b7160e01b600052602160045260246000fd5b600281111561066a57634e487b7160e01b600052602160045260246000fd5b14156106de5760408051338152606060208201819052600490820152636472617760e01b60808201526001818301529051600080516020610da98339815191529181900360a00190a13360009081526003602052604081208054600192906106d3908490610d6e565b90915550610a3f9050565b600082600281111561070057634e487b7160e01b600052602160045260246000fd5b600281111561071f57634e487b7160e01b600052602160045260246000fd5b14801561074b5750600181600281111561074957634e487b7160e01b600052602160045260246000fd5b145b1561077d57600080516020610da9833981519152336000604051610770929190610ca9565b60405180910390a1610a3f565b600082600281111561079f57634e487b7160e01b600052602160045260246000fd5b60028111156107be57634e487b7160e01b600052602160045260246000fd5b1480156107ea575060028160028111156107e857634e487b7160e01b600052602160045260246000fd5b145b1561083957600080516020610da983398151915233600360405161080f929190610c75565b60405180910390a133600090815260036020819052604082208054919290916106d3908490610d6e565b600182600281111561085b57634e487b7160e01b600052602160045260246000fd5b600281111561087a57634e487b7160e01b600052602160045260246000fd5b1480156108a6575060008160028111156108a457634e487b7160e01b600052602160045260246000fd5b145b156108cb57600080516020610da983398151915233600360405161080f929190610c75565b60018260028111156108ed57634e487b7160e01b600052602160045260246000fd5b600281111561090c57634e487b7160e01b600052602160045260246000fd5b1480156109385750600281600281111561093657634e487b7160e01b600052602160045260246000fd5b145b1561095d57600080516020610da9833981519152336000604051610770929190610ca9565b600282600281111561097f57634e487b7160e01b600052602160045260246000fd5b600281111561099e57634e487b7160e01b600052602160045260246000fd5b1480156109ca575060008160028111156109c857634e487b7160e01b600052602160045260246000fd5b145b156109ef57600080516020610da9833981519152336000604051610770929190610ca9565b600080516020610da9833981519152336003604051610a0f929190610c75565b60405180910390a13360009081526003602081905260408220805491929091610a39908490610d6e565b90915550505b3360009081526003602052604081206001908101805491929091610a64908490610d6e565b90915550503360009081526003602052604081206002018054429290610a8b908490610d6e565b90915550505050565b6000546001600160a01b03163314610abe5760405162461bcd60e51b81526004016101e990610cde565b6001600160a01b038116610b235760405162461bcd60e51b815260206004820152602660248201527f4f776e61626c653a206e6577206f776e657220697320746865207a65726f206160448201526564647265737360d01b60648201526084016101e9565b610b2c81610b2f565b50565b600080546001600160a01b038381166001600160a01b0319831681178455604051919092169283917f8be0079c531659141344cd1fd0a4f28419497f9722a3daafe3b4186f6b6457e09190a35050565b60008080805b9392505050565b600060208284031215610b9d578081fd5b81356001600160a01b0381168114610b85578182fd5b600060208284031215610bc4578081fd5b813567ffffffffffffffff80821115610bdb578283fd5b818401915084601f830112610bee578283fd5b813581811115610c0057610c00610d92565b604051601f8201601f19908116603f01168101908382118183101715610c2857610c28610d92565b81604052828152876020848701011115610c40578586fd5b826020860160208301379182016020019490945295945050505050565b600060208284031215610c6e578081fd5b5035919050565b6001600160a01b03929092168252606060208301819052600390830152623bb4b760e91b6080830152604082015260a00190565b6001600160a01b03929092168252606060208301819052600490830152636c6f737360e01b6080830152604082015260a00190565b6020808252818101527f4f776e61626c653a2063616c6c6572206973206e6f7420746865206f776e6572604082015260600190565b828152600060206040818401528351806040850152825b81811015610d4657858101830151858201606001528201610d2a565b81811115610d575783606083870101525b50601f01601f191692909201606001949350505050565b60008219821115610d8d57634e487b7160e01b81526011600452602481fd5b500190565b634e487b7160e01b600052604160045260246000fdfe85fc1bbb39de8edc11717b838a522d914a97c6952cb06de101d20931f336f187a2646970667358221220e8c13b28769b1f91953734ecb51780a7c9facd150412f4fb8ea4b63684da9f9964736f6c63430008040033",
  "linkReferences": {},
  "deployedLinkReferences": {}
}