{
  "_format": "hh-sol-artifact-1",
  "contractName": "eventGame",
  "sourceName": "contracts/eventGame.sol",
  "abi": [
    {
      "inputs": [
        {
          "internalType": "address",
          "name": "_logAddress",
          "type": "address"
        },
        {
          "internalType": "uint32",
          "name": "_numberOfTickets",
          "type": "uint32"
        },
        {
          "internalType": "address",
          "name": "_owner",
          "type": "address"
        }
      ],
      "stateMutability": "nonpayable",
      "type": "constructor"
    },
    {
      "anonymous": false,
      "inputs": [
        {
          "indexed": true,
          "internalType": "address",
          "name": "previousOwner",
          "type": "address"
        },
        {
          "indexed": true,
          "internalType": "address",
          "name": "newOwner",
          "type": "address"
        }
      ],
      "name": "OwnershipTransferred",
      "type": "event"
    },
    {
      "inputs": [],
      "name": "_getAlgoPlay",
      "outputs": [
        {
          "internalType": "uint32",
          "name": "",
          "type": "uint32"
        }
      ],
      "stateMutability": "nonpayable",
      "type": "function"
    },
    {
      "inputs": [],
      "name": "owner",
      "outputs": [
        {
          "internalType": "address",
          "name": "",
          "type": "address"
        }
      ],
      "stateMutability": "view",
      "type": "function"
    },
    {
      "inputs": [],
      "name": "register",
      "outputs": [],
      "stateMutability": "nonpayable",
      "type": "function"
    },
    {
      "inputs": [],
      "name": "renounceOwnership",
      "outputs": [],
      "stateMutability": "nonpayable",
      "type": "function"
    },
    {
      "inputs": [
        {
          "internalType": "address",
          "name": "",
          "type": "address"
        }
      ],
      "name": "s_isRegistered",
      "outputs": [
        {
          "internalType": "bool",
          "name": "",
          "type": "bool"
        }
      ],
      "stateMutability": "view",
      "type": "function"
    },
    {
      "inputs": [],
      "name": "s_logAddress",
      "outputs": [
        {
          "internalType": "address",
          "name": "",
          "type": "address"
        }
      ],
      "stateMutability": "view",
      "type": "function"
    },
    {
      "inputs": [
        {
          "internalType": "uint256",
          "name": "",
          "type": "uint256"
        }
      ],
      "name": "s_registeredAddresses",
      "outputs": [
        {
          "internalType": "address",
          "name": "",
          "type": "address"
        }
      ],
      "stateMutability": "view",
      "type": "function"
    },
    {
      "inputs": [
        {
          "internalType": "uint256",
          "name": "",
          "type": "uint256"
        }
      ],
      "name": "s_winners",
      "outputs": [
        {
          "internalType": "address",
          "name": "",
          "type": "address"
        }
      ],
      "stateMutability": "view",
      "type": "function"
    },
    {
      "inputs": [],
      "name": "startGame",
      "outputs": [],
      "stateMutability": "nonpayable",
      "type": "function"
    },
    {
      "inputs": [
        {
          "internalType": "address",
          "name": "newOwner",
          "type": "address"
        }
      ],
      "name": "transferOwnership",
      "outputs": [],
      "stateMutability": "nonpayable",
      "type": "function"
    },
    {
      "inputs": [
        {
          "internalType": "string",
          "name": "_newName",
          "type": "string"
        },
        {
          "internalType": "uint32",
          "name": "_newTickets",
          "type": "uint32"
        },
        {
          "internalType": "uint32",
          "name": "_newPrice",
          "type": "uint32"
        }
      ],
      "name": "updateEvent",
      "outputs": [],
      "stateMutability": "nonpayable",
      "type": "function"
    }
  ],
  "bytecode": "0x60a06040526001600360006101000a81548160ff0219169083151502179055503480156200002c57600080fd5b50604051620013d2380380620013d28339818101604052810190620000529190620001fa565b62000072620000666200010060201b60201c565b6200010860201b60201c565b82600160006101000a81548173ffffffffffffffffffffffffffffffffffffffff021916908373ffffffffffffffffffffffffffffffffffffffff1602179055508163ffffffff166002819055508073ffffffffffffffffffffffffffffffffffffffff1660808173ffffffffffffffffffffffffffffffffffffffff1660601b81525050505050620002c8565b600033905090565b60008060009054906101000a900473ffffffffffffffffffffffffffffffffffffffff169050816000806101000a81548173ffffffffffffffffffffffffffffffffffffffff021916908373ffffffffffffffffffffffffffffffffffffffff1602179055508173ffffffffffffffffffffffffffffffffffffffff168173ffffffffffffffffffffffffffffffffffffffff167f8be0079c531659141344cd1fd0a4f28419497f9722a3daafe3b4186f6b6457e060405160405180910390a35050565b600081519050620001dd8162000294565b92915050565b600081519050620001f481620002ae565b92915050565b6000806000606084860312156200021057600080fd5b60006200022086828701620001cc565b93505060206200023386828701620001e3565b92505060406200024686828701620001cc565b9150509250925092565b60006200025d8262000264565b9050919050565b600073ffffffffffffffffffffffffffffffffffffffff82169050919050565b600063ffffffff82169050919050565b6200029f8162000250565b8114620002ab57600080fd5b50565b620002b98162000284565b8114620002c557600080fd5b50565b60805160601c6110ee620002e4600039600050506110ee6000f3fe608060405234801561001057600080fd5b50600436106100a95760003560e01c80638da5cb5b116100715780638da5cb5b1461012c57806398cc424a1461014a5780639d5b24c014610168578063bc3c09c414610198578063d65ab5f2146101c8578063f2fde38b146101d2576100a9565b80631aa3a008146100ae5780633b024e75146100b8578063715018a6146100d4578063756cd579146100de5780638c20a3651461010e575b600080fd5b6100b66101ee565b005b6100d260048036038101906100cd9190610a8b565b610394565b005b6100dc6104bd565b005b6100f860048036038101906100f39190610af2565b610545565b6040516101059190610c0d565b60405180910390f35b610116610584565b6040516101239190610d1d565b60405180910390f35b61013461058e565b6040516101419190610c0d565b60405180910390f35b6101526105b7565b60405161015f9190610c0d565b60405180910390f35b610182600480360381019061017d9190610af2565b6105dd565b60405161018f9190610c0d565b60405180910390f35b6101b260048036038101906101ad9190610a62565b61061c565b6040516101bf9190610c28565b60405180910390f35b6101d061063c565b005b6101ec60048036038101906101e79190610a62565b6106f1565b005b60011515600360009054906101000a900460ff16151514610244576040517f08c379a000000000000000000000000000000000000000000000000000000000815260040161023b90610cdd565b60405180910390fd5b60001515600560003373ffffffffffffffffffffffffffffffffffffffff1673ffffffffffffffffffffffffffffffffffffffff16815260200190815260200160002060009054906101000a900460ff161515146102d7576040517f08c379a00000000000000000000000000000000000000000000000000000000081526004016102ce90610c9d565b60405180910390fd5b6001600560003373ffffffffffffffffffffffffffffffffffffffff1673ffffffffffffffffffffffffffffffffffffffff16815260200190815260200160002060006101000a81548160ff0219169083151502179055506004339080600181540180825580915050600190039060005260206000200160009091909190916101000a81548173ffffffffffffffffffffffffffffffffffffffff021916908373ffffffffffffffffffffffffffffffffffffffff160217905550565b61039c6107e9565b73ffffffffffffffffffffffffffffffffffffffff166103ba61058e565b73ffffffffffffffffffffffffffffffffffffffff1614610410576040517f08c379a000000000000000000000000000000000000000000000000000000000815260040161040790610cfd565b60405180910390fd5b6000600160009054906101000a900473ffffffffffffffffffffffffffffffffffffffff1690508073ffffffffffffffffffffffffffffffffffffffff16632cd9e38985303387876040518663ffffffff1660e01b8152600401610478959493929190610c43565b600060405180830381600087803b15801561049257600080fd5b505af11580156104a6573d6000803e3d6000fd5b505050508263ffffffff1660028190555050505050565b6104c56107e9565b73ffffffffffffffffffffffffffffffffffffffff166104e361058e565b73ffffffffffffffffffffffffffffffffffffffff1614610539576040517f08c379a000000000000000000000000000000000000000000000000000000000815260040161053090610cfd565b60405180910390fd5b61054360006107f1565b565b6006818154811061055557600080fd5b906000526020600020016000915054906101000a900473ffffffffffffffffffffffffffffffffffffffff1681565b6000808091505090565b60008060009054906101000a900473ffffffffffffffffffffffffffffffffffffffff16905090565b600160009054906101000a900473ffffffffffffffffffffffffffffffffffffffff1681565b600481815481106105ed57600080fd5b906000526020600020016000915054906101000a900473ffffffffffffffffffffffffffffffffffffffff1681565b60056020528060005260406000206000915054906101000a900460ff1681565b6106446107e9565b73ffffffffffffffffffffffffffffffffffffffff1661066261058e565b73ffffffffffffffffffffffffffffffffffffffff16146106b8576040517f08c379a00000000000000000000000000000000000000000000000000000000081526004016106af90610cfd565b60405180910390fd5b6106c06108b5565b600254600480549050116106e657600460069080546106e092919061094c565b506106ef565b6106ee6108ef565b5b565b6106f96107e9565b73ffffffffffffffffffffffffffffffffffffffff1661071761058e565b73ffffffffffffffffffffffffffffffffffffffff161461076d576040517f08c379a000000000000000000000000000000000000000000000000000000000815260040161076490610cfd565b60405180910390fd5b600073ffffffffffffffffffffffffffffffffffffffff168173ffffffffffffffffffffffffffffffffffffffff1614156107dd576040517f08c379a00000000000000000000000000000000000000000000000000000000081526004016107d490610cbd565b60405180910390fd5b6107e6816107f1565b50565b600033905090565b60008060009054906101000a900473ffffffffffffffffffffffffffffffffffffffff169050816000806101000a81548173ffffffffffffffffffffffffffffffffffffffff021916908373ffffffffffffffffffffffffffffffffffffffff1602179055508173ffffffffffffffffffffffffffffffffffffffff168173ffffffffffffffffffffffffffffffffffffffff167f8be0079c531659141344cd1fd0a4f28419497f9722a3daafe3b4186f6b6457e060405160405180910390a35050565b60011515600360009054906101000a900460ff16151514156108ed576000600360006101000a81548160ff0219169083151502179055505b565b60006002546004805490506109049190610eda565b905060006002548260048054905061091c9190610ddb565b6109269190610daa565b905061093181610935565b5050565b6000806001836109459190610ddb565b9050505050565b82805482825590600052602060002090810192821561098d5760005260206000209182015b8281111561098c578254825591600101919060010190610971565b5b50905061099a919061099e565b5090565b5b808211156109b757600081600090555060010161099f565b5090565b60006109ce6109c984610d5d565b610d38565b9050828152602081018484840111156109e657600080fd5b6109f1848285610e67565b509392505050565b600081359050610a0881611073565b92915050565b600082601f830112610a1f57600080fd5b8135610a2f8482602086016109bb565b91505092915050565b600081359050610a478161108a565b92915050565b600081359050610a5c816110a1565b92915050565b600060208284031215610a7457600080fd5b6000610a82848285016109f9565b91505092915050565b600080600060608486031215610aa057600080fd5b600084013567ffffffffffffffff811115610aba57600080fd5b610ac686828701610a0e565b9350506020610ad786828701610a4d565b9250506040610ae886828701610a4d565b9150509250925092565b600060208284031215610b0457600080fd5b6000610b1284828501610a38565b91505092915050565b610b2481610e0f565b82525050565b610b3381610e21565b82525050565b6000610b4482610d8e565b610b4e8185610d99565b9350610b5e818560208601610e76565b610b6781610f98565b840191505092915050565b6000610b7f601c83610d99565b9150610b8a82610fa9565b602082019050919050565b6000610ba2602683610d99565b9150610bad82610fd2565b604082019050919050565b6000610bc5601a83610d99565b9150610bd082611021565b602082019050919050565b6000610be8602083610d99565b9150610bf38261104a565b602082019050919050565b610c0781610e57565b82525050565b6000602082019050610c226000830184610b1b565b92915050565b6000602082019050610c3d6000830184610b2a565b92915050565b600060a0820190508181036000830152610c5d8188610b39565b9050610c6c6020830187610b1b565b610c796040830186610b1b565b610c866060830185610bfe565b610c936080830184610bfe565b9695505050505050565b60006020820190508181036000830152610cb681610b72565b9050919050565b60006020820190508181036000830152610cd681610b95565b9050919050565b60006020820190508181036000830152610cf681610bb8565b9050919050565b60006020820190508181036000830152610d1681610bdb565b9050919050565b6000602082019050610d326000830184610bfe565b92915050565b6000610d42610d53565b9050610d4e8282610ea9565b919050565b6000604051905090565b600067ffffffffffffffff821115610d7857610d77610f69565b5b610d8182610f98565b9050602081019050919050565b600081519050919050565b600082825260208201905092915050565b6000610db582610e4d565b9150610dc083610e4d565b925082610dd057610dcf610f3a565b5b828204905092915050565b6000610de682610e4d565b9150610df183610e4d565b925082821015610e0457610e03610f0b565b5b828203905092915050565b6000610e1a82610e2d565b9050919050565b60008115159050919050565b600073ffffffffffffffffffffffffffffffffffffffff82169050919050565b6000819050919050565b600063ffffffff82169050919050565b82818337600083830152505050565b60005b83811015610e94578082015181840152602081019050610e79565b83811115610ea3576000848401525b50505050565b610eb282610f98565b810181811067ffffffffffffffff82111715610ed157610ed0610f69565b5b80604052505050565b6000610ee582610e4d565b9150610ef083610e4d565b925082610f0057610eff610f3a565b5b828206905092915050565b7f4e487b7100000000000000000000000000000000000000000000000000000000600052601160045260246000fd5b7f4e487b7100000000000000000000000000000000000000000000000000000000600052601260045260246000fd5b7f4e487b7100000000000000000000000000000000000000000000000000000000600052604160045260246000fd5b6000601f19601f8301169050919050565b7f596f75206861766520616c726561647920726567697374657265642100000000600082015250565b7f4f776e61626c653a206e6577206f776e657220697320746865207a65726f206160008201527f6464726573730000000000000000000000000000000000000000000000000000602082015250565b7f526567697374726174696f6e206e6f74206f70656e2079657421000000000000600082015250565b7f4f776e61626c653a2063616c6c6572206973206e6f7420746865206f776e6572600082015250565b61107c81610e0f565b811461108757600080fd5b50565b61109381610e4d565b811461109e57600080fd5b50565b6110aa81610e57565b81146110b557600080fd5b5056fea26469706673582212205075d801593843c726f2ea44664f434d30aa182f0ed8e8f4a9db3130df72d0e064736f6c63430008040033",
  "linkReferences": {},
  "deployedLinkReferences": {}
}