{
  "_format": "hh-sol-artifact-1",
  "contractName": "EventGame",
  "sourceName": "contracts/eventGame.sol",
  "abi": [
    {
      "inputs": [
        {
          "internalType": "address",
          "name": "_logAddress",
          "type": "address"
        },
        {
          "internalType": "address",
          "name": "_owner",
          "type": "address"
        },
        {
          "internalType": "uint256",
          "name": "_eventId",
          "type": "uint256"
        }
      ],
      "stateMutability": "nonpayable",
      "type": "constructor"
    },
    {
      "anonymous": false,
      "inputs": [
        {
          "indexed": false,
          "internalType": "address",
          "name": "player",
          "type": "address"
        },
        {
          "indexed": false,
          "internalType": "string",
          "name": "result",
          "type": "string"
        },
        {
          "indexed": false,
          "internalType": "uint256",
          "name": "points",
          "type": "uint256"
        }
      ],
      "name": "result",
      "type": "event"
    },
    {
      "inputs": [],
      "name": "register",
      "outputs": [],
      "stateMutability": "nonpayable",
      "type": "function"
    },
    {
      "inputs": [
        {
          "internalType": "address",
          "name": "",
          "type": "address"
        }
      ],
      "name": "s_isRegistered",
      "outputs": [
        {
          "internalType": "bool",
          "name": "",
          "type": "bool"
        }
      ],
      "stateMutability": "view",
      "type": "function"
    },
    {
      "inputs": [
        {
          "internalType": "uint256",
          "name": "",
          "type": "uint256"
        }
      ],
      "name": "s_registeredAddresses",
      "outputs": [
        {
          "internalType": "address",
          "name": "",
          "type": "address"
        }
      ],
      "stateMutability": "view",
      "type": "function"
    },
    {
      "inputs": [
        {
          "internalType": "address",
          "name": "",
          "type": "address"
        }
      ],
      "name": "scoreboard",
      "outputs": [
        {
          "internalType": "uint256",
          "name": "points",
          "type": "uint256"
        },
        {
          "internalType": "uint256",
          "name": "numberOfPlays",
          "type": "uint256"
        },
        {
          "internalType": "uint256",
          "name": "timeElapsed",
          "type": "uint256"
        }
      ],
      "stateMutability": "view",
      "type": "function"
    },
    {
      "inputs": [],
      "name": "startGame",
      "outputs": [],
      "stateMutability": "nonpayable",
      "type": "function"
    },
    {
      "inputs": [],
      "name": "test",
      "outputs": [
        {
          "internalType": "string",
          "name": "",
          "type": "string"
        }
      ],
      "stateMutability": "view",
      "type": "function"
    },
    {
      "inputs": [
        {
          "internalType": "string",
          "name": "_newName",
          "type": "string"
        }
      ],
      "name": "updateName",
      "outputs": [],
      "stateMutability": "nonpayable",
      "type": "function"
    },
    {
      "inputs": [
        {
          "internalType": "uint256",
          "name": "_newPrice",
          "type": "uint256"
        }
      ],
      "name": "updatePrice",
      "outputs": [],
      "stateMutability": "nonpayable",
      "type": "function"
    },
    {
      "inputs": [
        {
          "internalType": "uint256",
          "name": "_newTickets",
          "type": "uint256"
        }
      ],
      "name": "updateTickets",
      "outputs": [],
      "stateMutability": "nonpayable",
      "type": "function"
    },
    {
      "inputs": [
        {
          "internalType": "uint256",
          "name": "_play",
          "type": "uint256"
        }
      ],
      "name": "userPlay",
      "outputs": [],
      "stateMutability": "nonpayable",
      "type": "function"
    }
  ],
  "bytecode": "0x60e06040526000805460ff1916600117905534801561001d57600080fd5b50604051610ea3380380610ea383398101604081905261003c9161007b565b6001600160601b0319606093841b81166080529190921b1660a05260c0526100b6565b80516001600160a01b038116811461007657600080fd5b919050565b60008060006060848603121561008f578283fd5b6100988461005f565b92506100a66020850161005f565b9150604084015190509250925092565b60805160601c60a05160601c60c051610d7961012a60003960008181610319015281816103ef015281816104d0015261053e0152600081816103b601528181610460015281816105050152610ac10152600081816103400152818161041c01528181610499015261056b0152610d796000f3fe608060405234801561001057600080fd5b506004361061009e5760003560e01c80639d5b24c0116100665780639d5b24c014610135578063a3195c4714610160578063bc3c09c414610173578063d65ab5f2146100fa578063f8a8fd6d146101a657600080fd5b80630c3a5699146100a35780631aa3a008146100f257806377897d21146100fc57806384da92a71461010f5780638d6cc56d14610122575b600080fd5b6100d26100b1366004610b18565b60036020526000908152604090208054600182015460029092015490919083565b604080519384526020840192909252908201526060015b60405180910390f35b6100fa6101bb565b005b6100fa61010a366004610be9565b6103ab565b6100fa61011d366004610b3f565b610455565b6100fa610130366004610be9565b6104fa565b610148610143366004610be9565b6105a4565b6040516001600160a01b0390911681526020016100e9565b6100fa61016e366004610be9565b6105ce565b610196610181366004610b18565b60026020526000908152604090205460ff1681565b60405190151581526020016100e9565b6101ae610ab4565b6040516100e99190610cb5565b60005460ff1615156001146102175760405162461bcd60e51b815260206004820152601a60248201527f526567697374726174696f6e206e6f74206f70656e207965742100000000000060448201526064015b60405180910390fd5b3360009081526002602052604090205460ff16156102775760405162461bcd60e51b815260206004820152601c60248201527f596f75206861766520616c726561647920726567697374657265642100000000604482015260640161020e565b60408051606081018252600080825260208083018281524284860190815233808552600384528685208651815592516001808501919091559151600293840155815480830183557fb10e2d527612073b26eecdfd717e6a320cf44b4afac2b0732d9fcbe2b7fa0cf60180546001600160a01b031916821790559190925291849020805460ff19169091179055915163034f17d960e11b815260048101929092527f00000000000000000000000000000000000000000000000000000000000000006024830152907f0000000000000000000000000000000000000000000000000000000000000000906001600160a01b0382169063069e2fb2906044015b600060405180830381600087803b15801561038f57600080fd5b505af11580156103a3573d6000803e3d6000fd5b505050505050565b336001600160a01b037f000000000000000000000000000000000000000000000000000000000000000016146103e057600080fd5b604051639abea6c160e01b81527f00000000000000000000000000000000000000000000000000000000000000006004820152602481018290527f0000000000000000000000000000000000000000000000000000000000000000906001600160a01b03821690639abea6c190604401610375565b336001600160a01b037f0000000000000000000000000000000000000000000000000000000000000000161461048a57600080fd5b60405163064ab2b160e41b81527f0000000000000000000000000000000000000000000000000000000000000000906001600160a01b038216906364ab2b1090610375907f0000000000000000000000000000000000000000000000000000000000000000908690600401610cc8565b336001600160a01b037f0000000000000000000000000000000000000000000000000000000000000000161461052f57600080fd5b60405163090859eb60e11b81527f00000000000000000000000000000000000000000000000000000000000000006004820152602481018290527f0000000000000000000000000000000000000000000000000000000000000000906001600160a01b03821690631210b3d690604401610375565b600181815481106105b457600080fd5b6000918252602090912001546001600160a01b0316905081565b60005460ff16156105de57600080fd5b3360009081526002602052604090205460ff1615156001146105ff57600080fd5b336000908152600360205260409020600101546005101561061f57600080fd5b6000610629610b0b565b905080600281111561064b57634e487b7160e01b600052602160045260246000fd5b82600281111561066b57634e487b7160e01b600052602160045260246000fd5b600281111561068a57634e487b7160e01b600052602160045260246000fd5b14156106fe5760408051338152606060208201819052600490820152636472617760e01b60808201526001818301529051600080516020610d248339815191529181900360a00190a13360009081526003602052604081208054600192906106f3908490610ce9565b90915550610a5f9050565b600082600281111561072057634e487b7160e01b600052602160045260246000fd5b600281111561073f57634e487b7160e01b600052602160045260246000fd5b14801561076b5750600181600281111561076957634e487b7160e01b600052602160045260246000fd5b145b1561079d57600080516020610d24833981519152336000604051610790929190610c80565b60405180910390a1610a5f565b60008260028111156107bf57634e487b7160e01b600052602160045260246000fd5b60028111156107de57634e487b7160e01b600052602160045260246000fd5b14801561080a5750600281600281111561080857634e487b7160e01b600052602160045260246000fd5b145b1561085957600080516020610d2483398151915233600360405161082f929190610c4c565b60405180910390a133600090815260036020819052604082208054919290916106f3908490610ce9565b600182600281111561087b57634e487b7160e01b600052602160045260246000fd5b600281111561089a57634e487b7160e01b600052602160045260246000fd5b1480156108c6575060008160028111156108c457634e487b7160e01b600052602160045260246000fd5b145b156108eb57600080516020610d2483398151915233600360405161082f929190610c4c565b600182600281111561090d57634e487b7160e01b600052602160045260246000fd5b600281111561092c57634e487b7160e01b600052602160045260246000fd5b1480156109585750600281600281111561095657634e487b7160e01b600052602160045260246000fd5b145b1561097d57600080516020610d24833981519152336000604051610790929190610c80565b600282600281111561099f57634e487b7160e01b600052602160045260246000fd5b60028111156109be57634e487b7160e01b600052602160045260246000fd5b1480156109ea575060008160028111156109e857634e487b7160e01b600052602160045260246000fd5b145b15610a0f57600080516020610d24833981519152336000604051610790929190610c80565b600080516020610d24833981519152336003604051610a2f929190610c4c565b60405180910390a13360009081526003602081905260408220805491929091610a59908490610ce9565b90915550505b3360009081526003602052604081206001908101805491929091610a84908490610ce9565b90915550503360009081526003602052604081206002018054429290610aab908490610ce9565b90915550505050565b6060336001600160a01b037f00000000000000000000000000000000000000000000000000000000000000001614610aeb57600080fd5b5060408051808201909152600581526468656c6c6f60d81b602082015290565b60008080805b9392505050565b600060208284031215610b29578081fd5b81356001600160a01b0381168114610b11578182fd5b600060208284031215610b50578081fd5b813567ffffffffffffffff80821115610b67578283fd5b818401915084601f830112610b7a578283fd5b813581811115610b8c57610b8c610d0d565b604051601f8201601f19908116603f01168101908382118183101715610bb457610bb4610d0d565b81604052828152876020848701011115610bcc578586fd5b826020860160208301379182016020019490945295945050505050565b600060208284031215610bfa578081fd5b5035919050565b60008151808452815b81811015610c2657602081850181015186830182015201610c0a565b81811115610c375782602083870101525b50601f01601f19169290920160200192915050565b6001600160a01b03929092168252606060208301819052600390830152623bb4b760e91b6080830152604082015260a00190565b6001600160a01b03929092168252606060208301819052600490830152636c6f737360e01b6080830152604082015260a00190565b602081526000610b116020830184610c01565b828152604060208201526000610ce16040830184610c01565b949350505050565b60008219821115610d0857634e487b7160e01b81526011600452602481fd5b500190565b634e487b7160e01b600052604160045260246000fdfe85fc1bbb39de8edc11717b838a522d914a97c6952cb06de101d20931f336f187a26469706673582212207935a0faf57a0617e26687a4b04c0efc6d108f28ad44c04aba911d9753c953cd64736f6c63430008040033",
  "linkReferences": {},
  "deployedLinkReferences": {}
}