{
  "_format": "hh-sol-artifact-1",
  "contractName": "eventGame",
  "sourceName": "contracts/eventGame.sol",
  "abi": [
    {
      "inputs": [
        {
          "internalType": "string",
          "name": "_eventName",
          "type": "string"
        },
        {
          "internalType": "address",
          "name": "_logAddress",
          "type": "address"
        },
        {
          "internalType": "uint256",
          "name": "_numberOfTickets",
          "type": "uint256"
        },
        {
          "internalType": "address",
          "name": "_owner",
          "type": "address"
        }
      ],
      "stateMutability": "nonpayable",
      "type": "constructor"
    },
    {
      "anonymous": false,
      "inputs": [
        {
          "indexed": true,
          "internalType": "address",
          "name": "previousOwner",
          "type": "address"
        },
        {
          "indexed": true,
          "internalType": "address",
          "name": "newOwner",
          "type": "address"
        }
      ],
      "name": "OwnershipTransferred",
      "type": "event"
    },
    {
      "anonymous": false,
      "inputs": [
        {
          "indexed": false,
          "internalType": "address",
          "name": "player",
          "type": "address"
        },
        {
          "indexed": false,
          "internalType": "string",
          "name": "result",
          "type": "string"
        },
        {
          "indexed": false,
          "internalType": "uint256",
          "name": "points",
          "type": "uint256"
        }
      ],
      "name": "result",
      "type": "event"
    },
    {
      "inputs": [],
      "name": "owner",
      "outputs": [
        {
          "internalType": "address",
          "name": "",
          "type": "address"
        }
      ],
      "stateMutability": "view",
      "type": "function"
    },
    {
      "inputs": [],
      "name": "register",
      "outputs": [],
      "stateMutability": "nonpayable",
      "type": "function"
    },
    {
      "inputs": [],
      "name": "renounceOwnership",
      "outputs": [],
      "stateMutability": "nonpayable",
      "type": "function"
    },
    {
      "inputs": [
        {
          "internalType": "address",
          "name": "",
          "type": "address"
        }
      ],
      "name": "s_isRegistered",
      "outputs": [
        {
          "internalType": "bool",
          "name": "",
          "type": "bool"
        }
      ],
      "stateMutability": "view",
      "type": "function"
    },
    {
      "inputs": [
        {
          "internalType": "uint256",
          "name": "",
          "type": "uint256"
        }
      ],
      "name": "s_registeredAddresses",
      "outputs": [
        {
          "internalType": "address",
          "name": "",
          "type": "address"
        }
      ],
      "stateMutability": "view",
      "type": "function"
    },
    {
      "inputs": [
        {
          "internalType": "address",
          "name": "newOwner",
          "type": "address"
        }
      ],
      "name": "transferOwnership",
      "outputs": [],
      "stateMutability": "nonpayable",
      "type": "function"
    },
    {
      "inputs": [
        {
          "internalType": "string",
          "name": "_newName",
          "type": "string"
        },
        {
          "internalType": "uint32",
          "name": "_newTickets",
          "type": "uint32"
        },
        {
          "internalType": "uint32",
          "name": "_newPrice",
          "type": "uint32"
        }
      ],
      "name": "updateEvent",
      "outputs": [],
      "stateMutability": "nonpayable",
      "type": "function"
    },
    {
      "inputs": [
        {
          "internalType": "uint256",
          "name": "_play",
          "type": "uint256"
        }
      ],
      "name": "userPlay",
      "outputs": [],
      "stateMutability": "nonpayable",
      "type": "function"
    }
  ],
  "bytecode": "0x60c06040526002805460ff191660011790553480156200001e57600080fd5b5060405162000f8538038062000f8583398101604081905262000041916200019c565b6200004c3362000089565b835162000061906003906020870190620000d9565b506001600160601b0319606093841b811660805260019290925590911b1660a05250620002f6565b600080546001600160a01b038381166001600160a01b0319831681178455604051919092169283917f8be0079c531659141344cd1fd0a4f28419497f9722a3daafe3b4186f6b6457e09190a35050565b828054620000e790620002a3565b90600052602060002090601f0160209004810192826200010b576000855562000156565b82601f106200012657805160ff191683800117855562000156565b8280016001018555821562000156579182015b828111156200015657825182559160200191906001019062000139565b506200016492915062000168565b5090565b5b8082111562000164576000815560010162000169565b80516001600160a01b03811681146200019757600080fd5b919050565b60008060008060808587031215620001b2578384fd5b84516001600160401b0380821115620001c9578586fd5b818701915087601f830112620001dd578586fd5b815181811115620001f257620001f2620002e0565b604051601f8201601f19908116603f011681019083821181831017156200021d576200021d620002e0565b81604052828152602093508a8484870101111562000239578889fd5b8891505b828210156200025c57848201840151818301850152908301906200023d565b828211156200026d57888484830101525b97506200027f9150508782016200017f565b945050506040850151915062000298606086016200017f565b905092959194509250565b600181811c90821680620002b857607f821691505b60208210811415620002da57634e487b7160e01b600052602260045260246000fd5b50919050565b634e487b7160e01b600052604160045260246000fd5b60805160601c60a05160601c610c666200031f6000396000505060006102d20152610c666000f3fe608060405234801561001057600080fd5b50600436106100885760003560e01c80639d5b24c01161005b5780639d5b24c0146100dc578063a3195c47146100ef578063bc3c09c414610102578063f2fde38b1461013557600080fd5b80631aa3a0081461008d5780633b024e7514610097578063715018a6146100aa5780638da5cb5b146100b2575b600080fd5b610095610148565b005b6100956100a53660046109c5565b610299565b61009561035b565b6000546001600160a01b03165b6040516001600160a01b0390911681526020015b60405180910390f35b6100bf6100ea366004610a92565b610391565b6100956100fd366004610a92565b6103bb565b61012561011036600461099e565b60056020526000908152604090205460ff1681565b60405190151581526020016100d3565b61009561014336600461099e565b61088d565b60025460ff1615156001146101a45760405162461bcd60e51b815260206004820152601a60248201527f526567697374726174696f6e206e6f74206f70656e207965742100000000000060448201526064015b60405180910390fd5b3360009081526005602052604090205460ff16156102045760405162461bcd60e51b815260206004820152601c60248201527f596f75206861766520616c726561647920726567697374657265642100000000604482015260640161019b565b60408051606081018252600080825260208083018281524284860190815233808552600684528685209551865591516001808701919091559051600290950194909455600480548086019091557f8a35acfbc15ff81a39ae7d344fd709f28e8600b4aa8c65c6b64bfe7fe36bd19b0180546001600160a01b03191690911790556005905291909120805460ff19169091179055565b6000546001600160a01b031633146102c35760405162461bcd60e51b815260040161019b90610ba1565b60405163fad8fe0d60e01b81527f0000000000000000000000000000000000000000000000000000000000000000906001600160a01b0382169063fad8fe0d906103199087903090339089908990600401610b13565b600060405180830381600087803b15801561033357600080fd5b505af1158015610347573d6000803e3d6000fd5b50505063ffffffff90931660015550505050565b6000546001600160a01b031633146103855760405162461bcd60e51b815260040161019b90610ba1565b61038f6000610928565b565b600481815481106103a157600080fd5b6000918252602090912001546001600160a01b0316905081565b3360009081526005602052604090205460ff1615156001146103dc57600080fd5b33600090815260066020526040902060010154600510156103fc57600080fd5b6000610406610978565b905080600281111561042857634e487b7160e01b600052602160045260246000fd5b82600281111561044857634e487b7160e01b600052602160045260246000fd5b600281111561046757634e487b7160e01b600052602160045260246000fd5b14156104db5760408051338152606060208201819052600490820152636472617760e01b60808201526001818301529051600080516020610c118339815191529181900360a00190a13360009081526006602052604081208054600192906104d0908490610bd6565b909155506108389050565b60008260028111156104fd57634e487b7160e01b600052602160045260246000fd5b600281111561051c57634e487b7160e01b600052602160045260246000fd5b1480156105485750600181600281111561054657634e487b7160e01b600052602160045260246000fd5b145b1561057a57600080516020610c1183398151915233600060405161056d929190610ade565b60405180910390a1610838565b600082600281111561059c57634e487b7160e01b600052602160045260246000fd5b60028111156105bb57634e487b7160e01b600052602160045260246000fd5b1480156105e7575060028160028111156105e557634e487b7160e01b600052602160045260246000fd5b145b1561063457600080516020610c1183398151915233600360405161060c929190610aaa565b60405180910390a13360009081526006602052604081208054600392906104d0908490610bd6565b600182600281111561065657634e487b7160e01b600052602160045260246000fd5b600281111561067557634e487b7160e01b600052602160045260246000fd5b1480156106a15750600081600281111561069f57634e487b7160e01b600052602160045260246000fd5b145b156106c657600080516020610c1183398151915233600360405161060c929190610aaa565b60018260028111156106e857634e487b7160e01b600052602160045260246000fd5b600281111561070757634e487b7160e01b600052602160045260246000fd5b1480156107335750600281600281111561073157634e487b7160e01b600052602160045260246000fd5b145b1561075857600080516020610c1183398151915233600060405161056d929190610ade565b600282600281111561077a57634e487b7160e01b600052602160045260246000fd5b600281111561079957634e487b7160e01b600052602160045260246000fd5b1480156107c5575060008160028111156107c357634e487b7160e01b600052602160045260246000fd5b145b156107ea57600080516020610c1183398151915233600060405161056d929190610ade565b600080516020610c1183398151915233600360405161080a929190610aaa565b60405180910390a1336000908152600660205260408120805460039290610832908490610bd6565b90915550505b336000908152600660205260408120600190810180549192909161085d908490610bd6565b90915550503360009081526006602052604081206002018054429290610884908490610bd6565b90915550505050565b6000546001600160a01b031633146108b75760405162461bcd60e51b815260040161019b90610ba1565b6001600160a01b03811661091c5760405162461bcd60e51b815260206004820152602660248201527f4f776e61626c653a206e6577206f776e657220697320746865207a65726f206160448201526564647265737360d01b606482015260840161019b565b61092581610928565b50565b600080546001600160a01b038381166001600160a01b0319831681178455604051919092169283917f8be0079c531659141344cd1fd0a4f28419497f9722a3daafe3b4186f6b6457e09190a35050565b60008080805b9392505050565b803563ffffffff8116811461099957600080fd5b919050565b6000602082840312156109af578081fd5b81356001600160a01b038116811461097e578182fd5b6000806000606084860312156109d9578182fd5b833567ffffffffffffffff808211156109f0578384fd5b818601915086601f830112610a03578384fd5b813581811115610a1557610a15610bfa565b604051601f8201601f19908116603f01168101908382118183101715610a3d57610a3d610bfa565b81604052828152896020848701011115610a55578687fd5b8260208601602083013786602084830101528097505050505050610a7b60208501610985565b9150610a8960408501610985565b90509250925092565b600060208284031215610aa3578081fd5b5035919050565b6001600160a01b03929092168252606060208301819052600390830152623bb4b760e91b6080830152604082015260a00190565b6001600160a01b03929092168252606060208301819052600490830152636c6f737360e01b6080830152604082015260a00190565b60a08152600086518060a0840152815b81811015610b40576020818a0181015160c0868401015201610b23565b81811115610b51578260c083860101525b50601f01601f1916820160c0019050610b7560208301876001600160a01b03169052565b6001600160a01b0394909416604082015263ffffffff9283166060820152911660809091015292915050565b6020808252818101527f4f776e61626c653a2063616c6c6572206973206e6f7420746865206f776e6572604082015260600190565b60008219821115610bf557634e487b7160e01b81526011600452602481fd5b500190565b634e487b7160e01b600052604160045260246000fdfe85fc1bbb39de8edc11717b838a522d914a97c6952cb06de101d20931f336f187a26469706673582212205b13361efd51a8a79cd31abb56dc3b61438e0d110022ee4bf721faaa2cecccc964736f6c63430008040033",
  "linkReferences": {},
  "deployedLinkReferences": {}
}