{
  "_format": "hh-sol-artifact-1",
  "contractName": "eventGame",
  "sourceName": "contracts/eventGame.sol",
  "abi": [
    {
      "inputs": [
        {
          "internalType": "address",
          "name": "_logAddress",
          "type": "address"
        },
        {
          "internalType": "uint256",
          "name": "_numberOfTickets",
          "type": "uint256"
        },
        {
          "internalType": "address",
          "name": "_owner",
          "type": "address"
        }
      ],
      "stateMutability": "nonpayable",
      "type": "constructor"
    },
    {
      "anonymous": false,
      "inputs": [
        {
          "indexed": true,
          "internalType": "address",
          "name": "previousOwner",
          "type": "address"
        },
        {
          "indexed": true,
          "internalType": "address",
          "name": "newOwner",
          "type": "address"
        }
      ],
      "name": "OwnershipTransferred",
      "type": "event"
    },
    {
      "inputs": [],
      "name": "_getAlgoPlay",
      "outputs": [
        {
          "internalType": "uint32",
          "name": "",
          "type": "uint32"
        }
      ],
      "stateMutability": "nonpayable",
      "type": "function"
    },
    {
      "inputs": [],
      "name": "owner",
      "outputs": [
        {
          "internalType": "address",
          "name": "",
          "type": "address"
        }
      ],
      "stateMutability": "view",
      "type": "function"
    },
    {
      "inputs": [],
      "name": "register",
      "outputs": [],
      "stateMutability": "nonpayable",
      "type": "function"
    },
    {
      "inputs": [],
      "name": "renounceOwnership",
      "outputs": [],
      "stateMutability": "nonpayable",
      "type": "function"
    },
    {
      "inputs": [
        {
          "internalType": "address",
          "name": "",
          "type": "address"
        }
      ],
      "name": "s_isRegistered",
      "outputs": [
        {
          "internalType": "bool",
          "name": "",
          "type": "bool"
        }
      ],
      "stateMutability": "view",
      "type": "function"
    },
    {
      "inputs": [],
      "name": "s_logAddress",
      "outputs": [
        {
          "internalType": "address",
          "name": "",
          "type": "address"
        }
      ],
      "stateMutability": "view",
      "type": "function"
    },
    {
      "inputs": [],
      "name": "s_numberOfTickets",
      "outputs": [
        {
          "internalType": "uint256",
          "name": "",
          "type": "uint256"
        }
      ],
      "stateMutability": "view",
      "type": "function"
    },
    {
      "inputs": [],
      "name": "s_owner",
      "outputs": [
        {
          "internalType": "address",
          "name": "",
          "type": "address"
        }
      ],
      "stateMutability": "view",
      "type": "function"
    },
    {
      "inputs": [
        {
          "internalType": "uint256",
          "name": "",
          "type": "uint256"
        }
      ],
      "name": "s_registeredAddresses",
      "outputs": [
        {
          "internalType": "address",
          "name": "",
          "type": "address"
        }
      ],
      "stateMutability": "view",
      "type": "function"
    },
    {
      "inputs": [],
      "name": "s_registrationOpen",
      "outputs": [
        {
          "internalType": "bool",
          "name": "",
          "type": "bool"
        }
      ],
      "stateMutability": "view",
      "type": "function"
    },
    {
      "inputs": [
        {
          "internalType": "uint256",
          "name": "",
          "type": "uint256"
        }
      ],
      "name": "s_winners",
      "outputs": [
        {
          "internalType": "address",
          "name": "",
          "type": "address"
        }
      ],
      "stateMutability": "view",
      "type": "function"
    },
    {
      "inputs": [],
      "name": "startGame",
      "outputs": [],
      "stateMutability": "nonpayable",
      "type": "function"
    },
    {
      "inputs": [
        {
          "internalType": "address",
          "name": "newOwner",
          "type": "address"
        }
      ],
      "name": "transferOwnership",
      "outputs": [],
      "stateMutability": "nonpayable",
      "type": "function"
    },
    {
      "inputs": [
        {
          "internalType": "string",
          "name": "_newName",
          "type": "string"
        },
        {
          "internalType": "uint32",
          "name": "_newTickets",
          "type": "uint32"
        },
        {
          "internalType": "uint32",
          "name": "_newPrice",
          "type": "uint32"
        }
      ],
      "name": "updateEvent",
      "outputs": [],
      "stateMutability": "nonpayable",
      "type": "function"
    }
  ],
  "bytecode": "0x60c06040526002805460ff1916600117905534801561001d57600080fd5b50604051610a75380380610a7583398101604081905261003c916100d6565b6100453361006a565b6001600160601b0319606093841b811660805260019290925590911b1660a052610111565b600080546001600160a01b038381166001600160a01b0319831681178455604051919092169283917f8be0079c531659141344cd1fd0a4f28419497f9722a3daafe3b4186f6b6457e09190a35050565b80516001600160a01b03811681146100d157600080fd5b919050565b6000806000606084860312156100ea578283fd5b6100f3846100ba565b925060208401519150610108604085016100ba565b90509250925092565b60805160601c60a05160601c610932610143600039600061020201526000818161019d015261038a01526109326000f3fe608060405234801561001057600080fd5b50600436106100ea5760003560e01c80638da5cb5b1161008c578063bc3c09c411610066578063bc3c09c4146101d2578063d65ab5f2146101f5578063e3978240146101fd578063f2fde38b1461022457600080fd5b80638da5cb5b1461018757806398cc424a146101985780639d5b24c0146101bf57600080fd5b8063715018a6116100c8578063715018a614610128578063756cd579146101305780637f19ce7d1461015b5780638c20a3651461017857600080fd5b80631aa3a008146100ef57806335317ad4146100f95780633b024e7514610115575b600080fd5b6100f7610237565b005b61010260015481565b6040519081526020015b60405180910390f35b6100f76101233660046106dd565b610351565b6100f7610413565b61014361013e3660046107aa565b610449565b6040516001600160a01b03909116815260200161010c565b6002546101689060ff1681565b604051901515815260200161010c565b6040516000815260200161010c565b6000546001600160a01b0316610143565b6101437f000000000000000000000000000000000000000000000000000000000000000081565b6101436101cd3660046107aa565b610473565b6101686101e03660046106af565b60046020526000908152604090205460ff1681565b6100f7610483565b6101437f000000000000000000000000000000000000000000000000000000000000000081565b6100f76102323660046106af565b6104db565b60025460ff1615156001146102935760405162461bcd60e51b815260206004820152601a60248201527f526567697374726174696f6e206e6f74206f70656e207965742100000000000060448201526064015b60405180910390fd5b3360009081526004602052604090205460ff16156102f35760405162461bcd60e51b815260206004820152601c60248201527f596f75206861766520616c726561647920726567697374657265642100000000604482015260640161028a565b336000818152600460205260408120805460ff191660019081179091556003805491820181559091527fc2575a0e9e593c00f959f8c92f12db2869c3395a3b0502d05e2516446f71f85b0180546001600160a01b0319169091179055565b6000546001600160a01b0316331461037b5760405162461bcd60e51b815260040161028a90610850565b604051632cd9e38960e01b81527f0000000000000000000000000000000000000000000000000000000000000000906001600160a01b03821690632cd9e389906103d190879030903390899089906004016107c2565b600060405180830381600087803b1580156103eb57600080fd5b505af11580156103ff573d6000803e3d6000fd5b50505063ffffffff90931660015550505050565b6000546001600160a01b0316331461043d5760405162461bcd60e51b815260040161028a90610850565b610447600061056f565b565b6005818154811061045957600080fd5b6000918252602090912001546001600160a01b0316905081565b6003818154811061045957600080fd5b6000546001600160a01b031633146104ad5760405162461bcd60e51b815260040161028a90610850565b6104b56105bf565b600154600354116104d357600380546104d091600591610631565b50565b6104476105db565b6000546001600160a01b031633146105055760405162461bcd60e51b815260040161028a90610850565b6001600160a01b03811661056a5760405162461bcd60e51b815260206004820152602660248201527f4f776e61626c653a206e6577206f776e657220697320746865207a65726f206160448201526564647265737360d01b606482015260840161028a565b6104d0815b600080546001600160a01b038381166001600160a01b0319831681178455604051919092169283917f8be0079c531659141344cd1fd0a4f28419497f9722a3daafe3b4186f6b6457e09190a35050565b60025460ff16151560011415610447576002805460ff19169055565b6001546003546000916105ed916108bc565b600154600354919250600091610604908490610899565b61060e9190610885565b90506106198161061d565b5050565b60008061062b600184610899565b50505050565b8280548282559060005260206000209081019282156106715760005260206000209182015b82811115610671578254825591600101919060010190610656565b5061067d929150610681565b5090565b5b8082111561067d5760008155600101610682565b803563ffffffff811681146106aa57600080fd5b919050565b6000602082840312156106c0578081fd5b81356001600160a01b03811681146106d6578182fd5b9392505050565b6000806000606084860312156106f1578182fd5b833567ffffffffffffffff80821115610708578384fd5b818601915086601f83011261071b578384fd5b81358181111561072d5761072d6108e6565b604051601f8201601f19908116603f01168101908382118183101715610755576107556108e6565b8160405282815289602084870101111561076d578687fd5b826020860160208301378660208483010152809750505050505061079360208501610696565b91506107a160408501610696565b90509250925092565b6000602082840312156107bb578081fd5b5035919050565b60a08152600086518060a0840152815b818110156107ef576020818a0181015160c08684010152016107d2565b81811115610800578260c083860101525b50601f01601f1916820160c001905061082460208301876001600160a01b03169052565b6001600160a01b0394909416604082015263ffffffff9283166060820152911660809091015292915050565b6020808252818101527f4f776e61626c653a2063616c6c6572206973206e6f7420746865206f776e6572604082015260600190565b600082610894576108946108d0565b500490565b6000828210156108b757634e487b7160e01b81526011600452602481fd5b500390565b6000826108cb576108cb6108d0565b500690565b634e487b7160e01b600052601260045260246000fd5b634e487b7160e01b600052604160045260246000fdfea2646970667358221220c71db02403b4cfa8978b24971907323010ca89874fd6cbdf5707732f9254f67064736f6c63430008040033",
  "linkReferences": {},
  "deployedLinkReferences": {}
}