{
  "_format": "hh-sol-artifact-1",
  "contractName": "EventGame",
  "sourceName": "contracts/eventGame.sol",
  "abi": [
    {
      "inputs": [
        {
          "internalType": "address",
          "name": "_logAddress",
          "type": "address"
        },
        {
          "internalType": "address",
          "name": "_vrfAddress",
          "type": "address"
        },
        {
          "internalType": "address",
          "name": "_owner",
          "type": "address"
        },
        {
          "internalType": "uint256",
          "name": "_eventId",
          "type": "uint256"
        }
      ],
      "stateMutability": "nonpayable",
      "type": "constructor"
    },
    {
      "anonymous": false,
      "inputs": [
        {
          "indexed": true,
          "internalType": "address",
          "name": "gameAddress",
          "type": "address"
        },
        {
          "indexed": true,
          "internalType": "address",
          "name": "player",
          "type": "address"
        },
        {
          "indexed": false,
          "internalType": "string",
          "name": "result",
          "type": "string"
        },
        {
          "indexed": false,
          "internalType": "uint256",
          "name": "points",
          "type": "uint256"
        }
      ],
      "name": "result",
      "type": "event"
    },
    {
      "inputs": [],
      "name": "_eventId",
      "outputs": [
        {
          "internalType": "uint256",
          "name": "",
          "type": "uint256"
        }
      ],
      "stateMutability": "nonpayable",
      "type": "function"
    },
    {
      "inputs": [],
      "name": "endGame",
      "outputs": [],
      "stateMutability": "nonpayable",
      "type": "function"
    },
    {
      "inputs": [],
      "name": "getScoreboard",
      "outputs": [
        {
          "components": [
            {
              "internalType": "uint256",
              "name": "points",
              "type": "uint256"
            },
            {
              "internalType": "uint256",
              "name": "numberOfPlays",
              "type": "uint256"
            },
            {
              "internalType": "uint256",
              "name": "timeElapsed",
              "type": "uint256"
            }
          ],
          "internalType": "struct EventGame.UserScore",
          "name": "",
          "type": "tuple"
        }
      ],
      "stateMutability": "view",
      "type": "function"
    },
    {
      "inputs": [
        {
          "internalType": "address",
          "name": "_userAddress",
          "type": "address"
        }
      ],
      "name": "isWinner",
      "outputs": [
        {
          "internalType": "bool",
          "name": "",
          "type": "bool"
        }
      ],
      "stateMutability": "view",
      "type": "function"
    },
    {
      "inputs": [],
      "name": "register",
      "outputs": [],
      "stateMutability": "nonpayable",
      "type": "function"
    },
    {
      "inputs": [],
      "name": "s_eventId",
      "outputs": [
        {
          "internalType": "uint256",
          "name": "",
          "type": "uint256"
        }
      ],
      "stateMutability": "view",
      "type": "function"
    },
    {
      "inputs": [
        {
          "internalType": "address",
          "name": "",
          "type": "address"
        }
      ],
      "name": "s_isRegistered",
      "outputs": [
        {
          "internalType": "bool",
          "name": "",
          "type": "bool"
        }
      ],
      "stateMutability": "view",
      "type": "function"
    },
    {
      "inputs": [
        {
          "internalType": "uint256",
          "name": "",
          "type": "uint256"
        }
      ],
      "name": "s_registeredAddresses",
      "outputs": [
        {
          "internalType": "address",
          "name": "",
          "type": "address"
        }
      ],
      "stateMutability": "view",
      "type": "function"
    },
    {
      "inputs": [
        {
          "internalType": "address",
          "name": "",
          "type": "address"
        }
      ],
      "name": "scoreboard",
      "outputs": [
        {
          "internalType": "uint256",
          "name": "points",
          "type": "uint256"
        },
        {
          "internalType": "uint256",
          "name": "numberOfPlays",
          "type": "uint256"
        },
        {
          "internalType": "uint256",
          "name": "timeElapsed",
          "type": "uint256"
        }
      ],
      "stateMutability": "view",
      "type": "function"
    },
    {
      "inputs": [],
      "name": "startGame",
      "outputs": [],
      "stateMutability": "nonpayable",
      "type": "function"
    },
    {
      "inputs": [],
      "name": "status",
      "outputs": [
        {
          "internalType": "enum EventGame.GameStatus",
          "name": "",
          "type": "uint8"
        }
      ],
      "stateMutability": "view",
      "type": "function"
    },
    {
      "inputs": [
        {
          "internalType": "string",
          "name": "_newName",
          "type": "string"
        }
      ],
      "name": "updateName",
      "outputs": [],
      "stateMutability": "nonpayable",
      "type": "function"
    },
    {
      "inputs": [
        {
          "internalType": "uint256",
          "name": "_newPrice",
          "type": "uint256"
        }
      ],
      "name": "updatePrice",
      "outputs": [],
      "stateMutability": "nonpayable",
      "type": "function"
    },
    {
      "inputs": [
        {
          "internalType": "uint256",
          "name": "_newTickets",
          "type": "uint256"
        }
      ],
      "name": "updateTickets",
      "outputs": [],
      "stateMutability": "nonpayable",
      "type": "function"
    },
    {
      "inputs": [
        {
          "internalType": "uint256",
          "name": "_play",
          "type": "uint256"
        }
      ],
      "name": "userPlay",
      "outputs": [],
      "stateMutability": "nonpayable",
      "type": "function"
    }
  ],
  "bytecode": "0x6101006040523480156200001257600080fd5b506040516200204d3803806200204d83398101604081905262000035916200007c565b6001600160601b0319606094851b811660805292841b831660a052921b1660c05260e052620000cd565b80516001600160a01b03811681146200007757600080fd5b919050565b6000806000806080858703121562000092578384fd5b6200009d856200005f565b9350620000ad602086016200005f565b9250620000bd604086016200005f565b6060959095015193969295505050565b60805160601c60a05160601c60c05160601c60e051611e9c620001b1600039600081816101990152818161026e015281816103f20152818161059e015281816106af0152818161074d0152818161081f0152818161103d01528181611115015281816111e4015281816112810152818161135501526114bf0152600081816105350152818161060f01526106e401526000818161090e01528181610fcb01526113fd015260008181610419015281816105cb015281816106780152818161077a0152818161085501528181611063015281816112a701526114e50152611e9c6000f3fe608060405234801561001057600080fd5b50600436106100f55760003560e01c806384da92a711610097578063a3195c4711610066578063a3195c4714610256578063a48e7eec14610269578063bc3c09c414610290578063d65ab5f2146102b357600080fd5b806384da92a7146101e25780638d6cc56d146101f55780639d5b24c0146102085780639d9ca28d1461023357600080fd5b806343610884116100d3578063436108841461016d5780634f550171146101975780636cbc2ded146101c757806377897d21146101cf57600080fd5b80630c3a5699146100fa5780631aa3a00814610149578063200d2ed214610153575b600080fd5b610129610108366004611b84565b60036020526000908152604090208054600182015460029092015490919083565b604080519384526020840192909252908201526060015b60405180910390f35b6101516102bb565b005b6000546101609060ff1681565b6040516101409190611ca5565b610175610484565b6040805182518152602080840151908201529181015190820152606001610140565b7f00000000000000000000000000000000000000000000000000000000000000005b604051908152602001610140565b6101516104e2565b6101516101dd366004611c75565b61052a565b6101516101f0366004611bcb565b610604565b610151610203366004611c75565b6106d9565b61021b610216366004611c75565b6107b3565b6040516001600160a01b039091168152602001610140565b610246610241366004611b84565b6107dd565b6040519015158152602001610140565b610151610264366004611c75565b6108d9565b6101b97f000000000000000000000000000000000000000000000000000000000000000081565b61024661029e366004611b84565b60026020526000908152604090205460ff1681565b610151610f7c565b6000805460ff1660028111156102e157634e487b7160e01b600052602160045260246000fd5b146102eb57600080fd5b3360009081526002602052604090205460ff16156103505760405162461bcd60e51b815260206004820152601c60248201527f596f75206861766520616c72656164792072656769737465726564210000000060448201526064015b60405180910390fd5b60408051606081018252600080825260208083018281524284860190815233808552600384528685208651815592516001808501919091559151600293840155815480830183557fb10e2d527612073b26eecdfd717e6a320cf44b4afac2b0732d9fcbe2b7fa0cf60180546001600160a01b031916821790559190925291849020805460ff19169091179055915163034f17d960e11b815260048101929092527f00000000000000000000000000000000000000000000000000000000000000006024830152907f0000000000000000000000000000000000000000000000000000000000000000906001600160a01b0382169063069e2fb2906044015b600060405180830381600087803b15801561046857600080fd5b505af115801561047c573d6000803e3d6000fd5b505050505050565b6104a860405180606001604052806000815260200160008152602001600081525090565b5033600090815260036020908152604091829020825160608101845281548152600182015492810192909252600201549181019190915290565b600160005460ff16600281111561050957634e487b7160e01b600052602160045260246000fd5b1461051357600080fd5b6000805460ff19166002179055610528611272565b565b336001600160a01b037f0000000000000000000000000000000000000000000000000000000000000000161461055f57600080fd5b6000805460ff16600281111561058557634e487b7160e01b600052602160045260246000fd5b1461058f57600080fd5b604051639abea6c160e01b81527f00000000000000000000000000000000000000000000000000000000000000006004820152602481018290527f0000000000000000000000000000000000000000000000000000000000000000906001600160a01b03821690639abea6c19060440161044e565b336001600160a01b037f0000000000000000000000000000000000000000000000000000000000000000161461063957600080fd5b6000805460ff16600281111561065f57634e487b7160e01b600052602160045260246000fd5b1461066957600080fd5b60405163064ab2b160e41b81527f0000000000000000000000000000000000000000000000000000000000000000906001600160a01b038216906364ab2b109061044e907f0000000000000000000000000000000000000000000000000000000000000000908690600401611d18565b336001600160a01b037f0000000000000000000000000000000000000000000000000000000000000000161461070e57600080fd5b6000805460ff16600281111561073457634e487b7160e01b600052602160045260246000fd5b1461073e57600080fd5b60405163090859eb60e11b81527f00000000000000000000000000000000000000000000000000000000000000006004820152602481018290527f0000000000000000000000000000000000000000000000000000000000000000906001600160a01b03821690631210b3d69060440161044e565b600181815481106107c357600080fd5b6000918252602090912001546001600160a01b0316905081565b6000600260005460ff16600281111561080657634e487b7160e01b600052602160045260246000fd5b1461081057600080fd5b604051637dfb132f60e11b81527f000000000000000000000000000000000000000000000000000000000000000060048201526001600160a01b0383811660248301527f0000000000000000000000000000000000000000000000000000000000000000919082169063fbf6265e9060440160206040518083038186803b15801561089a57600080fd5b505afa1580156108ae573d6000803e3d6000fd5b505050506040513d601f19601f820116820180604052508101906108d29190611bab565b9392505050565b600160005460ff16600281111561090057634e487b7160e01b600052602160045260246000fd5b1461090a57600080fd5b60007f00000000000000000000000000000000000000000000000000000000000000009050806001600160a01b0316631e209d186040518163ffffffff1660e01b815260040160206040518083038186803b15801561096857600080fd5b505afa15801561097c573d6000803e3d6000fd5b505050506040513d601f19601f820116820180604052508101906109a09190611bab565b610a015760405162461bcd60e51b815260206004820152602c60248201527f43616c63756c6174696e6720616c676f726974686d696320706c61792c20706c60448201526b32b0b9b2903bb0b4ba17171760a11b6064820152608401610347565b3360009081526003602090815260408083206001908101546002909352922054909160ff909116151514610a775760405162461bcd60e51b815260206004820152601760248201527f596f7520617265206e6f742072656769737465726564210000000000000000006044820152606401610347565b6005811115610ad65760405162461bcd60e51b815260206004820152602560248201527f596f75206861766520616c7265616479206d61646520616c6c20796f757220706044820152646c6179732160d81b6064820152608401610347565b6000610ae1826113e4565b9050806002811115610b0357634e487b7160e01b600052602160045260246000fd5b846002811115610b2357634e487b7160e01b600052602160045260246000fd5b6002811115610b4257634e487b7160e01b600052602160045260246000fd5b1415610bb25760408051818152600481830152636472617760e01b606082015260016020820152905133913091600080516020611e478339815191529181900360800190a3336000908152600360205260408120805460019290610ba7908490611d73565b90915550610f259050565b6000846002811115610bd457634e487b7160e01b600052602160045260246000fd5b6002811115610bf357634e487b7160e01b600052602160045260246000fd5b148015610c1f57506001816002811115610c1d57634e487b7160e01b600052602160045260246000fd5b145b15610c545760405133903090600080516020611e4783398151915290610c4790600090611cf2565b60405180910390a3610f25565b6000846002811115610c7657634e487b7160e01b600052602160045260246000fd5b6002811115610c9557634e487b7160e01b600052602160045260246000fd5b148015610cc157506002816002811115610cbf57634e487b7160e01b600052602160045260246000fd5b145b15610d135760405133903090600080516020611e4783398151915290610ce990600390611ccd565b60405180910390a33360009081526003602081905260408220805491929091610ba7908490611d73565b6001846002811115610d3557634e487b7160e01b600052602160045260246000fd5b6002811115610d5457634e487b7160e01b600052602160045260246000fd5b148015610d8057506000816002811115610d7e57634e487b7160e01b600052602160045260246000fd5b145b15610da85760405133903090600080516020611e4783398151915290610ce990600390611ccd565b6001846002811115610dca57634e487b7160e01b600052602160045260246000fd5b6002811115610de957634e487b7160e01b600052602160045260246000fd5b148015610e1557506002816002811115610e1357634e487b7160e01b600052602160045260246000fd5b145b15610e3d5760405133903090600080516020611e4783398151915290610c4790600090611cf2565b6002846002811115610e5f57634e487b7160e01b600052602160045260246000fd5b6002811115610e7e57634e487b7160e01b600052602160045260246000fd5b148015610eaa57506000816002811115610ea857634e487b7160e01b600052602160045260246000fd5b145b15610ed25760405133903090600080516020611e4783398151915290610c4790600090611cf2565b60405133903090600080516020611e4783398151915290610ef590600390611ccd565b60405180910390a33360009081526003602081905260408220805491929091610f1f908490611d73565b90915550505b3360009081526003602052604081206001908101805491929091610f4a908490611d73565b90915550503360009081526003602052604081206002018054429290610f71908490611d73565b909155505050505050565b6000805460ff166002811115610fa257634e487b7160e01b600052602160045260246000fd5b14610fac57600080fd5b6000805460ff191660011781556040805163e0c8628960e01b815290517f0000000000000000000000000000000000000000000000000000000000000000926001600160a01b0384169263e0c86289926004808301939282900301818387803b15801561101857600080fd5b505af115801561102c573d6000803e3d6000fd5b5050604051636e59b1ad60e01b81527f000000000000000000000000000000000000000000000000000000000000000060048201527f00000000000000000000000000000000000000000000000000000000000000009250600091506001600160a01b03831690636e59b1ad9060240160206040518083038186803b1580156110b457600080fd5b505afa1580156110c8573d6000803e3d6000fd5b505050506040513d601f19601f820116820180604052508101906110ec9190611c8d565b6001549091508082106111d55760005b818110156111d357836001600160a01b031663ee0591fe7f00000000000000000000000000000000000000000000000000000000000000006001848154811061115557634e487b7160e01b600052603260045260246000fd5b60009182526020909120015460405160e084901b6001600160e01b031916815260048101929092526001600160a01b03166024820152604401600060405180830381600087803b1580156111a857600080fd5b505af11580156111bc573d6000803e3d6000fd5b5050505080806111cb90611dd5565b9150506110fc565b505b60405163f052cf9960e01b81527f000000000000000000000000000000000000000000000000000000000000000060048201526001600160a01b0384169063f052cf9990602401600060405180830381600087803b15801561123657600080fd5b505af115801561124a573d6000803e3d6000fd5b505050504266038d7ea4c680006112619190611d73565b60055561126c6114b0565b50505050565b604051636e59b1ad60e01b81527f000000000000000000000000000000000000000000000000000000000000000060048201527f0000000000000000000000000000000000000000000000000000000000000000906000906001600160a01b03831690636e59b1ad9060240160206040518083038186803b1580156112f657600080fd5b505afa15801561130a573d6000803e3d6000fd5b505050506040513d601f19601f8201168201806040525081019061132e9190611c8d565b905060005b818110156113df576000611346826115b5565b604051637702c8ff60e11b81527f000000000000000000000000000000000000000000000000000000000000000060048201526001600160a01b0380831660248301529192509085169063ee0591fe90604401600060405180830381600087803b1580156113b357600080fd5b505af11580156113c7573d6000803e3d6000fd5b505050505080806113d790611dd5565b915050611333565b505050565b604051630ac9d35f60e01b8152600481018290526000907f00000000000000000000000000000000000000000000000000000000000000009082906001600160a01b03831690630ac9d35f9060240160206040518083038186803b15801561144b57600080fd5b505afa15801561145f573d6000803e3d6000fd5b505050506040513d601f19601f820116820180604052508101906114839190611c8d565b905060008160028111156114a757634e487b7160e01b600052602160045260246000fd5b95945050505050565b604051636e59b1ad60e01b81527f000000000000000000000000000000000000000000000000000000000000000060048201527f0000000000000000000000000000000000000000000000000000000000000000906000906001600160a01b03831690636e59b1ad9060240160206040518083038186803b15801561153457600080fd5b505afa158015611548573d6000803e3d6000fd5b505050506040513d601f19601f8201168201806040525081019061156c9190611c8d565b600154909150600061157e8383611df0565b905060008361158d8385611dbe565b6115979190611d8b565b90506115a4848483611652565b6115ae848261174b565b5050505050565b60008181526004602090815260408083208054825181850281018501909352808352849383018282801561161257602002820191906000526020600020905b81546001600160a01b031681526001909101906020018083116115f4575b50505050509050600081519050600061162b8383611843565b90506000611638826118e6565b90506000611647858386611967565b979650505050505050565b6060600082611662600187611dbe565b61166c9190611d9f565b90506000815b85811015611710576001818154811061169b57634e487b7160e01b600052603260045260246000fd5b9060005260206000200160009054906101000a90046001600160a01b03168483815181106116d957634e487b7160e01b600052603260045260246000fd5b6001600160a01b03909216602092830291909101909101526116fc600183611d73565b91508061170881611dd5565b915050611672565b50826004600061172160018a611dbe565b81526020019081526020016000209080519060200190611742929190611b0a565b50505050505050565b60005b611759600184611dbe565b8110156113df576060600061176e8484611d9f565b905060005b8481101561180d5760016117878383611d73565b815481106117a557634e487b7160e01b600052603260045260246000fd5b9060005260206000200160009054906101000a90046001600160a01b03168382815181106117e357634e487b7160e01b600052603260045260246000fd5b6001600160a01b03909216602092830291909101909101528061180581611dd5565b915050611773565b506000838152600460209081526040909120835161182d92850190611b0a565b505050808061183b90611dd5565b91505061174e565b60608060005b838110156118de576003600086838151811061187557634e487b7160e01b600052603260045260246000fd5b60200260200101516001600160a01b03166001600160a01b03168152602001908152602001600020600001548282815181106118c157634e487b7160e01b600052603260045260246000fd5b6020908102919091010152806118d681611dd5565b915050611849565b509392505050565b600080805b8351811015611960578184828151811061191557634e487b7160e01b600052603260045260246000fd5b6020026020010151111561194e5783818151811061194357634e487b7160e01b600052603260045260246000fd5b602002602001015191505b8061195881611dd5565b9150506118eb565b5092915050565b600060608180805b85811015611a2d57600088828151811061199957634e487b7160e01b600052603260045260246000fd5b602002602001015190508760036000836001600160a01b03166001600160a01b03168152602001908152602001600020600001541415611a1a57808584815181106119f457634e487b7160e01b600052603260045260246000fd5b6001600160a01b0390921660209283029190910190910152611a17600184611d73565b92505b5080611a2581611dd5565b91505061196f565b50825160011415611a685782600081518110611a5957634e487b7160e01b600052603260045260246000fd5b60200260200101519150611a74565b611a7183611a7e565b91505b5095945050505050565b60004281805b84518110156118de576000858281518110611aaf57634e487b7160e01b600052603260045260246000fd5b60200260200101519050600060036000836001600160a01b03166001600160a01b0316815260200190815260200160002060020154905084811015611af5578094508193505b50508080611b0290611dd5565b915050611a84565b828054828255906000526020600020908101928215611b5f579160200282015b82811115611b5f57825182546001600160a01b0319166001600160a01b03909116178255602090920191600190910190611b2a565b50611b6b929150611b6f565b5090565b5b80821115611b6b5760008155600101611b70565b600060208284031215611b95578081fd5b81356001600160a01b03811681146108d2578182fd5b600060208284031215611bbc578081fd5b815180151581146108d2578182fd5b600060208284031215611bdc578081fd5b813567ffffffffffffffff80821115611bf3578283fd5b818401915084601f830112611c06578283fd5b813581811115611c1857611c18611e30565b604051601f8201601f19908116603f01168101908382118183101715611c4057611c40611e30565b81604052828152876020848701011115611c58578586fd5b826020860160208301379182016020019490945295945050505050565b600060208284031215611c86578081fd5b5035919050565b600060208284031215611c9e578081fd5b5051919050565b6020810160038310611cc757634e487b7160e01b600052602160045260246000fd5b91905290565b6040808252600390820152623bb4b760e91b6060820152602081019190915260800190565b6040808252600490820152636c6f737360e01b6060820152602081019190915260800190565b828152600060206040818401528351806040850152825b81811015611d4b57858101830151858201606001528201611d2f565b81811115611d5c5783606083870101525b50601f01601f191692909201606001949350505050565b60008219821115611d8657611d86611e04565b500190565b600082611d9a57611d9a611e1a565b500490565b6000816000190483118215151615611db957611db9611e04565b500290565b600082821015611dd057611dd0611e04565b500390565b6000600019821415611de957611de9611e04565b5060010190565b600082611dff57611dff611e1a565b500690565b634e487b7160e01b600052601160045260246000fd5b634e487b7160e01b600052601260045260246000fd5b634e487b7160e01b600052604160045260246000fdfea17f8b350e3cc303626d75275908b42a311c29ea946002f85d057f018e43ced2a26469706673582212200d9d6f69f561868d3a74fde286d515b03d533c23b88bf85decf9ae4616d108bc64736f6c63430008040033",
  "linkReferences": {},
  "deployedLinkReferences": {}
}